{
  "abi": [
    {
      "inputs": [
        {
          "internalType": "address",
          "name": "_owner",
          "type": "address"
        },
        {
          "internalType": "address",
          "name": "_stakedToken",
          "type": "address"
        }
      ],
      "stateMutability": "nonpayable",
      "type": "constructor"
    },
    {
      "inputs": [],
      "name": "CalculationOverflow",
      "type": "error"
    },
    {
      "inputs": [
        {
          "internalType": "address",
          "name": "spender",
          "type": "address"
        },
        {
          "internalType": "uint256",
          "name": "allowance",
          "type": "uint256"
        },
        {
          "internalType": "uint256",
          "name": "needed",
          "type": "uint256"
        }
      ],
      "name": "ERC20InsufficientAllowance",
      "type": "error"
    },
    {
      "inputs": [
        {
          "internalType": "address",
          "name": "sender",
          "type": "address"
        },
        {
          "internalType": "uint256",
          "name": "balance",
          "type": "uint256"
        },
        {
          "internalType": "uint256",
          "name": "needed",
          "type": "uint256"
        }
      ],
      "name": "ERC20InsufficientBalance",
      "type": "error"
    },
    {
      "inputs": [
        {
          "internalType": "address",
          "name": "approver",
          "type": "address"
        }
      ],
      "name": "ERC20InvalidApprover",
      "type": "error"
    },
    {
      "inputs": [
        {
          "internalType": "address",
          "name": "receiver",
          "type": "address"
        }
      ],
      "name": "ERC20InvalidReceiver",
      "type": "error"
    },
    {
      "inputs": [
        {
          "internalType": "address",
          "name": "sender",
          "type": "address"
        }
      ],
      "name": "ERC20InvalidSender",
      "type": "error"
    },
    {
      "inputs": [
        {
          "internalType": "address",
          "name": "spender",
          "type": "address"
        }
      ],
      "name": "ERC20InvalidSpender",
      "type": "error"
    },
    {
      "inputs": [
        {
          "internalType": "uint256",
          "name": "requested",
          "type": "uint256"
        },
        {
          "internalType": "uint256",
          "name": "available",
          "type": "uint256"
        }
      ],
      "name": "ExceedsExchangeLimit",
      "type": "error"
    },
    {
      "inputs": [],
      "name": "ExceedsMaxStake",
      "type": "error"
    },
    {
      "inputs": [
        {
          "internalType": "uint256",
          "name": "requested",
          "type": "uint256"
        },
        {
          "internalType": "uint256",
          "name": "maxSupply",
          "type": "uint256"
        },
        {
          "internalType": "uint256",
          "name": "currentSupply",
          "type": "uint256"
        }
      ],
      "name": "ExceedsMaxSupply",
      "type": "error"
    },
    {
      "inputs": [],
      "name": "ExchangeExpired",
      "type": "error"
    },
    {
      "inputs": [],
      "name": "ExchangeNotYetAvailable",
      "type": "error"
    },
    {
      "inputs": [
        {
          "internalType": "uint256",
          "name": "required",
          "type": "uint256"
        },
        {
          "internalType": "uint256",
          "name": "available",
          "type": "uint256"
        }
      ],
      "name": "InsufficientBalance",
      "type": "error"
    },
    {
      "inputs": [],
      "name": "InvalidAddress",
      "type": "error"
    },
    {
      "inputs": [],
      "name": "InvalidRate",
      "type": "error"
    },
    {
      "inputs": [
        {
          "internalType": "uint256",
          "name": "expected",
          "type": "uint256"
        },
        {
          "internalType": "uint256",
          "name": "actual",
          "type": "uint256"
        }
      ],
      "name": "InvalidReturnDataLength",
      "type": "error"
    },
    {
      "inputs": [],
      "name": "InvalidTransferType",
      "type": "error"
    },
    {
      "inputs": [
        {
          "internalType": "uint256",
          "name": "requiredDays",
          "type": "uint256"
        },
        {
          "internalType": "uint256",
          "name": "elapsedDays",
          "type": "uint256"
        }
      ],
      "name": "LockPeriodNotCompleted",
      "type": "error"
    },
    {
      "inputs": [
        {
          "internalType": "address",
          "name": "user",
          "type": "address"
        }
      ],
      "name": "NoTokensToClaim",
      "type": "error"
    },
    {
      "inputs": [],
      "name": "NoUnstakeRequest",
      "type": "error"
    },
    {
      "inputs": [],
      "name": "NotAuthorized",
      "type": "error"
    },
    {
      "inputs": [],
      "name": "PausedContract",
      "type": "error"
    },
    {
      "inputs": [],
      "name": "TRXTransferRejected",
      "type": "error"
    },
    {
      "inputs": [
        {
          "internalType": "uint256",
          "name": "amount",
          "type": "uint256"
        }
      ],
      "name": "TransferFailed",
      "type": "error"
    },
    {
      "inputs": [],
      "name": "ZeroAmount",
      "type": "error"
    },
    {
      "anonymous": false,
      "inputs": [
        {
          "indexed": true,
          "internalType": "address",
          "name": "owner",
          "type": "address"
        },
        {
          "indexed": true,
          "internalType": "address",
          "name": "spender",
          "type": "address"
        },
        {
          "indexed": false,
          "internalType": "uint256",
          "name": "value",
          "type": "uint256"
        }
      ],
      "name": "Approval",
      "type": "event"
    },
    {
      "anonymous": false,
      "inputs": [
        {
          "indexed": true,
          "internalType": "address",
          "name": "user",
          "type": "address"
        },
        {
          "indexed": false,
          "internalType": "uint256",
          "name": "amount",
          "type": "uint256"
        }
      ],
      "name": "Burnt",
      "type": "event"
    },
    {
      "anonymous": false,
      "inputs": [
        {
          "indexed": true,
          "internalType": "address",
          "name": "contributor",
          "type": "address"
        },
        {
          "indexed": true,
          "internalType": "uint256",
          "name": "proposalId",
          "type": "uint256"
        },
        {
          "indexed": false,
          "internalType": "uint256",
          "name": "amount",
          "type": "uint256"
        },
        {
          "indexed": false,
          "internalType": "string",
          "name": "description",
          "type": "string"
        }
      ],
      "name": "ContributorRewardMinted",
      "type": "event"
    },
    {
      "anonymous": false,
      "inputs": [
        {
          "indexed": true,
          "internalType": "enum FairStakeToken.FunctionModule",
          "name": "module",
          "type": "uint8"
        },
        {
          "indexed": true,
          "internalType": "address",
          "name": "account",
          "type": "address"
        }
      ],
      "name": "ModulePaused",
      "type": "event"
    },
    {
      "anonymous": false,
      "inputs": [
        {
          "indexed": true,
          "internalType": "enum FairStakeToken.FunctionModule",
          "name": "module",
          "type": "uint8"
        },
        {
          "indexed": true,
          "internalType": "address",
          "name": "account",
          "type": "address"
        }
      ],
      "name": "ModuleUnpaused",
      "type": "event"
    },
    {
      "anonymous": false,
      "inputs": [
        {
          "indexed": true,
          "internalType": "address",
          "name": "account",
          "type": "address"
        }
      ],
      "name": "Paused",
      "type": "event"
    },
    {
      "anonymous": false,
      "inputs": [
        {
          "indexed": true,
          "internalType": "address",
          "name": "user",
          "type": "address"
        },
        {
          "indexed": false,
          "internalType": "uint256",
          "name": "amount",
          "type": "uint256"
        }
      ],
      "name": "RewardClaimed",
      "type": "event"
    },
    {
      "anonymous": false,
      "inputs": [
        {
          "indexed": true,
          "internalType": "address",
          "name": "user",
          "type": "address"
        },
        {
          "indexed": false,
          "internalType": "uint256",
          "name": "amount",
          "type": "uint256"
        }
      ],
      "name": "Staked",
      "type": "event"
    },
    {
      "anonymous": false,
      "inputs": [
        {
          "indexed": true,
          "internalType": "address",
          "name": "tokenAddress",
          "type": "address"
        },
        {
          "indexed": false,
          "internalType": "uint88",
          "name": "rateNumerator",
          "type": "uint88"
        },
        {
          "indexed": false,
          "internalType": "uint88",
          "name": "rateDenominator",
          "type": "uint88"
        },
        {
          "indexed": false,
          "internalType": "uint256",
          "name": "maxExchangeAmount",
          "type": "uint256"
        }
      ],
      "name": "TokenExchangeRateSet",
      "type": "event"
    },
    {
      "anonymous": false,
      "inputs": [
        {
          "indexed": true,
          "internalType": "address",
          "name": "user",
          "type": "address"
        },
        {
          "indexed": true,
          "internalType": "address",
          "name": "tokenAddress",
          "type": "address"
        },
        {
          "indexed": false,
          "internalType": "uint256",
          "name": "frAmount",
          "type": "uint256"
        },
        {
          "indexed": false,
          "internalType": "uint256",
          "name": "tokenAmount",
          "type": "uint256"
        }
      ],
      "name": "TokenExchanged",
      "type": "event"
    },
    {
      "anonymous": false,
      "inputs": [
        {
          "indexed": true,
          "internalType": "address",
          "name": "from",
          "type": "address"
        },
        {
          "indexed": true,
          "internalType": "address",
          "name": "to",
          "type": "address"
        },
        {
          "indexed": false,
          "internalType": "uint256",
          "name": "value",
          "type": "uint256"
        }
      ],
      "name": "Transfer",
      "type": "event"
    },
    {
      "anonymous": false,
      "inputs": [
        {
          "indexed": true,
          "internalType": "address",
          "name": "account",
          "type": "address"
        }
      ],
      "name": "Unpaused",
      "type": "event"
    },
    {
      "anonymous": false,
      "inputs": [
        {
          "indexed": true,
          "internalType": "address",
          "name": "user",
          "type": "address"
        },
        {
          "indexed": false,
          "internalType": "uint256",
          "name": "amount",
          "type": "uint256"
        },
        {
          "indexed": false,
          "internalType": "uint64",
          "name": "waitDays",
          "type": "uint64"
        }
      ],
      "name": "UnstakeRequested",
      "type": "event"
    },
    {
      "anonymous": false,
      "inputs": [
        {
          "indexed": true,
          "internalType": "address",
          "name": "user",
          "type": "address"
        },
        {
          "indexed": false,
          "internalType": "uint256",
          "name": "amount",
          "type": "uint256"
        },
        {
          "indexed": false,
          "internalType": "uint256",
          "name": "fee",
          "type": "uint256"
        }
      ],
      "name": "Unstaked",
      "type": "event"
    },
    {
      "inputs": [
        {
          "internalType": "address",
          "name": "owner",
          "type": "address"
        },
        {
          "internalType": "address",
          "name": "spender",
          "type": "address"
        }
      ],
      "name": "allowance",
      "outputs": [
        {
          "internalType": "uint256",
          "name": "",
          "type": "uint256"
        }
      ],
      "stateMutability": "view",
      "type": "function"
    },
    {
      "inputs": [
        {
          "internalType": "address",
          "name": "spender",
          "type": "address"
        },
        {
          "internalType": "uint256",
          "name": "value",
          "type": "uint256"
        }
      ],
      "name": "approve",
      "outputs": [
        {
          "internalType": "bool",
          "name": "",
          "type": "bool"
        }
      ],
      "stateMutability": "nonpayable",
      "type": "function"
    },
    {
      "inputs": [
        {
          "internalType": "address",
          "name": "account",
          "type": "address"
        }
      ],
      "name": "balanceOf",
      "outputs": [
        {
          "internalType": "uint256",
          "name": "",
          "type": "uint256"
        }
      ],
      "stateMutability": "view",
      "type": "function"
    },
    {
      "inputs": [
        {
          "internalType": "uint256",
          "name": "amount",
          "type": "uint256"
        }
      ],
      "name": "burn",
      "outputs": [],
      "stateMutability": "nonpayable",
      "type": "function"
    },
    {
      "inputs": [
        {
          "internalType": "address",
          "name": "user",
          "type": "address"
        }
      ],
      "name": "calculateEarnedTokens",
      "outputs": [
        {
          "internalType": "uint256",
          "name": "",
          "type": "uint256"
        }
      ],
      "stateMutability": "view",
      "type": "function"
    },
    {
      "inputs": [
        {
          "internalType": "address",
          "name": "account",
          "type": "address"
        }
      ],
      "name": "checkIsOwner",
      "outputs": [
        {
          "internalType": "bool",
          "name": "",
          "type": "bool"
        }
      ],
      "stateMutability": "view",
      "type": "function"
    },
    {
      "inputs": [],
      "name": "claimReward",
      "outputs": [
        {
          "internalType": "bool",
          "name": "",
          "type": "bool"
        }
      ],
      "stateMutability": "nonpayable",
      "type": "function"
    },
    {
      "inputs": [],
      "name": "decimals",
      "outputs": [
        {
          "internalType": "uint8",
          "name": "",
          "type": "uint8"
        }
      ],
      "stateMutability": "view",
      "type": "function"
    },
    {
      "inputs": [
        {
          "internalType": "address",
          "name": "tokenAddress",
          "type": "address"
        },
        {
          "internalType": "uint256",
          "name": "frAmount",
          "type": "uint256"
        }
      ],
      "name": "exchangeFRForToken",
      "outputs": [
        {
          "internalType": "uint256",
          "name": "",
          "type": "uint256"
        }
      ],
      "stateMutability": "nonpayable",
      "type": "function"
    },
    {
      "inputs": [
        {
          "internalType": "uint256",
          "name": "amount",
          "type": "uint256"
        }
      ],
      "name": "getRate",
      "outputs": [
        {
          "internalType": "uint256",
          "name": "",
          "type": "uint256"
        }
      ],
      "stateMutability": "pure",
      "type": "function"
    },
    {
      "inputs": [
        {
          "internalType": "address",
          "name": "_user",
          "type": "address"
        }
      ],
      "name": "getUserStakeInfo",
      "outputs": [
        {
          "internalType": "uint256",
          "name": "amount",
          "type": "uint256"
        },
        {
          "internalType": "uint64",
          "name": "startTime",
          "type": "uint64"
        },
        {
          "internalType": "uint64",
          "name": "lastClaimed",
          "type": "uint64"
        },
        {
          "internalType": "uint256",
          "name": "unstakeRequestAmount",
          "type": "uint256"
        },
        {
          "internalType": "uint64",
          "name": "unstakeRequestTime",
          "type": "uint64"
        },
        {
          "internalType": "uint64",
          "name": "unstakeWaitDays",
          "type": "uint64"
        }
      ],
      "stateMutability": "view",
      "type": "function"
    },
    {
      "inputs": [
        {
          "internalType": "address",
          "name": "contributor",
          "type": "address"
        },
        {
          "internalType": "uint256",
          "name": "proposalId",
          "type": "uint256"
        },
        {
          "internalType": "uint256",
          "name": "amount",
          "type": "uint256"
        },
        {
          "internalType": "string",
          "name": "description",
          "type": "string"
        }
      ],
      "name": "mintContributorReward",
      "outputs": [
        {
          "internalType": "bool",
          "name": "",
          "type": "bool"
        }
      ],
      "stateMutability": "nonpayable",
      "type": "function"
    },
    {
      "inputs": [],
      "name": "name",
      "outputs": [
        {
          "internalType": "string",
          "name": "",
          "type": "string"
        }
      ],
      "stateMutability": "view",
      "type": "function"
    },
    {
      "inputs": [],
      "name": "owner",
      "outputs": [
        {
          "internalType": "address",
          "name": "",
          "type": "address"
        }
      ],
      "stateMutability": "view",
      "type": "function"
    },
    {
      "inputs": [],
      "name": "pause",
      "outputs": [],
      "stateMutability": "nonpayable",
      "type": "function"
    },
    {
      "inputs": [
        {
          "internalType": "enum FairStakeToken.FunctionModule",
          "name": "module",
          "type": "uint8"
        }
      ],
      "name": "pauseModule",
      "outputs": [],
      "stateMutability": "nonpayable",
      "type": "function"
    },
    {
      "inputs": [],
      "name": "paused",
      "outputs": [
        {
          "internalType": "bool",
          "name": "",
          "type": "bool"
        }
      ],
      "stateMutability": "view",
      "type": "function"
    },
    {
      "inputs": [
        {
          "internalType": "enum FairStakeToken.FunctionModule",
          "name": "",
          "type": "uint8"
        }
      ],
      "name": "pausedModules",
      "outputs": [
        {
          "internalType": "bool",
          "name": "",
          "type": "bool"
        }
      ],
      "stateMutability": "view",
      "type": "function"
    },
    {
      "inputs": [],
      "name": "renounceOwnership",
      "outputs": [],
      "stateMutability": "nonpayable",
      "type": "function"
    },
    {
      "inputs": [
        {
          "internalType": "uint256",
          "name": "amount",
          "type": "uint256"
        },
        {
          "internalType": "uint64",
          "name": "waitDays",
          "type": "uint64"
        }
      ],
      "name": "requestUnstake",
      "outputs": [
        {
          "internalType": "bool",
          "name": "",
          "type": "bool"
        }
      ],
      "stateMutability": "nonpayable",
      "type": "function"
    },
    {
      "inputs": [
        {
          "internalType": "address",
          "name": "tokenAddress",
          "type": "address"
        },
        {
          "internalType": "uint88",
          "name": "rateNumerator",
          "type": "uint88"
        },
        {
          "internalType": "uint88",
          "name": "rateDenominator",
          "type": "uint88"
        },
        {
          "internalType": "uint256",
          "name": "maxExchangeAmount",
          "type": "uint256"
        },
        {
          "internalType": "uint8",
          "name": "transferType",
          "type": "uint8"
        },
        {
          "internalType": "uint8",
          "name": "durationWeeks",
          "type": "uint8"
        }
      ],
      "name": "setTokenExchangeRate",
      "outputs": [
        {
          "internalType": "bool",
          "name": "",
          "type": "bool"
        }
      ],
      "stateMutability": "nonpayable",
      "type": "function"
    },
    {
      "inputs": [
        {
          "internalType": "uint256",
          "name": "amount",
          "type": "uint256"
        }
      ],
      "name": "stake",
      "outputs": [
        {
          "internalType": "bool",
          "name": "",
          "type": "bool"
        }
      ],
      "stateMutability": "nonpayable",
      "type": "function"
    },
    {
      "inputs": [],
      "name": "stakedToken",
      "outputs": [
        {
          "internalType": "contract IERC20",
          "name": "",
          "type": "address"
        }
      ],
      "stateMutability": "view",
      "type": "function"
    },
    {
      "inputs": [],
      "name": "symbol",
      "outputs": [
        {
          "internalType": "string",
          "name": "",
          "type": "string"
        }
      ],
      "stateMutability": "view",
      "type": "function"
    },
    {
      "inputs": [
        {
          "internalType": "address",
          "name": "",
          "type": "address"
        }
      ],
      "name": "tokenExchangeInfo",
      "outputs": [
        {
          "internalType": "uint256",
          "name": "remainingExchangeAmount",
          "type": "uint256"
        },
        {
          "internalType": "uint88",
          "name": "rateNumerator",
          "type": "uint88"
        },
        {
          "internalType": "uint88",
          "name": "rateDenominator",
          "type": "uint88"
        },
        {
          "internalType": "uint64",
          "name": "startTime",
          "type": "uint64"
        },
        {
          "internalType": "uint8",
          "name": "exchangeDurationWeeks",
          "type": "uint8"
        },
        {
          "internalType": "uint8",
          "name": "transferType",
          "type": "uint8"
        }
      ],
      "stateMutability": "view",
      "type": "function"
    },
    {
      "inputs": [],
      "name": "totalStaked",
      "outputs": [
        {
          "internalType": "uint256",
          "name": "",
          "type": "uint256"
        }
      ],
      "stateMutability": "view",
      "type": "function"
    },
    {
      "inputs": [],
      "name": "totalSupply",
      "outputs": [
        {
          "internalType": "uint256",
          "name": "",
          "type": "uint256"
        }
      ],
      "stateMutability": "view",
      "type": "function"
    },
    {
      "inputs": [],
      "name": "totalUnstaking",
      "outputs": [
        {
          "internalType": "uint256",
          "name": "",
          "type": "uint256"
        }
      ],
      "stateMutability": "view",
      "type": "function"
    },
    {
      "inputs": [
        {
          "internalType": "address",
          "name": "to",
          "type": "address"
        },
        {
          "internalType": "uint256",
          "name": "value",
          "type": "uint256"
        }
      ],
      "name": "transfer",
      "outputs": [
        {
          "internalType": "bool",
          "name": "",
          "type": "bool"
        }
      ],
      "stateMutability": "nonpayable",
      "type": "function"
    },
    {
      "inputs": [
        {
          "internalType": "address",
          "name": "from",
          "type": "address"
        },
        {
          "internalType": "address",
          "name": "to",
          "type": "address"
        },
        {
          "internalType": "uint256",
          "name": "value",
          "type": "uint256"
        }
      ],
      "name": "transferFrom",
      "outputs": [
        {
          "internalType": "bool",
          "name": "",
          "type": "bool"
        }
      ],
      "stateMutability": "nonpayable",
      "type": "function"
    },
    {
      "inputs": [
        {
          "internalType": "address",
          "name": "_newOwner",
          "type": "address"
        }
      ],
      "name": "transferOwnership",
      "outputs": [],
      "stateMutability": "nonpayable",
      "type": "function"
    },
    {
      "inputs": [],
      "name": "unpause",
      "outputs": [],
      "stateMutability": "nonpayable",
      "type": "function"
    },
    {
      "inputs": [
        {
          "internalType": "enum FairStakeToken.FunctionModule",
          "name": "module",
          "type": "uint8"
        }
      ],
      "name": "unpauseModule",
      "outputs": [],
      "stateMutability": "nonpayable",
      "type": "function"
    },
    {
      "inputs": [],
      "name": "unstake",
      "outputs": [
        {
          "internalType": "bool",
          "name": "",
          "type": "bool"
        }
      ],
      "stateMutability": "nonpayable",
      "type": "function"
    },
    {
      "stateMutability": "payable",
      "type": "receive"
    }
  ],
  "devdoc": {
    "details": "ERC20 token implementation with staking functionality, token exchange, and reward mechanisms",
    "errors": {
      "ERC20InsufficientAllowance(address,uint256,uint256)": [
        {
          "details": "Indicates a failure with the `spender`’s `allowance`. Used in transfers.",
          "params": {
            "allowance": "Amount of tokens a `spender` is allowed to operate with.",
            "needed": "Minimum amount required to perform a transfer.",
            "spender": "Address that may be allowed to operate on tokens without being their owner."
          }
        }
      ],
      "ERC20InsufficientBalance(address,uint256,uint256)": [
        {
          "details": "Indicates an error related to the current `balance` of a `sender`. Used in transfers.",
          "params": {
            "balance": "Current balance for the interacting account.",
            "needed": "Minimum amount required to perform a transfer.",
            "sender": "Address whose tokens are being transferred."
          }
        }
      ],
      "ERC20InvalidApprover(address)": [
        {
          "details": "Indicates a failure with the `approver` of a token to be approved. Used in approvals.",
          "params": {
            "approver": "Address initiating an approval operation."
          }
        }
      ],
      "ERC20InvalidReceiver(address)": [
        {
          "details": "Indicates a failure with the token `receiver`. Used in transfers.",
          "params": {
            "receiver": "Address to which tokens are being transferred."
          }
        }
      ],
      "ERC20InvalidSender(address)": [
        {
          "details": "Indicates a failure with the token `sender`. Used in transfers.",
          "params": {
            "sender": "Address whose tokens are being transferred."
          }
        }
      ],
      "ERC20InvalidSpender(address)": [
        {
          "details": "Indicates a failure with the `spender` to be approved. Used in approvals.",
          "params": {
            "spender": "Address that may be allowed to operate on tokens without being their owner."
          }
        }
      ],
      "InsufficientBalance(uint256,uint256)": [
        {
          "details": "Error definitions - Comprehensive error types for precise error handling"
        }
      ]
    },
    "events": {
      "Approval(address,address,uint256)": {
        "details": "Emitted when the allowance of a `spender` for an `owner` is set by a call to {approve}. `value` is the new allowance."
      },
      "Transfer(address,address,uint256)": {
        "details": "Emitted when `value` tokens are moved from one account (`from`) to another (`to`). Note that `value` may be zero."
      }
    },
    "kind": "dev",
    "methods": {
      "allowance(address,address)": {
        "details": "Returns the remaining number of tokens that `spender` will be allowed to spend on behalf of `owner` through {transferFrom}. This is zero by default. This value changes when {approve} or {transferFrom} are called."
      },
      "approve(address,uint256)": {
        "details": "See {IERC20-approve}. NOTE: If `value` is the maximum `uint256`, the allowance is not updated on `transferFrom`. This is semantically equivalent to an infinite approval. Requirements: - `spender` cannot be the zero address."
      },
      "balanceOf(address)": {
        "details": "Returns the value of tokens owned by `account`."
      },
      "burn(uint256)": {
        "details": "Burn tokens from sender's balance",
        "params": {
          "amount": "Amount of tokens to burn  Requirements: - Contract must not be paused - Amount must be greater than zero - User must have sufficient balance"
        }
      },
      "calculateEarnedTokens(address)": {
        "details": "Calculate unclaimed Fair Reward Token (FR) based on staked amount and time",
        "params": {
          "user": "User address to calculate earned tokens for"
        },
        "returns": {
          "_0": "Amount of earned FR tokens  Calculation formula: (stakeAmount * timeElapsed * getRate()) / (1 days * 3650000) - Uses time-weighted calculation with rate based on stake amount - Caps timeElapsed at 90 days to prevent excessive reward accumulation - Includes overflow protection for all arithmetic operations"
        }
      },
      "checkIsOwner(address)": {
        "details": "Check if an address is the contract owner",
        "params": {
          "account": "Address to check"
        },
        "returns": {
          "_0": "Boolean indicating if the address is the owner"
        }
      },
      "claimReward()": {
        "details": "Claim earned FR without unstaking",
        "returns": {
          "_0": "Boolean indicating success of the operation"
        }
      },
      "constructor": {
        "details": "Sets up the Fair Stake Token with reference to the staked token contract",
        "params": {
          "_owner": "Address of the contract owner",
          "_stakedToken": "Address of the ERC20 token that users will stake to earn rewards  Requirements: - `_owner` must not be the zero address - `_stakedToken` must not be the zero address"
        }
      },
      "decimals()": {
        "details": "Returns the number of decimals used to get its user representation",
        "returns": {
          "_0": "18 decimals"
        }
      },
      "exchangeFRForToken(address,uint256)": {
        "details": "Exchange FR tokens for other tokens by burning",
        "params": {
          "frAmount": "Amount of FR tokens to burn",
          "tokenAddress": "Address of token to receive"
        },
        "returns": {
          "_0": "Amount of tokens received  Requirements: - Contract must not be paused - Token address must not be zero - FR amount must be greater than zero - Exchange rate must be set (numerator and denominator > 0) - Exchange period must be active (not expired and started) - Requested amount must not exceed available exchange limit  Effects: - Burns FR tokens from user balance - Transfers requested tokens to user - Updates remaining exchange amount"
        }
      },
      "getRate(uint256)": {
        "details": "Calculate stake reward rate based on staked amount",
        "params": {
          "amount": "Amount of staked tokens"
        },
        "returns": {
          "_0": "Reward rate (ranging from 100 to 500)  Rate calculation rules: - Minimum rate: 100 (when stake amount is small) - Rate increases up to 200 linearly - Above 200, rate increases logarithmically (divided by 10 for each additional unit) - Maximum rate: 500 (caps at the upper limit)"
        }
      },
      "getUserStakeInfo(address)": {
        "details": "Returns complete staking data for a user",
        "params": {
          "_user": "User address to query stake information for"
        },
        "returns": {
          "amount": "Total tokens currently staked",
          "lastClaimed": "Timestamp when rewards were last claimed",
          "startTime": "Timestamp when staking began (first stake)",
          "unstakeRequestAmount": "Amount of tokens currently in unstaking process",
          "unstakeRequestTime": "Timestamp when unstake was requested"
        }
      },
      "mintContributorReward(address,uint256,uint256,string)": {
        "details": "Mint Fair Reward Token (FR) as rewards for contributors",
        "params": {
          "amount": "Amount of FR tokens to mint as reward",
          "contributor": "Address of the contributor to receive rewards",
          "description": "Brief description of the contribution",
          "proposalId": "ID of the proposal related to this contribution"
        },
        "returns": {
          "_0": "Boolean indicating success of the operation  Requirements: - Caller must be the contract owner - Contract must not be paused - Contributor address must not be zero - Reward amount must be greater than zero - Minting must not exceed maximum supply"
        }
      },
      "name()": {
        "details": "Returns the name of the token."
      },
      "pause()": {
        "details": "Pause contract operations"
      },
      "pauseModule(uint8)": {
        "details": "Pause a specific function module",
        "params": {
          "module": "The function module to pause"
        }
      },
      "renounceOwnership()": {
        "details": "Renounce ownership of the contract  Requirements: - Caller must be the current owner"
      },
      "requestUnstake(uint256,uint64)": {
        "details": "Initiates the unstaking process which requires waiting before final withdrawal",
        "params": {
          "amount": "Amount of tokens to unstake",
          "waitDays": "Optional wait period in days (min: 1, max: 60)"
        },
        "returns": {
          "_0": "Boolean indicating success of the operation  Requirements: - Caller must have sufficient staked balance - `amount` must be greater than zero - `waitDays` must be between 1 and 60 (defaults to 30 if 0) - Contract and UNSTAKE module must not be paused  Effects: - Updates user stake and unstake request information - Transfers amount from staked to unstaking state - Automatically mints any pending rewards"
        }
      },
      "setTokenExchangeRate(address,uint88,uint88,uint256,uint8,uint8)": {
        "details": "Set exchange rate (as numerator/denominator), max exchange amount and transfer type for a token",
        "params": {
          "durationWeeks": "Exchange duration in weeks (use 255 for unlimited duration)",
          "maxExchangeAmount": "Maximum exchange amount for this token (in target token units)",
          "rateDenominator": "Denominator of the exchange rate, represents the FR token amount factor",
          "rateNumerator": "Numerator of the exchange rate, represents the target token amount factor",
          "tokenAddress": "Address of the token to set rate for",
          "transferType": "Token transfer type (0 for functions returning boolean, 1 for functions with no return value)"
        },
        "returns": {
          "_0": "Boolean indicating success of the operation  Requirements: - Caller must be the contract owner - Token address must not be zero or this contract - Exchange rate must be valid (numerator and denominator > 0) - Max exchange amount must be greater than zero - Transfer type must be 0 or 1 - Duration must be at least 1 week (or 255 for unlimited)"
        }
      },
      "stake(uint256)": {
        "details": "Allows users to stake their tokens in exchange for future rewards",
        "params": {
          "amount": "Amount of tokens to stake"
        },
        "returns": {
          "_0": "Boolean indicating success of the operation  Requirements: - Caller must have approved at least `amount` tokens for transfer - `amount` must be greater than zero - Contract and STAKE module must not be paused  Effects: - Transfers tokens from user to contract - Updates user stake information - Calculates and mints any pending rewards automatically"
        }
      },
      "symbol()": {
        "details": "Returns the symbol of the token, usually a shorter version of the name."
      },
      "totalSupply()": {
        "details": "Returns the value of tokens in existence."
      },
      "transfer(address,uint256)": {
        "details": "See {IERC20-transfer}. Requirements: - `to` cannot be the zero address. - the caller must have a balance of at least `value`."
      },
      "transferFrom(address,address,uint256)": {
        "details": "See {IERC20-transferFrom}. Skips emitting an {Approval} event indicating an allowance update. This is not required by the ERC. See {xref-ERC20-_approve-address-address-uint256-bool-}[_approve]. NOTE: Does not update the allowance if the current allowance is the maximum `uint256`. Requirements: - `from` and `to` cannot be the zero address. - `from` must have a balance of at least `value`. - the caller must have allowance for ``from``'s tokens of at least `value`."
      },
      "transferOwnership(address)": {
        "details": "Transfer ownership of the contract to a new account",
        "params": {
          "_newOwner": "Address of the new owner  Requirements: - Caller must be the current owner - `_newOwner` must not be the zero address"
        }
      },
      "unpause()": {
        "details": "Resume contract operations"
      },
      "unpauseModule(uint8)": {
        "details": "Resume a specific function module",
        "params": {
          "module": "The function module to resume"
        }
      },
      "unstake()": {
        "details": "Complete unstake after specified wait period",
        "returns": {
          "_0": "Boolean indicating success of the operation  Fee calculation rules: - 0% fee if wait period ≥ 60 days - 0.2% fee per day less than 60 days (e.g., 59 days = 0.2% fee, 58 days = 0.4% fee, etc.)  Requirements: - Contract must not be paused - User must have an active unstake request - Unstake wait period must be completed  Effects: - Calculates and deducts any applicable fee - Updates user stake information - Transfers tokens to user (minus fee)"
        }
      }
    },
    "stateVariables": {
      "MAX_SUPPLY": {
        "details": "Maximum supply of FR tokens"
      },
      "STAKE_RATE_BASE": {
        "details": "Base rate for stake reward calculations"
      },
      "TOKEN_PRECISION": {
        "details": "Standard token precision"
      },
      "_entered": {
        "details": "Reentrancy guard state variable"
      },
      "paused": {
        "details": "Contract operation state"
      },
      "pausedModules": {
        "details": "Mapping to store pause state for each function module"
      },
      "stakedToken": {
        "details": "Immutable addresses (set during construction)"
      },
      "tokenExchangeInfo": {
        "details": "Token exchange details mapping"
      },
      "totalStaked": {
        "details": "Total amount of tokens currently staked"
      },
      "totalUnstaking": {
        "details": "Total amount of tokens in the unstaking period"
      }
    },
    "title": "Fair Reward Token (FR)",
    "version": 1
  },
  "evm": {
    "assembly": "    /* \"FairStakeToken.sol\":261:34708  contract FairStakeToken is ERC20 {... */\n  mstore(0x40, 0xa0)\n    /* \"FairStakeToken.sol\":9760:10123  constructor(address _owner, address _stakedToken) ERC20(\"Fair Reward Token\", \"FR\") {... */\n  callvalue\n  dup1\n  iszero\n  tag_1\n  jumpi\n  0x00\n  dup1\n  revert\ntag_1:\n  pop\n  mload(0x40)\n  sub(codesize, bytecodeSize)\n  dup1\n  bytecodeSize\n  dup4\n  codecopy\n  dup2\n  add\n  0x40\n  dup2\n  swap1\n  mstore\n  tag_2\n  swap2\n  tag_3\n  jump\t// in\ntag_2:\n    /* \"@openzeppelin/contracts/token/ERC20/ERC20.sol\":1582:1695   */\n  mload(0x40)\n  dup1\n  0x40\n  add\n  0x40\n  mstore\n  dup1\n  0x11\n  dup2\n  mstore\n  0x20\n  add\n  shl(0x79, 0x2330b4b9102932bbb0b932102a37b5b2b7)\n  dup2\n  mstore\n  pop\n  mload(0x40)\n  dup1\n  0x40\n  add\n  0x40\n  mstore\n  dup1\n  0x02\n  dup2\n  mstore\n  0x20\n  add\n  shl(0xf1, 0x2329)\n  dup2\n  mstore\n  pop\n    /* \"@openzeppelin/contracts/token/ERC20/ERC20.sol\":1656:1661   */\n  dup2\n    /* \"@openzeppelin/contracts/token/ERC20/ERC20.sol\":1648:1653   */\n  0x03\n    /* \"@openzeppelin/contracts/token/ERC20/ERC20.sol\":1648:1661   */\n  swap1\n  dup2\n  tag_7\n  swap2\n  swap1\n  tag_8\n  jump\t// in\ntag_7:\n  pop\n    /* \"@openzeppelin/contracts/token/ERC20/ERC20.sol\":1671:1678   */\n  0x04\n    /* \"@openzeppelin/contracts/token/ERC20/ERC20.sol\":1671:1688   */\n  tag_9\n    /* \"@openzeppelin/contracts/token/ERC20/ERC20.sol\":1681:1688   */\n  dup3\n    /* \"@openzeppelin/contracts/token/ERC20/ERC20.sol\":1671:1678   */\n  dup3\n    /* \"@openzeppelin/contracts/token/ERC20/ERC20.sol\":1671:1688   */\n  tag_8\n  jump\t// in\ntag_9:\n  pop\n  pop\n  pop\n  sub(shl(0xa0, 0x01), 0x01)\n    /* \"FairStakeToken.sol\":9886:9906  _owner == address(0) */\n  dup3\n  and\n    /* \"FairStakeToken.sol\":9882:9931  if (_owner == address(0)) revert InvalidAddress() */\n  tag_11\n  jumpi\n    /* \"FairStakeToken.sol\":9915:9931  InvalidAddress() */\n  mload(0x40)\n  shl(0xe0, 0xe6c4247b)\n  dup2\n  mstore\n  0x04\n  add\n  mload(0x40)\n  dup1\n  swap2\n  sub\n  swap1\n  revert\n    /* \"FairStakeToken.sol\":9882:9931  if (_owner == address(0)) revert InvalidAddress() */\ntag_11:\n  sub(shl(0xa0, 0x01), 0x01)\n    /* \"FairStakeToken.sol\":9945:9971  _stakedToken == address(0) */\n  dup2\n  and\n    /* \"FairStakeToken.sol\":9941:9996  if (_stakedToken == address(0)) revert InvalidAddress() */\n  tag_12\n  jumpi\n    /* \"FairStakeToken.sol\":9980:9996  InvalidAddress() */\n  mload(0x40)\n  shl(0xe0, 0xe6c4247b)\n  dup2\n  mstore\n  0x04\n  add\n  mload(0x40)\n  dup1\n  swap2\n  sub\n  swap1\n  revert\n    /* \"FairStakeToken.sol\":9941:9996  if (_stakedToken == address(0)) revert InvalidAddress() */\ntag_12:\n    /* \"FairStakeToken.sol\":10058:10063  owner */\n  0x05\n    /* \"FairStakeToken.sol\":10058:10072  owner = _owner */\n  dup1\n  sload\n  not(sub(shl(0xa0, 0x01), 0x01))\n  and\n  sub(shl(0xa0, 0x01), 0x01)\n  swap4\n  dup5\n  and\n  or\n  swap1\n  sstore\n    /* \"FairStakeToken.sol\":10082:10116  stakedToken = IERC20(_stakedToken) */\n  and\n  0x80\n  mstore\n    /* \"FairStakeToken.sol\":261:34708  contract FairStakeToken is ERC20 {... */\n  jump(tag_20)\n    /* \"#utility.yul\":14:191   */\ntag_14:\n    /* \"#utility.yul\":93:106   */\n  dup1\n  mload\n  sub(shl(0xa0, 0x01), 0x01)\n    /* \"#utility.yul\":135:166   */\n  dup2\n  and\n    /* \"#utility.yul\":125:167   */\n  dup2\n  eq\n    /* \"#utility.yul\":115:185   */\n  tag_22\n  jumpi\n    /* \"#utility.yul\":181:182   */\n  0x00\n    /* \"#utility.yul\":178:179   */\n  dup1\n    /* \"#utility.yul\":171:183   */\n  revert\n    /* \"#utility.yul\":115:185   */\ntag_22:\n    /* \"#utility.yul\":14:191   */\n  swap2\n  swap1\n  pop\n  jump\t// out\n    /* \"#utility.yul\":196:489   */\ntag_3:\n    /* \"#utility.yul\":275:281   */\n  0x00\n    /* \"#utility.yul\":283:289   */\n  dup1\n    /* \"#utility.yul\":336:338   */\n  0x40\n    /* \"#utility.yul\":324:333   */\n  dup4\n    /* \"#utility.yul\":315:322   */\n  dup6\n    /* \"#utility.yul\":311:334   */\n  sub\n    /* \"#utility.yul\":307:339   */\n  slt\n    /* \"#utility.yul\":304:356   */\n  iszero\n  tag_24\n  jumpi\n    /* \"#utility.yul\":352:353   */\n  0x00\n    /* \"#utility.yul\":349:350   */\n  dup1\n    /* \"#utility.yul\":342:354   */\n  revert\n    /* \"#utility.yul\":304:356   */\ntag_24:\n    /* \"#utility.yul\":375:415   */\n  tag_25\n    /* \"#utility.yul\":405:414   */\n  dup4\n    /* \"#utility.yul\":375:415   */\n  tag_14\n  jump\t// in\ntag_25:\n    /* \"#utility.yul\":365:415   */\n  swap2\n  pop\n    /* \"#utility.yul\":434:483   */\n  tag_26\n    /* \"#utility.yul\":479:481   */\n  0x20\n    /* \"#utility.yul\":468:477   */\n  dup5\n    /* \"#utility.yul\":464:482   */\n  add\n    /* \"#utility.yul\":434:483   */\n  tag_14\n  jump\t// in\ntag_26:\n    /* \"#utility.yul\":424:483   */\n  swap1\n  pop\n    /* \"#utility.yul\":196:489   */\n  swap3\n  pop\n  swap3\n  swap1\n  pop\n  jump\t// out\n    /* \"#utility.yul\":494:621   */\ntag_15:\n    /* \"#utility.yul\":555:565   */\n  0x4e487b71\n    /* \"#utility.yul\":550:553   */\n  0xe0\n    /* \"#utility.yul\":546:566   */\n  shl\n    /* \"#utility.yul\":543:544   */\n  0x00\n    /* \"#utility.yul\":536:567   */\n  mstore\n    /* \"#utility.yul\":586:590   */\n  0x41\n    /* \"#utility.yul\":583:584   */\n  0x04\n    /* \"#utility.yul\":576:591   */\n  mstore\n    /* \"#utility.yul\":610:614   */\n  0x24\n    /* \"#utility.yul\":607:608   */\n  0x00\n    /* \"#utility.yul\":600:615   */\n  revert\n    /* \"#utility.yul\":626:1006   */\ntag_16:\n    /* \"#utility.yul\":705:706   */\n  0x01\n    /* \"#utility.yul\":701:713   */\n  dup2\n  dup2\n  shr\n  swap1\n    /* \"#utility.yul\":748:760   */\n  dup3\n  and\n  dup1\n    /* \"#utility.yul\":769:830   */\n  tag_29\n  jumpi\n    /* \"#utility.yul\":823:827   */\n  0x7f\n    /* \"#utility.yul\":815:821   */\n  dup3\n    /* \"#utility.yul\":811:828   */\n  and\n    /* \"#utility.yul\":801:828   */\n  swap2\n  pop\n    /* \"#utility.yul\":769:830   */\ntag_29:\n    /* \"#utility.yul\":876:878   */\n  0x20\n    /* \"#utility.yul\":868:874   */\n  dup3\n    /* \"#utility.yul\":865:879   */\n  lt\n    /* \"#utility.yul\":845:863   */\n  dup2\n    /* \"#utility.yul\":842:880   */\n  sub\n    /* \"#utility.yul\":839:1000   */\n  tag_30\n  jumpi\n    /* \"#utility.yul\":922:932   */\n  0x4e487b71\n    /* \"#utility.yul\":917:920   */\n  0xe0\n    /* \"#utility.yul\":913:933   */\n  shl\n    /* \"#utility.yul\":910:911   */\n  0x00\n    /* \"#utility.yul\":903:934   */\n  mstore\n    /* \"#utility.yul\":957:961   */\n  0x22\n    /* \"#utility.yul\":954:955   */\n  0x04\n    /* \"#utility.yul\":947:962   */\n  mstore\n    /* \"#utility.yul\":985:989   */\n  0x24\n    /* \"#utility.yul\":982:983   */\n  0x00\n    /* \"#utility.yul\":975:990   */\n  revert\n    /* \"#utility.yul\":839:1000   */\ntag_30:\n  pop\n    /* \"#utility.yul\":626:1006   */\n  swap2\n  swap1\n  pop\n  jump\t// out\n    /* \"#utility.yul\":1137:1655   */\ntag_18:\n    /* \"#utility.yul\":1239:1241   */\n  0x1f\n    /* \"#utility.yul\":1234:1237   */\n  dup3\n    /* \"#utility.yul\":1231:1242   */\n  gt\n    /* \"#utility.yul\":1228:1649   */\n  iszero\n  tag_33\n  jumpi\n    /* \"#utility.yul\":1275:1280   */\n  dup1\n    /* \"#utility.yul\":1272:1273   */\n  0x00\n    /* \"#utility.yul\":1265:1281   */\n  mstore\n    /* \"#utility.yul\":1319:1323   */\n  0x20\n    /* \"#utility.yul\":1316:1317   */\n  0x00\n    /* \"#utility.yul\":1306:1324   */\n  keccak256\n    /* \"#utility.yul\":1389:1391   */\n  0x1f\n    /* \"#utility.yul\":1377:1387   */\n  dup5\n    /* \"#utility.yul\":1373:1392   */\n  add\n    /* \"#utility.yul\":1370:1371   */\n  0x05\n    /* \"#utility.yul\":1366:1393   */\n  shr\n    /* \"#utility.yul\":1360:1364   */\n  dup2\n    /* \"#utility.yul\":1356:1394   */\n  add\n    /* \"#utility.yul\":1425:1429   */\n  0x20\n    /* \"#utility.yul\":1413:1423   */\n  dup6\n    /* \"#utility.yul\":1410:1430   */\n  lt\n    /* \"#utility.yul\":1407:1454   */\n  iszero\n  tag_34\n  jumpi\n  pop\n    /* \"#utility.yul\":1448:1452   */\n  dup1\n    /* \"#utility.yul\":1407:1454   */\ntag_34:\n    /* \"#utility.yul\":1503:1505   */\n  0x1f\n    /* \"#utility.yul\":1498:1501   */\n  dup5\n    /* \"#utility.yul\":1494:1506   */\n  add\n    /* \"#utility.yul\":1491:1492   */\n  0x05\n    /* \"#utility.yul\":1487:1507   */\n  shr\n    /* \"#utility.yul\":1481:1485   */\n  dup3\n    /* \"#utility.yul\":1477:1508   */\n  add\n    /* \"#utility.yul\":1467:1508   */\n  swap2\n  pop\n    /* \"#utility.yul\":1558:1639   */\ntag_35:\n    /* \"#utility.yul\":1576:1578   */\n  dup2\n    /* \"#utility.yul\":1569:1574   */\n  dup2\n    /* \"#utility.yul\":1566:1579   */\n  lt\n    /* \"#utility.yul\":1558:1639   */\n  iszero\n  tag_37\n  jumpi\n    /* \"#utility.yul\":1635:1636   */\n  0x00\n    /* \"#utility.yul\":1621:1637   */\n  dup2\n  sstore\n    /* \"#utility.yul\":1602:1603   */\n  0x01\n    /* \"#utility.yul\":1591:1604   */\n  add\n    /* \"#utility.yul\":1558:1639   */\n  jump(tag_35)\ntag_37:\n    /* \"#utility.yul\":1562:1565   */\n  pop\n  pop\n    /* \"#utility.yul\":1228:1649   */\ntag_33:\n    /* \"#utility.yul\":1137:1655   */\n  pop\n  pop\n  pop\n  jump\t// out\n    /* \"#utility.yul\":1831:3176   */\ntag_8:\n    /* \"#utility.yul\":1951:1961   */\n  dup2\n  mload\n  sub(shl(0x40, 0x01), 0x01)\n    /* \"#utility.yul\":1973:2003   */\n  dup2\n  gt\n    /* \"#utility.yul\":1970:2026   */\n  iszero\n  tag_41\n  jumpi\n    /* \"#utility.yul\":2006:2024   */\n  tag_41\n  tag_15\n  jump\t// in\ntag_41:\n    /* \"#utility.yul\":2035:2132   */\n  tag_42\n    /* \"#utility.yul\":2125:2131   */\n  dup2\n    /* \"#utility.yul\":2085:2123   */\n  tag_43\n    /* \"#utility.yul\":2117:2121   */\n  dup5\n    /* \"#utility.yul\":2111:2122   */\n  sload\n    /* \"#utility.yul\":2085:2123   */\n  tag_16\n  jump\t// in\ntag_43:\n    /* \"#utility.yul\":2079:2083   */\n  dup5\n    /* \"#utility.yul\":2035:2132   */\n  tag_18\n  jump\t// in\ntag_42:\n    /* \"#utility.yul\":2187:2191   */\n  0x20\n  dup1\n    /* \"#utility.yul\":2244:2246   */\n  0x1f\n    /* \"#utility.yul\":2233:2247   */\n  dup4\n  gt\n    /* \"#utility.yul\":2261:2262   */\n  0x01\n    /* \"#utility.yul\":2256:2919   */\n  dup2\n  eq\n  tag_45\n  jumpi\n    /* \"#utility.yul\":2963:2964   */\n  0x00\n    /* \"#utility.yul\":2980:2986   */\n  dup5\n    /* \"#utility.yul\":2977:3066   */\n  iszero\n  tag_46\n  jumpi\n  pop\n    /* \"#utility.yul\":3032:3051   */\n  dup6\n  dup4\n  add\n    /* \"#utility.yul\":3026:3052   */\n  mload\n    /* \"#utility.yul\":2977:3066   */\ntag_46:\n  not(0x00)\n    /* \"#utility.yul\":1788:1789   */\n  0x03\n    /* \"#utility.yul\":1784:1795   */\n  dup7\n  swap1\n  shl\n    /* \"#utility.yul\":1780:1804   */\n  shr\n    /* \"#utility.yul\":1776:1805   */\n  not\n    /* \"#utility.yul\":1766:1806   */\n  and\n    /* \"#utility.yul\":1812:1813   */\n  0x01\n    /* \"#utility.yul\":1808:1819   */\n  dup6\n  swap1\n  shl\n    /* \"#utility.yul\":1763:1820   */\n  or\n    /* \"#utility.yul\":3079:3160   */\n  dup6\n  sstore\n    /* \"#utility.yul\":2226:3170   */\n  jump(tag_44)\n    /* \"#utility.yul\":2256:2919   */\ntag_45:\n    /* \"#utility.yul\":1084:1085   */\n  0x00\n    /* \"#utility.yul\":1077:1091   */\n  dup6\n  dup2\n  mstore\n    /* \"#utility.yul\":1121:1125   */\n  0x20\n    /* \"#utility.yul\":1108:1126   */\n  dup2\n  keccak256\n  not(0x1f)\n    /* \"#utility.yul\":2292:2312   */\n  dup7\n  and\n  swap2\n    /* \"#utility.yul\":2410:2646   */\ntag_49:\n    /* \"#utility.yul\":2424:2431   */\n  dup3\n    /* \"#utility.yul\":2421:2422   */\n  dup2\n    /* \"#utility.yul\":2418:2432   */\n  lt\n    /* \"#utility.yul\":2410:2646   */\n  iszero\n  tag_51\n  jumpi\n    /* \"#utility.yul\":2513:2532   */\n  dup9\n  dup7\n  add\n    /* \"#utility.yul\":2507:2533   */\n  mload\n    /* \"#utility.yul\":2492:2534   */\n  dup3\n  sstore\n    /* \"#utility.yul\":2605:2632   */\n  swap5\n  dup5\n  add\n  swap5\n    /* \"#utility.yul\":2573:2574   */\n  0x01\n    /* \"#utility.yul\":2561:2575   */\n  swap1\n  swap2\n  add\n  swap1\n    /* \"#utility.yul\":2440:2459   */\n  dup5\n  add\n    /* \"#utility.yul\":2410:2646   */\n  jump(tag_49)\ntag_51:\n    /* \"#utility.yul\":2414:2417   */\n  pop\n    /* \"#utility.yul\":2674:2680   */\n  dup6\n    /* \"#utility.yul\":2665:2672   */\n  dup3\n    /* \"#utility.yul\":2662:2681   */\n  lt\n    /* \"#utility.yul\":2659:2860   */\n  iszero\n  tag_52\n  jumpi\n    /* \"#utility.yul\":2735:2754   */\n  dup8\n  dup6\n  add\n    /* \"#utility.yul\":2729:2755   */\n  mload\n  not(0x00)\n    /* \"#utility.yul\":2818:2819   */\n  0x03\n    /* \"#utility.yul\":2814:2828   */\n  dup9\n  swap1\n  shl\n    /* \"#utility.yul\":2830:2833   */\n  0xf8\n    /* \"#utility.yul\":2810:2834   */\n  and\n    /* \"#utility.yul\":2806:2843   */\n  shr\n    /* \"#utility.yul\":2802:2844   */\n  not\n    /* \"#utility.yul\":2787:2845   */\n  and\n    /* \"#utility.yul\":2772:2846   */\n  dup2\n  sstore\n    /* \"#utility.yul\":2659:2860   */\ntag_52:\n  pop\n  pop\n    /* \"#utility.yul\":2906:2907   */\n  0x01\n    /* \"#utility.yul\":2897:2903   */\n  dup5\n    /* \"#utility.yul\":2894:2895   */\n  0x01\n    /* \"#utility.yul\":2890:2904   */\n  shl\n    /* \"#utility.yul\":2886:2908   */\n  add\n    /* \"#utility.yul\":2880:2884   */\n  dup6\n    /* \"#utility.yul\":2873:2909   */\n  sstore\n    /* \"#utility.yul\":2226:3170   */\ntag_44:\n  pop\n  pop\n  pop\n  pop\n    /* \"#utility.yul\":1831:3176   */\n  pop\n  pop\n  jump\t// out\ntag_20:\n    /* \"FairStakeToken.sol\":261:34708  contract FairStakeToken is ERC20 {... */\n  mload(0x80)\n  codecopy(0x00, dataOffset(sub_0), dataSize(sub_0))\n  0x00\n  assignImmutable(\"0x5ad0f966e4dd8863f27c0e6ee7d684c0c8f4319efed210fe15662a0d29bcd615\")\n  return(0x00, dataSize(sub_0))\nstop\n\nsub_0: assembly {\n        /* \"FairStakeToken.sol\":261:34708  contract FairStakeToken is ERC20 {... */\n      mstore(0x40, 0x80)\n      jumpi(tag_1, lt(calldatasize, 0x04))\n      shr(0xe0, calldataload(0x00))\n      dup1\n      0x8456cb59\n      gt\n      tag_37\n      jumpi\n      dup1\n      0xc32d3ae2\n      gt\n      tag_38\n      jumpi\n      dup1\n      0xdd62ed3e\n      gt\n      tag_39\n      jumpi\n      dup1\n      0xdd62ed3e\n      eq\n      tag_32\n      jumpi\n      dup1\n      0xe4f7b494\n      eq\n      tag_33\n      jumpi\n      dup1\n      0xeba1e3d2\n      eq\n      tag_34\n      jumpi\n      dup1\n      0xec7e6a57\n      eq\n      tag_35\n      jumpi\n      dup1\n      0xf2fde38b\n      eq\n      tag_36\n      jumpi\n      0x00\n      dup1\n      revert\n    tag_39:\n      dup1\n      0xc32d3ae2\n      eq\n      tag_28\n      jumpi\n      dup1\n      0xcc7a262e\n      eq\n      tag_29\n      jumpi\n      dup1\n      0xd7db2159\n      eq\n      tag_30\n      jumpi\n      dup1\n      0xdc467f8e\n      eq\n      tag_31\n      jumpi\n      0x00\n      dup1\n      revert\n    tag_38:\n      dup1\n      0xa694fc3a\n      gt\n      tag_40\n      jumpi\n      dup1\n      0xa694fc3a\n      eq\n      tag_24\n      jumpi\n      dup1\n      0xa9059cbb\n      eq\n      tag_25\n      jumpi\n      dup1\n      0xafc92dd1\n      eq\n      tag_26\n      jumpi\n      dup1\n      0xb88a802f\n      eq\n      tag_27\n      jumpi\n      0x00\n      dup1\n      revert\n    tag_40:\n      dup1\n      0x8456cb59\n      eq\n      tag_20\n      jumpi\n      dup1\n      0x8da5cb5b\n      eq\n      tag_21\n      jumpi\n      dup1\n      0x95d89b41\n      eq\n      tag_22\n      jumpi\n      dup1\n      0x9c8156ce\n      eq\n      tag_23\n      jumpi\n      0x00\n      dup1\n      revert\n    tag_37:\n      dup1\n      0x3f4ba83a\n      gt\n      tag_41\n      jumpi\n      dup1\n      0x5c975abb\n      gt\n      tag_42\n      jumpi\n      dup1\n      0x5c975abb\n      eq\n      tag_15\n      jumpi\n      dup1\n      0x70a08231\n      eq\n      tag_16\n      jumpi\n      dup1\n      0x715018a6\n      eq\n      tag_17\n      jumpi\n      dup1\n      0x759e882d\n      eq\n      tag_18\n      jumpi\n      dup1\n      0x817b1cd2\n      eq\n      tag_19\n      jumpi\n      0x00\n      dup1\n      revert\n    tag_42:\n      dup1\n      0x3f4ba83a\n      eq\n      tag_11\n      jumpi\n      dup1\n      0x42966c68\n      eq\n      tag_12\n      jumpi\n      dup1\n      0x54b9c884\n      eq\n      tag_13\n      jumpi\n      dup1\n      0x57764094\n      eq\n      tag_14\n      jumpi\n      0x00\n      dup1\n      revert\n    tag_41:\n      dup1\n      0x18160ddd\n      gt\n      tag_43\n      jumpi\n      dup1\n      0x18160ddd\n      eq\n      tag_7\n      jumpi\n      dup1\n      0x23b872dd\n      eq\n      tag_8\n      jumpi\n      dup1\n      0x2def6620\n      eq\n      tag_9\n      jumpi\n      dup1\n      0x313ce567\n      eq\n      tag_10\n      jumpi\n      0x00\n      dup1\n      revert\n    tag_43:\n      dup1\n      0x0587b20a\n      eq\n      tag_3\n      jumpi\n      dup1\n      0x0698607d\n      eq\n      tag_4\n      jumpi\n      dup1\n      0x06fdde03\n      eq\n      tag_5\n      jumpi\n      dup1\n      0x095ea7b3\n      eq\n      tag_6\n      jumpi\n      0x00\n      dup1\n      revert\n    tag_1:\n      jumpi(tag_2, calldatasize)\n        /* \"FairStakeToken.sol\":34677:34698  TRXTransferRejected() */\n      mload(0x40)\n      shl(0xe2, 0x251a842b)\n      dup2\n      mstore\n      0x04\n      add\n      mload(0x40)\n      dup1\n      swap2\n      sub\n      swap1\n      revert\n        /* \"FairStakeToken.sol\":261:34708  contract FairStakeToken is ERC20 {... */\n    tag_2:\n      0x00\n      dup1\n      revert\n        /* \"FairStakeToken.sol\":31041:34231  function exchangeFRForToken(address tokenAddress, uint256 frAmount) external whenModuleNotPaused(FunctionModule.EXCHANGE) nonReentrant returns (uint256) {        // Input validations... */\n    tag_3:\n      callvalue\n      dup1\n      iszero\n      tag_46\n      jumpi\n      0x00\n      dup1\n      revert\n    tag_46:\n      pop\n      tag_47\n      tag_48\n      calldatasize\n      0x04\n      tag_49\n      jump\t// in\n    tag_48:\n      tag_50\n      jump\t// in\n    tag_47:\n      mload(0x40)\n        /* \"#utility.yul\":597:622   */\n      swap1\n      dup2\n      mstore\n        /* \"#utility.yul\":585:587   */\n      0x20\n        /* \"#utility.yul\":570:588   */\n      add\n        /* \"FairStakeToken.sol\":31041:34231  function exchangeFRForToken(address tokenAddress, uint256 frAmount) external whenModuleNotPaused(FunctionModule.EXCHANGE) nonReentrant returns (uint256) {        // Input validations... */\n    tag_51:\n      mload(0x40)\n      dup1\n      swap2\n      sub\n      swap1\n      return\n        /* \"FairStakeToken.sol\":2585:2614  uint256 public totalUnstaking */\n    tag_4:\n      callvalue\n      dup1\n      iszero\n      tag_53\n      jumpi\n      0x00\n      dup1\n      revert\n    tag_53:\n      pop\n      tag_47\n      sload(0x08)\n      dup2\n      jump\n        /* \"@openzeppelin/contracts/token/ERC20/ERC20.sol\":1760:1849   */\n    tag_5:\n      callvalue\n      dup1\n      iszero\n      tag_57\n      jumpi\n      0x00\n      dup1\n      revert\n    tag_57:\n      pop\n      tag_58\n      tag_59\n      jump\t// in\n    tag_58:\n      mload(0x40)\n      tag_51\n      swap2\n      swap1\n      tag_61\n      jump\t// in\n        /* \"@openzeppelin/contracts/token/ERC20/ERC20.sol\":3902:4088   */\n    tag_6:\n      callvalue\n      dup1\n      iszero\n      tag_62\n      jumpi\n      0x00\n      dup1\n      revert\n    tag_62:\n      pop\n      tag_63\n      tag_64\n      calldatasize\n      0x04\n      tag_49\n      jump\t// in\n    tag_64:\n      tag_65\n      jump\t// in\n    tag_63:\n      mload(0x40)\n        /* \"#utility.yul\":1454:1468   */\n      swap1\n      iszero\n        /* \"#utility.yul\":1447:1469   */\n      iszero\n        /* \"#utility.yul\":1429:1470   */\n      dup2\n      mstore\n        /* \"#utility.yul\":1417:1419   */\n      0x20\n        /* \"#utility.yul\":1402:1420   */\n      add\n        /* \"@openzeppelin/contracts/token/ERC20/ERC20.sol\":3902:4088   */\n      tag_51\n        /* \"#utility.yul\":1289:1476   */\n      jump\n        /* \"@openzeppelin/contracts/token/ERC20/ERC20.sol\":2803:2900   */\n    tag_7:\n      callvalue\n      dup1\n      iszero\n      tag_68\n      jumpi\n      0x00\n      dup1\n      revert\n    tag_68:\n      pop\n        /* \"@openzeppelin/contracts/token/ERC20/ERC20.sol\":2881:2893   */\n      sload(0x02)\n        /* \"@openzeppelin/contracts/token/ERC20/ERC20.sol\":2803:2900   */\n      jump(tag_47)\n        /* \"@openzeppelin/contracts/token/ERC20/ERC20.sol\":4680:4924   */\n    tag_8:\n      callvalue\n      dup1\n      iszero\n      tag_72\n      jumpi\n      0x00\n      dup1\n      revert\n    tag_72:\n      pop\n      tag_63\n      tag_74\n      calldatasize\n      0x04\n      tag_75\n      jump\t// in\n    tag_74:\n      tag_76\n      jump\t// in\n        /* \"FairStakeToken.sol\":24855:27779  function unstake() external whenModuleNotPaused(FunctionModule.UNSTAKE) nonReentrant returns(bool) {... */\n    tag_9:\n      callvalue\n      dup1\n      iszero\n      tag_78\n      jumpi\n      0x00\n      dup1\n      revert\n    tag_78:\n      pop\n      tag_63\n      tag_80\n      jump\t// in\n        /* \"FairStakeToken.sol\":34462:34553  function decimals() public view virtual override returns (uint8) {... */\n    tag_10:\n      callvalue\n      dup1\n      iszero\n      tag_82\n      jumpi\n      0x00\n      dup1\n      revert\n    tag_82:\n      pop\n      mload(0x40)\n        /* \"FairStakeToken.sol\":34544:34546  18 */\n      0x12\n        /* \"#utility.yul\":1956:1992   */\n      dup2\n      mstore\n        /* \"#utility.yul\":1944:1946   */\n      0x20\n        /* \"#utility.yul\":1929:1947   */\n      add\n        /* \"FairStakeToken.sol\":34462:34553  function decimals() public view virtual override returns (uint8) {... */\n      tag_51\n        /* \"#utility.yul\":1814:1998   */\n      jump\n        /* \"FairStakeToken.sol\":12325:12471  function unpause() external isOwner {... */\n    tag_11:\n      callvalue\n      dup1\n      iszero\n      tag_87\n      jumpi\n      0x00\n      dup1\n      revert\n    tag_87:\n      pop\n      tag_88\n      tag_89\n      jump\t// in\n    tag_88:\n      stop\n        /* \"FairStakeToken.sol\":30005:30304  function burn(uint256 amount) external whenModuleNotPaused(FunctionModule.BURN) {... */\n    tag_12:\n      callvalue\n      dup1\n      iszero\n      tag_90\n      jumpi\n      0x00\n      dup1\n      revert\n    tag_90:\n      pop\n      tag_88\n      tag_92\n      calldatasize\n      0x04\n      tag_93\n      jump\t// in\n    tag_92:\n      tag_94\n      jump\t// in\n        /* \"FairStakeToken.sol\":22103:24211  function requestUnstake(uint256 amount, uint64 waitDays) external whenModuleNotPaused(FunctionModule.UNSTAKE) nonReentrant returns(bool) {... */\n    tag_13:\n      callvalue\n      dup1\n      iszero\n      tag_95\n      jumpi\n      0x00\n      dup1\n      revert\n    tag_95:\n      pop\n      tag_63\n      tag_97\n      calldatasize\n      0x04\n      tag_98\n      jump\t// in\n    tag_97:\n      tag_99\n      jump\t// in\n        /* \"FairStakeToken.sol\":18346:19027  function getRate(uint256 amount) public pure returns(uint256) {... */\n    tag_14:\n      callvalue\n      dup1\n      iszero\n      tag_101\n      jumpi\n      0x00\n      dup1\n      revert\n    tag_101:\n      pop\n      tag_47\n      tag_103\n      calldatasize\n      0x04\n      tag_93\n      jump\t// in\n    tag_103:\n      tag_104\n      jump\t// in\n        /* \"FairStakeToken.sol\":1974:1992  bool public paused */\n    tag_15:\n      callvalue\n      dup1\n      iszero\n      tag_106\n      jumpi\n      0x00\n      dup1\n      revert\n    tag_106:\n      pop\n      sload(0x05)\n      tag_63\n      swap1\n      shl(0xa0, 0x01)\n      swap1\n      div\n      0xff\n      and\n      dup2\n      jump\n        /* \"@openzeppelin/contracts/token/ERC20/ERC20.sol\":2933:3049   */\n    tag_16:\n      callvalue\n      dup1\n      iszero\n      tag_110\n      jumpi\n      0x00\n      dup1\n      revert\n    tag_110:\n      pop\n      tag_47\n      tag_112\n      calldatasize\n      0x04\n      tag_113\n      jump\t// in\n    tag_112:\n      sub(shl(0xa0, 0x01), 0x01)\n        /* \"@openzeppelin/contracts/token/ERC20/ERC20.sol\":3024:3042   */\n      and\n        /* \"@openzeppelin/contracts/token/ERC20/ERC20.sol\":2998:3005   */\n      0x00\n        /* \"@openzeppelin/contracts/token/ERC20/ERC20.sol\":3024:3042   */\n      swap1\n      dup2\n      mstore\n      0x20\n      dup2\n      swap1\n      mstore\n      0x40\n      swap1\n      keccak256\n      sload\n      swap1\n        /* \"@openzeppelin/contracts/token/ERC20/ERC20.sol\":2933:3049   */\n      jump\n        /* \"FairStakeToken.sol\":11981:12062  function renounceOwnership() external isOwner {... */\n    tag_17:\n      callvalue\n      dup1\n      iszero\n      tag_116\n      jumpi\n      0x00\n      dup1\n      revert\n    tag_116:\n      pop\n      tag_88\n      tag_118\n      jump\t// in\n        /* \"FairStakeToken.sol\":12924:13141  function unpauseModule(FunctionModule module) external isOwner {... */\n    tag_18:\n      callvalue\n      dup1\n      iszero\n      tag_119\n      jumpi\n      0x00\n      dup1\n      revert\n    tag_119:\n      pop\n      tag_88\n      tag_121\n      calldatasize\n      0x04\n      tag_122\n      jump\t// in\n    tag_121:\n      tag_123\n      jump\t// in\n        /* \"FairStakeToken.sol\":2473:2499  uint256 public totalStaked */\n    tag_19:\n      callvalue\n      dup1\n      iszero\n      tag_124\n      jumpi\n      0x00\n      dup1\n      revert\n    tag_124:\n      pop\n      tag_47\n      sload(0x07)\n      dup2\n      jump\n        /* \"FairStakeToken.sol\":12122:12260  function pause() external isOwner {... */\n    tag_20:\n      callvalue\n      dup1\n      iszero\n      tag_128\n      jumpi\n      0x00\n      dup1\n      revert\n    tag_128:\n      pop\n      tag_88\n      tag_130\n      jump\t// in\n        /* \"FairStakeToken.sol\":1809:1829  address public owner */\n    tag_21:\n      callvalue\n      dup1\n      iszero\n      tag_131\n      jumpi\n      0x00\n      dup1\n      revert\n    tag_131:\n      pop\n      sload(0x05)\n      tag_132\n      swap1\n      sub(shl(0xa0, 0x01), 0x01)\n      and\n      dup2\n      jump\n    tag_132:\n      mload(0x40)\n      sub(shl(0xa0, 0x01), 0x01)\n        /* \"#utility.yul\":3179:3211   */\n      swap1\n      swap2\n      and\n        /* \"#utility.yul\":3161:3212   */\n      dup2\n      mstore\n        /* \"#utility.yul\":3149:3151   */\n      0x20\n        /* \"#utility.yul\":3134:3152   */\n      add\n        /* \"FairStakeToken.sol\":1809:1829  address public owner */\n      tag_51\n        /* \"#utility.yul\":3015:3218   */\n      jump\n        /* \"@openzeppelin/contracts/token/ERC20/ERC20.sol\":1962:2055   */\n    tag_22:\n      callvalue\n      dup1\n      iszero\n      tag_136\n      jumpi\n      0x00\n      dup1\n      revert\n    tag_136:\n      pop\n      tag_58\n      tag_138\n      jump\t// in\n        /* \"FairStakeToken.sol\":8669:9314  function mintContributorReward(... */\n    tag_23:\n      callvalue\n      dup1\n      iszero\n      tag_140\n      jumpi\n      0x00\n      dup1\n      revert\n    tag_140:\n      pop\n      tag_63\n      tag_142\n      calldatasize\n      0x04\n      tag_143\n      jump\t// in\n    tag_142:\n      tag_144\n      jump\t// in\n        /* \"FairStakeToken.sol\":19666:21302  function stake(uint256 amount) external whenModuleNotPaused(FunctionModule.STAKE) nonReentrant returns(bool) {... */\n    tag_24:\n      callvalue\n      dup1\n      iszero\n      tag_146\n      jumpi\n      0x00\n      dup1\n      revert\n    tag_146:\n      pop\n      tag_63\n      tag_148\n      calldatasize\n      0x04\n      tag_93\n      jump\t// in\n    tag_148:\n      tag_149\n      jump\t// in\n        /* \"@openzeppelin/contracts/token/ERC20/ERC20.sol\":3244:3422   */\n    tag_25:\n      callvalue\n      dup1\n      iszero\n      tag_151\n      jumpi\n      0x00\n      dup1\n      revert\n    tag_151:\n      pop\n      tag_63\n      tag_153\n      calldatasize\n      0x04\n      tag_49\n      jump\t// in\n    tag_153:\n      tag_154\n      jump\t// in\n        /* \"FairStakeToken.sol\":17008:17866  function calculateEarnedTokens(address user) public view returns (uint256) {... */\n    tag_26:\n      callvalue\n      dup1\n      iszero\n      tag_156\n      jumpi\n      0x00\n      dup1\n      revert\n    tag_156:\n      pop\n      tag_47\n      tag_158\n      calldatasize\n      0x04\n      tag_113\n      jump\t// in\n    tag_158:\n      tag_159\n      jump\t// in\n        /* \"FairStakeToken.sol\":27906:28782  function claimReward() external whenModuleNotPaused(FunctionModule.REWARD) nonReentrant returns(bool) {... */\n    tag_27:\n      callvalue\n      dup1\n      iszero\n      tag_161\n      jumpi\n      0x00\n      dup1\n      revert\n    tag_161:\n      pop\n      tag_63\n      tag_163\n      jump\t// in\n        /* \"FairStakeToken.sol\":29310:29734  function getUserStakeInfo(address _user) external view returns (uint256 amount, uint64 startTime, uint64 lastClaimed, uint256 unstakeRequestAmount, uint64 unstakeRequestTime,uint64 unstakeWaitDays) {... */\n    tag_28:\n      callvalue\n      dup1\n      iszero\n      tag_165\n      jumpi\n      0x00\n      dup1\n      revert\n    tag_165:\n      pop\n      tag_166\n      tag_167\n      calldatasize\n      0x04\n      tag_113\n      jump\t// in\n    tag_167:\n      sub(shl(0xa0, 0x01), 0x01)\n        /* \"FairStakeToken.sol\":29547:29560  stakes[_user] */\n      dup2\n      and\n        /* \"FairStakeToken.sol\":29374:29388  uint256 amount */\n      0x00\n        /* \"FairStakeToken.sol\":29547:29560  stakes[_user] */\n      swap1\n      dup2\n      mstore\n        /* \"FairStakeToken.sol\":29547:29553  stakes */\n      0x0a\n        /* \"FairStakeToken.sol\":29547:29560  stakes[_user] */\n      0x20\n      swap1\n      dup2\n      mstore\n      0x40\n      swap2\n      dup3\n      swap1\n      keccak256\n        /* \"FairStakeToken.sol\":29518:29560  StakeInfo memory userStake = stakes[_user] */\n      dup3\n      mload\n      0xc0\n      dup2\n      add\n      dup5\n      mstore\n      dup2\n      sload\n      dup1\n      dup3\n      mstore\n      0x01\n      dup4\n      add\n      sload\n      swap4\n      dup3\n      add\n      dup5\n      swap1\n      mstore\n      0x02\n      swap1\n      swap3\n      add\n      sload\n      sub(shl(0x40, 0x01), 0x01)\n      dup1\n      dup3\n      and\n      swap6\n      dup4\n      add\n      dup7\n      swap1\n      mstore\n      shl(0x40, 0x01)\n      dup3\n      div\n      dup2\n      and\n      0x60\n      dup5\n      add\n      dup2\n      swap1\n      mstore\n      shl(0x80, 0x01)\n      dup4\n      div\n      dup3\n      and\n      0x80\n      dup6\n      add\n      dup2\n      swap1\n      mstore\n      shl(0xc0, 0x01)\n      swap1\n      swap4\n      div\n      swap1\n      swap2\n      and\n      0xa0\n      swap1\n      swap4\n      add\n      dup4\n      swap1\n      mstore\n      swap3\n      swap5\n        /* \"FairStakeToken.sol\":29310:29734  function getUserStakeInfo(address _user) external view returns (uint256 amount, uint64 startTime, uint64 lastClaimed, uint256 unstakeRequestAmount, uint64 unstakeRequestTime,uint64 unstakeWaitDays) {... */\n      swap6\n      pop\n      swap2\n      swap4\n      swap6\n      jump\n    tag_166:\n      0x40\n      dup1\n      mload\n        /* \"#utility.yul\":4310:4335   */\n      swap7\n      dup8\n      mstore\n      sub(shl(0x40, 0x01), 0x01)\n        /* \"#utility.yul\":4408:4423   */\n      swap6\n      dup7\n      and\n        /* \"#utility.yul\":4403:4405   */\n      0x20\n        /* \"#utility.yul\":4388:4406   */\n      dup9\n      add\n        /* \"#utility.yul\":4381:4424   */\n      mstore\n        /* \"#utility.yul\":4460:4475   */\n      swap4\n      dup6\n      and\n        /* \"#utility.yul\":4440:4458   */\n      swap4\n      dup7\n      add\n        /* \"#utility.yul\":4433:4476   */\n      swap4\n      swap1\n      swap4\n      mstore\n        /* \"#utility.yul\":4507:4509   */\n      0x60\n        /* \"#utility.yul\":4492:4510   */\n      dup6\n      add\n        /* \"#utility.yul\":4485:4519   */\n      swap2\n      swap1\n      swap2\n      mstore\n        /* \"#utility.yul\":4556:4571   */\n      dup3\n      and\n        /* \"#utility.yul\":4550:4553   */\n      0x80\n        /* \"#utility.yul\":4535:4554   */\n      dup5\n      add\n        /* \"#utility.yul\":4528:4572   */\n      mstore\n        /* \"#utility.yul\":4609:4624   */\n      and\n        /* \"#utility.yul\":4603:4606   */\n      0xa0\n        /* \"#utility.yul\":4588:4607   */\n      dup3\n      add\n        /* \"#utility.yul\":4581:4625   */\n      mstore\n        /* \"#utility.yul\":4297:4300   */\n      0xc0\n        /* \"#utility.yul\":4282:4301   */\n      add\n        /* \"FairStakeToken.sol\":29310:29734  function getUserStakeInfo(address _user) external view returns (uint256 amount, uint64 startTime, uint64 lastClaimed, uint256 unstakeRequestAmount, uint64 unstakeRequestTime,uint64 unstakeWaitDays) {... */\n      tag_51\n        /* \"#utility.yul\":4031:4631   */\n      jump\n        /* \"FairStakeToken.sol\":1726:1761  IERC20 public immutable stakedToken */\n    tag_29:\n      callvalue\n      dup1\n      iszero\n      tag_171\n      jumpi\n      0x00\n      dup1\n      revert\n    tag_171:\n      pop\n      tag_132\n      immutable(\"0x5ad0f966e4dd8863f27c0e6ee7d684c0c8f4319efed210fe15662a0d29bcd615\")\n      dup2\n      jump\n        /* \"FairStakeToken.sol\":15246:16476  function setTokenExchangeRate(address tokenAddress, uint88 rateNumerator, uint88 rateDenominator, uint256 maxExchangeAmount, uint8 transferType, uint8 durationWeeks) external isOwner returns(bool) {... */\n    tag_30:\n      callvalue\n      dup1\n      iszero\n      tag_176\n      jumpi\n      0x00\n      dup1\n      revert\n    tag_176:\n      pop\n      tag_63\n      tag_178\n      calldatasize\n      0x04\n      tag_179\n      jump\t// in\n    tag_178:\n      tag_180\n      jump\t// in\n        /* \"FairStakeToken.sol\":11311:11418  function checkIsOwner(address account) external view returns(bool) {... */\n    tag_31:\n      callvalue\n      dup1\n      iszero\n      tag_182\n      jumpi\n      0x00\n      dup1\n      revert\n    tag_182:\n      pop\n      tag_63\n      tag_184\n      calldatasize\n      0x04\n      tag_113\n      jump\t// in\n    tag_184:\n        /* \"FairStakeToken.sol\":11406:11411  owner */\n      sload(0x05)\n      sub(shl(0xa0, 0x01), 0x01)\n        /* \"FairStakeToken.sol\":11395:11411  account == owner */\n      swap2\n      dup3\n      and\n        /* \"FairStakeToken.sol\":11406:11411  owner */\n      swap2\n      and\n        /* \"FairStakeToken.sol\":11395:11411  account == owner */\n      eq\n      swap1\n        /* \"FairStakeToken.sol\":11311:11418  function checkIsOwner(address account) external view returns(bool) {... */\n      jump\n        /* \"@openzeppelin/contracts/token/ERC20/ERC20.sol\":3455:3595   */\n    tag_32:\n      callvalue\n      dup1\n      iszero\n      tag_187\n      jumpi\n      0x00\n      dup1\n      revert\n    tag_187:\n      pop\n      tag_47\n      tag_189\n      calldatasize\n      0x04\n      tag_190\n      jump\t// in\n    tag_189:\n      sub(shl(0xa0, 0x01), 0x01)\n        /* \"@openzeppelin/contracts/token/ERC20/ERC20.sol\":3561:3579   */\n      swap2\n      dup3\n      and\n        /* \"@openzeppelin/contracts/token/ERC20/ERC20.sol\":3535:3542   */\n      0x00\n        /* \"@openzeppelin/contracts/token/ERC20/ERC20.sol\":3561:3579   */\n      swap1\n      dup2\n      mstore\n        /* \"@openzeppelin/contracts/token/ERC20/ERC20.sol\":3561:3572   */\n      0x01\n        /* \"@openzeppelin/contracts/token/ERC20/ERC20.sol\":3561:3579   */\n      0x20\n      swap1\n      dup2\n      mstore\n      0x40\n      dup1\n      dup4\n      keccak256\n        /* \"@openzeppelin/contracts/token/ERC20/ERC20.sol\":3561:3588   */\n      swap4\n      swap1\n      swap5\n      and\n      dup3\n      mstore\n      swap2\n      swap1\n      swap2\n      mstore\n      keccak256\n      sload\n      swap1\n        /* \"@openzeppelin/contracts/token/ERC20/ERC20.sol\":3455:3595   */\n      jump\n        /* \"FairStakeToken.sol\":2284:2336  mapping(FunctionModule => bool) public pausedModules */\n    tag_33:\n      callvalue\n      dup1\n      iszero\n      tag_193\n      jumpi\n      0x00\n      dup1\n      revert\n    tag_193:\n      pop\n      tag_63\n      tag_195\n      calldatasize\n      0x04\n      tag_122\n      jump\t// in\n    tag_195:\n      mstore(0x20, 0x06)\n      0x00\n      swap1\n      dup2\n      mstore\n      0x40\n      swap1\n      keccak256\n      sload\n      0xff\n      and\n      dup2\n      jump\n        /* \"FairStakeToken.sol\":12592:12801  function pauseModule(FunctionModule module) external isOwner {... */\n    tag_34:\n      callvalue\n      dup1\n      iszero\n      tag_198\n      jumpi\n      0x00\n      dup1\n      revert\n    tag_198:\n      pop\n      tag_88\n      tag_200\n      calldatasize\n      0x04\n      tag_122\n      jump\t// in\n    tag_200:\n      tag_201\n      jump\t// in\n        /* \"FairStakeToken.sol\":4365:4427  mapping(address => TokenExchangeInfo) public tokenExchangeInfo */\n    tag_35:\n      callvalue\n      dup1\n      iszero\n      tag_202\n      jumpi\n      0x00\n      dup1\n      revert\n    tag_202:\n      pop\n      tag_203\n      tag_204\n      calldatasize\n      0x04\n      tag_113\n      jump\t// in\n    tag_204:\n      mstore(0x20, 0x09)\n      0x00\n      swap1\n      dup2\n      mstore\n      0x40\n      swap1\n      keccak256\n      dup1\n      sload\n      0x01\n      swap1\n      swap2\n      add\n      sload\n      sub(shl(0x58, 0x01), 0x01)\n      dup1\n      dup3\n      and\n      swap2\n      shl(0x58, 0x01)\n      dup2\n      div\n      swap1\n      swap2\n      and\n      swap1\n      sub(shl(0x40, 0x01), 0x01)\n      shl(0xb0, 0x01)\n      dup3\n      div\n      and\n      swap1\n      0xff\n      shl(0xf0, 0x01)\n      dup3\n      div\n      dup2\n      and\n      swap2\n      shl(0xf8, 0x01)\n      swap1\n      div\n      and\n      dup7\n      jump\n    tag_203:\n      0x40\n      dup1\n      mload\n        /* \"#utility.yul\":6286:6311   */\n      swap7\n      dup8\n      mstore\n      sub(shl(0x58, 0x01), 0x01)\n        /* \"#utility.yul\":6390:6405   */\n      swap6\n      dup7\n      and\n        /* \"#utility.yul\":6385:6387   */\n      0x20\n        /* \"#utility.yul\":6370:6388   */\n      dup9\n      add\n        /* \"#utility.yul\":6363:6406   */\n      mstore\n        /* \"#utility.yul\":6442:6457   */\n      swap5\n      swap1\n      swap4\n      and\n        /* \"#utility.yul\":6422:6440   */\n      swap4\n      dup6\n      add\n        /* \"#utility.yul\":6415:6458   */\n      swap4\n      swap1\n      swap4\n      mstore\n      sub(shl(0x40, 0x01), 0x01)\n        /* \"#utility.yul\":6494:6525   */\n      and\n        /* \"#utility.yul\":6489:6491   */\n      0x60\n        /* \"#utility.yul\":6474:6492   */\n      dup5\n      add\n        /* \"#utility.yul\":6467:6526   */\n      mstore\n        /* \"#utility.yul\":6575:6579   */\n      0xff\n        /* \"#utility.yul\":6563:6580   */\n      swap2\n      dup3\n      and\n        /* \"#utility.yul\":6557:6560   */\n      0x80\n        /* \"#utility.yul\":6542:6561   */\n      dup5\n      add\n        /* \"#utility.yul\":6535:6581   */\n      mstore\n        /* \"#utility.yul\":6618:6635   */\n      and\n        /* \"#utility.yul\":6612:6615   */\n      0xa0\n        /* \"#utility.yul\":6597:6616   */\n      dup3\n      add\n        /* \"#utility.yul\":6590:6636   */\n      mstore\n        /* \"#utility.yul\":6273:6276   */\n      0xc0\n        /* \"#utility.yul\":6258:6277   */\n      add\n        /* \"FairStakeToken.sol\":4365:4427  mapping(address => TokenExchangeInfo) public tokenExchangeInfo */\n      tag_51\n        /* \"#utility.yul\":6013:6642   */\n      jump\n        /* \"FairStakeToken.sol\":11678:11837  function transferOwnership(address _newOwner) external isOwner {... */\n    tag_36:\n      callvalue\n      dup1\n      iszero\n      tag_208\n      jumpi\n      0x00\n      dup1\n      revert\n    tag_208:\n      pop\n      tag_88\n      tag_210\n      calldatasize\n      0x04\n      tag_113\n      jump\t// in\n    tag_210:\n      tag_211\n      jump\t// in\n        /* \"FairStakeToken.sol\":31041:34231  function exchangeFRForToken(address tokenAddress, uint256 frAmount) external whenModuleNotPaused(FunctionModule.EXCHANGE) nonReentrant returns (uint256) {        // Input validations... */\n    tag_50:\n        /* \"FairStakeToken.sol\":10500:10506  paused */\n      sload(0x05)\n        /* \"FairStakeToken.sol\":31185:31192  uint256 */\n      0x00\n      swap1\n        /* \"FairStakeToken.sol\":31138:31161  FunctionModule.EXCHANGE */\n      0x03\n      swap1\n      shl(0xa0, 0x01)\n        /* \"FairStakeToken.sol\":10500:10506  paused */\n      swap1\n      div\n      0xff\n      and\n      dup1\n        /* \"FairStakeToken.sol\":10500:10531  paused || pausedModules[module] */\n      tag_213\n      jumpi\n      pop\n        /* \"FairStakeToken.sol\":10510:10523  pausedModules */\n      0x06\n        /* \"FairStakeToken.sol\":10510:10531  pausedModules[module] */\n      0x00\n        /* \"FairStakeToken.sol\":10524:10530  module */\n      dup3\n        /* \"FairStakeToken.sol\":10510:10531  pausedModules[module] */\n      0x04\n      dup2\n      gt\n      iszero\n      tag_215\n      jumpi\n      tag_215\n      tag_216\n      jump\t// in\n    tag_215:\n      0x04\n      dup2\n      gt\n      iszero\n      tag_218\n      jumpi\n      tag_218\n      tag_216\n      jump\t// in\n    tag_218:\n      dup2\n      mstore\n      0x20\n      dup2\n      add\n      swap2\n      swap1\n      swap2\n      mstore\n      0x40\n      add\n      0x00\n      keccak256\n      sload\n      0xff\n      and\n        /* \"FairStakeToken.sol\":10500:10531  paused || pausedModules[module] */\n    tag_213:\n        /* \"FairStakeToken.sol\":10496:10581  if (paused || pausedModules[module]) {... */\n      iszero\n      tag_219\n      jumpi\n        /* \"FairStakeToken.sol\":10554:10570  PausedContract() */\n      mload(0x40)\n      shl(0xe1, 0x79915593)\n      dup2\n      mstore\n      0x04\n      add\n      mload(0x40)\n      dup1\n      swap2\n      sub\n      swap1\n      revert\n        /* \"FairStakeToken.sol\":10496:10581  if (paused || pausedModules[module]) {... */\n    tag_219:\n        /* \"FairStakeToken.sol\":10781:10789  _entered */\n      and(0xff, sload(0x0b))\n        /* \"FairStakeToken.sol\":10780:10789  !_entered */\n      iszero\n        /* \"FairStakeToken.sol\":10772:10825  require(!_entered, \"ReentrancyGuard: reentrant call\") */\n      tag_221\n      jumpi\n      mload(0x40)\n      shl(0xe5, 0x461bcd)\n      dup2\n      mstore\n      0x04\n      add\n      tag_222\n      swap1\n      tag_223\n      jump\t// in\n    tag_222:\n      mload(0x40)\n      dup1\n      swap2\n      sub\n      swap1\n      revert\n    tag_221:\n        /* \"FairStakeToken.sol\":10898:10906  _entered */\n      0x0b\n        /* \"FairStakeToken.sol\":10898:10913  _entered = true */\n      dup1\n      sload\n      not(0xff)\n      and\n        /* \"FairStakeToken.sol\":10909:10913  true */\n      0x01\n        /* \"FairStakeToken.sol\":10898:10913  _entered = true */\n      or\n      swap1\n      sstore\n      sub(shl(0xa0, 0x01), 0x01)\n        /* \"FairStakeToken.sol\":31236:31262  tokenAddress == address(0) */\n      dup5\n      and\n        /* \"FairStakeToken.sol\":31232:31287  if (tokenAddress == address(0)) revert InvalidAddress() */\n      tag_225\n      jumpi\n        /* \"FairStakeToken.sol\":31271:31287  InvalidAddress() */\n      mload(0x40)\n      shl(0xe0, 0xe6c4247b)\n      dup2\n      mstore\n      0x04\n      add\n      mload(0x40)\n      dup1\n      swap2\n      sub\n      swap1\n      revert\n        /* \"FairStakeToken.sol\":31232:31287  if (tokenAddress == address(0)) revert InvalidAddress() */\n    tag_225:\n        /* \"FairStakeToken.sol\":31313:31314  0 */\n      0x00\n        /* \"FairStakeToken.sol\":31301:31309  frAmount */\n      dup4\n        /* \"FairStakeToken.sol\":31301:31314  frAmount <= 0 */\n      gt\n        /* \"FairStakeToken.sol\":31297:31335  if (frAmount <= 0) revert ZeroAmount() */\n      tag_226\n      jumpi\n        /* \"FairStakeToken.sol\":31323:31335  ZeroAmount() */\n      mload(0x40)\n      shl(0xe0, 0x1f2a2005)\n      dup2\n      mstore\n      0x04\n      add\n      mload(0x40)\n      dup1\n      swap2\n      sub\n      swap1\n      revert\n        /* \"FairStakeToken.sol\":31297:31335  if (frAmount <= 0) revert ZeroAmount() */\n    tag_226:\n      sub(shl(0xa0, 0x01), 0x01)\n        /* \"FairStakeToken.sol\":31431:31462  tokenExchangeInfo[tokenAddress] */\n      dup5\n      and\n        /* \"FairStakeToken.sol\":31390:31428  TokenExchangeInfo storage exchangeInfo */\n      0x00\n        /* \"FairStakeToken.sol\":31431:31462  tokenExchangeInfo[tokenAddress] */\n      swap1\n      dup2\n      mstore\n        /* \"FairStakeToken.sol\":31431:31448  tokenExchangeInfo */\n      0x09\n        /* \"FairStakeToken.sol\":31431:31462  tokenExchangeInfo[tokenAddress] */\n      0x20\n      mstore\n      0x40\n      swap1\n      keccak256\n        /* \"FairStakeToken.sol\":31519:31545  exchangeInfo.rateNumerator */\n      0x01\n      dup2\n      add\n      sload\n      sub(shl(0x58, 0x01), 0x01)\n      and\n        /* \"FairStakeToken.sol\":31519:31550  exchangeInfo.rateNumerator == 0 */\n      iszero\n      dup1\n        /* \"FairStakeToken.sol\":31519:31587  exchangeInfo.rateNumerator == 0 || exchangeInfo.rateDenominator == 0 */\n      tag_227\n      jumpi\n      pop\n        /* \"FairStakeToken.sol\":31554:31582  exchangeInfo.rateDenominator */\n      0x01\n      dup2\n      add\n      sload\n      shl(0x58, 0x01)\n      swap1\n      div\n      sub(shl(0x58, 0x01), 0x01)\n      and\n        /* \"FairStakeToken.sol\":31554:31587  exchangeInfo.rateDenominator == 0 */\n      iszero\n        /* \"FairStakeToken.sol\":31519:31587  exchangeInfo.rateNumerator == 0 || exchangeInfo.rateDenominator == 0 */\n    tag_227:\n        /* \"FairStakeToken.sol\":31515:31609  if (exchangeInfo.rateNumerator == 0 || exchangeInfo.rateDenominator == 0) revert InvalidRate() */\n      iszero\n      tag_228\n      jumpi\n        /* \"FairStakeToken.sol\":31596:31609  InvalidRate() */\n      mload(0x40)\n      shl(0xe0, 0x6a43f8d1)\n      dup2\n      mstore\n      0x04\n      add\n      mload(0x40)\n      dup1\n      swap2\n      sub\n      swap1\n      revert\n        /* \"FairStakeToken.sol\":31515:31609  if (exchangeInfo.rateNumerator == 0 || exchangeInfo.rateDenominator == 0) revert InvalidRate() */\n    tag_228:\n        /* \"FairStakeToken.sol\":31694:31716  exchangeInfo.startTime */\n      0x01\n      dup2\n      add\n      sload\n      shl(0xb0, 0x01)\n      swap1\n      div\n      sub(shl(0x40, 0x01), 0x01)\n      and\n        /* \"FairStakeToken.sol\":31676:31691  block.timestamp */\n      timestamp\n        /* \"FairStakeToken.sol\":31676:31716  block.timestamp < exchangeInfo.startTime */\n      lt\n        /* \"FairStakeToken.sol\":31672:31750  if (block.timestamp < exchangeInfo.startTime) revert ExchangeNotYetAvailable() */\n      iszero\n      tag_229\n      jumpi\n        /* \"FairStakeToken.sol\":31725:31750  ExchangeNotYetAvailable() */\n      mload(0x40)\n      shl(0xe3, 0x05ed75d3)\n      dup2\n      mstore\n      0x04\n      add\n      mload(0x40)\n      dup1\n      swap2\n      sub\n      swap1\n      revert\n        /* \"FairStakeToken.sol\":31672:31750  if (block.timestamp < exchangeInfo.startTime) revert ExchangeNotYetAvailable() */\n    tag_229:\n        /* \"FairStakeToken.sol\":31850:31884  exchangeInfo.exchangeDurationWeeks */\n      0x01\n      dup2\n      add\n      sload\n        /* \"FairStakeToken.sol\":31887:31902  type(uint8).max */\n      0xff\n      shl(0xf0, 0x01)\n        /* \"FairStakeToken.sol\":31850:31884  exchangeInfo.exchangeDurationWeeks */\n      swap1\n      swap2\n      div\n      dup2\n      and\n        /* \"FairStakeToken.sol\":31850:31902  exchangeInfo.exchangeDurationWeeks < type(uint8).max */\n      lt\n        /* \"FairStakeToken.sol\":31846:32158  if (exchangeInfo.exchangeDurationWeeks < type(uint8).max) {... */\n      iszero\n      tag_230\n      jumpi\n        /* \"FairStakeToken.sol\":32019:32053  exchangeInfo.exchangeDurationWeeks */\n      0x01\n      dup2\n      add\n      sload\n      shl(0xf0, 0x01)\n      dup2\n      div\n      0xff\n      and\n        /* \"FairStakeToken.sol\":32057:32063  7 days */\n      0x093a80\n        /* \"FairStakeToken.sol\":32011:32063  uint256(exchangeInfo.exchangeDurationWeeks) * 7 days */\n      mul\n      shl(0xb0, 0x01)\n        /* \"FairStakeToken.sol\":31985:32007  exchangeInfo.startTime */\n      swap1\n      swap2\n      div\n      sub(shl(0x40, 0x01), 0x01)\n      and\n        /* \"FairStakeToken.sol\":31985:32064  exchangeInfo.startTime + (uint256(exchangeInfo.exchangeDurationWeeks) * 7 days) */\n      add\n        /* \"FairStakeToken.sol\":32096:32111  block.timestamp */\n      timestamp\n      dup2\n      lt\n        /* \"FairStakeToken.sol\":32092:32147  if (block.timestamp > endTime) revert ExchangeExpired() */\n      iszero\n      tag_231\n      jumpi\n        /* \"FairStakeToken.sol\":32130:32147  ExchangeExpired() */\n      mload(0x40)\n      shl(0xe2, 0x0314fe45)\n      dup2\n      mstore\n      0x04\n      add\n      mload(0x40)\n      dup1\n      swap2\n      sub\n      swap1\n      revert\n        /* \"FairStakeToken.sol\":32092:32147  if (block.timestamp > endTime) revert ExchangeExpired() */\n    tag_231:\n        /* \"FairStakeToken.sol\":31904:32158  {... */\n      pop\n        /* \"FairStakeToken.sol\":31846:32158  if (exchangeInfo.exchangeDurationWeeks < type(uint8).max) {... */\n    tag_230:\n        /* \"FairStakeToken.sol\":32288:32316  type(uint256).max / frAmount */\n      tag_232\n        /* \"FairStakeToken.sol\":32308:32316  frAmount */\n      dup5\n      not(0x00)\n        /* \"FairStakeToken.sol\":32288:32316  type(uint256).max / frAmount */\n      tag_233\n      jump\t// in\n    tag_232:\n        /* \"FairStakeToken.sol\":32259:32285  exchangeInfo.rateNumerator */\n      0x01\n      dup3\n      add\n      sload\n      sub(shl(0x58, 0x01), 0x01)\n      and\n        /* \"FairStakeToken.sol\":32259:32316  exchangeInfo.rateNumerator > type(uint256).max / frAmount */\n      gt\n        /* \"FairStakeToken.sol\":32255:32346  if (exchangeInfo.rateNumerator > type(uint256).max / frAmount) revert CalculationOverflow() */\n      iszero\n      tag_234\n      jumpi\n        /* \"FairStakeToken.sol\":32325:32346  CalculationOverflow() */\n      mload(0x40)\n      shl(0xe0, 0x9c154db9)\n      dup2\n      mstore\n      0x04\n      add\n      mload(0x40)\n      dup1\n      swap2\n      sub\n      swap1\n      revert\n        /* \"FairStakeToken.sol\":32255:32346  if (exchangeInfo.rateNumerator > type(uint256).max / frAmount) revert CalculationOverflow() */\n    tag_234:\n        /* \"FairStakeToken.sol\":32439:32465  exchangeInfo.rateNumerator */\n      0x01\n      dup2\n      add\n      sload\n      sub(shl(0x58, 0x01), 0x01)\n      dup1\n      dup3\n      and\n        /* \"FairStakeToken.sol\":32428:32465  frAmount * exchangeInfo.rateNumerator */\n      dup7\n      mul\n      swap2\n        /* \"FairStakeToken.sol\":32365:32382  uint256 numerator */\n      0x00\n      swap2\n      shl(0x58, 0x01)\n        /* \"FairStakeToken.sol\":32573:32601  exchangeInfo.rateDenominator */\n      swap1\n      swap2\n      div\n      and\n        /* \"FairStakeToken.sol\":32428:32465  frAmount * exchangeInfo.rateNumerator */\n      dup3\n        /* \"FairStakeToken.sol\":32573:32601  exchangeInfo.rateDenominator */\n      dup2\n        /* \"FairStakeToken.sol\":32561:32601  numerator / exchangeInfo.rateDenominator */\n      tag_236\n      jumpi\n      tag_236\n      tag_237\n      jump\t// in\n    tag_236:\n      div\n        /* \"FairStakeToken.sol\":32547:32601  tokenAmount = numerator / exchangeInfo.rateDenominator */\n      swap1\n      pop\n        /* \"FairStakeToken.sol\":32695:32706  tokenAmount */\n      dup1\n        /* \"FairStakeToken.sol\":32710:32711  0 */\n      0x00\n        /* \"FairStakeToken.sol\":32695:32711  tokenAmount == 0 */\n      sub\n        /* \"FairStakeToken.sol\":32691:32732  if (tokenAmount == 0) revert ZeroAmount() */\n      tag_238\n      jumpi\n        /* \"FairStakeToken.sol\":32720:32732  ZeroAmount() */\n      mload(0x40)\n      shl(0xe0, 0x1f2a2005)\n      dup2\n      mstore\n      0x04\n      add\n      mload(0x40)\n      dup1\n      swap2\n      sub\n      swap1\n      revert\n        /* \"FairStakeToken.sol\":32691:32732  if (tokenAmount == 0) revert ZeroAmount() */\n    tag_238:\n        /* \"FairStakeToken.sol\":32833:32869  exchangeInfo.remainingExchangeAmount */\n      dup3\n      sload\n        /* \"FairStakeToken.sol\":32819:32869  tokenAmount > exchangeInfo.remainingExchangeAmount */\n      dup2\n      gt\n        /* \"FairStakeToken.sol\":32815:32949  if (tokenAmount > exchangeInfo.remainingExchangeAmount) revert ExceedsExchangeLimit(tokenAmount, exchangeInfo.remainingExchangeAmount) */\n      iszero\n      tag_239\n      jumpi\n        /* \"FairStakeToken.sol\":32912:32948  exchangeInfo.remainingExchangeAmount */\n      dup3\n      sload\n        /* \"FairStakeToken.sol\":32878:32949  ExceedsExchangeLimit(tokenAmount, exchangeInfo.remainingExchangeAmount) */\n      mload(0x40)\n      shl(0xe0, 0xd28cc4cd)\n      dup2\n      mstore\n      tag_222\n      swap2\n        /* \"FairStakeToken.sol\":32899:32910  tokenAmount */\n      dup4\n      swap2\n        /* \"FairStakeToken.sol\":32878:32949  ExceedsExchangeLimit(tokenAmount, exchangeInfo.remainingExchangeAmount) */\n      0x04\n      add\n        /* \"#utility.yul\":7799:7824   */\n      swap2\n      dup3\n      mstore\n        /* \"#utility.yul\":7855:7857   */\n      0x20\n        /* \"#utility.yul\":7840:7858   */\n      dup3\n      add\n        /* \"#utility.yul\":7833:7867   */\n      mstore\n        /* \"#utility.yul\":7787:7789   */\n      0x40\n        /* \"#utility.yul\":7772:7790   */\n      add\n      swap1\n        /* \"#utility.yul\":7625:7873   */\n      jump\n        /* \"FairStakeToken.sol\":32815:32949  if (tokenAmount > exchangeInfo.remainingExchangeAmount) revert ExceedsExchangeLimit(tokenAmount, exchangeInfo.remainingExchangeAmount) */\n    tag_239:\n        /* \"FairStakeToken.sol\":33172:33223  exchangeInfo.remainingExchangeAmount -= tokenAmount */\n      dup3\n      sload\n      dup2\n      swap1\n      sub\n      dup4\n      sstore\n        /* \"FairStakeToken.sol\":33293:33320  _burn(msg.sender, frAmount) */\n      tag_242\n        /* \"FairStakeToken.sol\":33299:33309  msg.sender */\n      caller\n        /* \"FairStakeToken.sol\":33311:33319  frAmount */\n      dup8\n        /* \"FairStakeToken.sol\":33293:33298  _burn */\n      tag_243\n        /* \"FairStakeToken.sol\":33293:33320  _burn(msg.sender, frAmount) */\n      jump\t// in\n    tag_242:\n        /* \"FairStakeToken.sol\":33529:33606  abi.encodeWithSignature(\"transfer(address,uint256)\", msg.sender, tokenAmount) */\n      mload(0x40)\n        /* \"FairStakeToken.sol\":33582:33592  msg.sender */\n      caller\n        /* \"FairStakeToken.sol\":33529:33606  abi.encodeWithSignature(\"transfer(address,uint256)\", msg.sender, tokenAmount) */\n      0x24\n      dup3\n      add\n        /* \"#utility.yul\":8052:8103   */\n      mstore\n        /* \"#utility.yul\":8119:8137   */\n      0x44\n      dup2\n      add\n        /* \"#utility.yul\":8112:8146   */\n      dup3\n      swap1\n      mstore\n        /* \"FairStakeToken.sol\":33471:33483  bool success */\n      0x00\n      swap1\n      dup2\n      swap1\n      sub(shl(0xa0, 0x01), 0x01)\n        /* \"FairStakeToken.sol\":33511:33528  tokenAddress.call */\n      dup11\n      and\n      swap1\n        /* \"#utility.yul\":8025:8043   */\n      0x64\n      add\n        /* \"FairStakeToken.sol\":33529:33606  abi.encodeWithSignature(\"transfer(address,uint256)\", msg.sender, tokenAmount) */\n      0x40\n      dup1\n      mload\n      not(0x1f)\n      dup2\n      dup5\n      sub\n      add\n      dup2\n      mstore\n      swap2\n      dup2\n      mstore\n      0x20\n      dup3\n      add\n      dup1\n      mload\n      sub(shl(0xe0, 0x01), 0x01)\n      and\n      shl(0xe0, 0xa9059cbb)\n      or\n      swap1\n      mstore\n        /* \"FairStakeToken.sol\":33511:33607  tokenAddress.call(abi.encodeWithSignature(\"transfer(address,uint256)\", msg.sender, tokenAmount)) */\n      mload\n      tag_246\n      swap2\n        /* \"FairStakeToken.sol\":33529:33606  abi.encodeWithSignature(\"transfer(address,uint256)\", msg.sender, tokenAmount) */\n      swap1\n        /* \"FairStakeToken.sol\":33511:33607  tokenAddress.call(abi.encodeWithSignature(\"transfer(address,uint256)\", msg.sender, tokenAmount)) */\n      tag_247\n      jump\t// in\n    tag_246:\n      0x00\n      mload(0x40)\n      dup1\n      dup4\n      sub\n      dup2\n      0x00\n      dup7\n      gas\n      call\n      swap2\n      pop\n      pop\n      returndatasize\n      dup1\n      0x00\n      dup2\n      eq\n      tag_250\n      jumpi\n      mload(0x40)\n      swap2\n      pop\n      and(add(returndatasize, 0x3f), not(0x1f))\n      dup3\n      add\n      0x40\n      mstore\n      returndatasize\n      dup3\n      mstore\n      returndatasize\n      0x00\n      0x20\n      dup5\n      add\n      returndatacopy\n      jump(tag_249)\n    tag_250:\n      0x60\n      swap2\n      pop\n    tag_249:\n      pop\n        /* \"FairStakeToken.sol\":33470:33607  (bool success,bytes memory returnData) = tokenAddress.call(abi.encodeWithSignature(\"transfer(address,uint256)\", msg.sender, tokenAmount)) */\n      swap2\n      pop\n      swap2\n      pop\n        /* \"FairStakeToken.sol\":33622:33629  success */\n      dup2\n        /* \"FairStakeToken.sol\":33617:33665  if (!success) revert TransferFailed(tokenAmount) */\n      tag_251\n      jumpi\n        /* \"FairStakeToken.sol\":33638:33665  TransferFailed(tokenAmount) */\n      mload(0x40)\n      shl(0xe0, 0xc39ba1a9)\n      dup2\n      mstore\n      0x04\n      dup2\n      add\n        /* \"#utility.yul\":597:622   */\n      dup5\n      swap1\n      mstore\n        /* \"#utility.yul\":570:588   */\n      0x24\n      add\n        /* \"FairStakeToken.sol\":33638:33665  TransferFailed(tokenAmount) */\n      tag_222\n        /* \"#utility.yul\":451:628   */\n      jump\n        /* \"FairStakeToken.sol\":33617:33665  if (!success) revert TransferFailed(tokenAmount) */\n    tag_251:\n        /* \"FairStakeToken.sol\":33679:33704  exchangeInfo.transferType */\n      0x01\n      dup6\n      add\n      sload\n      shl(0xf8, 0x01)\n      swap1\n      div\n      0xff\n      and\n        /* \"FairStakeToken.sol\":33708:33709  0 */\n      0x00\n        /* \"FairStakeToken.sol\":33679:33709  exchangeInfo.transferType == 0 */\n      sub\n        /* \"FairStakeToken.sol\":33675:34045  if (exchangeInfo.transferType == 0) { //Standard ERC20 has return value        ... */\n      tag_253\n      jumpi\n        /* \"FairStakeToken.sol\":33771:33781  returnData */\n      dup1\n        /* \"FairStakeToken.sol\":33771:33788  returnData.length */\n      mload\n        /* \"FairStakeToken.sol\":33792:33794  32 */\n      0x20\n        /* \"FairStakeToken.sol\":33771:33794  returnData.length != 32 */\n      eq\n        /* \"FairStakeToken.sol\":33767:33849  if (returnData.length != 32) revert InvalidReturnDataLength(32, returnData.length) */\n      tag_254\n      jumpi\n        /* \"FairStakeToken.sol\":33831:33848  returnData.length */\n      dup1\n      mload\n        /* \"FairStakeToken.sol\":33803:33849  InvalidReturnDataLength(32, returnData.length) */\n      mload(0x40)\n      shl(0xe2, 0x1ee66d4f)\n      dup2\n      mstore\n        /* \"FairStakeToken.sol\":33827:33829  32 */\n      0x20\n        /* \"FairStakeToken.sol\":33803:33849  InvalidReturnDataLength(32, returnData.length) */\n      0x04\n      dup3\n      add\n        /* \"#utility.yul\":7799:7824   */\n      mstore\n        /* \"#utility.yul\":7840:7858   */\n      0x24\n      dup2\n      add\n        /* \"#utility.yul\":7833:7867   */\n      swap2\n      swap1\n      swap2\n      mstore\n        /* \"#utility.yul\":7772:7790   */\n      0x44\n      add\n        /* \"FairStakeToken.sol\":33803:33849  InvalidReturnDataLength(32, returnData.length) */\n      tag_222\n        /* \"#utility.yul\":7625:7873   */\n      jump\n        /* \"FairStakeToken.sol\":33767:33849  if (returnData.length != 32) revert InvalidReturnDataLength(32, returnData.length) */\n    tag_254:\n        /* \"FairStakeToken.sol\":33894:33914  bool transferSuccess */\n      0x00\n        /* \"FairStakeToken.sol\":33928:33938  returnData */\n      dup2\n        /* \"FairStakeToken.sol\":33917:33947  abi.decode(returnData, (bool)) */\n      dup1\n      0x20\n      add\n      swap1\n      mload\n      dup2\n      add\n      swap1\n      tag_257\n      swap2\n      swap1\n      tag_258\n      jump\t// in\n    tag_257:\n        /* \"FairStakeToken.sol\":33894:33947  bool transferSuccess = abi.decode(returnData, (bool)) */\n      swap1\n      pop\n        /* \"FairStakeToken.sol\":33983:33998  transferSuccess */\n      dup1\n        /* \"FairStakeToken.sol\":33979:34034  if(!transferSuccess) revert TransferFailed(tokenAmount) */\n      tag_259\n      jumpi\n        /* \"FairStakeToken.sol\":34007:34034  TransferFailed(tokenAmount) */\n      mload(0x40)\n      shl(0xe0, 0xc39ba1a9)\n      dup2\n      mstore\n      0x04\n      dup2\n      add\n        /* \"#utility.yul\":597:622   */\n      dup6\n      swap1\n      mstore\n        /* \"#utility.yul\":570:588   */\n      0x24\n      add\n        /* \"FairStakeToken.sol\":34007:34034  TransferFailed(tokenAmount) */\n      tag_222\n        /* \"#utility.yul\":451:628   */\n      jump\n        /* \"FairStakeToken.sol\":33979:34034  if(!transferSuccess) revert TransferFailed(tokenAmount) */\n    tag_259:\n        /* \"FairStakeToken.sol\":33711:34045  { //Standard ERC20 has return value        ... */\n      pop\n        /* \"FairStakeToken.sol\":33675:34045  if (exchangeInfo.transferType == 0) { //Standard ERC20 has return value        ... */\n    tag_253:\n        /* \"FairStakeToken.sol\":34133:34196  TokenExchanged(msg.sender, tokenAddress, frAmount, tokenAmount) */\n      0x40\n      dup1\n      mload\n        /* \"#utility.yul\":7799:7824   */\n      dup10\n      dup2\n      mstore\n        /* \"#utility.yul\":7855:7857   */\n      0x20\n        /* \"#utility.yul\":7840:7858   */\n      dup2\n      add\n        /* \"#utility.yul\":7833:7867   */\n      dup6\n      swap1\n      mstore\n      sub(shl(0xa0, 0x01), 0x01)\n        /* \"FairStakeToken.sol\":34133:34196  TokenExchanged(msg.sender, tokenAddress, frAmount, tokenAmount) */\n      dup12\n      and\n      swap2\n        /* \"FairStakeToken.sol\":34148:34158  msg.sender */\n      caller\n      swap2\n        /* \"FairStakeToken.sol\":34133:34196  TokenExchanged(msg.sender, tokenAddress, frAmount, tokenAmount) */\n      0x69b4f7d081ba8c7a13dc0ad819546a7aff7bd67d69d55c1824935fce9f26178c\n      swap2\n        /* \"#utility.yul\":7772:7790   */\n      add\n        /* \"FairStakeToken.sol\":34133:34196  TokenExchanged(msg.sender, tokenAddress, frAmount, tokenAmount) */\n      mload(0x40)\n      dup1\n      swap2\n      sub\n      swap1\n      log3\n      pop\n      pop\n        /* \"FairStakeToken.sol\":11015:11023  _entered */\n      0x0b\n        /* \"FairStakeToken.sol\":11015:11031  _entered = false */\n      dup1\n      sload\n      not(0xff)\n      and\n      swap1\n      sstore\n        /* \"FairStakeToken.sol\":34213:34224  tokenAmount */\n      swap7\n        /* \"FairStakeToken.sol\":31041:34231  function exchangeFRForToken(address tokenAddress, uint256 frAmount) external whenModuleNotPaused(FunctionModule.EXCHANGE) nonReentrant returns (uint256) {        // Input validations... */\n      swap6\n      pop\n      pop\n      pop\n      pop\n      pop\n      pop\n      jump\t// out\n        /* \"@openzeppelin/contracts/token/ERC20/ERC20.sol\":1760:1849   */\n    tag_59:\n        /* \"@openzeppelin/contracts/token/ERC20/ERC20.sol\":1805:1818   */\n      0x60\n        /* \"@openzeppelin/contracts/token/ERC20/ERC20.sol\":1837:1842   */\n      0x03\n        /* \"@openzeppelin/contracts/token/ERC20/ERC20.sol\":1830:1842   */\n      dup1\n      sload\n      tag_263\n      swap1\n      tag_264\n      jump\t// in\n    tag_263:\n      dup1\n      0x1f\n      add\n      0x20\n      dup1\n      swap2\n      div\n      mul\n      0x20\n      add\n      mload(0x40)\n      swap1\n      dup2\n      add\n      0x40\n      mstore\n      dup1\n      swap3\n      swap2\n      swap1\n      dup2\n      dup2\n      mstore\n      0x20\n      add\n      dup3\n      dup1\n      sload\n      tag_265\n      swap1\n      tag_264\n      jump\t// in\n    tag_265:\n      dup1\n      iszero\n      tag_266\n      jumpi\n      dup1\n      0x1f\n      lt\n      tag_267\n      jumpi\n      0x0100\n      dup1\n      dup4\n      sload\n      div\n      mul\n      dup4\n      mstore\n      swap2\n      0x20\n      add\n      swap2\n      jump(tag_266)\n    tag_267:\n      dup3\n      add\n      swap2\n      swap1\n      0x00\n      mstore\n      keccak256(0x00, 0x20)\n      swap1\n    tag_268:\n      dup2\n      sload\n      dup2\n      mstore\n      swap1\n      0x01\n      add\n      swap1\n      0x20\n      add\n      dup1\n      dup4\n      gt\n      tag_268\n      jumpi\n      dup3\n      swap1\n      sub\n      0x1f\n      and\n      dup3\n      add\n      swap2\n    tag_266:\n      pop\n      pop\n      pop\n      pop\n      pop\n      swap1\n      pop\n        /* \"@openzeppelin/contracts/token/ERC20/ERC20.sol\":1760:1849   */\n      swap1\n      jump\t// out\n        /* \"@openzeppelin/contracts/token/ERC20/ERC20.sol\":3902:4088   */\n    tag_65:\n        /* \"@openzeppelin/contracts/token/ERC20/ERC20.sol\":3975:3979   */\n      0x00\n        /* \"@openzeppelin/contracts/utils/Context.sol\":735:745   */\n      caller\n        /* \"@openzeppelin/contracts/token/ERC20/ERC20.sol\":4029:4060   */\n      tag_272\n        /* \"@openzeppelin/contracts/utils/Context.sol\":735:745   */\n      dup2\n        /* \"@openzeppelin/contracts/token/ERC20/ERC20.sol\":4045:4052   */\n      dup6\n        /* \"@openzeppelin/contracts/token/ERC20/ERC20.sol\":4054:4059   */\n      dup6\n        /* \"@openzeppelin/contracts/token/ERC20/ERC20.sol\":4029:4037   */\n      tag_273\n        /* \"@openzeppelin/contracts/token/ERC20/ERC20.sol\":4029:4060   */\n      jump\t// in\n    tag_272:\n        /* \"@openzeppelin/contracts/token/ERC20/ERC20.sol\":4077:4081   */\n      0x01\n        /* \"@openzeppelin/contracts/token/ERC20/ERC20.sol\":4070:4081   */\n      swap2\n      pop\n      pop\n        /* \"@openzeppelin/contracts/token/ERC20/ERC20.sol\":3902:4088   */\n    tag_269:\n      swap3\n      swap2\n      pop\n      pop\n      jump\t// out\n        /* \"@openzeppelin/contracts/token/ERC20/ERC20.sol\":4680:4924   */\n    tag_76:\n        /* \"@openzeppelin/contracts/token/ERC20/ERC20.sol\":4767:4771   */\n      0x00\n        /* \"@openzeppelin/contracts/utils/Context.sol\":735:745   */\n      caller\n        /* \"@openzeppelin/contracts/token/ERC20/ERC20.sol\":4823:4860   */\n      tag_277\n        /* \"@openzeppelin/contracts/token/ERC20/ERC20.sol\":4839:4843   */\n      dup6\n        /* \"@openzeppelin/contracts/utils/Context.sol\":735:745   */\n      dup3\n        /* \"@openzeppelin/contracts/token/ERC20/ERC20.sol\":4854:4859   */\n      dup6\n        /* \"@openzeppelin/contracts/token/ERC20/ERC20.sol\":4823:4838   */\n      tag_278\n        /* \"@openzeppelin/contracts/token/ERC20/ERC20.sol\":4823:4860   */\n      jump\t// in\n    tag_277:\n        /* \"@openzeppelin/contracts/token/ERC20/ERC20.sol\":4870:4896   */\n      tag_279\n        /* \"@openzeppelin/contracts/token/ERC20/ERC20.sol\":4880:4884   */\n      dup6\n        /* \"@openzeppelin/contracts/token/ERC20/ERC20.sol\":4886:4888   */\n      dup6\n        /* \"@openzeppelin/contracts/token/ERC20/ERC20.sol\":4890:4895   */\n      dup6\n        /* \"@openzeppelin/contracts/token/ERC20/ERC20.sol\":4870:4879   */\n      tag_280\n        /* \"@openzeppelin/contracts/token/ERC20/ERC20.sol\":4870:4896   */\n      jump\t// in\n    tag_279:\n      pop\n        /* \"@openzeppelin/contracts/token/ERC20/ERC20.sol\":4913:4917   */\n      0x01\n      swap5\n        /* \"@openzeppelin/contracts/token/ERC20/ERC20.sol\":4680:4924   */\n      swap4\n      pop\n      pop\n      pop\n      pop\n      jump\t// out\n        /* \"FairStakeToken.sol\":24855:27779  function unstake() external whenModuleNotPaused(FunctionModule.UNSTAKE) nonReentrant returns(bool) {... */\n    tag_80:\n        /* \"FairStakeToken.sol\":10500:10506  paused */\n      sload(0x05)\n        /* \"FairStakeToken.sol\":24948:24952  bool */\n      0x00\n      swap1\n        /* \"FairStakeToken.sol\":24903:24925  FunctionModule.UNSTAKE */\n      0x01\n      swap1\n      shl(0xa0, 0x01)\n        /* \"FairStakeToken.sol\":10500:10506  paused */\n      swap1\n      div\n      0xff\n      and\n      dup1\n        /* \"FairStakeToken.sol\":10500:10531  paused || pausedModules[module] */\n      tag_282\n      jumpi\n      pop\n        /* \"FairStakeToken.sol\":10510:10523  pausedModules */\n      0x06\n        /* \"FairStakeToken.sol\":10510:10531  pausedModules[module] */\n      0x00\n        /* \"FairStakeToken.sol\":10524:10530  module */\n      dup3\n        /* \"FairStakeToken.sol\":10510:10531  pausedModules[module] */\n      0x04\n      dup2\n      gt\n      iszero\n      tag_284\n      jumpi\n      tag_284\n      tag_216\n      jump\t// in\n    tag_284:\n      0x04\n      dup2\n      gt\n      iszero\n      tag_286\n      jumpi\n      tag_286\n      tag_216\n      jump\t// in\n    tag_286:\n      dup2\n      mstore\n      0x20\n      dup2\n      add\n      swap2\n      swap1\n      swap2\n      mstore\n      0x40\n      add\n      0x00\n      keccak256\n      sload\n      0xff\n      and\n        /* \"FairStakeToken.sol\":10500:10531  paused || pausedModules[module] */\n    tag_282:\n        /* \"FairStakeToken.sol\":10496:10581  if (paused || pausedModules[module]) {... */\n      iszero\n      tag_287\n      jumpi\n        /* \"FairStakeToken.sol\":10554:10570  PausedContract() */\n      mload(0x40)\n      shl(0xe1, 0x79915593)\n      dup2\n      mstore\n      0x04\n      add\n      mload(0x40)\n      dup1\n      swap2\n      sub\n      swap1\n      revert\n        /* \"FairStakeToken.sol\":10496:10581  if (paused || pausedModules[module]) {... */\n    tag_287:\n        /* \"FairStakeToken.sol\":10781:10789  _entered */\n      and(0xff, sload(0x0b))\n        /* \"FairStakeToken.sol\":10780:10789  !_entered */\n      iszero\n        /* \"FairStakeToken.sol\":10772:10825  require(!_entered, \"ReentrancyGuard: reentrant call\") */\n      tag_289\n      jumpi\n      mload(0x40)\n      shl(0xe5, 0x461bcd)\n      dup2\n      mstore\n      0x04\n      add\n      tag_222\n      swap1\n      tag_223\n      jump\t// in\n    tag_289:\n        /* \"FairStakeToken.sol\":10898:10906  _entered */\n      0x0b\n        /* \"FairStakeToken.sol\":10898:10913  _entered = true */\n      dup1\n      sload\n      not(0xff)\n      and\n        /* \"FairStakeToken.sol\":10909:10913  true */\n      0x01\n        /* \"FairStakeToken.sol\":10898:10913  _entered = true */\n      swap1\n      dup2\n      or\n      swap1\n      swap2\n      sstore\n        /* \"FairStakeToken.sol\":25032:25042  msg.sender */\n      caller\n        /* \"FairStakeToken.sol\":10898:10906  _entered */\n      0x00\n        /* \"FairStakeToken.sol\":25025:25043  stakes[msg.sender] */\n      swap1\n      dup2\n      mstore\n        /* \"FairStakeToken.sol\":25025:25031  stakes */\n      0x0a\n        /* \"FairStakeToken.sol\":25025:25043  stakes[msg.sender] */\n      0x20\n      mstore\n      0x40\n      dup2\n      keccak256\n        /* \"FairStakeToken.sol\":25139:25169  userStake.unstakeRequestAmount */\n      swap2\n      dup3\n      add\n      sload\n      swap1\n        /* \"FairStakeToken.sol\":25183:25203  amountToUnstake == 0 */\n      dup2\n      swap1\n      sub\n        /* \"FairStakeToken.sol\":25179:25255  if (amountToUnstake == 0) {... */\n      tag_292\n      jumpi\n        /* \"FairStakeToken.sol\":25226:25244  NoUnstakeRequest() */\n      mload(0x40)\n      shl(0xe0, 0x16f68e4b)\n      dup2\n      mstore\n      0x04\n      add\n      mload(0x40)\n      dup1\n      swap2\n      sub\n      swap1\n      revert\n        /* \"FairStakeToken.sol\":25179:25255  if (amountToUnstake == 0) {... */\n    tag_292:\n        /* \"FairStakeToken.sol\":25335:25360  userStake.unstakeWaitDays */\n      0x02\n      dup3\n      add\n      sload\n      shl(0xc0, 0x01)\n      swap1\n      div\n      sub(shl(0x40, 0x01), 0x01)\n      and\n        /* \"FairStakeToken.sol\":25317:25332  uint64 waitDays */\n      0x00\n        /* \"FairStakeToken.sol\":25458:25471  waitDays == 0 */\n      dup2\n      swap1\n      sub\n        /* \"FairStakeToken.sol\":25454:25511  if (waitDays == 0) {... */\n      tag_293\n      jumpi\n      pop\n        /* \"FairStakeToken.sol\":25498:25500  30 */\n      0x1e\n        /* \"FairStakeToken.sol\":25454:25511  if (waitDays == 0) {... */\n    tag_293:\n        /* \"FairStakeToken.sol\":25715:25743  userStake.unstakeRequestTime */\n      0x02\n      dup4\n      add\n      sload\n      shl(0x80, 0x01)\n      swap1\n      div\n      sub(shl(0x40, 0x01), 0x01)\n      swap1\n      dup2\n      and\n        /* \"FairStakeToken.sol\":25747:25753  1 days */\n      0x015180\n        /* \"FairStakeToken.sol\":25812:25829  waitDays * 1 days */\n      dup4\n      dup2\n      mul\n        /* \"FairStakeToken.sol\":25780:25830  userStake.unstakeRequestTime + (waitDays * 1 days) */\n      dup3\n      add\n        /* \"FairStakeToken.sol\":25767:25830  unlockTime = userStake.unstakeRequestTime + (waitDays * 1 days) */\n      swap1\n      swap3\n      and\n      swap2\n        /* \"FairStakeToken.sol\":25697:25712  block.timestamp */\n      timestamp\n        /* \"FairStakeToken.sol\":25697:25743  block.timestamp - userStake.unstakeRequestTime */\n      swap2\n      dup3\n      sub\n        /* \"FairStakeToken.sol\":25696:25753  (block.timestamp - userStake.unstakeRequestTime) / 1 days */\n      div\n      swap1\n      dup3\n      gt\n        /* \"FairStakeToken.sol\":25904:26015  if (block.timestamp < unlockTime) {... */\n      iszero\n      tag_296\n      jumpi\n        /* \"FairStakeToken.sol\":25959:26004  LockPeriodNotCompleted(waitDays, elapsedDays) */\n      mload(0x40)\n      shl(0xe0, 0x20485349)\n      dup2\n      mstore\n      sub(shl(0x40, 0x01), 0x01)\n        /* \"#utility.yul\":9569:9600   */\n      dup5\n      and\n        /* \"FairStakeToken.sol\":25959:26004  LockPeriodNotCompleted(waitDays, elapsedDays) */\n      0x04\n      dup3\n      add\n        /* \"#utility.yul\":9551:9601   */\n      mstore\n        /* \"#utility.yul\":9617:9635   */\n      0x24\n      dup2\n      add\n        /* \"#utility.yul\":9610:9644   */\n      dup3\n      swap1\n      mstore\n        /* \"#utility.yul\":9524:9542   */\n      0x44\n      add\n        /* \"FairStakeToken.sol\":25959:26004  LockPeriodNotCompleted(waitDays, elapsedDays) */\n      tag_222\n        /* \"#utility.yul\":9378:9650   */\n      jump\n        /* \"FairStakeToken.sol\":25904:26015  if (block.timestamp < unlockTime) {... */\n    tag_296:\n        /* \"FairStakeToken.sol\":26079:26096  uint256 feeAmount */\n      0x00\n        /* \"FairStakeToken.sol\":26137:26152  amountToUnstake */\n      dup5\n        /* \"FairStakeToken.sol\":26247:26249  60 */\n      0x3c\n      sub(shl(0x40, 0x01), 0x01)\n        /* \"FairStakeToken.sol\":26236:26249  waitDays < 60 */\n      dup7\n      and\n      lt\n        /* \"FairStakeToken.sol\":26232:26872  if (waitDays < 60) {... */\n      iszero\n      tag_299\n      jumpi\n      sub(shl(0x40, 0x01), 0x01)\n        /* \"FairStakeToken.sol\":26318:26320  60 */\n      0x3c\n        /* \"FairStakeToken.sol\":26318:26331  60 - waitDays */\n      dup7\n      swap1\n      sub\n        /* \"FairStakeToken.sol\":26293:26331  uint256 daysDifference = 60 - waitDays */\n      and\n        /* \"FairStakeToken.sol\":26390:26391  2 */\n      0x02\n        /* \"FairStakeToken.sol\":26373:26391  daysDifference * 2 */\n      dup2\n      mul\n      dup1\n      not(0x00)\n      dup2\n        /* \"FairStakeToken.sol\":26556:26589  type(uint256).max / feePercentage */\n      tag_301\n      jumpi\n      tag_301\n      tag_237\n      jump\t// in\n    tag_301:\n      div\n        /* \"FairStakeToken.sol\":26538:26553  amountToUnstake */\n      dup9\n        /* \"FairStakeToken.sol\":26538:26589  amountToUnstake > type(uint256).max / feePercentage */\n      gt\n        /* \"FairStakeToken.sol\":26534:26660  if (amountToUnstake > type(uint256).max / feePercentage) {... */\n      iszero\n      tag_302\n      jumpi\n        /* \"FairStakeToken.sol\":26620:26641  CalculationOverflow() */\n      mload(0x40)\n      shl(0xe0, 0x9c154db9)\n      dup2\n      mstore\n      0x04\n      add\n      mload(0x40)\n      dup1\n      swap2\n      sub\n      swap1\n      revert\n        /* \"FairStakeToken.sol\":26534:26660  if (amountToUnstake > type(uint256).max / feePercentage) {... */\n    tag_302:\n        /* \"FairStakeToken.sol\":26740:26744  1000 */\n      0x03e8\n        /* \"FairStakeToken.sol\":26706:26737  amountToUnstake * feePercentage */\n      swap1\n      dup9\n      mul\n        /* \"FairStakeToken.sol\":26706:26744  amountToUnstake * feePercentage / 1000 */\n      div\n      swap3\n      pop\n      pop\n      pop\n        /* \"FairStakeToken.sol\":26820:26847  amountToUnstake - feeAmount */\n      dup1\n      dup6\n      sub\n        /* \"FairStakeToken.sol\":26232:26872  if (waitDays < 60) {... */\n    tag_299:\n        /* \"FairStakeToken.sol\":27049:27050  0 */\n      0x00\n        /* \"FairStakeToken.sol\":27016:27046  userStake.unstakeRequestAmount */\n      0x01\n      dup9\n      add\n        /* \"FairStakeToken.sol\":27016:27050  userStake.unstakeRequestAmount = 0 */\n      dup2\n      swap1\n      sstore\n        /* \"FairStakeToken.sol\":27060:27088  userStake.unstakeRequestTime */\n      0x02\n      dup9\n      add\n        /* \"FairStakeToken.sol\":27060:27092  userStake.unstakeRequestTime = 0 */\n      dup1\n      sload\n      sub(shl(0x80, 0x01), 0x01)\n        /* \"FairStakeToken.sol\":27102:27131  userStake.unstakeWaitDays = 0 */\n      and\n      swap1\n      sstore\n        /* \"FairStakeToken.sol\":27215:27229  totalUnstaking */\n      0x08\n        /* \"FairStakeToken.sol\":27215:27248  totalUnstaking -= amountToUnstake */\n      dup1\n      sload\n      dup9\n      swap1\n      sub\n      swap1\n      sstore\n        /* \"FairStakeToken.sol\":27331:27347  userStake.amount */\n      dup8\n      sload\n        /* \"FairStakeToken.sol\":27331:27352  userStake.amount == 0 */\n      swap1\n      sub\n        /* \"FairStakeToken.sol\":27327:27402  if (userStake.amount == 0) {... */\n      tag_305\n      jumpi\n        /* \"FairStakeToken.sol\":27368:27387  userStake.startTime */\n      0x02\n      dup8\n      add\n        /* \"FairStakeToken.sol\":27368:27391  userStake.startTime = 0 */\n      dup1\n      sload\n      not(0xffffffffffffffff)\n      and\n      swap1\n      sstore\n        /* \"FairStakeToken.sol\":27327:27402  if (userStake.amount == 0) {... */\n    tag_305:\n        /* \"FairStakeToken.sol\":27492:27542  stakedToken.transfer(msg.sender, amountToTransfer) */\n      mload(0x40)\n      shl(0xe0, 0xa9059cbb)\n      dup2\n      mstore\n        /* \"FairStakeToken.sol\":27513:27523  msg.sender */\n      caller\n        /* \"FairStakeToken.sol\":27492:27542  stakedToken.transfer(msg.sender, amountToTransfer) */\n      0x04\n      dup3\n      add\n        /* \"#utility.yul\":8052:8103   */\n      mstore\n        /* \"#utility.yul\":8119:8137   */\n      0x24\n      dup2\n      add\n        /* \"#utility.yul\":8112:8146   */\n      dup3\n      swap1\n      mstore\n        /* \"FairStakeToken.sol\":27492:27503  stakedToken */\n      immutable(\"0x5ad0f966e4dd8863f27c0e6ee7d684c0c8f4319efed210fe15662a0d29bcd615\")\n      sub(shl(0xa0, 0x01), 0x01)\n        /* \"FairStakeToken.sol\":27492:27512  stakedToken.transfer */\n      and\n      swap1\n      0xa9059cbb\n      swap1\n        /* \"#utility.yul\":8025:8043   */\n      0x44\n      add\n        /* \"FairStakeToken.sol\":27492:27542  stakedToken.transfer(msg.sender, amountToTransfer) */\n      0x20\n      mload(0x40)\n      dup1\n      dup4\n      sub\n      dup2\n      0x00\n      dup8\n      gas\n      call\n      iszero\n      dup1\n      iszero\n      tag_308\n      jumpi\n      returndatasize\n      0x00\n      dup1\n      returndatacopy\n      revert(0x00, returndatasize)\n    tag_308:\n      pop\n      pop\n      pop\n      pop\n      mload(0x40)\n      returndatasize\n      not(0x1f)\n      0x1f\n      dup3\n      add\n      and\n      dup3\n      add\n      dup1\n      0x40\n      mstore\n      pop\n      dup2\n      add\n      swap1\n      tag_309\n      swap2\n      swap1\n      tag_258\n      jump\t// in\n    tag_309:\n        /* \"FairStakeToken.sol\":27487:27608  if (!stakedToken.transfer(msg.sender, amountToTransfer)) {... */\n      tag_310\n      jumpi\n        /* \"FairStakeToken.sol\":27565:27597  TransferFailed(amountToTransfer) */\n      mload(0x40)\n      shl(0xe0, 0xc39ba1a9)\n      dup2\n      mstore\n      0x04\n      dup2\n      add\n        /* \"#utility.yul\":597:622   */\n      dup3\n      swap1\n      mstore\n        /* \"#utility.yul\":570:588   */\n      0x24\n      add\n        /* \"FairStakeToken.sol\":27565:27597  TransferFailed(amountToTransfer) */\n      tag_222\n        /* \"#utility.yul\":451:628   */\n      jump\n        /* \"FairStakeToken.sol\":27487:27608  if (!stakedToken.transfer(msg.sender, amountToTransfer)) {... */\n    tag_310:\n        /* \"FairStakeToken.sol\":27703:27751  Unstaked(msg.sender, amountToUnstake, feeAmount) */\n      0x40\n      dup1\n      mload\n        /* \"#utility.yul\":7799:7824   */\n      dup8\n      dup2\n      mstore\n        /* \"#utility.yul\":7855:7857   */\n      0x20\n        /* \"#utility.yul\":7840:7858   */\n      dup2\n      add\n        /* \"#utility.yul\":7833:7867   */\n      dup5\n      swap1\n      mstore\n        /* \"FairStakeToken.sol\":27712:27722  msg.sender */\n      caller\n      swap2\n        /* \"FairStakeToken.sol\":27703:27751  Unstaked(msg.sender, amountToUnstake, feeAmount) */\n      0x7fc4727e062e336010f2c282598ef5f14facb3de68cf8195c2f23e1454b2b74e\n      swap2\n        /* \"#utility.yul\":7772:7790   */\n      add\n        /* \"FairStakeToken.sol\":27703:27751  Unstaked(msg.sender, amountToUnstake, feeAmount) */\n      mload(0x40)\n      dup1\n      swap2\n      sub\n      swap1\n      log2\n        /* \"FairStakeToken.sol\":27768:27772  true */\n      0x01\n        /* \"FairStakeToken.sol\":27761:27772  return true */\n      swap9\n      pop\n      pop\n      pop\n      pop\n      pop\n      pop\n      pop\n      pop\n      pop\n        /* \"FairStakeToken.sol\":11015:11023  _entered */\n      0x0b\n        /* \"FairStakeToken.sol\":11015:11031  _entered = false */\n      dup1\n      sload\n      not(0xff)\n      and\n      swap1\n      sstore\n        /* \"FairStakeToken.sol\":24855:27779  function unstake() external whenModuleNotPaused(FunctionModule.UNSTAKE) nonReentrant returns(bool) {... */\n      swap1\n      jump\t// out\n        /* \"FairStakeToken.sol\":12325:12471  function unpause() external isOwner {... */\n    tag_89:\n        /* \"FairStakeToken.sol\":10258:10263  owner */\n      and(sub(shl(0xa0, 0x01), 0x01), sload(0x05))\n        /* \"FairStakeToken.sol\":10244:10254  msg.sender */\n      caller\n        /* \"FairStakeToken.sol\":10244:10263  msg.sender != owner */\n      eq\n        /* \"FairStakeToken.sol\":10240:10312  if (msg.sender != owner) {... */\n      tag_315\n      jumpi\n        /* \"FairStakeToken.sol\":10286:10301  NotAuthorized() */\n      mload(0x40)\n      shl(0xe0, 0xea8e4eb5)\n      dup2\n      mstore\n      0x04\n      add\n      mload(0x40)\n      dup1\n      swap2\n      sub\n      swap1\n      revert\n        /* \"FairStakeToken.sol\":10240:10312  if (msg.sender != owner) {... */\n    tag_315:\n        /* \"FairStakeToken.sol\":12371:12377  paused */\n      0x05\n        /* \"FairStakeToken.sol\":12371:12385  paused = false */\n      dup1\n      sload\n      not(shl(0xa0, 0xff))\n      and\n      swap1\n      sstore\n        /* \"FairStakeToken.sol\":12421:12441  Unpaused(msg.sender) */\n      mload(0x40)\n        /* \"FairStakeToken.sol\":12430:12440  msg.sender */\n      caller\n      swap1\n        /* \"FairStakeToken.sol\":12421:12441  Unpaused(msg.sender) */\n      0x5db9ee0a495bf2e6ff9c91a7834c1ba4fdd244a5e8aa4e537bd38aeae4b073aa\n      swap1\n        /* \"FairStakeToken.sol\":12380:12385  false */\n      0x00\n      swap1\n        /* \"FairStakeToken.sol\":12421:12441  Unpaused(msg.sender) */\n      log2\n        /* \"FairStakeToken.sol\":12325:12471  function unpause() external isOwner {... */\n      jump\t// out\n        /* \"FairStakeToken.sol\":30005:30304  function burn(uint256 amount) external whenModuleNotPaused(FunctionModule.BURN) {... */\n    tag_94:\n        /* \"FairStakeToken.sol\":10500:10506  paused */\n      sload(0x05)\n        /* \"FairStakeToken.sol\":30064:30083  FunctionModule.BURN */\n      0x04\n      swap1\n      shl(0xa0, 0x01)\n        /* \"FairStakeToken.sol\":10500:10506  paused */\n      swap1\n      div\n      0xff\n      and\n      dup1\n        /* \"FairStakeToken.sol\":10500:10531  paused || pausedModules[module] */\n      tag_318\n      jumpi\n      pop\n        /* \"FairStakeToken.sol\":10510:10523  pausedModules */\n      0x06\n        /* \"FairStakeToken.sol\":10510:10531  pausedModules[module] */\n      0x00\n        /* \"FairStakeToken.sol\":10524:10530  module */\n      dup3\n        /* \"FairStakeToken.sol\":10510:10531  pausedModules[module] */\n      0x04\n      dup2\n      gt\n      iszero\n      tag_320\n      jumpi\n      tag_320\n      tag_216\n      jump\t// in\n    tag_320:\n      0x04\n      dup2\n      gt\n      iszero\n      tag_322\n      jumpi\n      tag_322\n      tag_216\n      jump\t// in\n    tag_322:\n      dup2\n      mstore\n      0x20\n      dup2\n      add\n      swap2\n      swap1\n      swap2\n      mstore\n      0x40\n      add\n      0x00\n      keccak256\n      sload\n      0xff\n      and\n        /* \"FairStakeToken.sol\":10500:10531  paused || pausedModules[module] */\n    tag_318:\n        /* \"FairStakeToken.sol\":10496:10581  if (paused || pausedModules[module]) {... */\n      iszero\n      tag_323\n      jumpi\n        /* \"FairStakeToken.sol\":10554:10570  PausedContract() */\n      mload(0x40)\n      shl(0xe1, 0x79915593)\n      dup2\n      mstore\n      0x04\n      add\n      mload(0x40)\n      dup1\n      swap2\n      sub\n      swap1\n      revert\n        /* \"FairStakeToken.sol\":10496:10581  if (paused || pausedModules[module]) {... */\n    tag_323:\n        /* \"FairStakeToken.sol\":30137:30138  0 */\n      0x00\n        /* \"FairStakeToken.sol\":30127:30133  amount */\n      dup3\n        /* \"FairStakeToken.sol\":30127:30138  amount <= 0 */\n      gt\n        /* \"FairStakeToken.sol\":30123:30159  if (amount <= 0) revert ZeroAmount() */\n      tag_325\n      jumpi\n        /* \"FairStakeToken.sol\":30147:30159  ZeroAmount() */\n      mload(0x40)\n      shl(0xe0, 0x1f2a2005)\n      dup2\n      mstore\n      0x04\n      add\n      mload(0x40)\n      dup1\n      swap2\n      sub\n      swap1\n      revert\n        /* \"FairStakeToken.sol\":30123:30159  if (amount <= 0) revert ZeroAmount() */\n    tag_325:\n        /* \"FairStakeToken.sol\":30201:30226  _burn(msg.sender, amount) */\n      tag_326\n        /* \"FairStakeToken.sol\":30207:30217  msg.sender */\n      caller\n        /* \"FairStakeToken.sol\":30219:30225  amount */\n      dup4\n        /* \"FairStakeToken.sol\":30201:30206  _burn */\n      tag_243\n        /* \"FairStakeToken.sol\":30201:30226  _burn(msg.sender, amount) */\n      jump\t// in\n    tag_326:\n        /* \"FairStakeToken.sol\":30272:30297  Burnt(msg.sender, amount) */\n      mload(0x40)\n        /* \"#utility.yul\":597:622   */\n      dup3\n      dup2\n      mstore\n        /* \"FairStakeToken.sol\":30278:30288  msg.sender */\n      caller\n      swap1\n        /* \"FairStakeToken.sol\":30272:30297  Burnt(msg.sender, amount) */\n      0x919f7e2092ffcc9d09f599be18d8152860b0c054df788a33bc549cdd9d0f15b1\n      swap1\n        /* \"#utility.yul\":585:587   */\n      0x20\n        /* \"#utility.yul\":570:588   */\n      add\n        /* \"FairStakeToken.sol\":30272:30297  Burnt(msg.sender, amount) */\n      mload(0x40)\n      dup1\n      swap2\n      sub\n      swap1\n      log2\n        /* \"FairStakeToken.sol\":30005:30304  function burn(uint256 amount) external whenModuleNotPaused(FunctionModule.BURN) {... */\n      pop\n      pop\n      jump\t// out\n        /* \"FairStakeToken.sol\":22103:24211  function requestUnstake(uint256 amount, uint64 waitDays) external whenModuleNotPaused(FunctionModule.UNSTAKE) nonReentrant returns(bool) {... */\n    tag_99:\n        /* \"FairStakeToken.sol\":10500:10506  paused */\n      sload(0x05)\n        /* \"FairStakeToken.sol\":22234:22238  bool */\n      0x00\n      swap1\n        /* \"FairStakeToken.sol\":22189:22211  FunctionModule.UNSTAKE */\n      0x01\n      swap1\n      shl(0xa0, 0x01)\n        /* \"FairStakeToken.sol\":10500:10506  paused */\n      swap1\n      div\n      0xff\n      and\n      dup1\n        /* \"FairStakeToken.sol\":10500:10531  paused || pausedModules[module] */\n      tag_329\n      jumpi\n      pop\n        /* \"FairStakeToken.sol\":10510:10523  pausedModules */\n      0x06\n        /* \"FairStakeToken.sol\":10510:10531  pausedModules[module] */\n      0x00\n        /* \"FairStakeToken.sol\":10524:10530  module */\n      dup3\n        /* \"FairStakeToken.sol\":10510:10531  pausedModules[module] */\n      0x04\n      dup2\n      gt\n      iszero\n      tag_331\n      jumpi\n      tag_331\n      tag_216\n      jump\t// in\n    tag_331:\n      0x04\n      dup2\n      gt\n      iszero\n      tag_333\n      jumpi\n      tag_333\n      tag_216\n      jump\t// in\n    tag_333:\n      dup2\n      mstore\n      0x20\n      dup2\n      add\n      swap2\n      swap1\n      swap2\n      mstore\n      0x40\n      add\n      0x00\n      keccak256\n      sload\n      0xff\n      and\n        /* \"FairStakeToken.sol\":10500:10531  paused || pausedModules[module] */\n    tag_329:\n        /* \"FairStakeToken.sol\":10496:10581  if (paused || pausedModules[module]) {... */\n      iszero\n      tag_334\n      jumpi\n        /* \"FairStakeToken.sol\":10554:10570  PausedContract() */\n      mload(0x40)\n      shl(0xe1, 0x79915593)\n      dup2\n      mstore\n      0x04\n      add\n      mload(0x40)\n      dup1\n      swap2\n      sub\n      swap1\n      revert\n        /* \"FairStakeToken.sol\":10496:10581  if (paused || pausedModules[module]) {... */\n    tag_334:\n        /* \"FairStakeToken.sol\":10781:10789  _entered */\n      and(0xff, sload(0x0b))\n        /* \"FairStakeToken.sol\":10780:10789  !_entered */\n      iszero\n        /* \"FairStakeToken.sol\":10772:10825  require(!_entered, \"ReentrancyGuard: reentrant call\") */\n      tag_336\n      jumpi\n      mload(0x40)\n      shl(0xe5, 0x461bcd)\n      dup2\n      mstore\n      0x04\n      add\n      tag_222\n      swap1\n      tag_223\n      jump\t// in\n    tag_336:\n        /* \"FairStakeToken.sol\":10898:10906  _entered */\n      0x0b\n        /* \"FairStakeToken.sol\":10898:10913  _entered = true */\n      dup1\n      sload\n      not(0xff)\n      and\n        /* \"FairStakeToken.sol\":10909:10913  true */\n      0x01\n        /* \"FairStakeToken.sol\":10898:10913  _entered = true */\n      or\n      swap1\n      sstore\n        /* \"FairStakeToken.sol\":22318:22328  msg.sender */\n      caller\n        /* \"FairStakeToken.sol\":10898:10906  _entered */\n      0x00\n        /* \"FairStakeToken.sol\":22311:22329  stakes[msg.sender] */\n      swap1\n      dup2\n      mstore\n        /* \"FairStakeToken.sol\":22311:22317  stakes */\n      0x0a\n        /* \"FairStakeToken.sol\":22311:22329  stakes[msg.sender] */\n      0x20\n      mstore\n      0x40\n      dup2\n      keccak256\n      swap1\n        /* \"FairStakeToken.sol\":22381:22392  amount == 0 */\n      dup6\n      swap1\n      sub\n        /* \"FairStakeToken.sol\":22377:22438  if (amount == 0) {... */\n      tag_339\n      jumpi\n        /* \"FairStakeToken.sol\":22415:22427  ZeroAmount() */\n      mload(0x40)\n      shl(0xe0, 0x1f2a2005)\n      dup2\n      mstore\n      0x04\n      add\n      mload(0x40)\n      dup1\n      swap2\n      sub\n      swap1\n      revert\n        /* \"FairStakeToken.sol\":22377:22438  if (amount == 0) {... */\n    tag_339:\n        /* \"FairStakeToken.sol\":22460:22476  userStake.amount */\n      dup1\n      sload\n        /* \"FairStakeToken.sol\":22460:22485  userStake.amount < amount */\n      dup6\n      gt\n        /* \"FairStakeToken.sol\":22456:22564  if (userStake.amount < amount) {... */\n      iszero\n      tag_340\n      jumpi\n        /* \"FairStakeToken.sol\":22536:22552  userStake.amount */\n      dup1\n      sload\n        /* \"FairStakeToken.sol\":22508:22553  InsufficientBalance(amount, userStake.amount) */\n      mload(0x40)\n      shl(0xe0, 0xcf479181)\n      dup2\n      mstore\n      tag_222\n      swap2\n        /* \"FairStakeToken.sol\":22528:22534  amount */\n      dup8\n      swap2\n        /* \"FairStakeToken.sol\":22508:22553  InsufficientBalance(amount, userStake.amount) */\n      0x04\n      add\n        /* \"#utility.yul\":7799:7824   */\n      swap2\n      dup3\n      mstore\n        /* \"#utility.yul\":7855:7857   */\n      0x20\n        /* \"#utility.yul\":7840:7858   */\n      dup3\n      add\n        /* \"#utility.yul\":7833:7867   */\n      mstore\n        /* \"#utility.yul\":7787:7789   */\n      0x40\n        /* \"#utility.yul\":7772:7790   */\n      add\n      swap1\n        /* \"#utility.yul\":7625:7873   */\n      jump\n        /* \"FairStakeToken.sol\":22456:22564  if (userStake.amount < amount) {... */\n    tag_340:\n        /* \"FairStakeToken.sol\":22629:22631  15 */\n      0x0f\n        /* \"FairStakeToken.sol\":22618:22626  waitDays */\n      dup5\n      sub(shl(0x40, 0x01), 0x01)\n        /* \"FairStakeToken.sol\":22618:22631  waitDays < 15 */\n      and\n      lt\n        /* \"FairStakeToken.sol\":22614:22754  if (waitDays < 15) {... */\n      iszero\n      tag_342\n      jumpi\n        /* \"FairStakeToken.sol\":22658:22660  15 */\n      0x0f\n        /* \"FairStakeToken.sol\":22647:22660  waitDays = 15 */\n      swap4\n      pop\n        /* \"FairStakeToken.sol\":22614:22754  if (waitDays < 15) {... */\n      jump(tag_344)\n    tag_342:\n        /* \"FairStakeToken.sol\":22693:22695  60 */\n      0x3c\n        /* \"FairStakeToken.sol\":22682:22690  waitDays */\n      dup5\n      sub(shl(0x40, 0x01), 0x01)\n        /* \"FairStakeToken.sol\":22682:22695  waitDays > 60 */\n      and\n      gt\n        /* \"FairStakeToken.sol\":22678:22754  if (waitDays > 60) {... */\n      iszero\n      tag_344\n      jumpi\n        /* \"FairStakeToken.sol\":22722:22724  60 */\n      0x3c\n        /* \"FairStakeToken.sol\":22711:22724  waitDays = 60 */\n      swap4\n      pop\n        /* \"FairStakeToken.sol\":22678:22754  if (waitDays > 60) {... */\n    tag_344:\n        /* \"FairStakeToken.sol\":22832:22852  uint256 earnedTokens */\n      0x00\n        /* \"FairStakeToken.sol\":22855:22888  calculateEarnedTokens(msg.sender) */\n      tag_345\n        /* \"FairStakeToken.sol\":22877:22887  msg.sender */\n      caller\n        /* \"FairStakeToken.sol\":22855:22876  calculateEarnedTokens */\n      tag_159\n        /* \"FairStakeToken.sol\":22855:22888  calculateEarnedTokens(msg.sender) */\n      jump\t// in\n    tag_345:\n        /* \"FairStakeToken.sol\":22832:22888  uint256 earnedTokens = calculateEarnedTokens(msg.sender) */\n      swap1\n      pop\n        /* \"FairStakeToken.sol\":23013:23039  type(uint256).max - amount */\n      tag_346\n        /* \"FairStakeToken.sol\":23033:23039  amount */\n      dup7\n      not(0x00)\n        /* \"FairStakeToken.sol\":23013:23039  type(uint256).max - amount */\n      tag_347\n      jump\t// in\n    tag_346:\n        /* \"FairStakeToken.sol\":22980:22989  userStake */\n      dup3\n        /* \"FairStakeToken.sol\":22980:23010  userStake.unstakeRequestAmount */\n      0x01\n      add\n      sload\n        /* \"FairStakeToken.sol\":22980:23039  userStake.unstakeRequestAmount > type(uint256).max - amount */\n      gt\n        /* \"FairStakeToken.sol\":22976:23069  if (userStake.unstakeRequestAmount > type(uint256).max - amount) revert CalculationOverflow() */\n      iszero\n      tag_348\n      jumpi\n        /* \"FairStakeToken.sol\":23048:23069  CalculationOverflow() */\n      mload(0x40)\n      shl(0xe0, 0x9c154db9)\n      dup2\n      mstore\n      0x04\n      add\n      mload(0x40)\n      dup1\n      swap2\n      sub\n      swap1\n      revert\n        /* \"FairStakeToken.sol\":22976:23069  if (userStake.unstakeRequestAmount > type(uint256).max - amount) revert CalculationOverflow() */\n    tag_348:\n        /* \"FairStakeToken.sol\":23178:23204  type(uint256).max - amount */\n      tag_349\n        /* \"FairStakeToken.sol\":23198:23204  amount */\n      dup7\n      not(0x00)\n        /* \"FairStakeToken.sol\":23178:23204  type(uint256).max - amount */\n      tag_347\n      jump\t// in\n    tag_349:\n        /* \"FairStakeToken.sol\":23161:23175  totalUnstaking */\n      sload(0x08)\n        /* \"FairStakeToken.sol\":23161:23204  totalUnstaking > type(uint256).max - amount */\n      gt\n        /* \"FairStakeToken.sol\":23157:23234  if (totalUnstaking > type(uint256).max - amount) revert CalculationOverflow() */\n      iszero\n      tag_350\n      jumpi\n        /* \"FairStakeToken.sol\":23213:23234  CalculationOverflow() */\n      mload(0x40)\n      shl(0xe0, 0x9c154db9)\n      dup2\n      mstore\n      0x04\n      add\n      mload(0x40)\n      dup1\n      swap2\n      sub\n      swap1\n      revert\n        /* \"FairStakeToken.sol\":23157:23234  if (totalUnstaking > type(uint256).max - amount) revert CalculationOverflow() */\n    tag_350:\n        /* \"FairStakeToken.sol\":23381:23407  userStake.amount -= amount */\n      dup2\n      sload\n      dup7\n      swap1\n      sub\n      dup3\n      sstore\n      0x01\n        /* \"FairStakeToken.sol\":23421:23451  userStake.unstakeRequestAmount */\n      dup3\n      add\n        /* \"FairStakeToken.sol\":23421:23461  userStake.unstakeRequestAmount += amount */\n      dup1\n      sload\n      dup8\n      add\n      swap1\n      sstore\n        /* \"FairStakeToken.sol\":23523:23534  totalStaked */\n      0x07\n        /* \"FairStakeToken.sol\":23523:23544  totalStaked -= amount */\n      dup1\n      sload\n      dup8\n      swap1\n      sub\n      swap1\n      sstore\n        /* \"FairStakeToken.sol\":23558:23572  totalUnstaking */\n      0x08\n        /* \"FairStakeToken.sol\":23558:23582  totalUnstaking += amount */\n      dup1\n      sload\n      dup8\n      add\n      swap1\n      sstore\n        /* \"FairStakeToken.sol\":23656:23684  userStake.unstakeRequestTime */\n      0x02\n      dup3\n      add\n        /* \"FairStakeToken.sol\":23656:23710  userStake.unstakeRequestTime = uint64(block.timestamp) */\n      dup1\n      sload\n      sub(shl(0x80, 0x01), 0x01)\n        /* \"FairStakeToken.sol\":23720:23756  userStake.unstakeWaitDays = waitDays */\n      and\n      shl(0x80, 0x01)\n        /* \"FairStakeToken.sol\":23694:23709  block.timestamp */\n      timestamp\n      sub(shl(0x40, 0x01), 0x01)\n        /* \"FairStakeToken.sol\":23656:23710  userStake.unstakeRequestTime = uint64(block.timestamp) */\n      swap1\n      dup2\n      and\n      swap2\n      dup3\n      mul\n      sub(shl(0xc0, 0x01), 0x01)\n        /* \"FairStakeToken.sol\":23720:23756  userStake.unstakeWaitDays = waitDays */\n      and\n      swap3\n      swap1\n      swap3\n      or\n      shl(0xc0, 0x01)\n      swap3\n      dup10\n      and\n      swap3\n      swap1\n      swap3\n      mul\n      swap2\n      swap1\n      swap2\n      or\n      not(shl(0x40, 0xffffffffffffffff))\n        /* \"FairStakeToken.sol\":23766:23813  userStake.lastClaimed = uint64(block.timestamp) */\n      and\n      shl(0x40, 0x01)\n      swap2\n      swap1\n      swap2\n      mul\n      or\n      swap1\n      sstore\n        /* \"FairStakeToken.sol\":23914:23930  earnedTokens > 0 */\n      dup1\n      iszero\n        /* \"FairStakeToken.sol\":23910:24052  if (earnedTokens > 0) {... */\n      tag_351\n      jumpi\n        /* \"FairStakeToken.sol\":23946:23983  _customMint(msg.sender, earnedTokens) */\n      tag_352\n        /* \"FairStakeToken.sol\":23958:23968  msg.sender */\n      caller\n        /* \"FairStakeToken.sol\":23970:23982  earnedTokens */\n      dup3\n        /* \"FairStakeToken.sol\":23946:23957  _customMint */\n      tag_353\n        /* \"FairStakeToken.sol\":23946:23983  _customMint(msg.sender, earnedTokens) */\n      jump\t// in\n    tag_352:\n        /* \"FairStakeToken.sol\":24002:24041  RewardClaimed(msg.sender, earnedTokens) */\n      mload(0x40)\n        /* \"#utility.yul\":597:622   */\n      dup2\n      dup2\n      mstore\n        /* \"FairStakeToken.sol\":24016:24026  msg.sender */\n      caller\n      swap1\n        /* \"FairStakeToken.sol\":24002:24041  RewardClaimed(msg.sender, earnedTokens) */\n      0x106f923f993c2149d49b4255ff723acafa1f2d94393f561d3eda32ae348f7241\n      swap1\n        /* \"#utility.yul\":585:587   */\n      0x20\n        /* \"#utility.yul\":570:588   */\n      add\n        /* \"FairStakeToken.sol\":24002:24041  RewardClaimed(msg.sender, earnedTokens) */\n      mload(0x40)\n      dup1\n      swap2\n      sub\n      swap1\n      log2\n        /* \"FairStakeToken.sol\":23910:24052  if (earnedTokens > 0) {... */\n    tag_351:\n        /* \"FairStakeToken.sol\":24137:24183  UnstakeRequested(msg.sender, amount, waitDays) */\n      0x40\n      dup1\n      mload\n        /* \"#utility.yul\":9960:9985   */\n      dup8\n      dup2\n      mstore\n      sub(shl(0x40, 0x01), 0x01)\n        /* \"#utility.yul\":10021:10052   */\n      dup8\n      and\n        /* \"#utility.yul\":10016:10018   */\n      0x20\n        /* \"#utility.yul\":10001:10019   */\n      dup3\n      add\n        /* \"#utility.yul\":9994:10053   */\n      mstore\n        /* \"FairStakeToken.sol\":24154:24164  msg.sender */\n      caller\n      swap2\n        /* \"FairStakeToken.sol\":24137:24183  UnstakeRequested(msg.sender, amount, waitDays) */\n      0x21020437c0e4b58b34bd7ac1f1cef55e7820d1bcd93824ceb273cad96eea704c\n      swap2\n        /* \"#utility.yul\":9933:9951   */\n      add\n        /* \"FairStakeToken.sol\":24137:24183  UnstakeRequested(msg.sender, amount, waitDays) */\n      mload(0x40)\n      dup1\n      swap2\n      sub\n      swap1\n      log2\n      pop\n      pop\n        /* \"FairStakeToken.sol\":11015:11023  _entered */\n      0x0b\n        /* \"FairStakeToken.sol\":11015:11031  _entered = false */\n      dup1\n      sload\n      not(0xff)\n      and\n      swap1\n      sstore\n      pop\n        /* \"FairStakeToken.sol\":24200:24204  true */\n      0x01\n      swap4\n        /* \"FairStakeToken.sol\":22103:24211  function requestUnstake(uint256 amount, uint64 waitDays) external whenModuleNotPaused(FunctionModule.UNSTAKE) nonReentrant returns(bool) {... */\n      swap3\n      pop\n      pop\n      pop\n      jump\t// out\n        /* \"FairStakeToken.sol\":18346:19027  function getRate(uint256 amount) public pure returns(uint256) {... */\n    tag_104:\n        /* \"FairStakeToken.sol\":18399:18406  uint256 */\n      0x00\n      dup1\n        /* \"FairStakeToken.sol\":2898:2920  1000 * TOKEN_PRECISION */\n      tag_358\n        /* \"FairStakeToken.sol\":2768:2776  10 ** 18 */\n      0x0de0b6b3a7640000\n        /* \"FairStakeToken.sol\":2898:2902  1000 */\n      0x03e8\n        /* \"FairStakeToken.sol\":2898:2920  1000 * TOKEN_PRECISION */\n      tag_359\n      jump\t// in\n    tag_358:\n        /* \"FairStakeToken.sol\":18500:18524  amount / STAKE_RATE_BASE */\n      tag_360\n      swap1\n        /* \"FairStakeToken.sol\":18500:18506  amount */\n      dup5\n        /* \"FairStakeToken.sol\":18500:18524  amount / STAKE_RATE_BASE */\n      tag_233\n      jump\t// in\n    tag_360:\n        /* \"FairStakeToken.sol\":18485:18524  uint256 rate = amount / STAKE_RATE_BASE */\n      swap1\n      pop\n        /* \"FairStakeToken.sol\":18792:18795  100 */\n      0x64\n        /* \"FairStakeToken.sol\":18785:18789  rate */\n      dup2\n        /* \"FairStakeToken.sol\":18785:18795  rate < 100 */\n      lt\n        /* \"FairStakeToken.sol\":18785:18867  rate < 100 ? 100 :... */\n      tag_361\n      jumpi\n        /* \"FairStakeToken.sol\":18828:18831  200 */\n      0xc8\n        /* \"FairStakeToken.sol\":18820:18824  rate */\n      dup2\n        /* \"FairStakeToken.sol\":18820:18831  rate <= 200 */\n      gt\n      iszero\n        /* \"FairStakeToken.sol\":18820:18866  rate <= 200 ? rate : 200 + ((rate - 200) >> 2) */\n      tag_362\n      jumpi\n        /* \"FairStakeToken.sol\":18864:18865  2 */\n      0x02\n        /* \"FairStakeToken.sol\":18849:18859  rate - 200 */\n      tag_363\n        /* \"FairStakeToken.sol\":18856:18859  200 */\n      0xc8\n        /* \"FairStakeToken.sol\":18849:18853  rate */\n      dup4\n        /* \"FairStakeToken.sol\":18849:18859  rate - 200 */\n      tag_347\n      jump\t// in\n    tag_363:\n        /* \"FairStakeToken.sol\":18841:18866  200 + ((rate - 200) >> 2) */\n      tag_364\n      swap2\n        /* \"FairStakeToken.sol\":18848:18865  (rate - 200) >> 2 */\n      shr\n        /* \"FairStakeToken.sol\":18841:18844  200 */\n      0xc8\n        /* \"FairStakeToken.sol\":18841:18866  200 + ((rate - 200) >> 2) */\n      tag_365\n      jump\t// in\n    tag_364:\n        /* \"FairStakeToken.sol\":18785:18867  rate < 100 ? 100 :... */\n      jump(tag_367)\n        /* \"FairStakeToken.sol\":18820:18866  rate <= 200 ? rate : 200 + ((rate - 200) >> 2) */\n    tag_362:\n        /* \"FairStakeToken.sol\":18834:18838  rate */\n      dup1\n        /* \"FairStakeToken.sol\":18785:18867  rate < 100 ? 100 :... */\n      jump(tag_367)\n    tag_361:\n        /* \"FairStakeToken.sol\":18798:18801  100 */\n      0x64\n        /* \"FairStakeToken.sol\":18785:18867  rate < 100 ? 100 :... */\n    tag_367:\n        /* \"FairStakeToken.sol\":18778:18867  rate = rate < 100 ? 100 :... */\n      swap1\n      pop\n        /* \"FairStakeToken.sol\":19004:19007  500 */\n      0x01f4\n        /* \"FairStakeToken.sol\":18997:19001  rate */\n      dup2\n        /* \"FairStakeToken.sol\":18997:19007  rate > 500 */\n      gt\n        /* \"FairStakeToken.sol\":18997:19020  rate > 500 ? 500 : rate */\n      tag_368\n      jumpi\n        /* \"FairStakeToken.sol\":19016:19020  rate */\n      dup1\n        /* \"FairStakeToken.sol\":18997:19020  rate > 500 ? 500 : rate */\n      jump(tag_369)\n    tag_368:\n        /* \"FairStakeToken.sol\":19010:19013  500 */\n      0x01f4\n        /* \"FairStakeToken.sol\":18997:19020  rate > 500 ? 500 : rate */\n    tag_369:\n        /* \"FairStakeToken.sol\":18990:19020  return rate > 500 ? 500 : rate */\n      swap4\n        /* \"FairStakeToken.sol\":18346:19027  function getRate(uint256 amount) public pure returns(uint256) {... */\n      swap3\n      pop\n      pop\n      pop\n      jump\t// out\n        /* \"FairStakeToken.sol\":11981:12062  function renounceOwnership() external isOwner {... */\n    tag_118:\n        /* \"FairStakeToken.sol\":10258:10263  owner */\n      and(sub(shl(0xa0, 0x01), 0x01), sload(0x05))\n        /* \"FairStakeToken.sol\":10244:10254  msg.sender */\n      caller\n        /* \"FairStakeToken.sol\":10244:10263  msg.sender != owner */\n      eq\n        /* \"FairStakeToken.sol\":10240:10312  if (msg.sender != owner) {... */\n      tag_372\n      jumpi\n        /* \"FairStakeToken.sol\":10286:10301  NotAuthorized() */\n      mload(0x40)\n      shl(0xe0, 0xea8e4eb5)\n      dup2\n      mstore\n      0x04\n      add\n      mload(0x40)\n      dup1\n      swap2\n      sub\n      swap1\n      revert\n        /* \"FairStakeToken.sol\":10240:10312  if (msg.sender != owner) {... */\n    tag_372:\n        /* \"FairStakeToken.sol\":12037:12042  owner */\n      0x05\n        /* \"FairStakeToken.sol\":12037:12055  owner = address(0) */\n      dup1\n      sload\n      not(sub(shl(0xa0, 0x01), 0x01))\n      and\n      swap1\n      sstore\n        /* \"FairStakeToken.sol\":11981:12062  function renounceOwnership() external isOwner {... */\n      jump\t// out\n        /* \"FairStakeToken.sol\":12924:13141  function unpauseModule(FunctionModule module) external isOwner {... */\n    tag_123:\n        /* \"FairStakeToken.sol\":10258:10263  owner */\n      and(sub(shl(0xa0, 0x01), 0x01), sload(0x05))\n        /* \"FairStakeToken.sol\":10244:10254  msg.sender */\n      caller\n        /* \"FairStakeToken.sol\":10244:10263  msg.sender != owner */\n      eq\n        /* \"FairStakeToken.sol\":10240:10312  if (msg.sender != owner) {... */\n      tag_375\n      jumpi\n        /* \"FairStakeToken.sol\":10286:10301  NotAuthorized() */\n      mload(0x40)\n      shl(0xe0, 0xea8e4eb5)\n      dup2\n      mstore\n      0x04\n      add\n      mload(0x40)\n      dup1\n      swap2\n      sub\n      swap1\n      revert\n        /* \"FairStakeToken.sol\":10240:10312  if (msg.sender != owner) {... */\n    tag_375:\n        /* \"FairStakeToken.sol\":13021:13026  false */\n      0x00\n        /* \"FairStakeToken.sol\":12997:13010  pausedModules */\n      0x06\n        /* \"FairStakeToken.sol\":12997:13018  pausedModules[module] */\n      0x00\n        /* \"FairStakeToken.sol\":13011:13017  module */\n      dup4\n        /* \"FairStakeToken.sol\":12997:13018  pausedModules[module] */\n      0x04\n      dup2\n      gt\n      iszero\n      tag_378\n      jumpi\n      tag_378\n      tag_216\n      jump\t// in\n    tag_378:\n      0x04\n      dup2\n      gt\n      iszero\n      tag_380\n      jumpi\n      tag_380\n      tag_216\n      jump\t// in\n    tag_380:\n      dup2\n      mstore\n      0x20\n      dup2\n      add\n      swap2\n      swap1\n      swap2\n      mstore\n      0x40\n      add\n      0x00\n      keccak256\n        /* \"FairStakeToken.sol\":12997:13026  pausedModules[module] = false */\n      dup1\n      sload\n      not(0xff)\n      and\n      swap2\n      iszero\n      iszero\n      swap2\n      swap1\n      swap2\n      or\n      swap1\n      sstore\n        /* \"FairStakeToken.sol\":13092:13102  msg.sender */\n      caller\n        /* \"FairStakeToken.sol\":13084:13090  module */\n      dup2\n        /* \"FairStakeToken.sol\":13069:13103  ModuleUnpaused(module, msg.sender) */\n      0x04\n      dup2\n      gt\n      iszero\n      tag_382\n      jumpi\n      tag_382\n      tag_216\n      jump\t// in\n    tag_382:\n      mload(0x40)\n      0x9c8d2be3efaec41ba9a0eafbf0556da8f756ad9c594dfa3bc2986bc0d8e1fe89\n      swap1\n      0x00\n      swap1\n      log3\n        /* \"FairStakeToken.sol\":12924:13141  function unpauseModule(FunctionModule module) external isOwner {... */\n      pop\n      jump\t// out\n        /* \"FairStakeToken.sol\":12122:12260  function pause() external isOwner {... */\n    tag_130:\n        /* \"FairStakeToken.sol\":10258:10263  owner */\n      and(sub(shl(0xa0, 0x01), 0x01), sload(0x05))\n        /* \"FairStakeToken.sol\":10244:10254  msg.sender */\n      caller\n        /* \"FairStakeToken.sol\":10244:10263  msg.sender != owner */\n      eq\n        /* \"FairStakeToken.sol\":10240:10312  if (msg.sender != owner) {... */\n      tag_384\n      jumpi\n        /* \"FairStakeToken.sol\":10286:10301  NotAuthorized() */\n      mload(0x40)\n      shl(0xe0, 0xea8e4eb5)\n      dup2\n      mstore\n      0x04\n      add\n      mload(0x40)\n      dup1\n      swap2\n      sub\n      swap1\n      revert\n        /* \"FairStakeToken.sol\":10240:10312  if (msg.sender != owner) {... */\n    tag_384:\n        /* \"FairStakeToken.sol\":12166:12172  paused */\n      0x05\n        /* \"FairStakeToken.sol\":12166:12179  paused = true */\n      dup1\n      sload\n      not(shl(0xa0, 0xff))\n      and\n      shl(0xa0, 0x01)\n      or\n      swap1\n      sstore\n        /* \"FairStakeToken.sol\":12214:12232  Paused(msg.sender) */\n      mload(0x40)\n        /* \"FairStakeToken.sol\":12221:12231  msg.sender */\n      caller\n      swap1\n        /* \"FairStakeToken.sol\":12214:12232  Paused(msg.sender) */\n      0x62e78cea01bee320cd4e420270b5ea74000d11b0c9f74754ebdbfc544b05a258\n      swap1\n        /* \"FairStakeToken.sol\":12166:12179  paused = true */\n      0x00\n      swap1\n        /* \"FairStakeToken.sol\":12214:12232  Paused(msg.sender) */\n      log2\n        /* \"FairStakeToken.sol\":12122:12260  function pause() external isOwner {... */\n      jump\t// out\n        /* \"@openzeppelin/contracts/token/ERC20/ERC20.sol\":1962:2055   */\n    tag_138:\n        /* \"@openzeppelin/contracts/token/ERC20/ERC20.sol\":2009:2022   */\n      0x60\n        /* \"@openzeppelin/contracts/token/ERC20/ERC20.sol\":2041:2048   */\n      0x04\n        /* \"@openzeppelin/contracts/token/ERC20/ERC20.sol\":2034:2048   */\n      dup1\n      sload\n      tag_263\n      swap1\n      tag_264\n      jump\t// in\n        /* \"FairStakeToken.sol\":8669:9314  function mintContributorReward(... */\n    tag_144:\n        /* \"FairStakeToken.sol\":10258:10263  owner */\n      sload(0x05)\n        /* \"FairStakeToken.sol\":8849:8853  bool */\n      0x00\n      swap1\n      sub(shl(0xa0, 0x01), 0x01)\n        /* \"FairStakeToken.sol\":10258:10263  owner */\n      and\n        /* \"FairStakeToken.sol\":10244:10254  msg.sender */\n      caller\n        /* \"FairStakeToken.sol\":10244:10263  msg.sender != owner */\n      eq\n        /* \"FairStakeToken.sol\":10240:10312  if (msg.sender != owner) {... */\n      tag_393\n      jumpi\n        /* \"FairStakeToken.sol\":10286:10301  NotAuthorized() */\n      mload(0x40)\n      shl(0xe0, 0xea8e4eb5)\n      dup2\n      mstore\n      0x04\n      add\n      mload(0x40)\n      dup1\n      swap2\n      sub\n      swap1\n      revert\n        /* \"FairStakeToken.sol\":10240:10312  if (msg.sender != owner) {... */\n    tag_393:\n      sub(shl(0xa0, 0x01), 0x01)\n        /* \"FairStakeToken.sol\":8902:8927  contributor == address(0) */\n      dup7\n      and\n        /* \"FairStakeToken.sol\":8898:8952  if (contributor == address(0)) revert InvalidAddress() */\n      tag_395\n      jumpi\n        /* \"FairStakeToken.sol\":8936:8952  InvalidAddress() */\n      mload(0x40)\n      shl(0xe0, 0xe6c4247b)\n      dup2\n      mstore\n      0x04\n      add\n      mload(0x40)\n      dup1\n      swap2\n      sub\n      swap1\n      revert\n        /* \"FairStakeToken.sol\":8898:8952  if (contributor == address(0)) revert InvalidAddress() */\n    tag_395:\n        /* \"FairStakeToken.sol\":8976:8977  0 */\n      0x00\n        /* \"FairStakeToken.sol\":8966:8972  amount */\n      dup5\n        /* \"FairStakeToken.sol\":8966:8977  amount <= 0 */\n      gt\n        /* \"FairStakeToken.sol\":8962:8998  if (amount <= 0) revert ZeroAmount() */\n      tag_396\n      jumpi\n        /* \"FairStakeToken.sol\":8986:8998  ZeroAmount() */\n      mload(0x40)\n      shl(0xe0, 0x1f2a2005)\n      dup2\n      mstore\n      0x04\n      add\n      mload(0x40)\n      dup1\n      swap2\n      sub\n      swap1\n      revert\n        /* \"FairStakeToken.sol\":8962:8998  if (amount <= 0) revert ZeroAmount() */\n    tag_396:\n        /* \"FairStakeToken.sol\":9100:9132  _customMint(contributor, amount) */\n      tag_397\n        /* \"FairStakeToken.sol\":9112:9123  contributor */\n      dup7\n        /* \"FairStakeToken.sol\":9125:9131  amount */\n      dup6\n        /* \"FairStakeToken.sol\":9100:9111  _customMint */\n      tag_353\n        /* \"FairStakeToken.sol\":9100:9132  _customMint(contributor, amount) */\n      jump\t// in\n    tag_397:\n        /* \"FairStakeToken.sol\":9245:9255  proposalId */\n      dup5\n        /* \"FairStakeToken.sol\":9232:9243  contributor */\n      dup7\n      sub(shl(0xa0, 0x01), 0x01)\n        /* \"FairStakeToken.sol\":9208:9277  ContributorRewardMinted(contributor, proposalId, amount, description) */\n      and\n      0xd885f943ed8a5b3d2ddda34156e3efc8e3024608cfe7bd3c0e706939ddcaa87e\n        /* \"FairStakeToken.sol\":9257:9263  amount */\n      dup7\n        /* \"FairStakeToken.sol\":9265:9276  description */\n      dup7\n      dup7\n        /* \"FairStakeToken.sol\":9208:9277  ContributorRewardMinted(contributor, proposalId, amount, description) */\n      mload(0x40)\n      tag_398\n      swap4\n      swap3\n      swap2\n      swap1\n      tag_399\n      jump\t// in\n    tag_398:\n      mload(0x40)\n      dup1\n      swap2\n      sub\n      swap1\n      log3\n      pop\n        /* \"FairStakeToken.sol\":9303:9307  true */\n      0x01\n        /* \"FairStakeToken.sol\":8669:9314  function mintContributorReward(... */\n      swap6\n      swap5\n      pop\n      pop\n      pop\n      pop\n      pop\n      jump\t// out\n        /* \"FairStakeToken.sol\":19666:21302  function stake(uint256 amount) external whenModuleNotPaused(FunctionModule.STAKE) nonReentrant returns(bool) {... */\n    tag_149:\n        /* \"FairStakeToken.sol\":10500:10506  paused */\n      sload(0x05)\n        /* \"FairStakeToken.sol\":19769:19773  bool */\n      0x00\n      swap1\n      dup2\n      swap1\n      shl(0xa0, 0x01)\n        /* \"FairStakeToken.sol\":10500:10506  paused */\n      swap1\n      div\n      0xff\n      and\n      dup1\n        /* \"FairStakeToken.sol\":10500:10531  paused || pausedModules[module] */\n      tag_401\n      jumpi\n      pop\n        /* \"FairStakeToken.sol\":10510:10523  pausedModules */\n      0x06\n        /* \"FairStakeToken.sol\":10510:10531  pausedModules[module] */\n      0x00\n        /* \"FairStakeToken.sol\":10524:10530  module */\n      dup3\n        /* \"FairStakeToken.sol\":10510:10531  pausedModules[module] */\n      0x04\n      dup2\n      gt\n      iszero\n      tag_403\n      jumpi\n      tag_403\n      tag_216\n      jump\t// in\n    tag_403:\n      0x04\n      dup2\n      gt\n      iszero\n      tag_405\n      jumpi\n      tag_405\n      tag_216\n      jump\t// in\n    tag_405:\n      dup2\n      mstore\n      0x20\n      dup2\n      add\n      swap2\n      swap1\n      swap2\n      mstore\n      0x40\n      add\n      0x00\n      keccak256\n      sload\n      0xff\n      and\n        /* \"FairStakeToken.sol\":10500:10531  paused || pausedModules[module] */\n    tag_401:\n        /* \"FairStakeToken.sol\":10496:10581  if (paused || pausedModules[module]) {... */\n      iszero\n      tag_406\n      jumpi\n        /* \"FairStakeToken.sol\":10554:10570  PausedContract() */\n      mload(0x40)\n      shl(0xe1, 0x79915593)\n      dup2\n      mstore\n      0x04\n      add\n      mload(0x40)\n      dup1\n      swap2\n      sub\n      swap1\n      revert\n        /* \"FairStakeToken.sol\":10496:10581  if (paused || pausedModules[module]) {... */\n    tag_406:\n        /* \"FairStakeToken.sol\":10781:10789  _entered */\n      and(0xff, sload(0x0b))\n        /* \"FairStakeToken.sol\":10780:10789  !_entered */\n      iszero\n        /* \"FairStakeToken.sol\":10772:10825  require(!_entered, \"ReentrancyGuard: reentrant call\") */\n      tag_408\n      jumpi\n      mload(0x40)\n      shl(0xe5, 0x461bcd)\n      dup2\n      mstore\n      0x04\n      add\n      tag_222\n      swap1\n      tag_223\n      jump\t// in\n    tag_408:\n        /* \"FairStakeToken.sol\":10898:10906  _entered */\n      0x0b\n        /* \"FairStakeToken.sol\":10898:10913  _entered = true */\n      dup1\n      sload\n      not(0xff)\n      and\n        /* \"FairStakeToken.sol\":10909:10913  true */\n      0x01\n        /* \"FairStakeToken.sol\":10898:10913  _entered = true */\n      or\n      swap1\n      sstore\n        /* \"FairStakeToken.sol\":10898:10906  _entered */\n      0x00\n        /* \"FairStakeToken.sol\":19817:19828  amount == 0 */\n      dup4\n      swap1\n      sub\n        /* \"FairStakeToken.sol\":19813:19874  if (amount == 0) {... */\n      tag_411\n      jumpi\n        /* \"FairStakeToken.sol\":19851:19863  ZeroAmount() */\n      mload(0x40)\n      shl(0xe0, 0x1f2a2005)\n      dup2\n      mstore\n      0x04\n      add\n      mload(0x40)\n      dup1\n      swap2\n      sub\n      swap1\n      revert\n        /* \"FairStakeToken.sol\":19813:19874  if (amount == 0) {... */\n    tag_411:\n        /* \"FairStakeToken.sol\":20017:20027  msg.sender */\n      caller\n        /* \"FairStakeToken.sol\":19980:20007  StakeInfo storage userStake */\n      0x00\n        /* \"FairStakeToken.sol\":20010:20028  stakes[msg.sender] */\n      dup2\n      dup2\n      mstore\n        /* \"FairStakeToken.sol\":20010:20016  stakes */\n      0x0a\n        /* \"FairStakeToken.sol\":20010:20028  stakes[msg.sender] */\n      0x20\n      mstore\n      0x40\n      dup2\n      keccak256\n      swap2\n        /* \"FairStakeToken.sol\":20061:20094  calculateEarnedTokens(msg.sender) */\n      tag_412\n      swap1\n        /* \"FairStakeToken.sol\":20061:20082  calculateEarnedTokens */\n      tag_159\n        /* \"FairStakeToken.sol\":20061:20094  calculateEarnedTokens(msg.sender) */\n      jump\t// in\n    tag_412:\n        /* \"FairStakeToken.sol\":20038:20094  uint256 earnedTokens = calculateEarnedTokens(msg.sender) */\n      swap1\n      pop\n        /* \"FairStakeToken.sol\":20226:20244  MAX_STAKE - amount */\n      tag_413\n        /* \"FairStakeToken.sol\":20238:20244  amount */\n      dup6\n        /* \"FairStakeToken.sol\":1622:1641  20_000_000 * 10**18 */\n      0x108b2a2c28029094000000\n        /* \"FairStakeToken.sol\":20226:20244  MAX_STAKE - amount */\n      tag_347\n      jump\t// in\n    tag_413:\n        /* \"FairStakeToken.sol\":20207:20223  userStake.amount */\n      dup3\n      sload\n        /* \"FairStakeToken.sol\":20207:20244  userStake.amount > MAX_STAKE - amount */\n      gt\n        /* \"FairStakeToken.sol\":20203:20270  if (userStake.amount > MAX_STAKE - amount) revert ExceedsMaxStake() */\n      iszero\n      tag_414\n      jumpi\n        /* \"FairStakeToken.sol\":20253:20270  ExceedsMaxStake() */\n      mload(0x40)\n      shl(0xe5, 0x05190d69)\n      dup2\n      mstore\n      0x04\n      add\n      mload(0x40)\n      dup1\n      swap2\n      sub\n      swap1\n      revert\n        /* \"FairStakeToken.sol\":20203:20270  if (userStake.amount > MAX_STAKE - amount) revert ExceedsMaxStake() */\n    tag_414:\n        /* \"FairStakeToken.sol\":20357:20383  type(uint256).max - amount */\n      tag_415\n        /* \"FairStakeToken.sol\":20377:20383  amount */\n      dup6\n      not(0x00)\n        /* \"FairStakeToken.sol\":20357:20383  type(uint256).max - amount */\n      tag_347\n      jump\t// in\n    tag_415:\n        /* \"FairStakeToken.sol\":20343:20354  totalStaked */\n      sload(0x07)\n        /* \"FairStakeToken.sol\":20343:20383  totalStaked > type(uint256).max - amount */\n      gt\n        /* \"FairStakeToken.sol\":20339:20413  if (totalStaked > type(uint256).max - amount) revert CalculationOverflow() */\n      iszero\n      tag_416\n      jumpi\n        /* \"FairStakeToken.sol\":20392:20413  CalculationOverflow() */\n      mload(0x40)\n      shl(0xe0, 0x9c154db9)\n      dup2\n      mstore\n      0x04\n      add\n      mload(0x40)\n      dup1\n      swap2\n      sub\n      swap1\n      revert\n        /* \"FairStakeToken.sol\":20339:20413  if (totalStaked > type(uint256).max - amount) revert CalculationOverflow() */\n    tag_416:\n        /* \"FairStakeToken.sol\":20539:20598  stakedToken.transferFrom(msg.sender, address(this), amount) */\n      mload(0x40)\n      shl(0xe0, 0x23b872dd)\n      dup2\n      mstore\n        /* \"FairStakeToken.sol\":20564:20574  msg.sender */\n      caller\n        /* \"FairStakeToken.sol\":20539:20598  stakedToken.transferFrom(msg.sender, address(this), amount) */\n      0x04\n      dup3\n      add\n        /* \"#utility.yul\":11073:11107   */\n      mstore\n        /* \"FairStakeToken.sol\":20584:20588  this */\n      address\n        /* \"#utility.yul\":11123:11141   */\n      0x24\n      dup3\n      add\n        /* \"#utility.yul\":11116:11159   */\n      mstore\n        /* \"#utility.yul\":11175:11193   */\n      0x44\n      dup2\n      add\n        /* \"#utility.yul\":11168:11202   */\n      dup7\n      swap1\n      mstore\n        /* \"FairStakeToken.sol\":20539:20550  stakedToken */\n      immutable(\"0x5ad0f966e4dd8863f27c0e6ee7d684c0c8f4319efed210fe15662a0d29bcd615\")\n      sub(shl(0xa0, 0x01), 0x01)\n        /* \"FairStakeToken.sol\":20539:20563  stakedToken.transferFrom */\n      and\n      swap1\n      0x23b872dd\n      swap1\n        /* \"#utility.yul\":11008:11026   */\n      0x64\n      add\n        /* \"FairStakeToken.sol\":20539:20598  stakedToken.transferFrom(msg.sender, address(this), amount) */\n      0x20\n      mload(0x40)\n      dup1\n      dup4\n      sub\n      dup2\n      0x00\n      dup8\n      gas\n      call\n      iszero\n      dup1\n      iszero\n      tag_420\n      jumpi\n      returndatasize\n      0x00\n      dup1\n      returndatacopy\n      revert(0x00, returndatasize)\n    tag_420:\n      pop\n      pop\n      pop\n      pop\n      mload(0x40)\n      returndatasize\n      not(0x1f)\n      0x1f\n      dup3\n      add\n      and\n      dup3\n      add\n      dup1\n      0x40\n      mstore\n      pop\n      dup2\n      add\n      swap1\n      tag_421\n      swap2\n      swap1\n      tag_258\n      jump\t// in\n    tag_421:\n        /* \"FairStakeToken.sol\":20534:20654  if (!stakedToken.transferFrom(msg.sender, address(this), amount)) {... */\n      tag_422\n      jumpi\n        /* \"FairStakeToken.sol\":20621:20643  TransferFailed(amount) */\n      mload(0x40)\n      shl(0xe0, 0xc39ba1a9)\n      dup2\n      mstore\n      0x04\n      dup2\n      add\n        /* \"#utility.yul\":597:622   */\n      dup7\n      swap1\n      mstore\n        /* \"#utility.yul\":570:588   */\n      0x24\n      add\n        /* \"FairStakeToken.sol\":20621:20643  TransferFailed(amount) */\n      tag_222\n        /* \"#utility.yul\":451:628   */\n      jump\n        /* \"FairStakeToken.sol\":20534:20654  if (!stakedToken.transferFrom(msg.sender, address(this), amount)) {... */\n    tag_422:\n        /* \"FairStakeToken.sol\":20778:20789  totalStaked */\n      0x07\n        /* \"FairStakeToken.sol\":20778:20799  totalStaked += amount */\n      dup1\n      sload\n      dup7\n      add\n      swap1\n      sstore\n        /* \"FairStakeToken.sol\":20813:20839  userStake.amount += amount */\n      dup2\n      sload\n      dup6\n      add\n      dup3\n      sstore\n        /* \"FairStakeToken.sol\":20868:20889  userStake.lastClaimed */\n      0x02\n      dup3\n      add\n        /* \"FairStakeToken.sol\":20868:20915  userStake.lastClaimed = uint64(block.timestamp) */\n      dup1\n      sload\n      sub(shl(0x40, 0x01), 0x01)\n        /* \"FairStakeToken.sol\":20899:20914  block.timestamp */\n      timestamp\n        /* \"FairStakeToken.sol\":20868:20915  userStake.lastClaimed = uint64(block.timestamp) */\n      dup2\n      and\n      shl(0x40, 0x01)\n      mul\n      not(shl(0x40, 0xffffffffffffffff))\n      dup4\n      and\n      dup2\n      or\n      swap1\n      swap4\n      sstore\n        /* \"FairStakeToken.sol\":20938:20957  userStake.startTime */\n      swap2\n      dup3\n      and\n      swap2\n      and\n      or\n        /* \"FairStakeToken.sol\":20778:20789  totalStaked */\n      0x00\n        /* \"FairStakeToken.sol\":20938:20962  userStake.startTime == 0 */\n      sub\n        /* \"FairStakeToken.sol\":20934:21034  if (userStake.startTime == 0) {... */\n      tag_424\n      jumpi\n        /* \"FairStakeToken.sol\":20978:20997  userStake.startTime */\n      0x02\n      dup3\n      add\n        /* \"FairStakeToken.sol\":20978:21023  userStake.startTime = uint64(block.timestamp) */\n      dup1\n      sload\n      not(0xffffffffffffffff)\n      and\n        /* \"FairStakeToken.sol\":21007:21022  block.timestamp */\n      timestamp\n      sub(shl(0x40, 0x01), 0x01)\n        /* \"FairStakeToken.sol\":20978:21023  userStake.startTime = uint64(block.timestamp) */\n      and\n      or\n      swap1\n      sstore\n        /* \"FairStakeToken.sol\":20934:21034  if (userStake.startTime == 0) {... */\n    tag_424:\n        /* \"FairStakeToken.sol\":21087:21103  earnedTokens > 0 */\n      dup1\n      iszero\n        /* \"FairStakeToken.sol\":21083:21225  if (earnedTokens > 0) {... */\n      tag_425\n      jumpi\n        /* \"FairStakeToken.sol\":21119:21156  _customMint(msg.sender, earnedTokens) */\n      tag_426\n        /* \"FairStakeToken.sol\":21131:21141  msg.sender */\n      caller\n        /* \"FairStakeToken.sol\":21143:21155  earnedTokens */\n      dup3\n        /* \"FairStakeToken.sol\":21119:21130  _customMint */\n      tag_353\n        /* \"FairStakeToken.sol\":21119:21156  _customMint(msg.sender, earnedTokens) */\n      jump\t// in\n    tag_426:\n        /* \"FairStakeToken.sol\":21175:21214  RewardClaimed(msg.sender, earnedTokens) */\n      mload(0x40)\n        /* \"#utility.yul\":597:622   */\n      dup2\n      dup2\n      mstore\n        /* \"FairStakeToken.sol\":21189:21199  msg.sender */\n      caller\n      swap1\n        /* \"FairStakeToken.sol\":21175:21214  RewardClaimed(msg.sender, earnedTokens) */\n      0x106f923f993c2149d49b4255ff723acafa1f2d94393f561d3eda32ae348f7241\n      swap1\n        /* \"#utility.yul\":585:587   */\n      0x20\n        /* \"#utility.yul\":570:588   */\n      add\n        /* \"FairStakeToken.sol\":21175:21214  RewardClaimed(msg.sender, earnedTokens) */\n      mload(0x40)\n      dup1\n      swap2\n      sub\n      swap1\n      log2\n        /* \"FairStakeToken.sol\":21083:21225  if (earnedTokens > 0) {... */\n    tag_425:\n        /* \"FairStakeToken.sol\":21248:21274  Staked(msg.sender, amount) */\n      mload(0x40)\n        /* \"#utility.yul\":597:622   */\n      dup6\n      dup2\n      mstore\n        /* \"FairStakeToken.sol\":21255:21265  msg.sender */\n      caller\n      swap1\n        /* \"FairStakeToken.sol\":21248:21274  Staked(msg.sender, amount) */\n      0x9e71bc8eea02a63969f509818f2dafb9254532904319f9dbda79b67bd34a5f3d\n      swap1\n        /* \"#utility.yul\":585:587   */\n      0x20\n        /* \"#utility.yul\":570:588   */\n      add\n        /* \"FairStakeToken.sol\":21248:21274  Staked(msg.sender, amount) */\n      mload(0x40)\n      dup1\n      swap2\n      sub\n      swap1\n      log2\n      pop\n      pop\n        /* \"FairStakeToken.sol\":11015:11023  _entered */\n      0x0b\n        /* \"FairStakeToken.sol\":11015:11031  _entered = false */\n      dup1\n      sload\n      not(0xff)\n      and\n      swap1\n      sstore\n      pop\n        /* \"FairStakeToken.sol\":21291:21295  true */\n      0x01\n      swap3\n        /* \"FairStakeToken.sol\":19666:21302  function stake(uint256 amount) external whenModuleNotPaused(FunctionModule.STAKE) nonReentrant returns(bool) {... */\n      swap2\n      pop\n      pop\n      jump\t// out\n        /* \"@openzeppelin/contracts/token/ERC20/ERC20.sol\":3244:3422   */\n    tag_154:\n        /* \"@openzeppelin/contracts/token/ERC20/ERC20.sol\":3313:3317   */\n      0x00\n        /* \"@openzeppelin/contracts/utils/Context.sol\":735:745   */\n      caller\n        /* \"@openzeppelin/contracts/token/ERC20/ERC20.sol\":3367:3394   */\n      tag_272\n        /* \"@openzeppelin/contracts/utils/Context.sol\":735:745   */\n      dup2\n        /* \"@openzeppelin/contracts/token/ERC20/ERC20.sol\":3384:3386   */\n      dup6\n        /* \"@openzeppelin/contracts/token/ERC20/ERC20.sol\":3388:3393   */\n      dup6\n        /* \"@openzeppelin/contracts/token/ERC20/ERC20.sol\":3367:3376   */\n      tag_280\n        /* \"@openzeppelin/contracts/token/ERC20/ERC20.sol\":3367:3394   */\n      jump\t// in\n        /* \"FairStakeToken.sol\":17008:17866  function calculateEarnedTokens(address user) public view returns (uint256) {... */\n    tag_159:\n      sub(shl(0xa0, 0x01), 0x01)\n        /* \"FairStakeToken.sol\":17153:17165  stakes[user] */\n      dup2\n      and\n        /* \"FairStakeToken.sol\":17074:17081  uint256 */\n      0x00\n        /* \"FairStakeToken.sol\":17153:17165  stakes[user] */\n      swap1\n      dup2\n      mstore\n        /* \"FairStakeToken.sol\":17153:17159  stakes */\n      0x0a\n        /* \"FairStakeToken.sol\":17153:17165  stakes[user] */\n      0x20\n      swap1\n      dup2\n      mstore\n      0x40\n      dup1\n      dup4\n      keccak256\n        /* \"FairStakeToken.sol\":17124:17165  StakeInfo memory userStake = stakes[user] */\n      dup2\n      mload\n      0xc0\n      dup2\n      add\n      dup4\n      mstore\n      dup2\n      sload\n      dup1\n      dup3\n      mstore\n      0x01\n      dup4\n      add\n      sload\n      swap5\n      dup3\n      add\n      swap5\n      swap1\n      swap5\n      mstore\n      0x02\n      swap1\n      swap2\n      add\n      sload\n      sub(shl(0x40, 0x01), 0x01)\n      dup1\n      dup3\n      and\n      swap4\n      dup4\n      add\n      swap4\n      swap1\n      swap4\n      mstore\n      shl(0x40, 0x01)\n      dup2\n      div\n      dup4\n      and\n      0x60\n      dup4\n      add\n      mstore\n      shl(0x80, 0x01)\n      dup2\n      div\n      dup4\n      and\n      0x80\n      dup4\n      add\n      mstore\n      shl(0xc0, 0x01)\n      swap1\n      div\n      swap1\n      swap2\n      and\n      0xa0\n      dup3\n      add\n      mstore\n      swap1\n        /* \"FairStakeToken.sol\":17224:17245  userStake.amount == 0 */\n      dup3\n      sub\n        /* \"FairStakeToken.sol\":17220:17255  if (userStake.amount == 0) return 0 */\n      tag_433\n      jumpi\n      pop\n        /* \"FairStakeToken.sol\":17254:17255  0 */\n      0x00\n      swap3\n        /* \"FairStakeToken.sol\":17008:17866  function calculateEarnedTokens(address user) public view returns (uint256) {... */\n      swap2\n      pop\n      pop\n      jump\t// out\n        /* \"FairStakeToken.sol\":17220:17255  if (userStake.amount == 0) return 0 */\n    tag_433:\n        /* \"FairStakeToken.sol\":17333:17352  uint256 timeElapsed */\n      0x00\n        /* \"FairStakeToken.sol\":17373:17382  userStake */\n      dup2\n        /* \"FairStakeToken.sol\":17373:17394  userStake.lastClaimed */\n      0x60\n      add\n      mload\n      sub(shl(0x40, 0x01), 0x01)\n        /* \"FairStakeToken.sol\":17355:17394  block.timestamp - userStake.lastClaimed */\n      and\n        /* \"FairStakeToken.sol\":17355:17370  block.timestamp */\n      timestamp\n        /* \"FairStakeToken.sol\":17355:17394  block.timestamp - userStake.lastClaimed */\n      tag_434\n      swap2\n      swap1\n      tag_347\n      jump\t// in\n    tag_434:\n        /* \"FairStakeToken.sol\":17333:17394  uint256 timeElapsed = block.timestamp - userStake.lastClaimed */\n      swap1\n      pop\n        /* \"FairStakeToken.sol\":17429:17436  90 days */\n      0x76a700\n        /* \"FairStakeToken.sol\":17450:17478  timeElapsed > maxTimeElapsed */\n      dup1\n      dup3\n      gt\n        /* \"FairStakeToken.sol\":17446:17533  if (timeElapsed > maxTimeElapsed) {... */\n      iszero\n      tag_435\n      jumpi\n        /* \"FairStakeToken.sol\":17508:17522  maxTimeElapsed */\n      dup1\n        /* \"FairStakeToken.sol\":17494:17522  timeElapsed = maxTimeElapsed */\n      swap2\n      pop\n        /* \"FairStakeToken.sol\":17446:17533  if (timeElapsed > maxTimeElapsed) {... */\n    tag_435:\n        /* \"FairStakeToken.sol\":17593:17605  uint256 rate */\n      0x00\n        /* \"FairStakeToken.sol\":17608:17633  getRate(userStake.amount) */\n      tag_436\n        /* \"FairStakeToken.sol\":17616:17625  userStake */\n      dup5\n        /* \"FairStakeToken.sol\":17616:17632  userStake.amount */\n      0x00\n      add\n      mload\n        /* \"FairStakeToken.sol\":17608:17615  getRate */\n      tag_104\n        /* \"FairStakeToken.sol\":17608:17633  getRate(userStake.amount) */\n      jump\t// in\n    tag_436:\n        /* \"FairStakeToken.sol\":17697:17713  userStake.amount */\n      dup5\n      mload\n        /* \"FairStakeToken.sol\":17593:17633  uint256 rate = getRate(userStake.amount) */\n      swap1\n      swap2\n      pop\n        /* \"FairStakeToken.sol\":17682:17693  timeElapsed */\n      dup4\n        /* \"FairStakeToken.sol\":17655:17679  type(uint256).max / rate */\n      tag_437\n        /* \"FairStakeToken.sol\":17593:17633  uint256 rate = getRate(userStake.amount) */\n      dup4\n      not(0x00)\n        /* \"FairStakeToken.sol\":17655:17679  type(uint256).max / rate */\n      tag_233\n      jump\t// in\n    tag_437:\n        /* \"FairStakeToken.sol\":17655:17693  type(uint256).max / rate / timeElapsed */\n      tag_438\n      swap2\n      swap1\n      tag_233\n      jump\t// in\n    tag_438:\n        /* \"FairStakeToken.sol\":17655:17713  type(uint256).max / rate / timeElapsed <= userStake.amount */\n      gt\n        /* \"FairStakeToken.sol\":17651:17743  if (type(uint256).max / rate / timeElapsed <= userStake.amount) revert CalculationOverflow() */\n      tag_439\n      jumpi\n        /* \"FairStakeToken.sol\":17722:17743  CalculationOverflow() */\n      mload(0x40)\n      shl(0xe0, 0x9c154db9)\n      dup2\n      mstore\n      0x04\n      add\n      mload(0x40)\n      dup1\n      swap2\n      sub\n      swap1\n      revert\n        /* \"FairStakeToken.sol\":17651:17743  if (type(uint256).max / rate / timeElapsed <= userStake.amount) revert CalculationOverflow() */\n    tag_439:\n        /* \"FairStakeToken.sol\":17793:17809  userStake.amount */\n      dup4\n      mload\n        /* \"FairStakeToken.sol\":17842:17849  3650000 */\n      0x37b1d0\n      swap1\n        /* \"FairStakeToken.sol\":17833:17839  1 days */\n      0x015180\n        /* \"FairStakeToken.sol\":17793:17823  userStake.amount * timeElapsed */\n      swap1\n      dup6\n      mul\n        /* \"FairStakeToken.sol\":17793:17830  userStake.amount * timeElapsed * rate */\n      dup4\n      mul\n        /* \"FairStakeToken.sol\":17793:17839  userStake.amount * timeElapsed * rate / 1 days */\n      div\n        /* \"FairStakeToken.sol\":17793:17849  userStake.amount * timeElapsed * rate / 1 days / 3650000 */\n      div\n      swap7\n        /* \"FairStakeToken.sol\":17008:17866  function calculateEarnedTokens(address user) public view returns (uint256) {... */\n      swap6\n      pop\n      pop\n      pop\n      pop\n      pop\n      pop\n      jump\t// out\n        /* \"FairStakeToken.sol\":27906:28782  function claimReward() external whenModuleNotPaused(FunctionModule.REWARD) nonReentrant returns(bool) {... */\n    tag_163:\n        /* \"FairStakeToken.sol\":10500:10506  paused */\n      sload(0x05)\n        /* \"FairStakeToken.sol\":28002:28006  bool */\n      0x00\n      swap1\n        /* \"FairStakeToken.sol\":27958:27979  FunctionModule.REWARD */\n      0x02\n      swap1\n      shl(0xa0, 0x01)\n        /* \"FairStakeToken.sol\":10500:10506  paused */\n      swap1\n      div\n      0xff\n      and\n      dup1\n        /* \"FairStakeToken.sol\":10500:10531  paused || pausedModules[module] */\n      tag_445\n      jumpi\n      pop\n        /* \"FairStakeToken.sol\":10510:10523  pausedModules */\n      0x06\n        /* \"FairStakeToken.sol\":10510:10531  pausedModules[module] */\n      0x00\n        /* \"FairStakeToken.sol\":10524:10530  module */\n      dup3\n        /* \"FairStakeToken.sol\":10510:10531  pausedModules[module] */\n      0x04\n      dup2\n      gt\n      iszero\n      tag_447\n      jumpi\n      tag_447\n      tag_216\n      jump\t// in\n    tag_447:\n      0x04\n      dup2\n      gt\n      iszero\n      tag_449\n      jumpi\n      tag_449\n      tag_216\n      jump\t// in\n    tag_449:\n      dup2\n      mstore\n      0x20\n      dup2\n      add\n      swap2\n      swap1\n      swap2\n      mstore\n      0x40\n      add\n      0x00\n      keccak256\n      sload\n      0xff\n      and\n        /* \"FairStakeToken.sol\":10500:10531  paused || pausedModules[module] */\n    tag_445:\n        /* \"FairStakeToken.sol\":10496:10581  if (paused || pausedModules[module]) {... */\n      iszero\n      tag_450\n      jumpi\n        /* \"FairStakeToken.sol\":10554:10570  PausedContract() */\n      mload(0x40)\n      shl(0xe1, 0x79915593)\n      dup2\n      mstore\n      0x04\n      add\n      mload(0x40)\n      dup1\n      swap2\n      sub\n      swap1\n      revert\n        /* \"FairStakeToken.sol\":10496:10581  if (paused || pausedModules[module]) {... */\n    tag_450:\n        /* \"FairStakeToken.sol\":10781:10789  _entered */\n      and(0xff, sload(0x0b))\n        /* \"FairStakeToken.sol\":10780:10789  !_entered */\n      iszero\n        /* \"FairStakeToken.sol\":10772:10825  require(!_entered, \"ReentrancyGuard: reentrant call\") */\n      tag_452\n      jumpi\n      mload(0x40)\n      shl(0xe5, 0x461bcd)\n      dup2\n      mstore\n      0x04\n      add\n      tag_222\n      swap1\n      tag_223\n      jump\t// in\n    tag_452:\n        /* \"FairStakeToken.sol\":10898:10906  _entered */\n      0x0b\n        /* \"FairStakeToken.sol\":10898:10913  _entered = true */\n      dup1\n      sload\n      not(0xff)\n      and\n        /* \"FairStakeToken.sol\":10909:10913  true */\n      0x01\n        /* \"FairStakeToken.sol\":10898:10913  _entered = true */\n      or\n      swap1\n      sstore\n        /* \"FairStakeToken.sol\":28086:28096  msg.sender */\n      caller\n        /* \"FairStakeToken.sol\":10898:10906  _entered */\n      0x00\n        /* \"FairStakeToken.sol\":28079:28097  stakes[msg.sender] */\n      dup2\n      dup2\n      mstore\n        /* \"FairStakeToken.sol\":28079:28085  stakes */\n      0x0a\n        /* \"FairStakeToken.sol\":28079:28097  stakes[msg.sender] */\n      0x20\n      mstore\n      0x40\n      dup2\n      keccak256\n      swap2\n        /* \"FairStakeToken.sol\":28199:28232  calculateEarnedTokens(msg.sender) */\n      tag_455\n      swap1\n        /* \"FairStakeToken.sol\":28199:28220  calculateEarnedTokens */\n      tag_159\n        /* \"FairStakeToken.sol\":28199:28232  calculateEarnedTokens(msg.sender) */\n      jump\t// in\n    tag_455:\n        /* \"FairStakeToken.sol\":28176:28232  uint256 earnedTokens = calculateEarnedTokens(msg.sender) */\n      swap1\n      pop\n        /* \"FairStakeToken.sol\":28306:28318  earnedTokens */\n      dup1\n        /* \"FairStakeToken.sol\":28322:28323  0 */\n      0x00\n        /* \"FairStakeToken.sol\":28306:28323  earnedTokens == 0 */\n      sub\n        /* \"FairStakeToken.sol\":28302:28384  if (earnedTokens == 0) {... */\n      tag_456\n      jumpi\n        /* \"FairStakeToken.sol\":28346:28373  NoTokensToClaim(msg.sender) */\n      mload(0x40)\n      shl(0xe0, 0x09d1b88f)\n      dup2\n      mstore\n        /* \"FairStakeToken.sol\":28362:28372  msg.sender */\n      caller\n        /* \"FairStakeToken.sol\":28346:28373  NoTokensToClaim(msg.sender) */\n      0x04\n      dup3\n      add\n        /* \"#utility.yul\":3161:3212   */\n      mstore\n        /* \"#utility.yul\":3134:3152   */\n      0x24\n      add\n        /* \"FairStakeToken.sol\":28346:28373  NoTokensToClaim(msg.sender) */\n      tag_222\n        /* \"#utility.yul\":3015:3218   */\n      jump\n        /* \"FairStakeToken.sol\":28302:28384  if (earnedTokens == 0) {... */\n    tag_456:\n        /* \"FairStakeToken.sol\":28458:28479  userStake.lastClaimed */\n      0x02\n      dup3\n      add\n        /* \"FairStakeToken.sol\":28458:28505  userStake.lastClaimed = uint64(block.timestamp) */\n      dup1\n      sload\n      not(shl(0x40, 0xffffffffffffffff))\n      and\n      shl(0x40, 0x01)\n        /* \"FairStakeToken.sol\":28489:28504  block.timestamp */\n      timestamp\n      sub(shl(0x40, 0x01), 0x01)\n        /* \"FairStakeToken.sol\":28458:28505  userStake.lastClaimed = uint64(block.timestamp) */\n      and\n      mul\n      or\n      swap1\n      sstore\n        /* \"FairStakeToken.sol\":28598:28635  _customMint(msg.sender, earnedTokens) */\n      tag_458\n        /* \"FairStakeToken.sol\":28610:28620  msg.sender */\n      caller\n        /* \"FairStakeToken.sol\":28622:28634  earnedTokens */\n      dup3\n        /* \"FairStakeToken.sol\":28598:28609  _customMint */\n      tag_353\n        /* \"FairStakeToken.sol\":28598:28635  _customMint(msg.sender, earnedTokens) */\n      jump\t// in\n    tag_458:\n        /* \"FairStakeToken.sol\":28715:28754  RewardClaimed(msg.sender, earnedTokens) */\n      mload(0x40)\n        /* \"#utility.yul\":597:622   */\n      dup2\n      dup2\n      mstore\n        /* \"FairStakeToken.sol\":28729:28739  msg.sender */\n      caller\n      swap1\n        /* \"FairStakeToken.sol\":28715:28754  RewardClaimed(msg.sender, earnedTokens) */\n      0x106f923f993c2149d49b4255ff723acafa1f2d94393f561d3eda32ae348f7241\n      swap1\n        /* \"#utility.yul\":585:587   */\n      0x20\n        /* \"#utility.yul\":570:588   */\n      add\n        /* \"FairStakeToken.sol\":28715:28754  RewardClaimed(msg.sender, earnedTokens) */\n      mload(0x40)\n      dup1\n      swap2\n      sub\n      swap1\n      log2\n        /* \"FairStakeToken.sol\":28771:28775  true */\n      0x01\n        /* \"FairStakeToken.sol\":28764:28775  return true */\n      swap4\n      pop\n      pop\n      pop\n      pop\n        /* \"FairStakeToken.sol\":11015:11023  _entered */\n      0x0b\n        /* \"FairStakeToken.sol\":11015:11031  _entered = false */\n      dup1\n      sload\n      not(0xff)\n      and\n      swap1\n      sstore\n        /* \"FairStakeToken.sol\":27906:28782  function claimReward() external whenModuleNotPaused(FunctionModule.REWARD) nonReentrant returns(bool) {... */\n      swap1\n      jump\t// out\n        /* \"FairStakeToken.sol\":15246:16476  function setTokenExchangeRate(address tokenAddress, uint88 rateNumerator, uint88 rateDenominator, uint256 maxExchangeAmount, uint8 transferType, uint8 durationWeeks) external isOwner returns(bool) {... */\n    tag_180:\n        /* \"FairStakeToken.sol\":10258:10263  owner */\n      sload(0x05)\n        /* \"FairStakeToken.sol\":15437:15441  bool */\n      0x00\n      swap1\n      sub(shl(0xa0, 0x01), 0x01)\n        /* \"FairStakeToken.sol\":10258:10263  owner */\n      and\n        /* \"FairStakeToken.sol\":10244:10254  msg.sender */\n      caller\n        /* \"FairStakeToken.sol\":10244:10263  msg.sender != owner */\n      eq\n        /* \"FairStakeToken.sol\":10240:10312  if (msg.sender != owner) {... */\n      tag_462\n      jumpi\n        /* \"FairStakeToken.sol\":10286:10301  NotAuthorized() */\n      mload(0x40)\n      shl(0xe0, 0xea8e4eb5)\n      dup2\n      mstore\n      0x04\n      add\n      mload(0x40)\n      dup1\n      swap2\n      sub\n      swap1\n      revert\n        /* \"FairStakeToken.sol\":10240:10312  if (msg.sender != owner) {... */\n    tag_462:\n      sub(shl(0xa0, 0x01), 0x01)\n        /* \"FairStakeToken.sol\":15486:15512  tokenAddress == address(0) */\n      dup8\n      and\n      iszero\n      dup1\n        /* \"FairStakeToken.sol\":15486:15545  tokenAddress == address(0) || tokenAddress == address(this) */\n      tag_464\n      jumpi\n      pop\n      sub(shl(0xa0, 0x01), 0x01)\n        /* \"FairStakeToken.sol\":15516:15545  tokenAddress == address(this) */\n      dup8\n      and\n        /* \"FairStakeToken.sol\":15540:15544  this */\n      address\n        /* \"FairStakeToken.sol\":15516:15545  tokenAddress == address(this) */\n      eq\n        /* \"FairStakeToken.sol\":15486:15545  tokenAddress == address(0) || tokenAddress == address(this) */\n    tag_464:\n        /* \"FairStakeToken.sol\":15482:15570  if (tokenAddress == address(0) || tokenAddress == address(this)) revert InvalidAddress() */\n      iszero\n      tag_465\n      jumpi\n        /* \"FairStakeToken.sol\":15554:15570  InvalidAddress() */\n      mload(0x40)\n      shl(0xe0, 0xe6c4247b)\n      dup2\n      mstore\n      0x04\n      add\n      mload(0x40)\n      dup1\n      swap2\n      sub\n      swap1\n      revert\n        /* \"FairStakeToken.sol\":15482:15570  if (tokenAddress == address(0) || tokenAddress == address(this)) revert InvalidAddress() */\n    tag_465:\n        /* \"FairStakeToken.sol\":15605:15606  0 */\n      0x00\n        /* \"FairStakeToken.sol\":15584:15601  maxExchangeAmount */\n      dup5\n        /* \"FairStakeToken.sol\":15584:15606  maxExchangeAmount <= 0 */\n      gt\n        /* \"FairStakeToken.sol\":15580:15627  if (maxExchangeAmount <= 0) revert ZeroAmount() */\n      tag_466\n      jumpi\n        /* \"FairStakeToken.sol\":15615:15627  ZeroAmount() */\n      mload(0x40)\n      shl(0xe0, 0x1f2a2005)\n      dup2\n      mstore\n      0x04\n      add\n      mload(0x40)\n      dup1\n      swap2\n      sub\n      swap1\n      revert\n        /* \"FairStakeToken.sol\":15580:15627  if (maxExchangeAmount <= 0) revert ZeroAmount() */\n    tag_466:\n        /* \"FairStakeToken.sol\":15656:15657  1 */\n      0x01\n        /* \"FairStakeToken.sol\":15641:15653  transferType */\n      dup4\n        /* \"FairStakeToken.sol\":15641:15657  transferType > 1 */\n      0xff\n      and\n      gt\n        /* \"FairStakeToken.sol\":15637:15687  if (transferType > 1) revert InvalidTransferType() */\n      iszero\n      tag_467\n      jumpi\n        /* \"FairStakeToken.sol\":15666:15687  InvalidTransferType() */\n      mload(0x40)\n      shl(0xe2, 0x31e6aa91)\n      dup2\n      mstore\n      0x04\n      add\n      mload(0x40)\n      dup1\n      swap2\n      sub\n      swap1\n      revert\n        /* \"FairStakeToken.sol\":15637:15687  if (transferType > 1) revert InvalidTransferType() */\n    tag_467:\n      sub(shl(0x58, 0x01), 0x01)\n        /* \"FairStakeToken.sol\":15701:15719  rateNumerator <= 0 */\n      dup7\n      and\n      iszero\n      dup1\n        /* \"FairStakeToken.sol\":15701:15743  rateNumerator <= 0 || rateDenominator <= 0 */\n      tag_468\n      jumpi\n      pop\n      sub(shl(0x58, 0x01), 0x01)\n        /* \"FairStakeToken.sol\":15723:15743  rateDenominator <= 0 */\n      dup6\n      and\n      iszero\n        /* \"FairStakeToken.sol\":15701:15743  rateNumerator <= 0 || rateDenominator <= 0 */\n    tag_468:\n        /* \"FairStakeToken.sol\":15697:15765  if (rateNumerator <= 0 || rateDenominator <= 0) revert InvalidRate() */\n      iszero\n      tag_469\n      jumpi\n        /* \"FairStakeToken.sol\":15752:15765  InvalidRate() */\n      mload(0x40)\n      shl(0xe0, 0x6a43f8d1)\n      dup2\n      mstore\n      0x04\n      add\n      mload(0x40)\n      dup1\n      swap2\n      sub\n      swap1\n      revert\n        /* \"FairStakeToken.sol\":15697:15765  if (rateNumerator <= 0 || rateDenominator <= 0) revert InvalidRate() */\n    tag_469:\n        /* \"FairStakeToken.sol\":15779:15792  durationWeeks */\n      dup2\n        /* \"FairStakeToken.sol\":15779:15797  durationWeeks == 0 */\n      0xff\n      and\n        /* \"FairStakeToken.sol\":15796:15797  0 */\n      0x00\n        /* \"FairStakeToken.sol\":15779:15797  durationWeeks == 0 */\n      sub\n        /* \"FairStakeToken.sol\":15775:15818  if (durationWeeks == 0) revert ZeroAmount() */\n      tag_470\n      jumpi\n        /* \"FairStakeToken.sol\":15806:15818  ZeroAmount() */\n      mload(0x40)\n      shl(0xe0, 0x1f2a2005)\n      dup2\n      mstore\n      0x04\n      add\n      mload(0x40)\n      dup1\n      swap2\n      sub\n      swap1\n      revert\n        /* \"FairStakeToken.sol\":15775:15818  if (durationWeeks == 0) revert ZeroAmount() */\n    tag_470:\n        /* \"FairStakeToken.sol\":15893:15909  uint64 startTime */\n      0x00\n        /* \"FairStakeToken.sol\":15962:15977  block.timestamp */\n      timestamp\n        /* \"FairStakeToken.sol\":15980:15986  1 days */\n      0x015180\n        /* \"FairStakeToken.sol\":15962:15986  block.timestamp + 1 days */\n      add\n        /* \"FairStakeToken.sol\":15943:15987  startTime = uint64(block.timestamp + 1 days) */\n      swap1\n      pop\n        /* \"FairStakeToken.sol\":16050:16347  TokenExchangeInfo({... */\n      mload(0x40)\n      dup1\n      0xc0\n      add\n      0x40\n      mstore\n      dup1\n        /* \"FairStakeToken.sol\":16107:16124  maxExchangeAmount */\n      dup7\n        /* \"FairStakeToken.sol\":16050:16347  TokenExchangeInfo({... */\n      dup2\n      mstore\n      0x20\n      add\n        /* \"FairStakeToken.sol\":16153:16166  rateNumerator */\n      dup9\n      sub(shl(0x58, 0x01), 0x01)\n        /* \"FairStakeToken.sol\":16050:16347  TokenExchangeInfo({... */\n      and\n      dup2\n      mstore\n      0x20\n      add\n        /* \"FairStakeToken.sol\":16197:16212  rateDenominator */\n      dup8\n      sub(shl(0x58, 0x01), 0x01)\n        /* \"FairStakeToken.sol\":16050:16347  TokenExchangeInfo({... */\n      and\n      dup2\n      mstore\n      0x20\n      add\n        /* \"FairStakeToken.sol\":16237:16246  startTime */\n      dup3\n      sub(shl(0x40, 0x01), 0x01)\n        /* \"FairStakeToken.sol\":16050:16347  TokenExchangeInfo({... */\n      and\n      dup2\n      mstore\n      0x20\n      add\n        /* \"FairStakeToken.sol\":16283:16296  durationWeeks */\n      dup5\n        /* \"FairStakeToken.sol\":16050:16347  TokenExchangeInfo({... */\n      0xff\n      and\n      dup2\n      mstore\n      0x20\n      add\n        /* \"FairStakeToken.sol\":16324:16336  transferType */\n      dup6\n        /* \"FairStakeToken.sol\":16050:16347  TokenExchangeInfo({... */\n      0xff\n      and\n      dup2\n      mstore\n      pop\n        /* \"FairStakeToken.sol\":16016:16033  tokenExchangeInfo */\n      0x09\n        /* \"FairStakeToken.sol\":16016:16047  tokenExchangeInfo[tokenAddress] */\n      0x00\n        /* \"FairStakeToken.sol\":16034:16046  tokenAddress */\n      dup11\n      sub(shl(0xa0, 0x01), 0x01)\n        /* \"FairStakeToken.sol\":16016:16047  tokenExchangeInfo[tokenAddress] */\n      and\n      sub(shl(0xa0, 0x01), 0x01)\n      and\n      dup2\n      mstore\n      0x20\n      add\n      swap1\n      dup2\n      mstore\n      0x20\n      add\n      0x00\n      keccak256\n        /* \"FairStakeToken.sol\":16016:16347  tokenExchangeInfo[tokenAddress] = TokenExchangeInfo({... */\n      0x00\n      dup3\n      add\n      mload\n      dup2\n      0x00\n      add\n      sstore\n      0x20\n      dup3\n      add\n      mload\n      dup2\n      0x01\n      add\n      exp(0x0100, 0x00)\n      dup2\n      sload\n      dup2\n      sub(shl(0x58, 0x01), 0x01)\n      mul\n      not\n      and\n      swap1\n      dup4\n      sub(shl(0x58, 0x01), 0x01)\n      and\n      mul\n      or\n      swap1\n      sstore\n      pop\n      0x40\n      dup3\n      add\n      mload\n      dup2\n      0x01\n      add\n      exp(0x0100, 0x0b)\n      dup2\n      sload\n      dup2\n      sub(shl(0x58, 0x01), 0x01)\n      mul\n      not\n      and\n      swap1\n      dup4\n      sub(shl(0x58, 0x01), 0x01)\n      and\n      mul\n      or\n      swap1\n      sstore\n      pop\n      0x60\n      dup3\n      add\n      mload\n      dup2\n      0x01\n      add\n      exp(0x0100, 0x16)\n      dup2\n      sload\n      dup2\n      sub(shl(0x40, 0x01), 0x01)\n      mul\n      not\n      and\n      swap1\n      dup4\n      sub(shl(0x40, 0x01), 0x01)\n      and\n      mul\n      or\n      swap1\n      sstore\n      pop\n      0x80\n      dup3\n      add\n      mload\n      dup2\n      0x01\n      add\n      exp(0x0100, 0x1e)\n      dup2\n      sload\n      dup2\n      0xff\n      mul\n      not\n      and\n      swap1\n      dup4\n      0xff\n      and\n      mul\n      or\n      swap1\n      sstore\n      pop\n      0xa0\n      dup3\n      add\n      mload\n      dup2\n      0x01\n      add\n      exp(0x0100, 0x1f)\n      dup2\n      sload\n      dup2\n      0xff\n      mul\n      not\n      and\n      swap1\n      dup4\n      0xff\n      and\n      mul\n      or\n      swap1\n      sstore\n      pop\n      swap1\n      pop\n      pop\n        /* \"FairStakeToken.sol\":16384:16396  tokenAddress */\n      dup8\n      sub(shl(0xa0, 0x01), 0x01)\n        /* \"FairStakeToken.sol\":16363:16448  TokenExchangeRateSet(tokenAddress, rateNumerator, rateDenominator, maxExchangeAmount) */\n      and\n      0x79dcf314c842ec4729cc5b9fa3f984e9d0d89a59ad3716aaa1b58ef8b646b539\n        /* \"FairStakeToken.sol\":16398:16411  rateNumerator */\n      dup9\n        /* \"FairStakeToken.sol\":16413:16428  rateDenominator */\n      dup9\n        /* \"FairStakeToken.sol\":16430:16447  maxExchangeAmount */\n      dup9\n        /* \"FairStakeToken.sol\":16363:16448  TokenExchangeRateSet(tokenAddress, rateNumerator, rateDenominator, maxExchangeAmount) */\n      mload(0x40)\n      tag_471\n      swap4\n      swap3\n      swap2\n      swap1\n      sub(shl(0x58, 0x01), 0x01)\n        /* \"#utility.yul\":11472:11487   */\n      swap4\n      dup5\n      and\n        /* \"#utility.yul\":11454:11488   */\n      dup2\n      mstore\n        /* \"#utility.yul\":11524:11539   */\n      swap2\n      swap1\n      swap3\n      and\n        /* \"#utility.yul\":11519:11521   */\n      0x20\n        /* \"#utility.yul\":11504:11522   */\n      dup3\n      add\n        /* \"#utility.yul\":11497:11540   */\n      mstore\n        /* \"#utility.yul\":11571:11573   */\n      0x40\n        /* \"#utility.yul\":11556:11574   */\n      dup2\n      add\n        /* \"#utility.yul\":11549:11583   */\n      swap2\n      swap1\n      swap2\n      mstore\n        /* \"#utility.yul\":11399:11401   */\n      0x60\n        /* \"#utility.yul\":11384:11402   */\n      add\n      swap1\n        /* \"#utility.yul\":11213:11589   */\n      jump\n        /* \"FairStakeToken.sol\":16363:16448  TokenExchangeRateSet(tokenAddress, rateNumerator, rateDenominator, maxExchangeAmount) */\n    tag_471:\n      mload(0x40)\n      dup1\n      swap2\n      sub\n      swap1\n      log2\n      pop\n        /* \"FairStakeToken.sol\":16465:16469  true */\n      0x01\n      swap8\n        /* \"FairStakeToken.sol\":15246:16476  function setTokenExchangeRate(address tokenAddress, uint88 rateNumerator, uint88 rateDenominator, uint256 maxExchangeAmount, uint8 transferType, uint8 durationWeeks) external isOwner returns(bool) {... */\n      swap7\n      pop\n      pop\n      pop\n      pop\n      pop\n      pop\n      pop\n      jump\t// out\n        /* \"FairStakeToken.sol\":12592:12801  function pauseModule(FunctionModule module) external isOwner {... */\n    tag_201:\n        /* \"FairStakeToken.sol\":10258:10263  owner */\n      and(sub(shl(0xa0, 0x01), 0x01), sload(0x05))\n        /* \"FairStakeToken.sol\":10244:10254  msg.sender */\n      caller\n        /* \"FairStakeToken.sol\":10244:10263  msg.sender != owner */\n      eq\n        /* \"FairStakeToken.sol\":10240:10312  if (msg.sender != owner) {... */\n      tag_476\n      jumpi\n        /* \"FairStakeToken.sol\":10286:10301  NotAuthorized() */\n      mload(0x40)\n      shl(0xe0, 0xea8e4eb5)\n      dup2\n      mstore\n      0x04\n      add\n      mload(0x40)\n      dup1\n      swap2\n      sub\n      swap1\n      revert\n        /* \"FairStakeToken.sol\":10240:10312  if (msg.sender != owner) {... */\n    tag_476:\n        /* \"FairStakeToken.sol\":12687:12691  true */\n      0x01\n        /* \"FairStakeToken.sol\":12663:12676  pausedModules */\n      0x06\n        /* \"FairStakeToken.sol\":12663:12684  pausedModules[module] */\n      0x00\n        /* \"FairStakeToken.sol\":12677:12683  module */\n      dup4\n        /* \"FairStakeToken.sol\":12663:12684  pausedModules[module] */\n      0x04\n      dup2\n      gt\n      iszero\n      tag_479\n      jumpi\n      tag_479\n      tag_216\n      jump\t// in\n    tag_479:\n      0x04\n      dup2\n      gt\n      iszero\n      tag_481\n      jumpi\n      tag_481\n      tag_216\n      jump\t// in\n    tag_481:\n      dup2\n      mstore\n      0x20\n      dup2\n      add\n      swap2\n      swap1\n      swap2\n      mstore\n      0x40\n      add\n      0x00\n      keccak256\n        /* \"FairStakeToken.sol\":12663:12691  pausedModules[module] = true */\n      dup1\n      sload\n      not(0xff)\n      and\n      swap2\n      iszero\n      iszero\n      swap2\n      swap1\n      swap2\n      or\n      swap1\n      sstore\n        /* \"FairStakeToken.sol\":12754:12764  msg.sender */\n      caller\n        /* \"FairStakeToken.sol\":12746:12752  module */\n      dup2\n        /* \"FairStakeToken.sol\":12733:12765  ModulePaused(module, msg.sender) */\n      0x04\n      dup2\n      gt\n      iszero\n      tag_483\n      jumpi\n      tag_483\n      tag_216\n      jump\t// in\n    tag_483:\n      mload(0x40)\n      0xc230972cb0d03d9b32f1ba24ab2d3bcb8bf7638b48d389fcd9886cbd71e6e54c\n      swap1\n      0x00\n      swap1\n      log3\n        /* \"FairStakeToken.sol\":12592:12801  function pauseModule(FunctionModule module) external isOwner {... */\n      pop\n      jump\t// out\n        /* \"FairStakeToken.sol\":11678:11837  function transferOwnership(address _newOwner) external isOwner {... */\n    tag_211:\n        /* \"FairStakeToken.sol\":10258:10263  owner */\n      and(sub(shl(0xa0, 0x01), 0x01), sload(0x05))\n        /* \"FairStakeToken.sol\":10244:10254  msg.sender */\n      caller\n        /* \"FairStakeToken.sol\":10244:10263  msg.sender != owner */\n      eq\n        /* \"FairStakeToken.sol\":10240:10312  if (msg.sender != owner) {... */\n      tag_485\n      jumpi\n        /* \"FairStakeToken.sol\":10286:10301  NotAuthorized() */\n      mload(0x40)\n      shl(0xe0, 0xea8e4eb5)\n      dup2\n      mstore\n      0x04\n      add\n      mload(0x40)\n      dup1\n      swap2\n      sub\n      swap1\n      revert\n        /* \"FairStakeToken.sol\":10240:10312  if (msg.sender != owner) {... */\n    tag_485:\n      sub(shl(0xa0, 0x01), 0x01)\n        /* \"FairStakeToken.sol\":11755:11778  _newOwner == address(0) */\n      dup2\n      and\n        /* \"FairStakeToken.sol\":11751:11803  if (_newOwner == address(0)) revert InvalidAddress() */\n      tag_487\n      jumpi\n        /* \"FairStakeToken.sol\":11787:11803  InvalidAddress() */\n      mload(0x40)\n      shl(0xe0, 0xe6c4247b)\n      dup2\n      mstore\n      0x04\n      add\n      mload(0x40)\n      dup1\n      swap2\n      sub\n      swap1\n      revert\n        /* \"FairStakeToken.sol\":11751:11803  if (_newOwner == address(0)) revert InvalidAddress() */\n    tag_487:\n        /* \"FairStakeToken.sol\":11813:11818  owner */\n      0x05\n        /* \"FairStakeToken.sol\":11813:11830  owner = _newOwner */\n      dup1\n      sload\n      not(sub(shl(0xa0, 0x01), 0x01))\n      and\n      sub(shl(0xa0, 0x01), 0x01)\n      swap3\n      swap1\n      swap3\n      and\n      swap2\n      swap1\n      swap2\n      or\n      swap1\n      sstore\n        /* \"FairStakeToken.sol\":11678:11837  function transferOwnership(address _newOwner) external isOwner {... */\n      jump\t// out\n        /* \"@openzeppelin/contracts/token/ERC20/ERC20.sol\":7888:8094   */\n    tag_243:\n      sub(shl(0xa0, 0x01), 0x01)\n        /* \"@openzeppelin/contracts/token/ERC20/ERC20.sol\":7958:7979   */\n      dup3\n      and\n        /* \"@openzeppelin/contracts/token/ERC20/ERC20.sol\":7954:8043   */\n      tag_489\n      jumpi\n        /* \"@openzeppelin/contracts/token/ERC20/ERC20.sol\":8002:8032   */\n      mload(0x40)\n      shl(0xe1, 0x4b637e8f)\n      dup2\n      mstore\n        /* \"@openzeppelin/contracts/token/ERC20/ERC20.sol\":8029:8030   */\n      0x00\n        /* \"@openzeppelin/contracts/token/ERC20/ERC20.sol\":8002:8032   */\n      0x04\n      dup3\n      add\n        /* \"#utility.yul\":3161:3212   */\n      mstore\n        /* \"#utility.yul\":3134:3152   */\n      0x24\n      add\n        /* \"@openzeppelin/contracts/token/ERC20/ERC20.sol\":8002:8032   */\n      tag_222\n        /* \"#utility.yul\":3015:3218   */\n      jump\n        /* \"@openzeppelin/contracts/token/ERC20/ERC20.sol\":7954:8043   */\n    tag_489:\n        /* \"@openzeppelin/contracts/token/ERC20/ERC20.sol\":8052:8087   */\n      tag_491\n        /* \"@openzeppelin/contracts/token/ERC20/ERC20.sol\":8060:8067   */\n      dup3\n        /* \"@openzeppelin/contracts/token/ERC20/ERC20.sol\":8077:8078   */\n      0x00\n        /* \"@openzeppelin/contracts/token/ERC20/ERC20.sol\":8081:8086   */\n      dup4\n        /* \"@openzeppelin/contracts/token/ERC20/ERC20.sol\":8052:8059   */\n      tag_492\n        /* \"@openzeppelin/contracts/token/ERC20/ERC20.sol\":8052:8087   */\n      jump\t// in\n    tag_491:\n        /* \"@openzeppelin/contracts/token/ERC20/ERC20.sol\":7888:8094   */\n      pop\n      pop\n      jump\t// out\n        /* \"@openzeppelin/contracts/token/ERC20/ERC20.sol\":8630:8758   */\n    tag_273:\n        /* \"@openzeppelin/contracts/token/ERC20/ERC20.sol\":8714:8751   */\n      tag_495\n        /* \"@openzeppelin/contracts/token/ERC20/ERC20.sol\":8723:8728   */\n      dup4\n        /* \"@openzeppelin/contracts/token/ERC20/ERC20.sol\":8730:8737   */\n      dup4\n        /* \"@openzeppelin/contracts/token/ERC20/ERC20.sol\":8739:8744   */\n      dup4\n        /* \"@openzeppelin/contracts/token/ERC20/ERC20.sol\":8746:8750   */\n      0x01\n        /* \"@openzeppelin/contracts/token/ERC20/ERC20.sol\":8714:8722   */\n      tag_496\n        /* \"@openzeppelin/contracts/token/ERC20/ERC20.sol\":8714:8751   */\n      jump\t// in\n    tag_495:\n        /* \"@openzeppelin/contracts/token/ERC20/ERC20.sol\":8630:8758   */\n      pop\n      pop\n      pop\n      jump\t// out\n        /* \"@openzeppelin/contracts/token/ERC20/ERC20.sol\":10319:10795   */\n    tag_278:\n      sub(shl(0xa0, 0x01), 0x01)\n        /* \"@openzeppelin/contracts/token/ERC20/ERC20.sol\":3561:3579   */\n      dup4\n      dup2\n      and\n        /* \"@openzeppelin/contracts/token/ERC20/ERC20.sol\":10418:10442   */\n      0x00\n        /* \"@openzeppelin/contracts/token/ERC20/ERC20.sol\":3561:3579   */\n      swap1\n      dup2\n      mstore\n        /* \"@openzeppelin/contracts/token/ERC20/ERC20.sol\":3561:3572   */\n      0x01\n        /* \"@openzeppelin/contracts/token/ERC20/ERC20.sol\":3561:3579   */\n      0x20\n      swap1\n      dup2\n      mstore\n      0x40\n      dup1\n      dup4\n      keccak256\n        /* \"@openzeppelin/contracts/token/ERC20/ERC20.sol\":3561:3588   */\n      swap4\n      dup7\n      and\n      dup4\n      mstore\n      swap3\n      swap1\n      mstore\n      keccak256\n      sload\n      not(0x00)\n        /* \"@openzeppelin/contracts/token/ERC20/ERC20.sol\":10484:10520   */\n      dup2\n      lt\n        /* \"@openzeppelin/contracts/token/ERC20/ERC20.sol\":10480:10789   */\n      iszero\n      tag_503\n      jumpi\n        /* \"@openzeppelin/contracts/token/ERC20/ERC20.sol\":10559:10564   */\n      dup2\n        /* \"@openzeppelin/contracts/token/ERC20/ERC20.sol\":10540:10556   */\n      dup2\n        /* \"@openzeppelin/contracts/token/ERC20/ERC20.sol\":10540:10564   */\n      lt\n        /* \"@openzeppelin/contracts/token/ERC20/ERC20.sol\":10536:10666   */\n      iszero\n      tag_500\n      jumpi\n        /* \"@openzeppelin/contracts/token/ERC20/ERC20.sol\":10591:10651   */\n      mload(0x40)\n      shl(0xe1, 0x7dc7a0d9)\n      dup2\n      mstore\n      sub(shl(0xa0, 0x01), 0x01)\n        /* \"#utility.yul\":11814:11846   */\n      dup5\n      and\n        /* \"@openzeppelin/contracts/token/ERC20/ERC20.sol\":10591:10651   */\n      0x04\n      dup3\n      add\n        /* \"#utility.yul\":11796:11847   */\n      mstore\n        /* \"#utility.yul\":11863:11881   */\n      0x24\n      dup2\n      add\n        /* \"#utility.yul\":11856:11890   */\n      dup3\n      swap1\n      mstore\n        /* \"#utility.yul\":11906:11924   */\n      0x44\n      dup2\n      add\n        /* \"#utility.yul\":11899:11933   */\n      dup4\n      swap1\n      mstore\n        /* \"#utility.yul\":11769:11787   */\n      0x64\n      add\n        /* \"@openzeppelin/contracts/token/ERC20/ERC20.sol\":10591:10651   */\n      tag_222\n        /* \"#utility.yul\":11594:11939   */\n      jump\n        /* \"@openzeppelin/contracts/token/ERC20/ERC20.sol\":10536:10666   */\n    tag_500:\n        /* \"@openzeppelin/contracts/token/ERC20/ERC20.sol\":10707:10764   */\n      tag_503\n        /* \"@openzeppelin/contracts/token/ERC20/ERC20.sol\":10716:10721   */\n      dup5\n        /* \"@openzeppelin/contracts/token/ERC20/ERC20.sol\":10723:10730   */\n      dup5\n        /* \"@openzeppelin/contracts/token/ERC20/ERC20.sol\":10751:10756   */\n      dup5\n        /* \"@openzeppelin/contracts/token/ERC20/ERC20.sol\":10732:10748   */\n      dup5\n        /* \"@openzeppelin/contracts/token/ERC20/ERC20.sol\":10732:10756   */\n      sub\n        /* \"@openzeppelin/contracts/token/ERC20/ERC20.sol\":10758:10763   */\n      0x00\n        /* \"@openzeppelin/contracts/token/ERC20/ERC20.sol\":10707:10715   */\n      tag_496\n        /* \"@openzeppelin/contracts/token/ERC20/ERC20.sol\":10707:10764   */\n      jump\t// in\n    tag_503:\n        /* \"@openzeppelin/contracts/token/ERC20/ERC20.sol\":10408:10795   */\n      pop\n        /* \"@openzeppelin/contracts/token/ERC20/ERC20.sol\":10319:10795   */\n      pop\n      pop\n      pop\n      jump\t// out\n        /* \"@openzeppelin/contracts/token/ERC20/ERC20.sol\":5297:5597   */\n    tag_280:\n      sub(shl(0xa0, 0x01), 0x01)\n        /* \"@openzeppelin/contracts/token/ERC20/ERC20.sol\":5380:5398   */\n      dup4\n      and\n        /* \"@openzeppelin/contracts/token/ERC20/ERC20.sol\":5376:5462   */\n      tag_505\n      jumpi\n        /* \"@openzeppelin/contracts/token/ERC20/ERC20.sol\":5421:5451   */\n      mload(0x40)\n      shl(0xe1, 0x4b637e8f)\n      dup2\n      mstore\n        /* \"@openzeppelin/contracts/token/ERC20/ERC20.sol\":5448:5449   */\n      0x00\n        /* \"@openzeppelin/contracts/token/ERC20/ERC20.sol\":5421:5451   */\n      0x04\n      dup3\n      add\n        /* \"#utility.yul\":3161:3212   */\n      mstore\n        /* \"#utility.yul\":3134:3152   */\n      0x24\n      add\n        /* \"@openzeppelin/contracts/token/ERC20/ERC20.sol\":5421:5451   */\n      tag_222\n        /* \"#utility.yul\":3015:3218   */\n      jump\n        /* \"@openzeppelin/contracts/token/ERC20/ERC20.sol\":5376:5462   */\n    tag_505:\n      sub(shl(0xa0, 0x01), 0x01)\n        /* \"@openzeppelin/contracts/token/ERC20/ERC20.sol\":5475:5491   */\n      dup3\n      and\n        /* \"@openzeppelin/contracts/token/ERC20/ERC20.sol\":5471:5557   */\n      tag_507\n      jumpi\n        /* \"@openzeppelin/contracts/token/ERC20/ERC20.sol\":5514:5546   */\n      mload(0x40)\n      shl(0xe0, 0xec442f05)\n      dup2\n      mstore\n        /* \"@openzeppelin/contracts/token/ERC20/ERC20.sol\":5543:5544   */\n      0x00\n        /* \"@openzeppelin/contracts/token/ERC20/ERC20.sol\":5514:5546   */\n      0x04\n      dup3\n      add\n        /* \"#utility.yul\":3161:3212   */\n      mstore\n        /* \"#utility.yul\":3134:3152   */\n      0x24\n      add\n        /* \"@openzeppelin/contracts/token/ERC20/ERC20.sol\":5514:5546   */\n      tag_222\n        /* \"#utility.yul\":3015:3218   */\n      jump\n        /* \"@openzeppelin/contracts/token/ERC20/ERC20.sol\":5471:5557   */\n    tag_507:\n        /* \"@openzeppelin/contracts/token/ERC20/ERC20.sol\":5566:5590   */\n      tag_495\n        /* \"@openzeppelin/contracts/token/ERC20/ERC20.sol\":5574:5578   */\n      dup4\n        /* \"@openzeppelin/contracts/token/ERC20/ERC20.sol\":5580:5582   */\n      dup4\n        /* \"@openzeppelin/contracts/token/ERC20/ERC20.sol\":5584:5589   */\n      dup4\n        /* \"@openzeppelin/contracts/token/ERC20/ERC20.sol\":5566:5573   */\n      tag_492\n        /* \"@openzeppelin/contracts/token/ERC20/ERC20.sol\":5566:5590   */\n      jump\t// in\n        /* \"FairStakeToken.sol\":7603:7996  function _customMint(address account, uint256 amount) internal {... */\n    tag_353:\n        /* \"FairStakeToken.sol\":7732:7749  uint256 newSupply */\n      0x00\n        /* \"FairStakeToken.sol\":7768:7774  amount */\n      dup2\n        /* \"FairStakeToken.sol\":7752:7765  totalSupply() */\n      tag_511\n        /* \"@openzeppelin/contracts/token/ERC20/ERC20.sol\":2881:2893   */\n      sload(0x02)\n      swap1\n        /* \"@openzeppelin/contracts/token/ERC20/ERC20.sol\":2803:2900   */\n      jump\n        /* \"FairStakeToken.sol\":7752:7765  totalSupply() */\n    tag_511:\n        /* \"FairStakeToken.sol\":7752:7774  totalSupply() + amount */\n      tag_512\n      swap2\n      swap1\n      tag_365\n      jump\t// in\n    tag_512:\n        /* \"FairStakeToken.sol\":7732:7774  uint256 newSupply = totalSupply() + amount */\n      swap1\n      pop\n        /* \"FairStakeToken.sol\":1552:1578  1_000_000_000_000 * 10**18 */\n      0x0c9f2c9cd04674edea40000000\n        /* \"FairStakeToken.sol\":7788:7797  newSupply */\n      dup2\n        /* \"FairStakeToken.sol\":7788:7810  newSupply > MAX_SUPPLY */\n      gt\n        /* \"FairStakeToken.sol\":7784:7895  if (newSupply > MAX_SUPPLY) {... */\n      iszero\n      tag_513\n      jumpi\n        /* \"FairStakeToken.sol\":7850:7856  amount */\n      dup2\n        /* \"FairStakeToken.sol\":1552:1578  1_000_000_000_000 * 10**18 */\n      0x0c9f2c9cd04674edea40000000\n        /* \"FairStakeToken.sol\":7870:7883  totalSupply() */\n      tag_514\n        /* \"@openzeppelin/contracts/token/ERC20/ERC20.sol\":2881:2893   */\n      sload(0x02)\n      swap1\n        /* \"@openzeppelin/contracts/token/ERC20/ERC20.sol\":2803:2900   */\n      jump\n        /* \"FairStakeToken.sol\":7870:7883  totalSupply() */\n    tag_514:\n        /* \"FairStakeToken.sol\":7833:7884  ExceedsMaxSupply(amount, MAX_SUPPLY, totalSupply()) */\n      mload(0x40)\n      shl(0xe3, 0x1d44f5d5)\n      dup2\n      mstore\n      0x04\n      dup2\n      add\n        /* \"#utility.yul\":12146:12171   */\n      swap4\n      swap1\n      swap4\n      mstore\n        /* \"#utility.yul\":12187:12205   */\n      0x24\n      dup4\n      add\n        /* \"#utility.yul\":12180:12214   */\n      swap2\n      swap1\n      swap2\n      mstore\n        /* \"#utility.yul\":12230:12248   */\n      0x44\n      dup3\n      add\n        /* \"#utility.yul\":12223:12257   */\n      mstore\n        /* \"#utility.yul\":12119:12137   */\n      0x64\n      add\n        /* \"FairStakeToken.sol\":7833:7884  ExceedsMaxSupply(amount, MAX_SUPPLY, totalSupply()) */\n      tag_222\n        /* \"#utility.yul\":11944:12263   */\n      jump\n        /* \"FairStakeToken.sol\":7784:7895  if (newSupply > MAX_SUPPLY) {... */\n    tag_513:\n        /* \"FairStakeToken.sol\":7961:7989  super._mint(account, amount) */\n      tag_495\n        /* \"FairStakeToken.sol\":7973:7980  account */\n      dup4\n        /* \"FairStakeToken.sol\":7982:7988  amount */\n      dup4\n        /* \"FairStakeToken.sol\":7961:7972  super._mint */\n      tag_518\n        /* \"FairStakeToken.sol\":7961:7989  super._mint(account, amount) */\n      jump\t// in\n        /* \"@openzeppelin/contracts/token/ERC20/ERC20.sol\":5912:7019   */\n    tag_492:\n      sub(shl(0xa0, 0x01), 0x01)\n        /* \"@openzeppelin/contracts/token/ERC20/ERC20.sol\":6001:6019   */\n      dup4\n      and\n        /* \"@openzeppelin/contracts/token/ERC20/ERC20.sol\":5997:6537   */\n      tag_520\n      jumpi\n        /* \"@openzeppelin/contracts/token/ERC20/ERC20.sol\":6153:6158   */\n      dup1\n        /* \"@openzeppelin/contracts/token/ERC20/ERC20.sol\":6137:6149   */\n      0x02\n      0x00\n        /* \"@openzeppelin/contracts/token/ERC20/ERC20.sol\":6137:6158   */\n      dup3\n      dup3\n      sload\n      tag_521\n      swap2\n      swap1\n      tag_365\n      jump\t// in\n    tag_521:\n      swap1\n      swap2\n      sstore\n      pop\n        /* \"@openzeppelin/contracts/token/ERC20/ERC20.sol\":5997:6537   */\n      tag_522\n      swap1\n      pop\n      jump\n    tag_520:\n      sub(shl(0xa0, 0x01), 0x01)\n        /* \"@openzeppelin/contracts/token/ERC20/ERC20.sol\":6211:6226   */\n      dup4\n      and\n        /* \"@openzeppelin/contracts/token/ERC20/ERC20.sol\":6189:6208   */\n      0x00\n        /* \"@openzeppelin/contracts/token/ERC20/ERC20.sol\":6211:6226   */\n      swap1\n      dup2\n      mstore\n      0x20\n      dup2\n      swap1\n      mstore\n      0x40\n      swap1\n      keccak256\n      sload\n        /* \"@openzeppelin/contracts/token/ERC20/ERC20.sol\":6244:6263   */\n      dup2\n      dup2\n      lt\n        /* \"@openzeppelin/contracts/token/ERC20/ERC20.sol\":6240:6355   */\n      iszero\n      tag_523\n      jumpi\n        /* \"@openzeppelin/contracts/token/ERC20/ERC20.sol\":6290:6340   */\n      mload(0x40)\n      shl(0xe2, 0x391434e3)\n      dup2\n      mstore\n      sub(shl(0xa0, 0x01), 0x01)\n        /* \"#utility.yul\":11814:11846   */\n      dup6\n      and\n        /* \"@openzeppelin/contracts/token/ERC20/ERC20.sol\":6290:6340   */\n      0x04\n      dup3\n      add\n        /* \"#utility.yul\":11796:11847   */\n      mstore\n        /* \"#utility.yul\":11863:11881   */\n      0x24\n      dup2\n      add\n        /* \"#utility.yul\":11856:11890   */\n      dup3\n      swap1\n      mstore\n        /* \"#utility.yul\":11906:11924   */\n      0x44\n      dup2\n      add\n        /* \"#utility.yul\":11899:11933   */\n      dup4\n      swap1\n      mstore\n        /* \"#utility.yul\":11769:11787   */\n      0x64\n      add\n        /* \"@openzeppelin/contracts/token/ERC20/ERC20.sol\":6290:6340   */\n      tag_222\n        /* \"#utility.yul\":11594:11939   */\n      jump\n        /* \"@openzeppelin/contracts/token/ERC20/ERC20.sol\":6240:6355   */\n    tag_523:\n      sub(shl(0xa0, 0x01), 0x01)\n        /* \"@openzeppelin/contracts/token/ERC20/ERC20.sol\":6475:6490   */\n      dup5\n      and\n        /* \"@openzeppelin/contracts/token/ERC20/ERC20.sol\":6475:6484   */\n      0x00\n        /* \"@openzeppelin/contracts/token/ERC20/ERC20.sol\":6475:6490   */\n      swap1\n      dup2\n      mstore\n      0x20\n      dup2\n      swap1\n      mstore\n      0x40\n      swap1\n      keccak256\n        /* \"@openzeppelin/contracts/token/ERC20/ERC20.sol\":6493:6512   */\n      swap1\n      dup3\n      swap1\n      sub\n        /* \"@openzeppelin/contracts/token/ERC20/ERC20.sol\":6475:6512   */\n      swap1\n      sstore\n        /* \"@openzeppelin/contracts/token/ERC20/ERC20.sol\":5997:6537   */\n    tag_522:\n      sub(shl(0xa0, 0x01), 0x01)\n        /* \"@openzeppelin/contracts/token/ERC20/ERC20.sol\":6551:6567   */\n      dup3\n      and\n        /* \"@openzeppelin/contracts/token/ERC20/ERC20.sol\":6547:6972   */\n      tag_525\n      jumpi\n        /* \"@openzeppelin/contracts/token/ERC20/ERC20.sol\":6714:6726   */\n      0x02\n        /* \"@openzeppelin/contracts/token/ERC20/ERC20.sol\":6714:6735   */\n      dup1\n      sload\n      dup3\n      swap1\n      sub\n      swap1\n      sstore\n        /* \"@openzeppelin/contracts/token/ERC20/ERC20.sol\":6547:6972   */\n      jump(tag_526)\n    tag_525:\n      sub(shl(0xa0, 0x01), 0x01)\n        /* \"@openzeppelin/contracts/token/ERC20/ERC20.sol\":6925:6938   */\n      dup3\n      and\n        /* \"@openzeppelin/contracts/token/ERC20/ERC20.sol\":6925:6934   */\n      0x00\n        /* \"@openzeppelin/contracts/token/ERC20/ERC20.sol\":6925:6938   */\n      swap1\n      dup2\n      mstore\n      0x20\n      dup2\n      swap1\n      mstore\n      0x40\n      swap1\n      keccak256\n        /* \"@openzeppelin/contracts/token/ERC20/ERC20.sol\":6925:6947   */\n      dup1\n      sload\n      dup3\n      add\n      swap1\n      sstore\n        /* \"@openzeppelin/contracts/token/ERC20/ERC20.sol\":6547:6972   */\n    tag_526:\n        /* \"@openzeppelin/contracts/token/ERC20/ERC20.sol\":7002:7004   */\n      dup2\n      sub(shl(0xa0, 0x01), 0x01)\n        /* \"@openzeppelin/contracts/token/ERC20/ERC20.sol\":6987:7012   */\n      and\n        /* \"@openzeppelin/contracts/token/ERC20/ERC20.sol\":6996:7000   */\n      dup4\n      sub(shl(0xa0, 0x01), 0x01)\n        /* \"@openzeppelin/contracts/token/ERC20/ERC20.sol\":6987:7012   */\n      and\n      0xddf252ad1be2c89b69c2b068fc378daa952ba7f163c4a11628f55a4df523b3ef\n        /* \"@openzeppelin/contracts/token/ERC20/ERC20.sol\":7006:7011   */\n      dup4\n        /* \"@openzeppelin/contracts/token/ERC20/ERC20.sol\":6987:7012   */\n      mload(0x40)\n      tag_527\n      swap2\n        /* \"#utility.yul\":597:622   */\n      dup2\n      mstore\n        /* \"#utility.yul\":585:587   */\n      0x20\n        /* \"#utility.yul\":570:588   */\n      add\n      swap1\n        /* \"#utility.yul\":451:628   */\n      jump\n        /* \"@openzeppelin/contracts/token/ERC20/ERC20.sol\":6987:7012   */\n    tag_527:\n      mload(0x40)\n      dup1\n      swap2\n      sub\n      swap1\n      log3\n        /* \"@openzeppelin/contracts/token/ERC20/ERC20.sol\":5912:7019   */\n      pop\n      pop\n      pop\n      jump\t// out\n        /* \"@openzeppelin/contracts/token/ERC20/ERC20.sol\":9605:10037   */\n    tag_496:\n      sub(shl(0xa0, 0x01), 0x01)\n        /* \"@openzeppelin/contracts/token/ERC20/ERC20.sol\":9717:9736   */\n      dup5\n      and\n        /* \"@openzeppelin/contracts/token/ERC20/ERC20.sol\":9713:9802   */\n      tag_529\n      jumpi\n        /* \"@openzeppelin/contracts/token/ERC20/ERC20.sol\":9759:9791   */\n      mload(0x40)\n      shl(0xe0, 0xe602df05)\n      dup2\n      mstore\n        /* \"@openzeppelin/contracts/token/ERC20/ERC20.sol\":9788:9789   */\n      0x00\n        /* \"@openzeppelin/contracts/token/ERC20/ERC20.sol\":9759:9791   */\n      0x04\n      dup3\n      add\n        /* \"#utility.yul\":3161:3212   */\n      mstore\n        /* \"#utility.yul\":3134:3152   */\n      0x24\n      add\n        /* \"@openzeppelin/contracts/token/ERC20/ERC20.sol\":9759:9791   */\n      tag_222\n        /* \"#utility.yul\":3015:3218   */\n      jump\n        /* \"@openzeppelin/contracts/token/ERC20/ERC20.sol\":9713:9802   */\n    tag_529:\n      sub(shl(0xa0, 0x01), 0x01)\n        /* \"@openzeppelin/contracts/token/ERC20/ERC20.sol\":9815:9836   */\n      dup4\n      and\n        /* \"@openzeppelin/contracts/token/ERC20/ERC20.sol\":9811:9901   */\n      tag_531\n      jumpi\n        /* \"@openzeppelin/contracts/token/ERC20/ERC20.sol\":9859:9890   */\n      mload(0x40)\n      shl(0xe1, 0x4a1406b1)\n      dup2\n      mstore\n        /* \"@openzeppelin/contracts/token/ERC20/ERC20.sol\":9887:9888   */\n      0x00\n        /* \"@openzeppelin/contracts/token/ERC20/ERC20.sol\":9859:9890   */\n      0x04\n      dup3\n      add\n        /* \"#utility.yul\":3161:3212   */\n      mstore\n        /* \"#utility.yul\":3134:3152   */\n      0x24\n      add\n        /* \"@openzeppelin/contracts/token/ERC20/ERC20.sol\":9859:9890   */\n      tag_222\n        /* \"#utility.yul\":3015:3218   */\n      jump\n        /* \"@openzeppelin/contracts/token/ERC20/ERC20.sol\":9811:9901   */\n    tag_531:\n      sub(shl(0xa0, 0x01), 0x01)\n        /* \"@openzeppelin/contracts/token/ERC20/ERC20.sol\":9910:9928   */\n      dup1\n      dup6\n      and\n      0x00\n      swap1\n      dup2\n      mstore\n        /* \"@openzeppelin/contracts/token/ERC20/ERC20.sol\":9910:9921   */\n      0x01\n        /* \"@openzeppelin/contracts/token/ERC20/ERC20.sol\":9910:9928   */\n      0x20\n      swap1\n      dup2\n      mstore\n      0x40\n      dup1\n      dup4\n      keccak256\n        /* \"@openzeppelin/contracts/token/ERC20/ERC20.sol\":9910:9937   */\n      swap4\n      dup8\n      and\n      dup4\n      mstore\n      swap3\n      swap1\n      mstore\n      keccak256\n        /* \"@openzeppelin/contracts/token/ERC20/ERC20.sol\":9910:9945   */\n      dup3\n      swap1\n      sstore\n        /* \"@openzeppelin/contracts/token/ERC20/ERC20.sol\":9955:10031   */\n      dup1\n      iszero\n      tag_503\n      jumpi\n        /* \"@openzeppelin/contracts/token/ERC20/ERC20.sol\":10005:10012   */\n      dup3\n      sub(shl(0xa0, 0x01), 0x01)\n        /* \"@openzeppelin/contracts/token/ERC20/ERC20.sol\":9989:10020   */\n      and\n        /* \"@openzeppelin/contracts/token/ERC20/ERC20.sol\":9998:10003   */\n      dup5\n      sub(shl(0xa0, 0x01), 0x01)\n        /* \"@openzeppelin/contracts/token/ERC20/ERC20.sol\":9989:10020   */\n      and\n      0x8c5be1e5ebec7d5bd14f71427d1e84f3dd0314c0f7b2291e5b200ac8c7c3b925\n        /* \"@openzeppelin/contracts/token/ERC20/ERC20.sol\":10014:10019   */\n      dup5\n        /* \"@openzeppelin/contracts/token/ERC20/ERC20.sol\":9989:10020   */\n      mload(0x40)\n      tag_534\n      swap2\n        /* \"#utility.yul\":597:622   */\n      dup2\n      mstore\n        /* \"#utility.yul\":585:587   */\n      0x20\n        /* \"#utility.yul\":570:588   */\n      add\n      swap1\n        /* \"#utility.yul\":451:628   */\n      jump\n        /* \"@openzeppelin/contracts/token/ERC20/ERC20.sol\":9989:10020   */\n    tag_534:\n      mload(0x40)\n      dup1\n      swap2\n      sub\n      swap1\n      log3\n        /* \"@openzeppelin/contracts/token/ERC20/ERC20.sol\":9605:10037   */\n      pop\n      pop\n      pop\n      pop\n      jump\t// out\n        /* \"@openzeppelin/contracts/token/ERC20/ERC20.sol\":7362:7570   */\n    tag_518:\n      sub(shl(0xa0, 0x01), 0x01)\n        /* \"@openzeppelin/contracts/token/ERC20/ERC20.sol\":7432:7453   */\n      dup3\n      and\n        /* \"@openzeppelin/contracts/token/ERC20/ERC20.sol\":7428:7519   */\n      tag_536\n      jumpi\n        /* \"@openzeppelin/contracts/token/ERC20/ERC20.sol\":7476:7508   */\n      mload(0x40)\n      shl(0xe0, 0xec442f05)\n      dup2\n      mstore\n        /* \"@openzeppelin/contracts/token/ERC20/ERC20.sol\":7505:7506   */\n      0x00\n        /* \"@openzeppelin/contracts/token/ERC20/ERC20.sol\":7476:7508   */\n      0x04\n      dup3\n      add\n        /* \"#utility.yul\":3161:3212   */\n      mstore\n        /* \"#utility.yul\":3134:3152   */\n      0x24\n      add\n        /* \"@openzeppelin/contracts/token/ERC20/ERC20.sol\":7476:7508   */\n      tag_222\n        /* \"#utility.yul\":3015:3218   */\n      jump\n        /* \"@openzeppelin/contracts/token/ERC20/ERC20.sol\":7428:7519   */\n    tag_536:\n        /* \"@openzeppelin/contracts/token/ERC20/ERC20.sol\":7528:7563   */\n      tag_491\n        /* \"@openzeppelin/contracts/token/ERC20/ERC20.sol\":7544:7545   */\n      0x00\n        /* \"@openzeppelin/contracts/token/ERC20/ERC20.sol\":7548:7555   */\n      dup4\n        /* \"@openzeppelin/contracts/token/ERC20/ERC20.sol\":7557:7562   */\n      dup4\n        /* \"@openzeppelin/contracts/token/ERC20/ERC20.sol\":7528:7535   */\n      tag_492\n        /* \"@openzeppelin/contracts/token/ERC20/ERC20.sol\":7528:7563   */\n      jump\t// in\n        /* \"#utility.yul\":14:187   */\n    tag_539:\n        /* \"#utility.yul\":82:102   */\n      dup1\n      calldataload\n      sub(shl(0xa0, 0x01), 0x01)\n        /* \"#utility.yul\":131:162   */\n      dup2\n      and\n        /* \"#utility.yul\":121:163   */\n      dup2\n      eq\n        /* \"#utility.yul\":111:181   */\n      tag_546\n      jumpi\n        /* \"#utility.yul\":177:178   */\n      0x00\n        /* \"#utility.yul\":174:175   */\n      dup1\n        /* \"#utility.yul\":167:179   */\n      revert\n        /* \"#utility.yul\":111:181   */\n    tag_546:\n        /* \"#utility.yul\":14:187   */\n      swap2\n      swap1\n      pop\n      jump\t// out\n        /* \"#utility.yul\":192:446   */\n    tag_49:\n        /* \"#utility.yul\":260:266   */\n      0x00\n        /* \"#utility.yul\":268:274   */\n      dup1\n        /* \"#utility.yul\":321:323   */\n      0x40\n        /* \"#utility.yul\":309:318   */\n      dup4\n        /* \"#utility.yul\":300:307   */\n      dup6\n        /* \"#utility.yul\":296:319   */\n      sub\n        /* \"#utility.yul\":292:324   */\n      slt\n        /* \"#utility.yul\":289:341   */\n      iszero\n      tag_548\n      jumpi\n        /* \"#utility.yul\":337:338   */\n      0x00\n        /* \"#utility.yul\":334:335   */\n      dup1\n        /* \"#utility.yul\":327:339   */\n      revert\n        /* \"#utility.yul\":289:341   */\n    tag_548:\n        /* \"#utility.yul\":360:389   */\n      tag_549\n        /* \"#utility.yul\":379:388   */\n      dup4\n        /* \"#utility.yul\":360:389   */\n      tag_539\n      jump\t// in\n    tag_549:\n        /* \"#utility.yul\":350:389   */\n      swap5\n        /* \"#utility.yul\":436:438   */\n      0x20\n        /* \"#utility.yul\":421:439   */\n      swap4\n      swap1\n      swap4\n      add\n        /* \"#utility.yul\":408:440   */\n      calldataload\n      swap4\n      pop\n      pop\n      pop\n        /* \"#utility.yul\":192:446   */\n      jump\t// out\n        /* \"#utility.yul\":633:883   */\n    tag_540:\n        /* \"#utility.yul\":718:719   */\n      0x00\n        /* \"#utility.yul\":728:841   */\n    tag_552:\n        /* \"#utility.yul\":742:748   */\n      dup4\n        /* \"#utility.yul\":739:740   */\n      dup2\n        /* \"#utility.yul\":736:749   */\n      lt\n        /* \"#utility.yul\":728:841   */\n      iszero\n      tag_554\n      jumpi\n        /* \"#utility.yul\":818:829   */\n      dup2\n      dup2\n      add\n        /* \"#utility.yul\":812:830   */\n      mload\n        /* \"#utility.yul\":799:810   */\n      dup4\n      dup3\n      add\n        /* \"#utility.yul\":792:831   */\n      mstore\n        /* \"#utility.yul\":764:766   */\n      0x20\n        /* \"#utility.yul\":757:767   */\n      add\n        /* \"#utility.yul\":728:841   */\n      jump(tag_552)\n    tag_554:\n      pop\n      pop\n        /* \"#utility.yul\":875:876   */\n      0x00\n        /* \"#utility.yul\":857:873   */\n      swap2\n      add\n        /* \"#utility.yul\":850:877   */\n      mstore\n        /* \"#utility.yul\":633:883   */\n      jump\t// out\n        /* \"#utility.yul\":888:1284   */\n    tag_61:\n        /* \"#utility.yul\":1037:1039   */\n      0x20\n        /* \"#utility.yul\":1026:1035   */\n      dup2\n        /* \"#utility.yul\":1019:1040   */\n      mstore\n        /* \"#utility.yul\":1000:1004   */\n      0x00\n        /* \"#utility.yul\":1069:1075   */\n      dup3\n        /* \"#utility.yul\":1063:1076   */\n      mload\n        /* \"#utility.yul\":1112:1118   */\n      dup1\n        /* \"#utility.yul\":1107:1109   */\n      0x20\n        /* \"#utility.yul\":1096:1105   */\n      dup5\n        /* \"#utility.yul\":1092:1110   */\n      add\n        /* \"#utility.yul\":1085:1119   */\n      mstore\n        /* \"#utility.yul\":1128:1207   */\n      tag_556\n        /* \"#utility.yul\":1200:1206   */\n      dup2\n        /* \"#utility.yul\":1195:1197   */\n      0x40\n        /* \"#utility.yul\":1184:1193   */\n      dup6\n        /* \"#utility.yul\":1180:1198   */\n      add\n        /* \"#utility.yul\":1175:1177   */\n      0x20\n        /* \"#utility.yul\":1167:1173   */\n      dup8\n        /* \"#utility.yul\":1163:1178   */\n      add\n        /* \"#utility.yul\":1128:1207   */\n      tag_540\n      jump\t// in\n    tag_556:\n        /* \"#utility.yul\":1268:1270   */\n      0x1f\n        /* \"#utility.yul\":1247:1262   */\n      add\n      not(0x1f)\n        /* \"#utility.yul\":1243:1272   */\n      and\n        /* \"#utility.yul\":1228:1273   */\n      swap2\n      swap1\n      swap2\n      add\n        /* \"#utility.yul\":1275:1277   */\n      0x40\n        /* \"#utility.yul\":1224:1278   */\n      add\n      swap3\n        /* \"#utility.yul\":888:1284   */\n      swap2\n      pop\n      pop\n      jump\t// out\n        /* \"#utility.yul\":1481:1809   */\n    tag_75:\n        /* \"#utility.yul\":1558:1564   */\n      0x00\n        /* \"#utility.yul\":1566:1572   */\n      dup1\n        /* \"#utility.yul\":1574:1580   */\n      0x00\n        /* \"#utility.yul\":1627:1629   */\n      0x60\n        /* \"#utility.yul\":1615:1624   */\n      dup5\n        /* \"#utility.yul\":1606:1613   */\n      dup7\n        /* \"#utility.yul\":1602:1625   */\n      sub\n        /* \"#utility.yul\":1598:1630   */\n      slt\n        /* \"#utility.yul\":1595:1647   */\n      iszero\n      tag_559\n      jumpi\n        /* \"#utility.yul\":1643:1644   */\n      0x00\n        /* \"#utility.yul\":1640:1641   */\n      dup1\n        /* \"#utility.yul\":1633:1645   */\n      revert\n        /* \"#utility.yul\":1595:1647   */\n    tag_559:\n        /* \"#utility.yul\":1666:1695   */\n      tag_560\n        /* \"#utility.yul\":1685:1694   */\n      dup5\n        /* \"#utility.yul\":1666:1695   */\n      tag_539\n      jump\t// in\n    tag_560:\n        /* \"#utility.yul\":1656:1695   */\n      swap3\n      pop\n        /* \"#utility.yul\":1714:1752   */\n      tag_561\n        /* \"#utility.yul\":1748:1750   */\n      0x20\n        /* \"#utility.yul\":1737:1746   */\n      dup6\n        /* \"#utility.yul\":1733:1751   */\n      add\n        /* \"#utility.yul\":1714:1752   */\n      tag_539\n      jump\t// in\n    tag_561:\n        /* \"#utility.yul\":1704:1752   */\n      swap2\n      pop\n        /* \"#utility.yul\":1799:1801   */\n      0x40\n        /* \"#utility.yul\":1788:1797   */\n      dup5\n        /* \"#utility.yul\":1784:1802   */\n      add\n        /* \"#utility.yul\":1771:1803   */\n      calldataload\n        /* \"#utility.yul\":1761:1803   */\n      swap1\n      pop\n        /* \"#utility.yul\":1481:1809   */\n      swap3\n      pop\n      swap3\n      pop\n      swap3\n      jump\t// out\n        /* \"#utility.yul\":2003:2183   */\n    tag_93:\n        /* \"#utility.yul\":2062:2068   */\n      0x00\n        /* \"#utility.yul\":2115:2117   */\n      0x20\n        /* \"#utility.yul\":2103:2112   */\n      dup3\n        /* \"#utility.yul\":2094:2101   */\n      dup5\n        /* \"#utility.yul\":2090:2113   */\n      sub\n        /* \"#utility.yul\":2086:2118   */\n      slt\n        /* \"#utility.yul\":2083:2135   */\n      iszero\n      tag_564\n      jumpi\n        /* \"#utility.yul\":2131:2132   */\n      0x00\n        /* \"#utility.yul\":2128:2129   */\n      dup1\n        /* \"#utility.yul\":2121:2133   */\n      revert\n        /* \"#utility.yul\":2083:2135   */\n    tag_564:\n      pop\n        /* \"#utility.yul\":2154:2177   */\n      calldataload\n      swap2\n        /* \"#utility.yul\":2003:2183   */\n      swap1\n      pop\n      jump\t// out\n        /* \"#utility.yul\":2188:2540   */\n    tag_98:\n        /* \"#utility.yul\":2255:2261   */\n      0x00\n        /* \"#utility.yul\":2263:2269   */\n      dup1\n        /* \"#utility.yul\":2316:2318   */\n      0x40\n        /* \"#utility.yul\":2304:2313   */\n      dup4\n        /* \"#utility.yul\":2295:2302   */\n      dup6\n        /* \"#utility.yul\":2291:2314   */\n      sub\n        /* \"#utility.yul\":2287:2319   */\n      slt\n        /* \"#utility.yul\":2284:2336   */\n      iszero\n      tag_566\n      jumpi\n        /* \"#utility.yul\":2332:2333   */\n      0x00\n        /* \"#utility.yul\":2329:2330   */\n      dup1\n        /* \"#utility.yul\":2322:2334   */\n      revert\n        /* \"#utility.yul\":2284:2336   */\n    tag_566:\n        /* \"#utility.yul\":2368:2377   */\n      dup3\n        /* \"#utility.yul\":2355:2378   */\n      calldataload\n        /* \"#utility.yul\":2345:2378   */\n      swap2\n      pop\n        /* \"#utility.yul\":2428:2430   */\n      0x20\n        /* \"#utility.yul\":2417:2426   */\n      dup4\n        /* \"#utility.yul\":2413:2431   */\n      add\n        /* \"#utility.yul\":2400:2432   */\n      calldataload\n      sub(shl(0x40, 0x01), 0x01)\n        /* \"#utility.yul\":2465:2470   */\n      dup2\n        /* \"#utility.yul\":2461:2491   */\n      and\n        /* \"#utility.yul\":2454:2459   */\n      dup2\n        /* \"#utility.yul\":2451:2492   */\n      eq\n        /* \"#utility.yul\":2441:2510   */\n      tag_567\n      jumpi\n        /* \"#utility.yul\":2506:2507   */\n      0x00\n        /* \"#utility.yul\":2503:2504   */\n      dup1\n        /* \"#utility.yul\":2496:2508   */\n      revert\n        /* \"#utility.yul\":2441:2510   */\n    tag_567:\n        /* \"#utility.yul\":2529:2534   */\n      dup1\n        /* \"#utility.yul\":2519:2534   */\n      swap2\n      pop\n      pop\n        /* \"#utility.yul\":2188:2540   */\n      swap3\n      pop\n      swap3\n      swap1\n      pop\n      jump\t// out\n        /* \"#utility.yul\":2545:2731   */\n    tag_113:\n        /* \"#utility.yul\":2604:2610   */\n      0x00\n        /* \"#utility.yul\":2657:2659   */\n      0x20\n        /* \"#utility.yul\":2645:2654   */\n      dup3\n        /* \"#utility.yul\":2636:2643   */\n      dup5\n        /* \"#utility.yul\":2632:2655   */\n      sub\n        /* \"#utility.yul\":2628:2660   */\n      slt\n        /* \"#utility.yul\":2625:2677   */\n      iszero\n      tag_569\n      jumpi\n        /* \"#utility.yul\":2673:2674   */\n      0x00\n        /* \"#utility.yul\":2670:2671   */\n      dup1\n        /* \"#utility.yul\":2663:2675   */\n      revert\n        /* \"#utility.yul\":2625:2677   */\n    tag_569:\n        /* \"#utility.yul\":2696:2725   */\n      tag_369\n        /* \"#utility.yul\":2715:2724   */\n      dup3\n        /* \"#utility.yul\":2696:2725   */\n      tag_539\n      jump\t// in\n        /* \"#utility.yul\":2736:3010   */\n    tag_122:\n        /* \"#utility.yul\":2813:2819   */\n      0x00\n        /* \"#utility.yul\":2866:2868   */\n      0x20\n        /* \"#utility.yul\":2854:2863   */\n      dup3\n        /* \"#utility.yul\":2845:2852   */\n      dup5\n        /* \"#utility.yul\":2841:2864   */\n      sub\n        /* \"#utility.yul\":2837:2869   */\n      slt\n        /* \"#utility.yul\":2834:2886   */\n      iszero\n      tag_572\n      jumpi\n        /* \"#utility.yul\":2882:2883   */\n      0x00\n        /* \"#utility.yul\":2879:2880   */\n      dup1\n        /* \"#utility.yul\":2872:2884   */\n      revert\n        /* \"#utility.yul\":2834:2886   */\n    tag_572:\n        /* \"#utility.yul\":2921:2930   */\n      dup2\n        /* \"#utility.yul\":2908:2931   */\n      calldataload\n        /* \"#utility.yul\":2960:2961   */\n      0x05\n        /* \"#utility.yul\":2953:2958   */\n      dup2\n        /* \"#utility.yul\":2950:2962   */\n      lt\n        /* \"#utility.yul\":2940:2980   */\n      tag_369\n      jumpi\n        /* \"#utility.yul\":2976:2977   */\n      0x00\n        /* \"#utility.yul\":2973:2974   */\n      dup1\n        /* \"#utility.yul\":2966:2978   */\n      revert\n        /* \"#utility.yul\":3223:4026   */\n    tag_143:\n        /* \"#utility.yul\":3321:3327   */\n      0x00\n        /* \"#utility.yul\":3329:3335   */\n      dup1\n        /* \"#utility.yul\":3337:3343   */\n      0x00\n        /* \"#utility.yul\":3345:3351   */\n      dup1\n        /* \"#utility.yul\":3353:3359   */\n      0x00\n        /* \"#utility.yul\":3406:3409   */\n      0x80\n        /* \"#utility.yul\":3394:3403   */\n      dup7\n        /* \"#utility.yul\":3385:3392   */\n      dup9\n        /* \"#utility.yul\":3381:3404   */\n      sub\n        /* \"#utility.yul\":3377:3410   */\n      slt\n        /* \"#utility.yul\":3374:3427   */\n      iszero\n      tag_576\n      jumpi\n        /* \"#utility.yul\":3423:3424   */\n      0x00\n        /* \"#utility.yul\":3420:3421   */\n      dup1\n        /* \"#utility.yul\":3413:3425   */\n      revert\n        /* \"#utility.yul\":3374:3427   */\n    tag_576:\n        /* \"#utility.yul\":3446:3475   */\n      tag_577\n        /* \"#utility.yul\":3465:3474   */\n      dup7\n        /* \"#utility.yul\":3446:3475   */\n      tag_539\n      jump\t// in\n    tag_577:\n        /* \"#utility.yul\":3436:3475   */\n      swap5\n      pop\n        /* \"#utility.yul\":3522:3524   */\n      0x20\n        /* \"#utility.yul\":3511:3520   */\n      dup7\n        /* \"#utility.yul\":3507:3525   */\n      add\n        /* \"#utility.yul\":3494:3526   */\n      calldataload\n        /* \"#utility.yul\":3484:3526   */\n      swap4\n      pop\n        /* \"#utility.yul\":3573:3575   */\n      0x40\n        /* \"#utility.yul\":3562:3571   */\n      dup7\n        /* \"#utility.yul\":3558:3576   */\n      add\n        /* \"#utility.yul\":3545:3577   */\n      calldataload\n        /* \"#utility.yul\":3535:3577   */\n      swap3\n      pop\n        /* \"#utility.yul\":3628:3630   */\n      0x60\n        /* \"#utility.yul\":3617:3626   */\n      dup7\n        /* \"#utility.yul\":3613:3631   */\n      add\n        /* \"#utility.yul\":3600:3632   */\n      calldataload\n      sub(shl(0x40, 0x01), 0x01)\n        /* \"#utility.yul\":3692:3694   */\n      dup1\n        /* \"#utility.yul\":3684:3690   */\n      dup3\n        /* \"#utility.yul\":3681:3695   */\n      gt\n        /* \"#utility.yul\":3678:3712   */\n      iszero\n      tag_578\n      jumpi\n        /* \"#utility.yul\":3708:3709   */\n      0x00\n        /* \"#utility.yul\":3705:3706   */\n      dup1\n        /* \"#utility.yul\":3698:3710   */\n      revert\n        /* \"#utility.yul\":3678:3712   */\n    tag_578:\n        /* \"#utility.yul\":3746:3752   */\n      dup2\n        /* \"#utility.yul\":3735:3744   */\n      dup9\n        /* \"#utility.yul\":3731:3753   */\n      add\n        /* \"#utility.yul\":3721:3753   */\n      swap2\n      pop\n        /* \"#utility.yul\":3791:3798   */\n      dup9\n        /* \"#utility.yul\":3784:3788   */\n      0x1f\n        /* \"#utility.yul\":3780:3782   */\n      dup4\n        /* \"#utility.yul\":3776:3789   */\n      add\n        /* \"#utility.yul\":3772:3799   */\n      slt\n        /* \"#utility.yul\":3762:3817   */\n      tag_579\n      jumpi\n        /* \"#utility.yul\":3813:3814   */\n      0x00\n        /* \"#utility.yul\":3810:3811   */\n      dup1\n        /* \"#utility.yul\":3803:3815   */\n      revert\n        /* \"#utility.yul\":3762:3817   */\n    tag_579:\n        /* \"#utility.yul\":3853:3855   */\n      dup2\n        /* \"#utility.yul\":3840:3856   */\n      calldataload\n        /* \"#utility.yul\":3879:3881   */\n      dup2\n        /* \"#utility.yul\":3871:3877   */\n      dup2\n        /* \"#utility.yul\":3868:3882   */\n      gt\n        /* \"#utility.yul\":3865:3899   */\n      iszero\n      tag_580\n      jumpi\n        /* \"#utility.yul\":3895:3896   */\n      0x00\n        /* \"#utility.yul\":3892:3893   */\n      dup1\n        /* \"#utility.yul\":3885:3897   */\n      revert\n        /* \"#utility.yul\":3865:3899   */\n    tag_580:\n        /* \"#utility.yul\":3940:3947   */\n      dup10\n        /* \"#utility.yul\":3935:3937   */\n      0x20\n        /* \"#utility.yul\":3926:3932   */\n      dup3\n        /* \"#utility.yul\":3922:3924   */\n      dup6\n        /* \"#utility.yul\":3918:3933   */\n      add\n        /* \"#utility.yul\":3914:3938   */\n      add\n        /* \"#utility.yul\":3911:3948   */\n      gt\n        /* \"#utility.yul\":3908:3965   */\n      iszero\n      tag_581\n      jumpi\n        /* \"#utility.yul\":3961:3962   */\n      0x00\n        /* \"#utility.yul\":3958:3959   */\n      dup1\n        /* \"#utility.yul\":3951:3963   */\n      revert\n        /* \"#utility.yul\":3908:3965   */\n    tag_581:\n        /* \"#utility.yul\":3223:4026   */\n      swap7\n      swap10\n      swap6\n      swap9\n      pop\n      swap4\n      swap7\n      pop\n        /* \"#utility.yul\":3992:3994   */\n      0x20\n        /* \"#utility.yul\":3984:3995   */\n      add\n      swap5\n        /* \"#utility.yul\":4014:4020   */\n      swap4\n        /* \"#utility.yul\":3223:4026   */\n      swap3\n      pop\n      pop\n      pop\n      jump\t// out\n        /* \"#utility.yul\":4859:5036   */\n    tag_541:\n        /* \"#utility.yul\":4926:4946   */\n      dup1\n      calldataload\n      sub(shl(0x58, 0x01), 0x01)\n        /* \"#utility.yul\":4975:5011   */\n      dup2\n      and\n        /* \"#utility.yul\":4965:5012   */\n      dup2\n      eq\n        /* \"#utility.yul\":4955:5030   */\n      tag_546\n      jumpi\n        /* \"#utility.yul\":5026:5027   */\n      0x00\n        /* \"#utility.yul\":5023:5024   */\n      dup1\n        /* \"#utility.yul\":5016:5028   */\n      revert\n        /* \"#utility.yul\":5041:5197   */\n    tag_542:\n        /* \"#utility.yul\":5107:5127   */\n      dup1\n      calldataload\n        /* \"#utility.yul\":5167:5171   */\n      0xff\n        /* \"#utility.yul\":5156:5172   */\n      dup2\n      and\n        /* \"#utility.yul\":5146:5173   */\n      dup2\n      eq\n        /* \"#utility.yul\":5136:5191   */\n      tag_546\n      jumpi\n        /* \"#utility.yul\":5187:5188   */\n      0x00\n        /* \"#utility.yul\":5184:5185   */\n      dup1\n        /* \"#utility.yul\":5177:5189   */\n      revert\n        /* \"#utility.yul\":5202:5743   */\n    tag_179:\n        /* \"#utility.yul\":5300:5306   */\n      0x00\n        /* \"#utility.yul\":5308:5314   */\n      dup1\n        /* \"#utility.yul\":5316:5322   */\n      0x00\n        /* \"#utility.yul\":5324:5330   */\n      dup1\n        /* \"#utility.yul\":5332:5338   */\n      0x00\n        /* \"#utility.yul\":5340:5346   */\n      dup1\n        /* \"#utility.yul\":5393:5396   */\n      0xc0\n        /* \"#utility.yul\":5381:5390   */\n      dup8\n        /* \"#utility.yul\":5372:5379   */\n      dup10\n        /* \"#utility.yul\":5368:5391   */\n      sub\n        /* \"#utility.yul\":5364:5397   */\n      slt\n        /* \"#utility.yul\":5361:5414   */\n      iszero\n      tag_589\n      jumpi\n        /* \"#utility.yul\":5410:5411   */\n      0x00\n        /* \"#utility.yul\":5407:5408   */\n      dup1\n        /* \"#utility.yul\":5400:5412   */\n      revert\n        /* \"#utility.yul\":5361:5414   */\n    tag_589:\n        /* \"#utility.yul\":5433:5462   */\n      tag_590\n        /* \"#utility.yul\":5452:5461   */\n      dup8\n        /* \"#utility.yul\":5433:5462   */\n      tag_539\n      jump\t// in\n    tag_590:\n        /* \"#utility.yul\":5423:5462   */\n      swap6\n      pop\n        /* \"#utility.yul\":5481:5518   */\n      tag_591\n        /* \"#utility.yul\":5514:5516   */\n      0x20\n        /* \"#utility.yul\":5503:5512   */\n      dup9\n        /* \"#utility.yul\":5499:5517   */\n      add\n        /* \"#utility.yul\":5481:5518   */\n      tag_541\n      jump\t// in\n    tag_591:\n        /* \"#utility.yul\":5471:5518   */\n      swap5\n      pop\n        /* \"#utility.yul\":5537:5574   */\n      tag_592\n        /* \"#utility.yul\":5570:5572   */\n      0x40\n        /* \"#utility.yul\":5559:5568   */\n      dup9\n        /* \"#utility.yul\":5555:5573   */\n      add\n        /* \"#utility.yul\":5537:5574   */\n      tag_541\n      jump\t// in\n    tag_592:\n        /* \"#utility.yul\":5527:5574   */\n      swap4\n      pop\n        /* \"#utility.yul\":5621:5623   */\n      0x60\n        /* \"#utility.yul\":5610:5619   */\n      dup8\n        /* \"#utility.yul\":5606:5624   */\n      add\n        /* \"#utility.yul\":5593:5625   */\n      calldataload\n        /* \"#utility.yul\":5583:5625   */\n      swap3\n      pop\n        /* \"#utility.yul\":5644:5681   */\n      tag_593\n        /* \"#utility.yul\":5676:5679   */\n      0x80\n        /* \"#utility.yul\":5665:5674   */\n      dup9\n        /* \"#utility.yul\":5661:5680   */\n      add\n        /* \"#utility.yul\":5644:5681   */\n      tag_542\n      jump\t// in\n    tag_593:\n        /* \"#utility.yul\":5634:5681   */\n      swap2\n      pop\n        /* \"#utility.yul\":5700:5737   */\n      tag_594\n        /* \"#utility.yul\":5732:5735   */\n      0xa0\n        /* \"#utility.yul\":5721:5730   */\n      dup9\n        /* \"#utility.yul\":5717:5736   */\n      add\n        /* \"#utility.yul\":5700:5737   */\n      tag_542\n      jump\t// in\n    tag_594:\n        /* \"#utility.yul\":5690:5737   */\n      swap1\n      pop\n        /* \"#utility.yul\":5202:5743   */\n      swap3\n      swap6\n      pop\n      swap3\n      swap6\n      pop\n      swap3\n      swap6\n      jump\t// out\n        /* \"#utility.yul\":5748:6008   */\n    tag_190:\n        /* \"#utility.yul\":5816:5822   */\n      0x00\n        /* \"#utility.yul\":5824:5830   */\n      dup1\n        /* \"#utility.yul\":5877:5879   */\n      0x40\n        /* \"#utility.yul\":5865:5874   */\n      dup4\n        /* \"#utility.yul\":5856:5863   */\n      dup6\n        /* \"#utility.yul\":5852:5875   */\n      sub\n        /* \"#utility.yul\":5848:5880   */\n      slt\n        /* \"#utility.yul\":5845:5897   */\n      iszero\n      tag_596\n      jumpi\n        /* \"#utility.yul\":5893:5894   */\n      0x00\n        /* \"#utility.yul\":5890:5891   */\n      dup1\n        /* \"#utility.yul\":5883:5895   */\n      revert\n        /* \"#utility.yul\":5845:5897   */\n    tag_596:\n        /* \"#utility.yul\":5916:5945   */\n      tag_597\n        /* \"#utility.yul\":5935:5944   */\n      dup4\n        /* \"#utility.yul\":5916:5945   */\n      tag_539\n      jump\t// in\n    tag_597:\n        /* \"#utility.yul\":5906:5945   */\n      swap2\n      pop\n        /* \"#utility.yul\":5964:6002   */\n      tag_598\n        /* \"#utility.yul\":5998:6000   */\n      0x20\n        /* \"#utility.yul\":5987:5996   */\n      dup5\n        /* \"#utility.yul\":5983:6001   */\n      add\n        /* \"#utility.yul\":5964:6002   */\n      tag_539\n      jump\t// in\n    tag_598:\n        /* \"#utility.yul\":5954:6002   */\n      swap1\n      pop\n        /* \"#utility.yul\":5748:6008   */\n      swap3\n      pop\n      swap3\n      swap1\n      pop\n      jump\t// out\n        /* \"#utility.yul\":6647:6774   */\n    tag_216:\n        /* \"#utility.yul\":6708:6718   */\n      0x4e487b71\n        /* \"#utility.yul\":6703:6706   */\n      0xe0\n        /* \"#utility.yul\":6699:6719   */\n      shl\n        /* \"#utility.yul\":6696:6697   */\n      0x00\n        /* \"#utility.yul\":6689:6720   */\n      mstore\n        /* \"#utility.yul\":6739:6743   */\n      0x21\n        /* \"#utility.yul\":6736:6737   */\n      0x04\n        /* \"#utility.yul\":6729:6744   */\n      mstore\n        /* \"#utility.yul\":6763:6767   */\n      0x24\n        /* \"#utility.yul\":6760:6761   */\n      0x00\n        /* \"#utility.yul\":6753:6768   */\n      revert\n        /* \"#utility.yul\":6779:7134   */\n    tag_223:\n        /* \"#utility.yul\":6981:6983   */\n      0x20\n        /* \"#utility.yul\":6963:6984   */\n      dup1\n      dup3\n      mstore\n        /* \"#utility.yul\":7020:7022   */\n      0x1f\n        /* \"#utility.yul\":7000:7018   */\n      swap1\n      dup3\n      add\n        /* \"#utility.yul\":6993:7023   */\n      mstore\n        /* \"#utility.yul\":7059:7092   */\n      0x5265656e7472616e637947756172643a207265656e7472616e742063616c6c00\n        /* \"#utility.yul\":7054:7056   */\n      0x40\n        /* \"#utility.yul\":7039:7057   */\n      dup3\n      add\n        /* \"#utility.yul\":7032:7093   */\n      mstore\n        /* \"#utility.yul\":7125:7127   */\n      0x60\n        /* \"#utility.yul\":7110:7128   */\n      add\n      swap1\n        /* \"#utility.yul\":6779:7134   */\n      jump\t// out\n        /* \"#utility.yul\":7139:7266   */\n    tag_237:\n        /* \"#utility.yul\":7200:7210   */\n      0x4e487b71\n        /* \"#utility.yul\":7195:7198   */\n      0xe0\n        /* \"#utility.yul\":7191:7211   */\n      shl\n        /* \"#utility.yul\":7188:7189   */\n      0x00\n        /* \"#utility.yul\":7181:7212   */\n      mstore\n        /* \"#utility.yul\":7231:7235   */\n      0x12\n        /* \"#utility.yul\":7228:7229   */\n      0x04\n        /* \"#utility.yul\":7221:7236   */\n      mstore\n        /* \"#utility.yul\":7255:7259   */\n      0x24\n        /* \"#utility.yul\":7252:7253   */\n      0x00\n        /* \"#utility.yul\":7245:7260   */\n      revert\n        /* \"#utility.yul\":7271:7398   */\n    tag_543:\n        /* \"#utility.yul\":7332:7342   */\n      0x4e487b71\n        /* \"#utility.yul\":7327:7330   */\n      0xe0\n        /* \"#utility.yul\":7323:7343   */\n      shl\n        /* \"#utility.yul\":7320:7321   */\n      0x00\n        /* \"#utility.yul\":7313:7344   */\n      mstore\n        /* \"#utility.yul\":7363:7367   */\n      0x11\n        /* \"#utility.yul\":7360:7361   */\n      0x04\n        /* \"#utility.yul\":7353:7368   */\n      mstore\n        /* \"#utility.yul\":7387:7391   */\n      0x24\n        /* \"#utility.yul\":7384:7385   */\n      0x00\n        /* \"#utility.yul\":7377:7392   */\n      revert\n        /* \"#utility.yul\":7403:7620   */\n    tag_233:\n        /* \"#utility.yul\":7443:7444   */\n      0x00\n        /* \"#utility.yul\":7469:7470   */\n      dup3\n        /* \"#utility.yul\":7459:7591   */\n      tag_605\n      jumpi\n        /* \"#utility.yul\":7513:7523   */\n      0x4e487b71\n        /* \"#utility.yul\":7508:7511   */\n      0xe0\n        /* \"#utility.yul\":7504:7524   */\n      shl\n        /* \"#utility.yul\":7501:7502   */\n      0x00\n        /* \"#utility.yul\":7494:7525   */\n      mstore\n        /* \"#utility.yul\":7548:7552   */\n      0x12\n        /* \"#utility.yul\":7545:7546   */\n      0x04\n        /* \"#utility.yul\":7538:7553   */\n      mstore\n        /* \"#utility.yul\":7576:7580   */\n      0x24\n        /* \"#utility.yul\":7573:7574   */\n      0x00\n        /* \"#utility.yul\":7566:7581   */\n      revert\n        /* \"#utility.yul\":7459:7591   */\n    tag_605:\n      pop\n        /* \"#utility.yul\":7605:7614   */\n      div\n      swap1\n        /* \"#utility.yul\":7403:7620   */\n      jump\t// out\n        /* \"#utility.yul\":8157:8444   */\n    tag_247:\n        /* \"#utility.yul\":8286:8289   */\n      0x00\n        /* \"#utility.yul\":8324:8330   */\n      dup3\n        /* \"#utility.yul\":8318:8331   */\n      mload\n        /* \"#utility.yul\":8340:8406   */\n      tag_609\n        /* \"#utility.yul\":8399:8405   */\n      dup2\n        /* \"#utility.yul\":8394:8397   */\n      dup5\n        /* \"#utility.yul\":8387:8391   */\n      0x20\n        /* \"#utility.yul\":8379:8385   */\n      dup8\n        /* \"#utility.yul\":8375:8392   */\n      add\n        /* \"#utility.yul\":8340:8406   */\n      tag_540\n      jump\t// in\n    tag_609:\n        /* \"#utility.yul\":8422:8438   */\n      swap2\n      swap1\n      swap2\n      add\n      swap3\n        /* \"#utility.yul\":8157:8444   */\n      swap2\n      pop\n      pop\n      jump\t// out\n        /* \"#utility.yul\":8711:8988   */\n    tag_258:\n        /* \"#utility.yul\":8778:8784   */\n      0x00\n        /* \"#utility.yul\":8831:8833   */\n      0x20\n        /* \"#utility.yul\":8819:8828   */\n      dup3\n        /* \"#utility.yul\":8810:8817   */\n      dup5\n        /* \"#utility.yul\":8806:8829   */\n      sub\n        /* \"#utility.yul\":8802:8834   */\n      slt\n        /* \"#utility.yul\":8799:8851   */\n      iszero\n      tag_612\n      jumpi\n        /* \"#utility.yul\":8847:8848   */\n      0x00\n        /* \"#utility.yul\":8844:8845   */\n      dup1\n        /* \"#utility.yul\":8837:8849   */\n      revert\n        /* \"#utility.yul\":8799:8851   */\n    tag_612:\n        /* \"#utility.yul\":8879:8888   */\n      dup2\n        /* \"#utility.yul\":8873:8889   */\n      mload\n        /* \"#utility.yul\":8932:8937   */\n      dup1\n        /* \"#utility.yul\":8925:8938   */\n      iszero\n        /* \"#utility.yul\":8918:8939   */\n      iszero\n        /* \"#utility.yul\":8911:8916   */\n      dup2\n        /* \"#utility.yul\":8908:8940   */\n      eq\n        /* \"#utility.yul\":8898:8958   */\n      tag_369\n      jumpi\n        /* \"#utility.yul\":8954:8955   */\n      0x00\n        /* \"#utility.yul\":8951:8952   */\n      dup1\n        /* \"#utility.yul\":8944:8956   */\n      revert\n        /* \"#utility.yul\":8993:9373   */\n    tag_264:\n        /* \"#utility.yul\":9072:9073   */\n      0x01\n        /* \"#utility.yul\":9068:9080   */\n      dup2\n      dup2\n      shr\n      swap1\n        /* \"#utility.yul\":9115:9127   */\n      dup3\n      and\n      dup1\n        /* \"#utility.yul\":9136:9197   */\n      tag_615\n      jumpi\n        /* \"#utility.yul\":9190:9194   */\n      0x7f\n        /* \"#utility.yul\":9182:9188   */\n      dup3\n        /* \"#utility.yul\":9178:9195   */\n      and\n        /* \"#utility.yul\":9168:9195   */\n      swap2\n      pop\n        /* \"#utility.yul\":9136:9197   */\n    tag_615:\n        /* \"#utility.yul\":9243:9245   */\n      0x20\n        /* \"#utility.yul\":9235:9241   */\n      dup3\n        /* \"#utility.yul\":9232:9246   */\n      lt\n        /* \"#utility.yul\":9212:9230   */\n      dup2\n        /* \"#utility.yul\":9209:9247   */\n      sub\n        /* \"#utility.yul\":9206:9367   */\n      tag_616\n      jumpi\n        /* \"#utility.yul\":9289:9299   */\n      0x4e487b71\n        /* \"#utility.yul\":9284:9287   */\n      0xe0\n        /* \"#utility.yul\":9280:9300   */\n      shl\n        /* \"#utility.yul\":9277:9278   */\n      0x00\n        /* \"#utility.yul\":9270:9301   */\n      mstore\n        /* \"#utility.yul\":9324:9328   */\n      0x22\n        /* \"#utility.yul\":9321:9322   */\n      0x04\n        /* \"#utility.yul\":9314:9329   */\n      mstore\n        /* \"#utility.yul\":9352:9356   */\n      0x24\n        /* \"#utility.yul\":9349:9350   */\n      0x00\n        /* \"#utility.yul\":9342:9357   */\n      revert\n        /* \"#utility.yul\":9206:9367   */\n    tag_616:\n      pop\n        /* \"#utility.yul\":8993:9373   */\n      swap2\n      swap1\n      pop\n      jump\t// out\n        /* \"#utility.yul\":9655:9783   */\n    tag_347:\n        /* \"#utility.yul\":9722:9731   */\n      dup2\n      dup2\n      sub\n        /* \"#utility.yul\":9743:9754   */\n      dup2\n      dup2\n      gt\n        /* \"#utility.yul\":9740:9777   */\n      iszero\n      tag_269\n      jumpi\n        /* \"#utility.yul\":9757:9775   */\n      tag_269\n      tag_543\n      jump\t// in\n        /* \"#utility.yul\":10064:10232   */\n    tag_359:\n        /* \"#utility.yul\":10137:10146   */\n      dup1\n      dup3\n      mul\n        /* \"#utility.yul\":10168:10177   */\n      dup2\n      iszero\n        /* \"#utility.yul\":10185:10200   */\n      dup3\n      dup3\n      div\n        /* \"#utility.yul\":10179:10201   */\n      dup5\n      eq\n        /* \"#utility.yul\":10165:10202   */\n      or\n        /* \"#utility.yul\":10155:10226   */\n      tag_269\n      jumpi\n        /* \"#utility.yul\":10206:10224   */\n      tag_269\n      tag_543\n      jump\t// in\n        /* \"#utility.yul\":10237:10362   */\n    tag_365:\n        /* \"#utility.yul\":10302:10311   */\n      dup1\n      dup3\n      add\n        /* \"#utility.yul\":10323:10333   */\n      dup1\n      dup3\n      gt\n        /* \"#utility.yul\":10320:10356   */\n      iszero\n      tag_269\n      jumpi\n        /* \"#utility.yul\":10336:10354   */\n      tag_269\n      tag_543\n      jump\t// in\n        /* \"#utility.yul\":10367:10828   */\n    tag_399:\n        /* \"#utility.yul\":10554:10560   */\n      dup4\n        /* \"#utility.yul\":10543:10552   */\n      dup2\n        /* \"#utility.yul\":10536:10561   */\n      mstore\n        /* \"#utility.yul\":10597:10599   */\n      0x40\n        /* \"#utility.yul\":10592:10594   */\n      0x20\n        /* \"#utility.yul\":10581:10590   */\n      dup3\n        /* \"#utility.yul\":10577:10595   */\n      add\n        /* \"#utility.yul\":10570:10600   */\n      mstore\n        /* \"#utility.yul\":10636:10642   */\n      dup2\n        /* \"#utility.yul\":10631:10633   */\n      0x40\n        /* \"#utility.yul\":10620:10629   */\n      dup3\n        /* \"#utility.yul\":10616:10634   */\n      add\n        /* \"#utility.yul\":10609:10643   */\n      mstore\n        /* \"#utility.yul\":10693:10699   */\n      dup2\n        /* \"#utility.yul\":10685:10691   */\n      dup4\n        /* \"#utility.yul\":10680:10682   */\n      0x60\n        /* \"#utility.yul\":10669:10678   */\n      dup4\n        /* \"#utility.yul\":10665:10683   */\n      add\n        /* \"#utility.yul\":10652:10700   */\n      calldatacopy\n        /* \"#utility.yul\":10749:10750   */\n      0x00\n        /* \"#utility.yul\":10720:10742   */\n      dup2\n      dup4\n      add\n        /* \"#utility.yul\":10744:10746   */\n      0x60\n        /* \"#utility.yul\":10716:10747   */\n      swap1\n      dup2\n      add\n        /* \"#utility.yul\":10709:10751   */\n      swap2\n      swap1\n      swap2\n      mstore\n        /* \"#utility.yul\":10812:10814   */\n      0x1f\n        /* \"#utility.yul\":10791:10806   */\n      swap1\n      swap3\n      add\n      not(0x1f)\n        /* \"#utility.yul\":10787:10816   */\n      and\n        /* \"#utility.yul\":10772:10817   */\n      add\n        /* \"#utility.yul\":10768:10822   */\n      add\n      swap3\n        /* \"#utility.yul\":10367:10828   */\n      swap2\n      pop\n      pop\n      jump\t// out\n\n    auxdata: 0xa26469706673582212201aab3998a20968d8fd126d688c4cdceacbec1dff4fce729dc0cf247e126f859064736f6c63430008180033\n}\n",
    "bytecode": {
      "linkReferences": {},
      "object": "60a060405234801562000010575f80fd5b5060405162002abc38038062002abc83398101604081905262000033916200012d565b604051806040016040528060118152602001702330b4b9102932bbb0b932102a37b5b2b760791b81525060405180604001604052806002815260200161232960f11b815250816003908162000089919062000201565b50600462000098828262000201565b5050506001600160a01b038216620000c35760405163e6c4247b60e01b815260040160405180910390fd5b6001600160a01b038116620000eb5760405163e6c4247b60e01b815260040160405180910390fd5b600580546001600160a01b0319166001600160a01b0393841617905516608052620002cd565b80516001600160a01b038116811462000128575f80fd5b919050565b5f80604083850312156200013f575f80fd5b6200014a8362000111565b91506200015a6020840162000111565b90509250929050565b634e487b7160e01b5f52604160045260245ffd5b600181811c908216806200018c57607f821691505b602082108103620001ab57634e487b7160e01b5f52602260045260245ffd5b50919050565b601f821115620001fc57805f5260205f20601f840160051c81016020851015620001d85750805b601f840160051c820191505b81811015620001f9575f8155600101620001e4565b50505b505050565b81516001600160401b038111156200021d576200021d62000163565b62000235816200022e845462000177565b84620001b1565b602080601f8311600181146200026b575f8415620002535750858301515b5f19600386901b1c1916600185901b178555620002c5565b5f85815260208120601f198616915b828110156200029b578886015182559484019460019091019084016200027a565b5085821015620002b957878501515f19600388901b60f8161c191681555b505060018460011b0185555b505050505050565b6080516127c8620002f45f395f81816105fc01528181610ef201526117c901526127c85ff3fe6080604052600436106101f4575f3560e01c80638456cb5911610108578063c32d3ae21161009d578063dd62ed3e1161006d578063dd62ed3e1461066b578063e4f7b494146106af578063eba1e3d2146106dd578063ec7e6a57146106fc578063f2fde38b146107b2575f80fd5b8063c32d3ae21461050d578063cc7a262e146105eb578063d7db21591461061e578063dc467f8e1461063d575f80fd5b8063a694fc3a116100d8578063a694fc3a1461049c578063a9059cbb146104bb578063afc92dd1146104da578063b88a802f146104f9575f80fd5b80638456cb591461041e5780638da5cb5b1461043257806395d89b41146104695780639c8156ce1461047d575f80fd5b80633f4ba83a116101895780635c975abb116101595780635c975abb1461038257806370a08231146103a2578063715018a6146103d6578063759e882d146103ea578063817b1cd214610409575f80fd5b80633f4ba83a1461030f57806342966c681461032557806354b9c884146103445780635776409414610363575f80fd5b806318160ddd116101c457806318160ddd146102ad57806323b872dd146102c15780632def6620146102e0578063313ce567146102f4575f80fd5b80630587b20a146102165780630698607d1461024857806306fdde031461025d578063095ea7b31461027e575f80fd5b366102125760405163251a842b60e21b815260040160405180910390fd5b5f80fd5b348015610221575f80fd5b50610235610230366004612395565b6107d1565b6040519081526020015b60405180910390f35b348015610253575f80fd5b5061023560085481565b348015610268575f80fd5b50610271610c13565b60405161023f91906123df565b348015610289575f80fd5b5061029d610298366004612395565b610ca3565b604051901515815260200161023f565b3480156102b8575f80fd5b50600254610235565b3480156102cc575f80fd5b5061029d6102db366004612411565b610cbc565b3480156102eb575f80fd5b5061029d610cdf565b3480156102ff575f80fd5b506040516012815260200161023f565b34801561031a575f80fd5b50610323610fd8565b005b348015610330575f80fd5b5061032361033f36600461244a565b61103c565b34801561034f575f80fd5b5061029d61035e366004612461565b61110d565b34801561036e575f80fd5b5061023561037d36600461244a565b6113c0565b34801561038d575f80fd5b5060055461029d90600160a01b900460ff1681565b3480156103ad575f80fd5b506102356103bc36600461249a565b6001600160a01b03165f9081526020819052604090205490565b3480156103e1575f80fd5b50610323611436565b3480156103f5575f80fd5b506103236104043660046124b3565b611473565b348015610414575f80fd5b5061023560075481565b348015610429575f80fd5b50610323611521565b34801561043d575f80fd5b50600554610451906001600160a01b031681565b6040516001600160a01b03909116815260200161023f565b348015610474575f80fd5b5061027161158b565b348015610488575f80fd5b5061029d6104973660046124d1565b61159a565b3480156104a7575f80fd5b5061029d6104b636600461244a565b61166a565b3480156104c6575f80fd5b5061029d6104d5366004612395565b61194f565b3480156104e5575f80fd5b506102356104f436600461249a565b61195c565b348015610504575f80fd5b5061029d611a6f565b348015610518575f80fd5b506105ad61052736600461249a565b6001600160a01b0381165f908152600a6020908152604091829020825160c081018452815480825260018301549382018490526002909201546001600160401b03808216958301869052600160401b8204811660608401819052600160801b8304821660808501819052600160c01b90930490911660a090930183905292949550919395565b604080519687526001600160401b039586166020880152938516938601939093526060850191909152821660808401521660a082015260c00161023f565b3480156105f6575f80fd5b506104517f000000000000000000000000000000000000000000000000000000000000000081565b348015610629575f80fd5b5061029d610638366004612582565b611bc5565b348015610648575f80fd5b5061029d61065736600461249a565b6005546001600160a01b0391821691161490565b348015610676575f80fd5b506102356106853660046125eb565b6001600160a01b039182165f90815260016020908152604080832093909416825291909152205490565b3480156106ba575f80fd5b5061029d6106c93660046124b3565b60066020525f908152604090205460ff1681565b3480156106e8575f80fd5b506103236106f73660046124b3565b611e90565b348015610707575f80fd5b5061076a61071636600461249a565b60096020525f9081526040902080546001909101546001600160581b0380821691600160581b8104909116906001600160401b03600160b01b8204169060ff600160f01b8204811691600160f81b90041686565b604080519687526001600160581b03958616602088015294909316938501939093526001600160401b0316606084015260ff91821660808401521660a082015260c00161023f565b3480156107bd575f80fd5b506103236107cc36600461249a565b611f3f565b6005545f90600390600160a01b900460ff1680610823575060065f8260048111156107fe576107fe61261c565b600481111561080f5761080f61261c565b815260208101919091526040015f205460ff165b1561084157604051637991559360e11b815260040160405180910390fd5b600b5460ff161561086d5760405162461bcd60e51b815260040161086490612630565b60405180910390fd5b600b805460ff191660011790556001600160a01b0384166108a15760405163e6c4247b60e01b815260040160405180910390fd5b5f83116108c157604051631f2a200560e01b815260040160405180910390fd5b6001600160a01b0384165f90815260096020526040902060018101546001600160581b0316158061090457506001810154600160581b90046001600160581b0316155b1561092257604051636a43f8d160e01b815260040160405180910390fd5b6001810154600160b01b90046001600160401b0316421015610957576040516305ed75d360e31b815260040160405180910390fd5b600181015460ff600160f01b909104811610156109b7576001810154600160f01b810460ff1662093a8002600160b01b9091046001600160401b031601428110156109b557604051630314fe4560e21b815260040160405180910390fd5b505b6109c2845f1961268f565b60018201546001600160581b031611156109ef57604051639c154db960e01b815260040160405180910390fd5b60018101546001600160581b038082168602915f91600160581b909104168281610a1b57610a1b612667565b049050805f03610a3e57604051631f2a200560e01b815260040160405180910390fd5b8254811115610a6d57825460405163d28cc4cd60e01b8152610864918391600401918252602082015260400190565b82548190038355610a7e3387611fb3565b604051336024820152604481018290525f9081906001600160a01b038a169060640160408051601f198184030181529181526020820180516001600160e01b031663a9059cbb60e01b17905251610ad591906126ae565b5f604051808303815f865af19150503d805f8114610b0e576040519150601f19603f3d011682016040523d82523d5f602084013e610b13565b606091505b509150915081610b395760405163c39ba1a960e01b815260048101849052602401610864565b6001850154600160f81b900460ff165f03610bb7578051602014610b7d578051604051631ee66d4f60e21b8152602060048201526024810191909152604401610864565b5f81806020019051810190610b9291906126c9565b905080610bb55760405163c39ba1a960e01b815260048101859052602401610864565b505b60408051898152602081018590526001600160a01b038b169133917f69b4f7d081ba8c7a13dc0ad819546a7aff7bd67d69d55c1824935fce9f26178c910160405180910390a35050600b805460ff191690559695505050505050565b606060038054610c22906126e8565b80601f0160208091040260200160405190810160405280929190818152602001828054610c4e906126e8565b8015610c995780601f10610c7057610100808354040283529160200191610c99565b820191905f5260205f20905b815481529060010190602001808311610c7c57829003601f168201915b5050505050905090565b5f33610cb0818585611feb565b60019150505b92915050565b5f33610cc9858285611ffd565b610cd4858585612079565b506001949350505050565b6005545f90600190600160a01b900460ff1680610d31575060065f826004811115610d0c57610d0c61261c565b6004811115610d1d57610d1d61261c565b815260208101919091526040015f205460ff165b15610d4f57604051637991559360e11b815260040160405180910390fd5b600b5460ff1615610d725760405162461bcd60e51b815260040161086490612630565b600b805460ff19166001908117909155335f908152600a602052604081209182015490819003610db5576040516316f68e4b60e01b815260040160405180910390fd5b6002820154600160c01b90046001600160401b03165f819003610dd65750601e5b6002830154600160801b90046001600160401b0390811662015180838102820190921691429182030490821115610e3257604051632048534960e01b81526001600160401b038416600482015260248101829052604401610864565b5f84603c6001600160401b0386161015610e98576001600160401b03603c8690031660028102805f1981610e6857610e68612667565b04881115610e8957604051639c154db960e01b815260040160405180910390fd5b6103e890880204925050508085035b5f600188018190556002880180546001600160801b0316905560088054889003905587549003610ed65760028701805467ffffffffffffffff191690555b60405163a9059cbb60e01b8152336004820152602481018290527f00000000000000000000000000000000000000000000000000000000000000006001600160a01b03169063a9059cbb906044016020604051808303815f875af1158015610f40573d5f803e3d5ffd5b505050506040513d601f19601f82011682018060405250810190610f6491906126c9565b610f845760405163c39ba1a960e01b815260048101829052602401610864565b604080518781526020810184905233917f7fc4727e062e336010f2c282598ef5f14facb3de68cf8195c2f23e1454b2b74e910160405180910390a2600198505050505050505050600b805460ff1916905590565b6005546001600160a01b031633146110035760405163ea8e4eb560e01b815260040160405180910390fd5b6005805460ff60a01b1916905560405133907f5db9ee0a495bf2e6ff9c91a7834c1ba4fdd244a5e8aa4e537bd38aeae4b073aa905f90a2565b600554600490600160a01b900460ff168061108c575060065f8260048111156110675761106761261c565b60048111156110785761107861261c565b815260208101919091526040015f205460ff165b156110aa57604051637991559360e11b815260040160405180910390fd5b5f82116110ca57604051631f2a200560e01b815260040160405180910390fd5b6110d43383611fb3565b60405182815233907f919f7e2092ffcc9d09f599be18d8152860b0c054df788a33bc549cdd9d0f15b19060200160405180910390a25050565b6005545f90600190600160a01b900460ff168061115f575060065f82600481111561113a5761113a61261c565b600481111561114b5761114b61261c565b815260208101919091526040015f205460ff165b1561117d57604051637991559360e11b815260040160405180910390fd5b600b5460ff16156111a05760405162461bcd60e51b815260040161086490612630565b600b805460ff19166001179055335f908152600a60205260408120908590036111dc57604051631f2a200560e01b815260040160405180910390fd5b805485111561120b57805460405163cf47918160e01b8152610864918791600401918252602082015260400190565b600f846001600160401b0316101561122657600f935061123d565b603c846001600160401b0316111561123d57603c93505b5f6112473361195c565b9050611254865f19612720565b8260010154111561127857604051639c154db960e01b815260040160405180910390fd5b611283865f19612720565b60085411156112a557604051639c154db960e01b815260040160405180910390fd5b815486900382556001820180548701905560078054879003905560088054870190556002820180546001600160801b0316600160801b426001600160401b039081169182026001600160c01b031692909217600160c01b928916929092029190911767ffffffffffffffff60401b1916600160401b9190910217905580156113675761133133826120d6565b60405181815233907f106f923f993c2149d49b4255ff723acafa1f2d94393f561d3eda32ae348f72419060200160405180910390a25b604080518781526001600160401b038716602082015233917f21020437c0e4b58b34bd7ac1f1cef55e7820d1bcd93824ceb273cad96eea704c910160405180910390a25050600b805460ff191690555060019392505050565b5f806113d6670de0b6b3a76400006103e8612733565b6113e0908461268f565b9050606481106114175760c881111561141157600261140060c883612720565b61140c911c60c861274a565b61141a565b8061141a565b60645b90506101f4811161142b578061142f565b6101f45b9392505050565b6005546001600160a01b031633146114615760405163ea8e4eb560e01b815260040160405180910390fd5b600580546001600160a01b0319169055565b6005546001600160a01b0316331461149e5760405163ea8e4eb560e01b815260040160405180910390fd5b5f60065f8360048111156114b4576114b461261c565b60048111156114c5576114c561261c565b815260208101919091526040015f20805460ff1916911515919091179055338160048111156114f6576114f661261c565b6040517f9c8d2be3efaec41ba9a0eafbf0556da8f756ad9c594dfa3bc2986bc0d8e1fe89905f90a350565b6005546001600160a01b0316331461154c5760405163ea8e4eb560e01b815260040160405180910390fd5b6005805460ff60a01b1916600160a01b17905560405133907f62e78cea01bee320cd4e420270b5ea74000d11b0c9f74754ebdbfc544b05a258905f90a2565b606060048054610c22906126e8565b6005545f906001600160a01b031633146115c75760405163ea8e4eb560e01b815260040160405180910390fd5b6001600160a01b0386166115ee5760405163e6c4247b60e01b815260040160405180910390fd5b5f841161160e57604051631f2a200560e01b815260040160405180910390fd5b61161886856120d6565b84866001600160a01b03167fd885f943ed8a5b3d2ddda34156e3efc8e3024608cfe7bd3c0e706939ddcaa87e8686866040516116569392919061275d565b60405180910390a350600195945050505050565b6005545f908190600160a01b900460ff16806116bb575060065f8260048111156116965761169661261c565b60048111156116a7576116a761261c565b815260208101919091526040015f205460ff165b156116d957604051637991559360e11b815260040160405180910390fd5b600b5460ff16156116fc5760405162461bcd60e51b815260040161086490612630565b600b805460ff191660011790555f83900361172a57604051631f2a200560e01b815260040160405180910390fd5b335f818152600a60205260408120916117429061195c565b9050611759856a108b2a2c28029094000000612720565b8254111561177a576040516305190d6960e51b815260040160405180910390fd5b611785855f19612720565b60075411156117a757604051639c154db960e01b815260040160405180910390fd5b6040516323b872dd60e01b8152336004820152306024820152604481018690527f00000000000000000000000000000000000000000000000000000000000000006001600160a01b0316906323b872dd906064016020604051808303815f875af1158015611817573d5f803e3d5ffd5b505050506040513d601f19601f8201168201806040525081019061183b91906126c9565b61185b5760405163c39ba1a960e01b815260048101869052602401610864565b60078054860190558154850182556002820180546001600160401b03428116600160401b0267ffffffffffffffff60401b19831681179093559182169116175f036118bf5760028201805467ffffffffffffffff1916426001600160401b03161790555b8015611905576118cf33826120d6565b60405181815233907f106f923f993c2149d49b4255ff723acafa1f2d94393f561d3eda32ae348f72419060200160405180910390a25b60405185815233907f9e71bc8eea02a63969f509818f2dafb9254532904319f9dbda79b67bd34a5f3d9060200160405180910390a25050600b805460ff1916905550600192915050565b5f33610cb0818585612079565b6001600160a01b0381165f908152600a60209081526040808320815160c08101835281548082526001830154948201949094526002909101546001600160401b0380821693830193909352600160401b810483166060830152600160801b810483166080830152600160c01b900490911660a08201529082036119e157505f92915050565b5f81606001516001600160401b0316426119fb9190612720565b90506276a70080821115611a0d578091505b5f611a1a845f01516113c0565b845190915083611a2b835f1961268f565b611a35919061268f565b11611a5357604051639c154db960e01b815260040160405180910390fd5b83516237b1d09062015180908502830204049695505050505050565b6005545f90600290600160a01b900460ff1680611ac1575060065f826004811115611a9c57611a9c61261c565b6004811115611aad57611aad61261c565b815260208101919091526040015f205460ff165b15611adf57604051637991559360e11b815260040160405180910390fd5b600b5460ff1615611b025760405162461bcd60e51b815260040161086490612630565b600b805460ff19166001179055335f818152600a6020526040812091611b279061195c565b9050805f03611b4b576040516309d1b88f60e01b8152336004820152602401610864565b60028201805467ffffffffffffffff60401b1916600160401b426001600160401b031602179055611b7c33826120d6565b60405181815233907f106f923f993c2149d49b4255ff723acafa1f2d94393f561d3eda32ae348f72419060200160405180910390a260019350505050600b805460ff1916905590565b6005545f906001600160a01b03163314611bf25760405163ea8e4eb560e01b815260040160405180910390fd5b6001600160a01b0387161580611c1057506001600160a01b03871630145b15611c2e5760405163e6c4247b60e01b815260040160405180910390fd5b5f8411611c4e57604051631f2a200560e01b815260040160405180910390fd5b60018360ff161115611c73576040516331e6aa9160e21b815260040160405180910390fd5b6001600160581b0386161580611c9057506001600160581b038516155b15611cae57604051636a43f8d160e01b815260040160405180910390fd5b8160ff165f03611cd157604051631f2a200560e01b815260040160405180910390fd5b5f42620151800190506040518060c00160405280868152602001886001600160581b03168152602001876001600160581b03168152602001826001600160401b031681526020018460ff1681526020018560ff1681525060095f8a6001600160a01b03166001600160a01b031681526020019081526020015f205f820151815f01556020820151816001015f6101000a8154816001600160581b0302191690836001600160581b03160217905550604082015181600101600b6101000a8154816001600160581b0302191690836001600160581b0316021790555060608201518160010160166101000a8154816001600160401b0302191690836001600160401b03160217905550608082015181600101601e6101000a81548160ff021916908360ff16021790555060a082015181600101601f6101000a81548160ff021916908360ff160217905550905050876001600160a01b03167f79dcf314c842ec4729cc5b9fa3f984e9d0d89a59ad3716aaa1b58ef8b646b539888888604051611e7a939291906001600160581b039384168152919092166020820152604081019190915260600190565b60405180910390a2506001979650505050505050565b6005546001600160a01b03163314611ebb5760405163ea8e4eb560e01b815260040160405180910390fd5b600160065f836004811115611ed257611ed261261c565b6004811115611ee357611ee361261c565b815260208101919091526040015f20805460ff191691151591909117905533816004811115611f1457611f1461261c565b6040517fc230972cb0d03d9b32f1ba24ab2d3bcb8bf7638b48d389fcd9886cbd71e6e54c905f90a350565b6005546001600160a01b03163314611f6a5760405163ea8e4eb560e01b815260040160405180910390fd5b6001600160a01b038116611f915760405163e6c4247b60e01b815260040160405180910390fd5b600580546001600160a01b0319166001600160a01b0392909216919091179055565b6001600160a01b038216611fdc57604051634b637e8f60e11b81525f6004820152602401610864565b611fe7825f8361214e565b5050565b611ff88383836001612274565b505050565b6001600160a01b038381165f908152600160209081526040808320938616835292905220545f19811015612073578181101561206557604051637dc7a0d960e11b81526001600160a01b03841660048201526024810182905260448101839052606401610864565b61207384848484035f612274565b50505050565b6001600160a01b0383166120a257604051634b637e8f60e11b81525f6004820152602401610864565b6001600160a01b0382166120cb5760405163ec442f0560e01b81525f6004820152602401610864565b611ff883838361214e565b5f816120e160025490565b6120eb919061274a565b90506c0c9f2c9cd04674edea4000000081111561214457816c0c9f2c9cd04674edea4000000061211a60025490565b604051631d44f5d560e31b8152600481019390935260248301919091526044820152606401610864565b611ff88383612346565b6001600160a01b038316612178578060025f82825461216d919061274a565b909155506121e89050565b6001600160a01b0383165f90815260208190526040902054818110156121ca5760405163391434e360e21b81526001600160a01b03851660048201526024810182905260448101839052606401610864565b6001600160a01b0384165f9081526020819052604090209082900390555b6001600160a01b03821661220457600280548290039055612222565b6001600160a01b0382165f9081526020819052604090208054820190555b816001600160a01b0316836001600160a01b03167fddf252ad1be2c89b69c2b068fc378daa952ba7f163c4a11628f55a4df523b3ef8360405161226791815260200190565b60405180910390a3505050565b6001600160a01b03841661229d5760405163e602df0560e01b81525f6004820152602401610864565b6001600160a01b0383166122c657604051634a1406b160e11b81525f6004820152602401610864565b6001600160a01b038085165f908152600160209081526040808320938716835292905220829055801561207357826001600160a01b0316846001600160a01b03167f8c5be1e5ebec7d5bd14f71427d1e84f3dd0314c0f7b2291e5b200ac8c7c3b9258460405161233891815260200190565b60405180910390a350505050565b6001600160a01b03821661236f5760405163ec442f0560e01b81525f6004820152602401610864565b611fe75f838361214e565b80356001600160a01b0381168114612390575f80fd5b919050565b5f80604083850312156123a6575f80fd5b6123af8361237a565b946020939093013593505050565b5f5b838110156123d75781810151838201526020016123bf565b50505f910152565b602081525f82518060208401526123fd8160408501602087016123bd565b601f01601f19169190910160400192915050565b5f805f60608486031215612423575f80fd5b61242c8461237a565b925061243a6020850161237a565b9150604084013590509250925092565b5f6020828403121561245a575f80fd5b5035919050565b5f8060408385031215612472575f80fd5b8235915060208301356001600160401b038116811461248f575f80fd5b809150509250929050565b5f602082840312156124aa575f80fd5b61142f8261237a565b5f602082840312156124c3575f80fd5b81356005811061142f575f80fd5b5f805f805f608086880312156124e5575f80fd5b6124ee8661237a565b9450602086013593506040860135925060608601356001600160401b0380821115612517575f80fd5b818801915088601f83011261252a575f80fd5b813581811115612538575f80fd5b896020828501011115612549575f80fd5b9699959850939650602001949392505050565b80356001600160581b0381168114612390575f80fd5b803560ff81168114612390575f80fd5b5f805f805f8060c08789031215612597575f80fd5b6125a08761237a565b95506125ae6020880161255c565b94506125bc6040880161255c565b9350606087013592506125d160808801612572565b91506125df60a08801612572565b90509295509295509295565b5f80604083850312156125fc575f80fd5b6126058361237a565b91506126136020840161237a565b90509250929050565b634e487b7160e01b5f52602160045260245ffd5b6020808252601f908201527f5265656e7472616e637947756172643a207265656e7472616e742063616c6c00604082015260600190565b634e487b7160e01b5f52601260045260245ffd5b634e487b7160e01b5f52601160045260245ffd5b5f826126a957634e487b7160e01b5f52601260045260245ffd5b500490565b5f82516126bf8184602087016123bd565b9190910192915050565b5f602082840312156126d9575f80fd5b8151801515811461142f575f80fd5b600181811c908216806126fc57607f821691505b60208210810361271a57634e487b7160e01b5f52602260045260245ffd5b50919050565b81810381811115610cb657610cb661267b565b8082028115828204841417610cb657610cb661267b565b80820180821115610cb657610cb661267b565b83815260406020820152816040820152818360608301375f818301606090810191909152601f909201601f191601019291505056fea26469706673582212201aab3998a20968d8fd126d688c4cdceacbec1dff4fce729dc0cf247e126f859064736f6c63430008180033",
      "opcodes": "PUSH1 0xA0 PUSH1 0x40 MSTORE CALLVALUE DUP1 ISZERO PUSH3 0x10 JUMPI PUSH0 DUP1 REVERT JUMPDEST POP PUSH1 0x40 MLOAD PUSH3 0x2ABC CODESIZE SUB DUP1 PUSH3 0x2ABC DUP4 CODECOPY DUP2 ADD PUSH1 0x40 DUP2 SWAP1 MSTORE PUSH3 0x33 SWAP2 PUSH3 0x12D JUMP JUMPDEST PUSH1 0x40 MLOAD DUP1 PUSH1 0x40 ADD PUSH1 0x40 MSTORE DUP1 PUSH1 0x11 DUP2 MSTORE PUSH1 0x20 ADD PUSH17 0x2330B4B9102932BBB0B932102A37B5B2B7 PUSH1 0x79 SHL DUP2 MSTORE POP PUSH1 0x40 MLOAD DUP1 PUSH1 0x40 ADD PUSH1 0x40 MSTORE DUP1 PUSH1 0x2 DUP2 MSTORE PUSH1 0x20 ADD PUSH2 0x2329 PUSH1 0xF1 SHL DUP2 MSTORE POP DUP2 PUSH1 0x3 SWAP1 DUP2 PUSH3 0x89 SWAP2 SWAP1 PUSH3 0x201 JUMP JUMPDEST POP PUSH1 0x4 PUSH3 0x98 DUP3 DUP3 PUSH3 0x201 JUMP JUMPDEST POP POP POP PUSH1 0x1 PUSH1 0x1 PUSH1 0xA0 SHL SUB DUP3 AND PUSH3 0xC3 JUMPI PUSH1 0x40 MLOAD PUSH4 0xE6C4247B PUSH1 0xE0 SHL DUP2 MSTORE PUSH1 0x4 ADD PUSH1 0x40 MLOAD DUP1 SWAP2 SUB SWAP1 REVERT JUMPDEST PUSH1 0x1 PUSH1 0x1 PUSH1 0xA0 SHL SUB DUP2 AND PUSH3 0xEB JUMPI PUSH1 0x40 MLOAD PUSH4 0xE6C4247B PUSH1 0xE0 SHL DUP2 MSTORE PUSH1 0x4 ADD PUSH1 0x40 MLOAD DUP1 SWAP2 SUB SWAP1 REVERT JUMPDEST PUSH1 0x5 DUP1 SLOAD PUSH1 0x1 PUSH1 0x1 PUSH1 0xA0 SHL SUB NOT AND PUSH1 0x1 PUSH1 0x1 PUSH1 0xA0 SHL SUB SWAP4 DUP5 AND OR SWAP1 SSTORE AND PUSH1 0x80 MSTORE PUSH3 0x2CD JUMP JUMPDEST DUP1 MLOAD PUSH1 0x1 PUSH1 0x1 PUSH1 0xA0 SHL SUB DUP2 AND DUP2 EQ PUSH3 0x128 JUMPI PUSH0 DUP1 REVERT JUMPDEST SWAP2 SWAP1 POP JUMP JUMPDEST PUSH0 DUP1 PUSH1 0x40 DUP4 DUP6 SUB SLT ISZERO PUSH3 0x13F JUMPI PUSH0 DUP1 REVERT JUMPDEST PUSH3 0x14A DUP4 PUSH3 0x111 JUMP JUMPDEST SWAP2 POP PUSH3 0x15A PUSH1 0x20 DUP5 ADD PUSH3 0x111 JUMP JUMPDEST SWAP1 POP SWAP3 POP SWAP3 SWAP1 POP JUMP JUMPDEST PUSH4 0x4E487B71 PUSH1 0xE0 SHL PUSH0 MSTORE PUSH1 0x41 PUSH1 0x4 MSTORE PUSH1 0x24 PUSH0 REVERT JUMPDEST PUSH1 0x1 DUP2 DUP2 SHR SWAP1 DUP3 AND DUP1 PUSH3 0x18C JUMPI PUSH1 0x7F DUP3 AND SWAP2 POP JUMPDEST PUSH1 0x20 DUP3 LT DUP2 SUB PUSH3 0x1AB JUMPI PUSH4 0x4E487B71 PUSH1 0xE0 SHL PUSH0 MSTORE PUSH1 0x22 PUSH1 0x4 MSTORE PUSH1 0x24 PUSH0 REVERT JUMPDEST POP SWAP2 SWAP1 POP JUMP JUMPDEST PUSH1 0x1F DUP3 GT ISZERO PUSH3 0x1FC JUMPI DUP1 PUSH0 MSTORE PUSH1 0x20 PUSH0 KECCAK256 PUSH1 0x1F DUP5 ADD PUSH1 0x5 SHR DUP2 ADD PUSH1 0x20 DUP6 LT ISZERO PUSH3 0x1D8 JUMPI POP DUP1 JUMPDEST PUSH1 0x1F DUP5 ADD PUSH1 0x5 SHR DUP3 ADD SWAP2 POP JUMPDEST DUP2 DUP2 LT ISZERO PUSH3 0x1F9 JUMPI PUSH0 DUP2 SSTORE PUSH1 0x1 ADD PUSH3 0x1E4 JUMP JUMPDEST POP POP JUMPDEST POP POP POP JUMP JUMPDEST DUP2 MLOAD PUSH1 0x1 PUSH1 0x1 PUSH1 0x40 SHL SUB DUP2 GT ISZERO PUSH3 0x21D JUMPI PUSH3 0x21D PUSH3 0x163 JUMP JUMPDEST PUSH3 0x235 DUP2 PUSH3 0x22E DUP5 SLOAD PUSH3 0x177 JUMP JUMPDEST DUP5 PUSH3 0x1B1 JUMP JUMPDEST PUSH1 0x20 DUP1 PUSH1 0x1F DUP4 GT PUSH1 0x1 DUP2 EQ PUSH3 0x26B JUMPI PUSH0 DUP5 ISZERO PUSH3 0x253 JUMPI POP DUP6 DUP4 ADD MLOAD JUMPDEST PUSH0 NOT PUSH1 0x3 DUP7 SWAP1 SHL SHR NOT AND PUSH1 0x1 DUP6 SWAP1 SHL OR DUP6 SSTORE PUSH3 0x2C5 JUMP JUMPDEST PUSH0 DUP6 DUP2 MSTORE PUSH1 0x20 DUP2 KECCAK256 PUSH1 0x1F NOT DUP7 AND SWAP2 JUMPDEST DUP3 DUP2 LT ISZERO PUSH3 0x29B JUMPI DUP9 DUP7 ADD MLOAD DUP3 SSTORE SWAP5 DUP5 ADD SWAP5 PUSH1 0x1 SWAP1 SWAP2 ADD SWAP1 DUP5 ADD PUSH3 0x27A JUMP JUMPDEST POP DUP6 DUP3 LT ISZERO PUSH3 0x2B9 JUMPI DUP8 DUP6 ADD MLOAD PUSH0 NOT PUSH1 0x3 DUP9 SWAP1 SHL PUSH1 0xF8 AND SHR NOT AND DUP2 SSTORE JUMPDEST POP POP PUSH1 0x1 DUP5 PUSH1 0x1 SHL ADD DUP6 SSTORE JUMPDEST POP POP POP POP POP POP JUMP JUMPDEST PUSH1 0x80 MLOAD PUSH2 0x27C8 PUSH3 0x2F4 PUSH0 CODECOPY PUSH0 DUP2 DUP2 PUSH2 0x5FC ADD MSTORE DUP2 DUP2 PUSH2 0xEF2 ADD MSTORE PUSH2 0x17C9 ADD MSTORE PUSH2 0x27C8 PUSH0 RETURN INVALID PUSH1 0x80 PUSH1 0x40 MSTORE PUSH1 0x4 CALLDATASIZE LT PUSH2 0x1F4 JUMPI PUSH0 CALLDATALOAD PUSH1 0xE0 SHR DUP1 PUSH4 0x8456CB59 GT PUSH2 0x108 JUMPI DUP1 PUSH4 0xC32D3AE2 GT PUSH2 0x9D JUMPI DUP1 PUSH4 0xDD62ED3E GT PUSH2 0x6D JUMPI DUP1 PUSH4 0xDD62ED3E EQ PUSH2 0x66B JUMPI DUP1 PUSH4 0xE4F7B494 EQ PUSH2 0x6AF JUMPI DUP1 PUSH4 0xEBA1E3D2 EQ PUSH2 0x6DD JUMPI DUP1 PUSH4 0xEC7E6A57 EQ PUSH2 0x6FC JUMPI DUP1 PUSH4 0xF2FDE38B EQ PUSH2 0x7B2 JUMPI PUSH0 DUP1 REVERT JUMPDEST DUP1 PUSH4 0xC32D3AE2 EQ PUSH2 0x50D JUMPI DUP1 PUSH4 0xCC7A262E EQ PUSH2 0x5EB JUMPI DUP1 PUSH4 0xD7DB2159 EQ PUSH2 0x61E JUMPI DUP1 PUSH4 0xDC467F8E EQ PUSH2 0x63D JUMPI PUSH0 DUP1 REVERT JUMPDEST DUP1 PUSH4 0xA694FC3A GT PUSH2 0xD8 JUMPI DUP1 PUSH4 0xA694FC3A EQ PUSH2 0x49C JUMPI DUP1 PUSH4 0xA9059CBB EQ PUSH2 0x4BB JUMPI DUP1 PUSH4 0xAFC92DD1 EQ PUSH2 0x4DA JUMPI DUP1 PUSH4 0xB88A802F EQ PUSH2 0x4F9 JUMPI PUSH0 DUP1 REVERT JUMPDEST DUP1 PUSH4 0x8456CB59 EQ PUSH2 0x41E JUMPI DUP1 PUSH4 0x8DA5CB5B EQ PUSH2 0x432 JUMPI DUP1 PUSH4 0x95D89B41 EQ PUSH2 0x469 JUMPI DUP1 PUSH4 0x9C8156CE EQ PUSH2 0x47D JUMPI PUSH0 DUP1 REVERT JUMPDEST DUP1 PUSH4 0x3F4BA83A GT PUSH2 0x189 JUMPI DUP1 PUSH4 0x5C975ABB GT PUSH2 0x159 JUMPI DUP1 PUSH4 0x5C975ABB EQ PUSH2 0x382 JUMPI DUP1 PUSH4 0x70A08231 EQ PUSH2 0x3A2 JUMPI DUP1 PUSH4 0x715018A6 EQ PUSH2 0x3D6 JUMPI DUP1 PUSH4 0x759E882D EQ PUSH2 0x3EA JUMPI DUP1 PUSH4 0x817B1CD2 EQ PUSH2 0x409 JUMPI PUSH0 DUP1 REVERT JUMPDEST DUP1 PUSH4 0x3F4BA83A EQ PUSH2 0x30F JUMPI DUP1 PUSH4 0x42966C68 EQ PUSH2 0x325 JUMPI DUP1 PUSH4 0x54B9C884 EQ PUSH2 0x344 JUMPI DUP1 PUSH4 0x57764094 EQ PUSH2 0x363 JUMPI PUSH0 DUP1 REVERT JUMPDEST DUP1 PUSH4 0x18160DDD GT PUSH2 0x1C4 JUMPI DUP1 PUSH4 0x18160DDD EQ PUSH2 0x2AD JUMPI DUP1 PUSH4 0x23B872DD EQ PUSH2 0x2C1 JUMPI DUP1 PUSH4 0x2DEF6620 EQ PUSH2 0x2E0 JUMPI DUP1 PUSH4 0x313CE567 EQ PUSH2 0x2F4 JUMPI PUSH0 DUP1 REVERT JUMPDEST DUP1 PUSH4 0x587B20A EQ PUSH2 0x216 JUMPI DUP1 PUSH4 0x698607D EQ PUSH2 0x248 JUMPI DUP1 PUSH4 0x6FDDE03 EQ PUSH2 0x25D JUMPI DUP1 PUSH4 0x95EA7B3 EQ PUSH2 0x27E JUMPI PUSH0 DUP1 REVERT JUMPDEST CALLDATASIZE PUSH2 0x212 JUMPI PUSH1 0x40 MLOAD PUSH4 0x251A842B PUSH1 0xE2 SHL DUP2 MSTORE PUSH1 0x4 ADD PUSH1 0x40 MLOAD DUP1 SWAP2 SUB SWAP1 REVERT JUMPDEST PUSH0 DUP1 REVERT JUMPDEST CALLVALUE DUP1 ISZERO PUSH2 0x221 JUMPI PUSH0 DUP1 REVERT JUMPDEST POP PUSH2 0x235 PUSH2 0x230 CALLDATASIZE PUSH1 0x4 PUSH2 0x2395 JUMP JUMPDEST PUSH2 0x7D1 JUMP JUMPDEST PUSH1 0x40 MLOAD SWAP1 DUP2 MSTORE PUSH1 0x20 ADD JUMPDEST PUSH1 0x40 MLOAD DUP1 SWAP2 SUB SWAP1 RETURN JUMPDEST CALLVALUE DUP1 ISZERO PUSH2 0x253 JUMPI PUSH0 DUP1 REVERT JUMPDEST POP PUSH2 0x235 PUSH1 0x8 SLOAD DUP2 JUMP JUMPDEST CALLVALUE DUP1 ISZERO PUSH2 0x268 JUMPI PUSH0 DUP1 REVERT JUMPDEST POP PUSH2 0x271 PUSH2 0xC13 JUMP JUMPDEST PUSH1 0x40 MLOAD PUSH2 0x23F SWAP2 SWAP1 PUSH2 0x23DF JUMP JUMPDEST CALLVALUE DUP1 ISZERO PUSH2 0x289 JUMPI PUSH0 DUP1 REVERT JUMPDEST POP PUSH2 0x29D PUSH2 0x298 CALLDATASIZE PUSH1 0x4 PUSH2 0x2395 JUMP JUMPDEST PUSH2 0xCA3 JUMP JUMPDEST PUSH1 0x40 MLOAD SWAP1 ISZERO ISZERO DUP2 MSTORE PUSH1 0x20 ADD PUSH2 0x23F JUMP JUMPDEST CALLVALUE DUP1 ISZERO PUSH2 0x2B8 JUMPI PUSH0 DUP1 REVERT JUMPDEST POP PUSH1 0x2 SLOAD PUSH2 0x235 JUMP JUMPDEST CALLVALUE DUP1 ISZERO PUSH2 0x2CC JUMPI PUSH0 DUP1 REVERT JUMPDEST POP PUSH2 0x29D PUSH2 0x2DB CALLDATASIZE PUSH1 0x4 PUSH2 0x2411 JUMP JUMPDEST PUSH2 0xCBC JUMP JUMPDEST CALLVALUE DUP1 ISZERO PUSH2 0x2EB JUMPI PUSH0 DUP1 REVERT JUMPDEST POP PUSH2 0x29D PUSH2 0xCDF JUMP JUMPDEST CALLVALUE DUP1 ISZERO PUSH2 0x2FF JUMPI PUSH0 DUP1 REVERT JUMPDEST POP PUSH1 0x40 MLOAD PUSH1 0x12 DUP2 MSTORE PUSH1 0x20 ADD PUSH2 0x23F JUMP JUMPDEST CALLVALUE DUP1 ISZERO PUSH2 0x31A JUMPI PUSH0 DUP1 REVERT JUMPDEST POP PUSH2 0x323 PUSH2 0xFD8 JUMP JUMPDEST STOP JUMPDEST CALLVALUE DUP1 ISZERO PUSH2 0x330 JUMPI PUSH0 DUP1 REVERT JUMPDEST POP PUSH2 0x323 PUSH2 0x33F CALLDATASIZE PUSH1 0x4 PUSH2 0x244A JUMP JUMPDEST PUSH2 0x103C JUMP JUMPDEST CALLVALUE DUP1 ISZERO PUSH2 0x34F JUMPI PUSH0 DUP1 REVERT JUMPDEST POP PUSH2 0x29D PUSH2 0x35E CALLDATASIZE PUSH1 0x4 PUSH2 0x2461 JUMP JUMPDEST PUSH2 0x110D JUMP JUMPDEST CALLVALUE DUP1 ISZERO PUSH2 0x36E JUMPI PUSH0 DUP1 REVERT JUMPDEST POP PUSH2 0x235 PUSH2 0x37D CALLDATASIZE PUSH1 0x4 PUSH2 0x244A JUMP JUMPDEST PUSH2 0x13C0 JUMP JUMPDEST CALLVALUE DUP1 ISZERO PUSH2 0x38D JUMPI PUSH0 DUP1 REVERT JUMPDEST POP PUSH1 0x5 SLOAD PUSH2 0x29D SWAP1 PUSH1 0x1 PUSH1 0xA0 SHL SWAP1 DIV PUSH1 0xFF AND DUP2 JUMP JUMPDEST CALLVALUE DUP1 ISZERO PUSH2 0x3AD JUMPI PUSH0 DUP1 REVERT JUMPDEST POP PUSH2 0x235 PUSH2 0x3BC CALLDATASIZE PUSH1 0x4 PUSH2 0x249A JUMP JUMPDEST PUSH1 0x1 PUSH1 0x1 PUSH1 0xA0 SHL SUB AND PUSH0 SWAP1 DUP2 MSTORE PUSH1 0x20 DUP2 SWAP1 MSTORE PUSH1 0x40 SWAP1 KECCAK256 SLOAD SWAP1 JUMP JUMPDEST CALLVALUE DUP1 ISZERO PUSH2 0x3E1 JUMPI PUSH0 DUP1 REVERT JUMPDEST POP PUSH2 0x323 PUSH2 0x1436 JUMP JUMPDEST CALLVALUE DUP1 ISZERO PUSH2 0x3F5 JUMPI PUSH0 DUP1 REVERT JUMPDEST POP PUSH2 0x323 PUSH2 0x404 CALLDATASIZE PUSH1 0x4 PUSH2 0x24B3 JUMP JUMPDEST PUSH2 0x1473 JUMP JUMPDEST CALLVALUE DUP1 ISZERO PUSH2 0x414 JUMPI PUSH0 DUP1 REVERT JUMPDEST POP PUSH2 0x235 PUSH1 0x7 SLOAD DUP2 JUMP JUMPDEST CALLVALUE DUP1 ISZERO PUSH2 0x429 JUMPI PUSH0 DUP1 REVERT JUMPDEST POP PUSH2 0x323 PUSH2 0x1521 JUMP JUMPDEST CALLVALUE DUP1 ISZERO PUSH2 0x43D JUMPI PUSH0 DUP1 REVERT JUMPDEST POP PUSH1 0x5 SLOAD PUSH2 0x451 SWAP1 PUSH1 0x1 PUSH1 0x1 PUSH1 0xA0 SHL SUB AND DUP2 JUMP JUMPDEST PUSH1 0x40 MLOAD PUSH1 0x1 PUSH1 0x1 PUSH1 0xA0 SHL SUB SWAP1 SWAP2 AND DUP2 MSTORE PUSH1 0x20 ADD PUSH2 0x23F JUMP JUMPDEST CALLVALUE DUP1 ISZERO PUSH2 0x474 JUMPI PUSH0 DUP1 REVERT JUMPDEST POP PUSH2 0x271 PUSH2 0x158B JUMP JUMPDEST CALLVALUE DUP1 ISZERO PUSH2 0x488 JUMPI PUSH0 DUP1 REVERT JUMPDEST POP PUSH2 0x29D PUSH2 0x497 CALLDATASIZE PUSH1 0x4 PUSH2 0x24D1 JUMP JUMPDEST PUSH2 0x159A JUMP JUMPDEST CALLVALUE DUP1 ISZERO PUSH2 0x4A7 JUMPI PUSH0 DUP1 REVERT JUMPDEST POP PUSH2 0x29D PUSH2 0x4B6 CALLDATASIZE PUSH1 0x4 PUSH2 0x244A JUMP JUMPDEST PUSH2 0x166A JUMP JUMPDEST CALLVALUE DUP1 ISZERO PUSH2 0x4C6 JUMPI PUSH0 DUP1 REVERT JUMPDEST POP PUSH2 0x29D PUSH2 0x4D5 CALLDATASIZE PUSH1 0x4 PUSH2 0x2395 JUMP JUMPDEST PUSH2 0x194F JUMP JUMPDEST CALLVALUE DUP1 ISZERO PUSH2 0x4E5 JUMPI PUSH0 DUP1 REVERT JUMPDEST POP PUSH2 0x235 PUSH2 0x4F4 CALLDATASIZE PUSH1 0x4 PUSH2 0x249A JUMP JUMPDEST PUSH2 0x195C JUMP JUMPDEST CALLVALUE DUP1 ISZERO PUSH2 0x504 JUMPI PUSH0 DUP1 REVERT JUMPDEST POP PUSH2 0x29D PUSH2 0x1A6F JUMP JUMPDEST CALLVALUE DUP1 ISZERO PUSH2 0x518 JUMPI PUSH0 DUP1 REVERT JUMPDEST POP PUSH2 0x5AD PUSH2 0x527 CALLDATASIZE PUSH1 0x4 PUSH2 0x249A JUMP JUMPDEST PUSH1 0x1 PUSH1 0x1 PUSH1 0xA0 SHL SUB DUP2 AND PUSH0 SWAP1 DUP2 MSTORE PUSH1 0xA PUSH1 0x20 SWAP1 DUP2 MSTORE PUSH1 0x40 SWAP2 DUP3 SWAP1 KECCAK256 DUP3 MLOAD PUSH1 0xC0 DUP2 ADD DUP5 MSTORE DUP2 SLOAD DUP1 DUP3 MSTORE PUSH1 0x1 DUP4 ADD SLOAD SWAP4 DUP3 ADD DUP5 SWAP1 MSTORE PUSH1 0x2 SWAP1 SWAP3 ADD SLOAD PUSH1 0x1 PUSH1 0x1 PUSH1 0x40 SHL SUB DUP1 DUP3 AND SWAP6 DUP4 ADD DUP7 SWAP1 MSTORE PUSH1 0x1 PUSH1 0x40 SHL DUP3 DIV DUP2 AND PUSH1 0x60 DUP5 ADD DUP2 SWAP1 MSTORE PUSH1 0x1 PUSH1 0x80 SHL DUP4 DIV DUP3 AND PUSH1 0x80 DUP6 ADD DUP2 SWAP1 MSTORE PUSH1 0x1 PUSH1 0xC0 SHL SWAP1 SWAP4 DIV SWAP1 SWAP2 AND PUSH1 0xA0 SWAP1 SWAP4 ADD DUP4 SWAP1 MSTORE SWAP3 SWAP5 SWAP6 POP SWAP2 SWAP4 SWAP6 JUMP JUMPDEST PUSH1 0x40 DUP1 MLOAD SWAP7 DUP8 MSTORE PUSH1 0x1 PUSH1 0x1 PUSH1 0x40 SHL SUB SWAP6 DUP7 AND PUSH1 0x20 DUP9 ADD MSTORE SWAP4 DUP6 AND SWAP4 DUP7 ADD SWAP4 SWAP1 SWAP4 MSTORE PUSH1 0x60 DUP6 ADD SWAP2 SWAP1 SWAP2 MSTORE DUP3 AND PUSH1 0x80 DUP5 ADD MSTORE AND PUSH1 0xA0 DUP3 ADD MSTORE PUSH1 0xC0 ADD PUSH2 0x23F JUMP JUMPDEST CALLVALUE DUP1 ISZERO PUSH2 0x5F6 JUMPI PUSH0 DUP1 REVERT JUMPDEST POP PUSH2 0x451 PUSH32 0x0 DUP2 JUMP JUMPDEST CALLVALUE DUP1 ISZERO PUSH2 0x629 JUMPI PUSH0 DUP1 REVERT JUMPDEST POP PUSH2 0x29D PUSH2 0x638 CALLDATASIZE PUSH1 0x4 PUSH2 0x2582 JUMP JUMPDEST PUSH2 0x1BC5 JUMP JUMPDEST CALLVALUE DUP1 ISZERO PUSH2 0x648 JUMPI PUSH0 DUP1 REVERT JUMPDEST POP PUSH2 0x29D PUSH2 0x657 CALLDATASIZE PUSH1 0x4 PUSH2 0x249A JUMP JUMPDEST PUSH1 0x5 SLOAD PUSH1 0x1 PUSH1 0x1 PUSH1 0xA0 SHL SUB SWAP2 DUP3 AND SWAP2 AND EQ SWAP1 JUMP JUMPDEST CALLVALUE DUP1 ISZERO PUSH2 0x676 JUMPI PUSH0 DUP1 REVERT JUMPDEST POP PUSH2 0x235 PUSH2 0x685 CALLDATASIZE PUSH1 0x4 PUSH2 0x25EB JUMP JUMPDEST PUSH1 0x1 PUSH1 0x1 PUSH1 0xA0 SHL SUB SWAP2 DUP3 AND PUSH0 SWAP1 DUP2 MSTORE PUSH1 0x1 PUSH1 0x20 SWAP1 DUP2 MSTORE PUSH1 0x40 DUP1 DUP4 KECCAK256 SWAP4 SWAP1 SWAP5 AND DUP3 MSTORE SWAP2 SWAP1 SWAP2 MSTORE KECCAK256 SLOAD SWAP1 JUMP JUMPDEST CALLVALUE DUP1 ISZERO PUSH2 0x6BA JUMPI PUSH0 DUP1 REVERT JUMPDEST POP PUSH2 0x29D PUSH2 0x6C9 CALLDATASIZE PUSH1 0x4 PUSH2 0x24B3 JUMP JUMPDEST PUSH1 0x6 PUSH1 0x20 MSTORE PUSH0 SWAP1 DUP2 MSTORE PUSH1 0x40 SWAP1 KECCAK256 SLOAD PUSH1 0xFF AND DUP2 JUMP JUMPDEST CALLVALUE DUP1 ISZERO PUSH2 0x6E8 JUMPI PUSH0 DUP1 REVERT JUMPDEST POP PUSH2 0x323 PUSH2 0x6F7 CALLDATASIZE PUSH1 0x4 PUSH2 0x24B3 JUMP JUMPDEST PUSH2 0x1E90 JUMP JUMPDEST CALLVALUE DUP1 ISZERO PUSH2 0x707 JUMPI PUSH0 DUP1 REVERT JUMPDEST POP PUSH2 0x76A PUSH2 0x716 CALLDATASIZE PUSH1 0x4 PUSH2 0x249A JUMP JUMPDEST PUSH1 0x9 PUSH1 0x20 MSTORE PUSH0 SWAP1 DUP2 MSTORE PUSH1 0x40 SWAP1 KECCAK256 DUP1 SLOAD PUSH1 0x1 SWAP1 SWAP2 ADD SLOAD PUSH1 0x1 PUSH1 0x1 PUSH1 0x58 SHL SUB DUP1 DUP3 AND SWAP2 PUSH1 0x1 PUSH1 0x58 SHL DUP2 DIV SWAP1 SWAP2 AND SWAP1 PUSH1 0x1 PUSH1 0x1 PUSH1 0x40 SHL SUB PUSH1 0x1 PUSH1 0xB0 SHL DUP3 DIV AND SWAP1 PUSH1 0xFF PUSH1 0x1 PUSH1 0xF0 SHL DUP3 DIV DUP2 AND SWAP2 PUSH1 0x1 PUSH1 0xF8 SHL SWAP1 DIV AND DUP7 JUMP JUMPDEST PUSH1 0x40 DUP1 MLOAD SWAP7 DUP8 MSTORE PUSH1 0x1 PUSH1 0x1 PUSH1 0x58 SHL SUB SWAP6 DUP7 AND PUSH1 0x20 DUP9 ADD MSTORE SWAP5 SWAP1 SWAP4 AND SWAP4 DUP6 ADD SWAP4 SWAP1 SWAP4 MSTORE PUSH1 0x1 PUSH1 0x1 PUSH1 0x40 SHL SUB AND PUSH1 0x60 DUP5 ADD MSTORE PUSH1 0xFF SWAP2 DUP3 AND PUSH1 0x80 DUP5 ADD MSTORE AND PUSH1 0xA0 DUP3 ADD MSTORE PUSH1 0xC0 ADD PUSH2 0x23F JUMP JUMPDEST CALLVALUE DUP1 ISZERO PUSH2 0x7BD JUMPI PUSH0 DUP1 REVERT JUMPDEST POP PUSH2 0x323 PUSH2 0x7CC CALLDATASIZE PUSH1 0x4 PUSH2 0x249A JUMP JUMPDEST PUSH2 0x1F3F JUMP JUMPDEST PUSH1 0x5 SLOAD PUSH0 SWAP1 PUSH1 0x3 SWAP1 PUSH1 0x1 PUSH1 0xA0 SHL SWAP1 DIV PUSH1 0xFF AND DUP1 PUSH2 0x823 JUMPI POP PUSH1 0x6 PUSH0 DUP3 PUSH1 0x4 DUP2 GT ISZERO PUSH2 0x7FE JUMPI PUSH2 0x7FE PUSH2 0x261C JUMP JUMPDEST PUSH1 0x4 DUP2 GT ISZERO PUSH2 0x80F JUMPI PUSH2 0x80F PUSH2 0x261C JUMP JUMPDEST DUP2 MSTORE PUSH1 0x20 DUP2 ADD SWAP2 SWAP1 SWAP2 MSTORE PUSH1 0x40 ADD PUSH0 KECCAK256 SLOAD PUSH1 0xFF AND JUMPDEST ISZERO PUSH2 0x841 JUMPI PUSH1 0x40 MLOAD PUSH4 0x79915593 PUSH1 0xE1 SHL DUP2 MSTORE PUSH1 0x4 ADD PUSH1 0x40 MLOAD DUP1 SWAP2 SUB SWAP1 REVERT JUMPDEST PUSH1 0xB SLOAD PUSH1 0xFF AND ISZERO PUSH2 0x86D JUMPI PUSH1 0x40 MLOAD PUSH3 0x461BCD PUSH1 0xE5 SHL DUP2 MSTORE PUSH1 0x4 ADD PUSH2 0x864 SWAP1 PUSH2 0x2630 JUMP JUMPDEST PUSH1 0x40 MLOAD DUP1 SWAP2 SUB SWAP1 REVERT JUMPDEST PUSH1 0xB DUP1 SLOAD PUSH1 0xFF NOT AND PUSH1 0x1 OR SWAP1 SSTORE PUSH1 0x1 PUSH1 0x1 PUSH1 0xA0 SHL SUB DUP5 AND PUSH2 0x8A1 JUMPI PUSH1 0x40 MLOAD PUSH4 0xE6C4247B PUSH1 0xE0 SHL DUP2 MSTORE PUSH1 0x4 ADD PUSH1 0x40 MLOAD DUP1 SWAP2 SUB SWAP1 REVERT JUMPDEST PUSH0 DUP4 GT PUSH2 0x8C1 JUMPI PUSH1 0x40 MLOAD PUSH4 0x1F2A2005 PUSH1 0xE0 SHL DUP2 MSTORE PUSH1 0x4 ADD PUSH1 0x40 MLOAD DUP1 SWAP2 SUB SWAP1 REVERT JUMPDEST PUSH1 0x1 PUSH1 0x1 PUSH1 0xA0 SHL SUB DUP5 AND PUSH0 SWAP1 DUP2 MSTORE PUSH1 0x9 PUSH1 0x20 MSTORE PUSH1 0x40 SWAP1 KECCAK256 PUSH1 0x1 DUP2 ADD SLOAD PUSH1 0x1 PUSH1 0x1 PUSH1 0x58 SHL SUB AND ISZERO DUP1 PUSH2 0x904 JUMPI POP PUSH1 0x1 DUP2 ADD SLOAD PUSH1 0x1 PUSH1 0x58 SHL SWAP1 DIV PUSH1 0x1 PUSH1 0x1 PUSH1 0x58 SHL SUB AND ISZERO JUMPDEST ISZERO PUSH2 0x922 JUMPI PUSH1 0x40 MLOAD PUSH4 0x6A43F8D1 PUSH1 0xE0 SHL DUP2 MSTORE PUSH1 0x4 ADD PUSH1 0x40 MLOAD DUP1 SWAP2 SUB SWAP1 REVERT JUMPDEST PUSH1 0x1 DUP2 ADD SLOAD PUSH1 0x1 PUSH1 0xB0 SHL SWAP1 DIV PUSH1 0x1 PUSH1 0x1 PUSH1 0x40 SHL SUB AND TIMESTAMP LT ISZERO PUSH2 0x957 JUMPI PUSH1 0x40 MLOAD PUSH4 0x5ED75D3 PUSH1 0xE3 SHL DUP2 MSTORE PUSH1 0x4 ADD PUSH1 0x40 MLOAD DUP1 SWAP2 SUB SWAP1 REVERT JUMPDEST PUSH1 0x1 DUP2 ADD SLOAD PUSH1 0xFF PUSH1 0x1 PUSH1 0xF0 SHL SWAP1 SWAP2 DIV DUP2 AND LT ISZERO PUSH2 0x9B7 JUMPI PUSH1 0x1 DUP2 ADD SLOAD PUSH1 0x1 PUSH1 0xF0 SHL DUP2 DIV PUSH1 0xFF AND PUSH3 0x93A80 MUL PUSH1 0x1 PUSH1 0xB0 SHL SWAP1 SWAP2 DIV PUSH1 0x1 PUSH1 0x1 PUSH1 0x40 SHL SUB AND ADD TIMESTAMP DUP2 LT ISZERO PUSH2 0x9B5 JUMPI PUSH1 0x40 MLOAD PUSH4 0x314FE45 PUSH1 0xE2 SHL DUP2 MSTORE PUSH1 0x4 ADD PUSH1 0x40 MLOAD DUP1 SWAP2 SUB SWAP1 REVERT JUMPDEST POP JUMPDEST PUSH2 0x9C2 DUP5 PUSH0 NOT PUSH2 0x268F JUMP JUMPDEST PUSH1 0x1 DUP3 ADD SLOAD PUSH1 0x1 PUSH1 0x1 PUSH1 0x58 SHL SUB AND GT ISZERO PUSH2 0x9EF JUMPI PUSH1 0x40 MLOAD PUSH4 0x9C154DB9 PUSH1 0xE0 SHL DUP2 MSTORE PUSH1 0x4 ADD PUSH1 0x40 MLOAD DUP1 SWAP2 SUB SWAP1 REVERT JUMPDEST PUSH1 0x1 DUP2 ADD SLOAD PUSH1 0x1 PUSH1 0x1 PUSH1 0x58 SHL SUB DUP1 DUP3 AND DUP7 MUL SWAP2 PUSH0 SWAP2 PUSH1 0x1 PUSH1 0x58 SHL SWAP1 SWAP2 DIV AND DUP3 DUP2 PUSH2 0xA1B JUMPI PUSH2 0xA1B PUSH2 0x2667 JUMP JUMPDEST DIV SWAP1 POP DUP1 PUSH0 SUB PUSH2 0xA3E JUMPI PUSH1 0x40 MLOAD PUSH4 0x1F2A2005 PUSH1 0xE0 SHL DUP2 MSTORE PUSH1 0x4 ADD PUSH1 0x40 MLOAD DUP1 SWAP2 SUB SWAP1 REVERT JUMPDEST DUP3 SLOAD DUP2 GT ISZERO PUSH2 0xA6D JUMPI DUP3 SLOAD PUSH1 0x40 MLOAD PUSH4 0xD28CC4CD PUSH1 0xE0 SHL DUP2 MSTORE PUSH2 0x864 SWAP2 DUP4 SWAP2 PUSH1 0x4 ADD SWAP2 DUP3 MSTORE PUSH1 0x20 DUP3 ADD MSTORE PUSH1 0x40 ADD SWAP1 JUMP JUMPDEST DUP3 SLOAD DUP2 SWAP1 SUB DUP4 SSTORE PUSH2 0xA7E CALLER DUP8 PUSH2 0x1FB3 JUMP JUMPDEST PUSH1 0x40 MLOAD CALLER PUSH1 0x24 DUP3 ADD MSTORE PUSH1 0x44 DUP2 ADD DUP3 SWAP1 MSTORE PUSH0 SWAP1 DUP2 SWAP1 PUSH1 0x1 PUSH1 0x1 PUSH1 0xA0 SHL SUB DUP11 AND SWAP1 PUSH1 0x64 ADD PUSH1 0x40 DUP1 MLOAD PUSH1 0x1F NOT DUP2 DUP5 SUB ADD DUP2 MSTORE SWAP2 DUP2 MSTORE PUSH1 0x20 DUP3 ADD DUP1 MLOAD PUSH1 0x1 PUSH1 0x1 PUSH1 0xE0 SHL SUB AND PUSH4 0xA9059CBB PUSH1 0xE0 SHL OR SWAP1 MSTORE MLOAD PUSH2 0xAD5 SWAP2 SWAP1 PUSH2 0x26AE JUMP JUMPDEST PUSH0 PUSH1 0x40 MLOAD DUP1 DUP4 SUB DUP2 PUSH0 DUP7 GAS CALL SWAP2 POP POP RETURNDATASIZE DUP1 PUSH0 DUP2 EQ PUSH2 0xB0E JUMPI PUSH1 0x40 MLOAD SWAP2 POP PUSH1 0x1F NOT PUSH1 0x3F RETURNDATASIZE ADD AND DUP3 ADD PUSH1 0x40 MSTORE RETURNDATASIZE DUP3 MSTORE RETURNDATASIZE PUSH0 PUSH1 0x20 DUP5 ADD RETURNDATACOPY PUSH2 0xB13 JUMP JUMPDEST PUSH1 0x60 SWAP2 POP JUMPDEST POP SWAP2 POP SWAP2 POP DUP2 PUSH2 0xB39 JUMPI PUSH1 0x40 MLOAD PUSH4 0xC39BA1A9 PUSH1 0xE0 SHL DUP2 MSTORE PUSH1 0x4 DUP2 ADD DUP5 SWAP1 MSTORE PUSH1 0x24 ADD PUSH2 0x864 JUMP JUMPDEST PUSH1 0x1 DUP6 ADD SLOAD PUSH1 0x1 PUSH1 0xF8 SHL SWAP1 DIV PUSH1 0xFF AND PUSH0 SUB PUSH2 0xBB7 JUMPI DUP1 MLOAD PUSH1 0x20 EQ PUSH2 0xB7D JUMPI DUP1 MLOAD PUSH1 0x40 MLOAD PUSH4 0x1EE66D4F PUSH1 0xE2 SHL DUP2 MSTORE PUSH1 0x20 PUSH1 0x4 DUP3 ADD MSTORE PUSH1 0x24 DUP2 ADD SWAP2 SWAP1 SWAP2 MSTORE PUSH1 0x44 ADD PUSH2 0x864 JUMP JUMPDEST PUSH0 DUP2 DUP1 PUSH1 0x20 ADD SWAP1 MLOAD DUP2 ADD SWAP1 PUSH2 0xB92 SWAP2 SWAP1 PUSH2 0x26C9 JUMP JUMPDEST SWAP1 POP DUP1 PUSH2 0xBB5 JUMPI PUSH1 0x40 MLOAD PUSH4 0xC39BA1A9 PUSH1 0xE0 SHL DUP2 MSTORE PUSH1 0x4 DUP2 ADD DUP6 SWAP1 MSTORE PUSH1 0x24 ADD PUSH2 0x864 JUMP JUMPDEST POP JUMPDEST PUSH1 0x40 DUP1 MLOAD DUP10 DUP2 MSTORE PUSH1 0x20 DUP2 ADD DUP6 SWAP1 MSTORE PUSH1 0x1 PUSH1 0x1 PUSH1 0xA0 SHL SUB DUP12 AND SWAP2 CALLER SWAP2 PUSH32 0x69B4F7D081BA8C7A13DC0AD819546A7AFF7BD67D69D55C1824935FCE9F26178C SWAP2 ADD PUSH1 0x40 MLOAD DUP1 SWAP2 SUB SWAP1 LOG3 POP POP PUSH1 0xB DUP1 SLOAD PUSH1 0xFF NOT AND SWAP1 SSTORE SWAP7 SWAP6 POP POP POP POP POP POP JUMP JUMPDEST PUSH1 0x60 PUSH1 0x3 DUP1 SLOAD PUSH2 0xC22 SWAP1 PUSH2 0x26E8 JUMP JUMPDEST DUP1 PUSH1 0x1F ADD PUSH1 0x20 DUP1 SWAP2 DIV MUL PUSH1 0x20 ADD PUSH1 0x40 MLOAD SWAP1 DUP2 ADD PUSH1 0x40 MSTORE DUP1 SWAP3 SWAP2 SWAP1 DUP2 DUP2 MSTORE PUSH1 0x20 ADD DUP3 DUP1 SLOAD PUSH2 0xC4E SWAP1 PUSH2 0x26E8 JUMP JUMPDEST DUP1 ISZERO PUSH2 0xC99 JUMPI DUP1 PUSH1 0x1F LT PUSH2 0xC70 JUMPI PUSH2 0x100 DUP1 DUP4 SLOAD DIV MUL DUP4 MSTORE SWAP2 PUSH1 0x20 ADD SWAP2 PUSH2 0xC99 JUMP JUMPDEST DUP3 ADD SWAP2 SWAP1 PUSH0 MSTORE PUSH1 0x20 PUSH0 KECCAK256 SWAP1 JUMPDEST DUP2 SLOAD DUP2 MSTORE SWAP1 PUSH1 0x1 ADD SWAP1 PUSH1 0x20 ADD DUP1 DUP4 GT PUSH2 0xC7C JUMPI DUP3 SWAP1 SUB PUSH1 0x1F AND DUP3 ADD SWAP2 JUMPDEST POP POP POP POP POP SWAP1 POP SWAP1 JUMP JUMPDEST PUSH0 CALLER PUSH2 0xCB0 DUP2 DUP6 DUP6 PUSH2 0x1FEB JUMP JUMPDEST PUSH1 0x1 SWAP2 POP POP JUMPDEST SWAP3 SWAP2 POP POP JUMP JUMPDEST PUSH0 CALLER PUSH2 0xCC9 DUP6 DUP3 DUP6 PUSH2 0x1FFD JUMP JUMPDEST PUSH2 0xCD4 DUP6 DUP6 DUP6 PUSH2 0x2079 JUMP JUMPDEST POP PUSH1 0x1 SWAP5 SWAP4 POP POP POP POP JUMP JUMPDEST PUSH1 0x5 SLOAD PUSH0 SWAP1 PUSH1 0x1 SWAP1 PUSH1 0x1 PUSH1 0xA0 SHL SWAP1 DIV PUSH1 0xFF AND DUP1 PUSH2 0xD31 JUMPI POP PUSH1 0x6 PUSH0 DUP3 PUSH1 0x4 DUP2 GT ISZERO PUSH2 0xD0C JUMPI PUSH2 0xD0C PUSH2 0x261C JUMP JUMPDEST PUSH1 0x4 DUP2 GT ISZERO PUSH2 0xD1D JUMPI PUSH2 0xD1D PUSH2 0x261C JUMP JUMPDEST DUP2 MSTORE PUSH1 0x20 DUP2 ADD SWAP2 SWAP1 SWAP2 MSTORE PUSH1 0x40 ADD PUSH0 KECCAK256 SLOAD PUSH1 0xFF AND JUMPDEST ISZERO PUSH2 0xD4F JUMPI PUSH1 0x40 MLOAD PUSH4 0x79915593 PUSH1 0xE1 SHL DUP2 MSTORE PUSH1 0x4 ADD PUSH1 0x40 MLOAD DUP1 SWAP2 SUB SWAP1 REVERT JUMPDEST PUSH1 0xB SLOAD PUSH1 0xFF AND ISZERO PUSH2 0xD72 JUMPI PUSH1 0x40 MLOAD PUSH3 0x461BCD PUSH1 0xE5 SHL DUP2 MSTORE PUSH1 0x4 ADD PUSH2 0x864 SWAP1 PUSH2 0x2630 JUMP JUMPDEST PUSH1 0xB DUP1 SLOAD PUSH1 0xFF NOT AND PUSH1 0x1 SWAP1 DUP2 OR SWAP1 SWAP2 SSTORE CALLER PUSH0 SWAP1 DUP2 MSTORE PUSH1 0xA PUSH1 0x20 MSTORE PUSH1 0x40 DUP2 KECCAK256 SWAP2 DUP3 ADD SLOAD SWAP1 DUP2 SWAP1 SUB PUSH2 0xDB5 JUMPI PUSH1 0x40 MLOAD PUSH4 0x16F68E4B PUSH1 0xE0 SHL DUP2 MSTORE PUSH1 0x4 ADD PUSH1 0x40 MLOAD DUP1 SWAP2 SUB SWAP1 REVERT JUMPDEST PUSH1 0x2 DUP3 ADD SLOAD PUSH1 0x1 PUSH1 0xC0 SHL SWAP1 DIV PUSH1 0x1 PUSH1 0x1 PUSH1 0x40 SHL SUB AND PUSH0 DUP2 SWAP1 SUB PUSH2 0xDD6 JUMPI POP PUSH1 0x1E JUMPDEST PUSH1 0x2 DUP4 ADD SLOAD PUSH1 0x1 PUSH1 0x80 SHL SWAP1 DIV PUSH1 0x1 PUSH1 0x1 PUSH1 0x40 SHL SUB SWAP1 DUP2 AND PUSH3 0x15180 DUP4 DUP2 MUL DUP3 ADD SWAP1 SWAP3 AND SWAP2 TIMESTAMP SWAP2 DUP3 SUB DIV SWAP1 DUP3 GT ISZERO PUSH2 0xE32 JUMPI PUSH1 0x40 MLOAD PUSH4 0x20485349 PUSH1 0xE0 SHL DUP2 MSTORE PUSH1 0x1 PUSH1 0x1 PUSH1 0x40 SHL SUB DUP5 AND PUSH1 0x4 DUP3 ADD MSTORE PUSH1 0x24 DUP2 ADD DUP3 SWAP1 MSTORE PUSH1 0x44 ADD PUSH2 0x864 JUMP JUMPDEST PUSH0 DUP5 PUSH1 0x3C PUSH1 0x1 PUSH1 0x1 PUSH1 0x40 SHL SUB DUP7 AND LT ISZERO PUSH2 0xE98 JUMPI PUSH1 0x1 PUSH1 0x1 PUSH1 0x40 SHL SUB PUSH1 0x3C DUP7 SWAP1 SUB AND PUSH1 0x2 DUP2 MUL DUP1 PUSH0 NOT DUP2 PUSH2 0xE68 JUMPI PUSH2 0xE68 PUSH2 0x2667 JUMP JUMPDEST DIV DUP9 GT ISZERO PUSH2 0xE89 JUMPI PUSH1 0x40 MLOAD PUSH4 0x9C154DB9 PUSH1 0xE0 SHL DUP2 MSTORE PUSH1 0x4 ADD PUSH1 0x40 MLOAD DUP1 SWAP2 SUB SWAP1 REVERT JUMPDEST PUSH2 0x3E8 SWAP1 DUP9 MUL DIV SWAP3 POP POP POP DUP1 DUP6 SUB JUMPDEST PUSH0 PUSH1 0x1 DUP9 ADD DUP2 SWAP1 SSTORE PUSH1 0x2 DUP9 ADD DUP1 SLOAD PUSH1 0x1 PUSH1 0x1 PUSH1 0x80 SHL SUB AND SWAP1 SSTORE PUSH1 0x8 DUP1 SLOAD DUP9 SWAP1 SUB SWAP1 SSTORE DUP8 SLOAD SWAP1 SUB PUSH2 0xED6 JUMPI PUSH1 0x2 DUP8 ADD DUP1 SLOAD PUSH8 0xFFFFFFFFFFFFFFFF NOT AND SWAP1 SSTORE JUMPDEST PUSH1 0x40 MLOAD PUSH4 0xA9059CBB PUSH1 0xE0 SHL DUP2 MSTORE CALLER PUSH1 0x4 DUP3 ADD MSTORE PUSH1 0x24 DUP2 ADD DUP3 SWAP1 MSTORE PUSH32 0x0 PUSH1 0x1 PUSH1 0x1 PUSH1 0xA0 SHL SUB AND SWAP1 PUSH4 0xA9059CBB SWAP1 PUSH1 0x44 ADD PUSH1 0x20 PUSH1 0x40 MLOAD DUP1 DUP4 SUB DUP2 PUSH0 DUP8 GAS CALL ISZERO DUP1 ISZERO PUSH2 0xF40 JUMPI RETURNDATASIZE PUSH0 DUP1 RETURNDATACOPY RETURNDATASIZE PUSH0 REVERT JUMPDEST POP POP POP POP PUSH1 0x40 MLOAD RETURNDATASIZE PUSH1 0x1F NOT PUSH1 0x1F DUP3 ADD AND DUP3 ADD DUP1 PUSH1 0x40 MSTORE POP DUP2 ADD SWAP1 PUSH2 0xF64 SWAP2 SWAP1 PUSH2 0x26C9 JUMP JUMPDEST PUSH2 0xF84 JUMPI PUSH1 0x40 MLOAD PUSH4 0xC39BA1A9 PUSH1 0xE0 SHL DUP2 MSTORE PUSH1 0x4 DUP2 ADD DUP3 SWAP1 MSTORE PUSH1 0x24 ADD PUSH2 0x864 JUMP JUMPDEST PUSH1 0x40 DUP1 MLOAD DUP8 DUP2 MSTORE PUSH1 0x20 DUP2 ADD DUP5 SWAP1 MSTORE CALLER SWAP2 PUSH32 0x7FC4727E062E336010F2C282598EF5F14FACB3DE68CF8195C2F23E1454B2B74E SWAP2 ADD PUSH1 0x40 MLOAD DUP1 SWAP2 SUB SWAP1 LOG2 PUSH1 0x1 SWAP9 POP POP POP POP POP POP POP POP POP PUSH1 0xB DUP1 SLOAD PUSH1 0xFF NOT AND SWAP1 SSTORE SWAP1 JUMP JUMPDEST PUSH1 0x5 SLOAD PUSH1 0x1 PUSH1 0x1 PUSH1 0xA0 SHL SUB AND CALLER EQ PUSH2 0x1003 JUMPI PUSH1 0x40 MLOAD PUSH4 0xEA8E4EB5 PUSH1 0xE0 SHL DUP2 MSTORE PUSH1 0x4 ADD PUSH1 0x40 MLOAD DUP1 SWAP2 SUB SWAP1 REVERT JUMPDEST PUSH1 0x5 DUP1 SLOAD PUSH1 0xFF PUSH1 0xA0 SHL NOT AND SWAP1 SSTORE PUSH1 0x40 MLOAD CALLER SWAP1 PUSH32 0x5DB9EE0A495BF2E6FF9C91A7834C1BA4FDD244A5E8AA4E537BD38AEAE4B073AA SWAP1 PUSH0 SWAP1 LOG2 JUMP JUMPDEST PUSH1 0x5 SLOAD PUSH1 0x4 SWAP1 PUSH1 0x1 PUSH1 0xA0 SHL SWAP1 DIV PUSH1 0xFF AND DUP1 PUSH2 0x108C JUMPI POP PUSH1 0x6 PUSH0 DUP3 PUSH1 0x4 DUP2 GT ISZERO PUSH2 0x1067 JUMPI PUSH2 0x1067 PUSH2 0x261C JUMP JUMPDEST PUSH1 0x4 DUP2 GT ISZERO PUSH2 0x1078 JUMPI PUSH2 0x1078 PUSH2 0x261C JUMP JUMPDEST DUP2 MSTORE PUSH1 0x20 DUP2 ADD SWAP2 SWAP1 SWAP2 MSTORE PUSH1 0x40 ADD PUSH0 KECCAK256 SLOAD PUSH1 0xFF AND JUMPDEST ISZERO PUSH2 0x10AA JUMPI PUSH1 0x40 MLOAD PUSH4 0x79915593 PUSH1 0xE1 SHL DUP2 MSTORE PUSH1 0x4 ADD PUSH1 0x40 MLOAD DUP1 SWAP2 SUB SWAP1 REVERT JUMPDEST PUSH0 DUP3 GT PUSH2 0x10CA JUMPI PUSH1 0x40 MLOAD PUSH4 0x1F2A2005 PUSH1 0xE0 SHL DUP2 MSTORE PUSH1 0x4 ADD PUSH1 0x40 MLOAD DUP1 SWAP2 SUB SWAP1 REVERT JUMPDEST PUSH2 0x10D4 CALLER DUP4 PUSH2 0x1FB3 JUMP JUMPDEST PUSH1 0x40 MLOAD DUP3 DUP2 MSTORE CALLER SWAP1 PUSH32 0x919F7E2092FFCC9D09F599BE18D8152860B0C054DF788A33BC549CDD9D0F15B1 SWAP1 PUSH1 0x20 ADD PUSH1 0x40 MLOAD DUP1 SWAP2 SUB SWAP1 LOG2 POP POP JUMP JUMPDEST PUSH1 0x5 SLOAD PUSH0 SWAP1 PUSH1 0x1 SWAP1 PUSH1 0x1 PUSH1 0xA0 SHL SWAP1 DIV PUSH1 0xFF AND DUP1 PUSH2 0x115F JUMPI POP PUSH1 0x6 PUSH0 DUP3 PUSH1 0x4 DUP2 GT ISZERO PUSH2 0x113A JUMPI PUSH2 0x113A PUSH2 0x261C JUMP JUMPDEST PUSH1 0x4 DUP2 GT ISZERO PUSH2 0x114B JUMPI PUSH2 0x114B PUSH2 0x261C JUMP JUMPDEST DUP2 MSTORE PUSH1 0x20 DUP2 ADD SWAP2 SWAP1 SWAP2 MSTORE PUSH1 0x40 ADD PUSH0 KECCAK256 SLOAD PUSH1 0xFF AND JUMPDEST ISZERO PUSH2 0x117D JUMPI PUSH1 0x40 MLOAD PUSH4 0x79915593 PUSH1 0xE1 SHL DUP2 MSTORE PUSH1 0x4 ADD PUSH1 0x40 MLOAD DUP1 SWAP2 SUB SWAP1 REVERT JUMPDEST PUSH1 0xB SLOAD PUSH1 0xFF AND ISZERO PUSH2 0x11A0 JUMPI PUSH1 0x40 MLOAD PUSH3 0x461BCD PUSH1 0xE5 SHL DUP2 MSTORE PUSH1 0x4 ADD PUSH2 0x864 SWAP1 PUSH2 0x2630 JUMP JUMPDEST PUSH1 0xB DUP1 SLOAD PUSH1 0xFF NOT AND PUSH1 0x1 OR SWAP1 SSTORE CALLER PUSH0 SWAP1 DUP2 MSTORE PUSH1 0xA PUSH1 0x20 MSTORE PUSH1 0x40 DUP2 KECCAK256 SWAP1 DUP6 SWAP1 SUB PUSH2 0x11DC JUMPI PUSH1 0x40 MLOAD PUSH4 0x1F2A2005 PUSH1 0xE0 SHL DUP2 MSTORE PUSH1 0x4 ADD PUSH1 0x40 MLOAD DUP1 SWAP2 SUB SWAP1 REVERT JUMPDEST DUP1 SLOAD DUP6 GT ISZERO PUSH2 0x120B JUMPI DUP1 SLOAD PUSH1 0x40 MLOAD PUSH4 0xCF479181 PUSH1 0xE0 SHL DUP2 MSTORE PUSH2 0x864 SWAP2 DUP8 SWAP2 PUSH1 0x4 ADD SWAP2 DUP3 MSTORE PUSH1 0x20 DUP3 ADD MSTORE PUSH1 0x40 ADD SWAP1 JUMP JUMPDEST PUSH1 0xF DUP5 PUSH1 0x1 PUSH1 0x1 PUSH1 0x40 SHL SUB AND LT ISZERO PUSH2 0x1226 JUMPI PUSH1 0xF SWAP4 POP PUSH2 0x123D JUMP JUMPDEST PUSH1 0x3C DUP5 PUSH1 0x1 PUSH1 0x1 PUSH1 0x40 SHL SUB AND GT ISZERO PUSH2 0x123D JUMPI PUSH1 0x3C SWAP4 POP JUMPDEST PUSH0 PUSH2 0x1247 CALLER PUSH2 0x195C JUMP JUMPDEST SWAP1 POP PUSH2 0x1254 DUP7 PUSH0 NOT PUSH2 0x2720 JUMP JUMPDEST DUP3 PUSH1 0x1 ADD SLOAD GT ISZERO PUSH2 0x1278 JUMPI PUSH1 0x40 MLOAD PUSH4 0x9C154DB9 PUSH1 0xE0 SHL DUP2 MSTORE PUSH1 0x4 ADD PUSH1 0x40 MLOAD DUP1 SWAP2 SUB SWAP1 REVERT JUMPDEST PUSH2 0x1283 DUP7 PUSH0 NOT PUSH2 0x2720 JUMP JUMPDEST PUSH1 0x8 SLOAD GT ISZERO PUSH2 0x12A5 JUMPI PUSH1 0x40 MLOAD PUSH4 0x9C154DB9 PUSH1 0xE0 SHL DUP2 MSTORE PUSH1 0x4 ADD PUSH1 0x40 MLOAD DUP1 SWAP2 SUB SWAP1 REVERT JUMPDEST DUP2 SLOAD DUP7 SWAP1 SUB DUP3 SSTORE PUSH1 0x1 DUP3 ADD DUP1 SLOAD DUP8 ADD SWAP1 SSTORE PUSH1 0x7 DUP1 SLOAD DUP8 SWAP1 SUB SWAP1 SSTORE PUSH1 0x8 DUP1 SLOAD DUP8 ADD SWAP1 SSTORE PUSH1 0x2 DUP3 ADD DUP1 SLOAD PUSH1 0x1 PUSH1 0x1 PUSH1 0x80 SHL SUB AND PUSH1 0x1 PUSH1 0x80 SHL TIMESTAMP PUSH1 0x1 PUSH1 0x1 PUSH1 0x40 SHL SUB SWAP1 DUP2 AND SWAP2 DUP3 MUL PUSH1 0x1 PUSH1 0x1 PUSH1 0xC0 SHL SUB AND SWAP3 SWAP1 SWAP3 OR PUSH1 0x1 PUSH1 0xC0 SHL SWAP3 DUP10 AND SWAP3 SWAP1 SWAP3 MUL SWAP2 SWAP1 SWAP2 OR PUSH8 0xFFFFFFFFFFFFFFFF PUSH1 0x40 SHL NOT AND PUSH1 0x1 PUSH1 0x40 SHL SWAP2 SWAP1 SWAP2 MUL OR SWAP1 SSTORE DUP1 ISZERO PUSH2 0x1367 JUMPI PUSH2 0x1331 CALLER DUP3 PUSH2 0x20D6 JUMP JUMPDEST PUSH1 0x40 MLOAD DUP2 DUP2 MSTORE CALLER SWAP1 PUSH32 0x106F923F993C2149D49B4255FF723ACAFA1F2D94393F561D3EDA32AE348F7241 SWAP1 PUSH1 0x20 ADD PUSH1 0x40 MLOAD DUP1 SWAP2 SUB SWAP1 LOG2 JUMPDEST PUSH1 0x40 DUP1 MLOAD DUP8 DUP2 MSTORE PUSH1 0x1 PUSH1 0x1 PUSH1 0x40 SHL SUB DUP8 AND PUSH1 0x20 DUP3 ADD MSTORE CALLER SWAP2 PUSH32 0x21020437C0E4B58B34BD7AC1F1CEF55E7820D1BCD93824CEB273CAD96EEA704C SWAP2 ADD PUSH1 0x40 MLOAD DUP1 SWAP2 SUB SWAP1 LOG2 POP POP PUSH1 0xB DUP1 SLOAD PUSH1 0xFF NOT AND SWAP1 SSTORE POP PUSH1 0x1 SWAP4 SWAP3 POP POP POP JUMP JUMPDEST PUSH0 DUP1 PUSH2 0x13D6 PUSH8 0xDE0B6B3A7640000 PUSH2 0x3E8 PUSH2 0x2733 JUMP JUMPDEST PUSH2 0x13E0 SWAP1 DUP5 PUSH2 0x268F JUMP JUMPDEST SWAP1 POP PUSH1 0x64 DUP2 LT PUSH2 0x1417 JUMPI PUSH1 0xC8 DUP2 GT ISZERO PUSH2 0x1411 JUMPI PUSH1 0x2 PUSH2 0x1400 PUSH1 0xC8 DUP4 PUSH2 0x2720 JUMP JUMPDEST PUSH2 0x140C SWAP2 SHR PUSH1 0xC8 PUSH2 0x274A JUMP JUMPDEST PUSH2 0x141A JUMP JUMPDEST DUP1 PUSH2 0x141A JUMP JUMPDEST PUSH1 0x64 JUMPDEST SWAP1 POP PUSH2 0x1F4 DUP2 GT PUSH2 0x142B JUMPI DUP1 PUSH2 0x142F JUMP JUMPDEST PUSH2 0x1F4 JUMPDEST SWAP4 SWAP3 POP POP POP JUMP JUMPDEST PUSH1 0x5 SLOAD PUSH1 0x1 PUSH1 0x1 PUSH1 0xA0 SHL SUB AND CALLER EQ PUSH2 0x1461 JUMPI PUSH1 0x40 MLOAD PUSH4 0xEA8E4EB5 PUSH1 0xE0 SHL DUP2 MSTORE PUSH1 0x4 ADD PUSH1 0x40 MLOAD DUP1 SWAP2 SUB SWAP1 REVERT JUMPDEST PUSH1 0x5 DUP1 SLOAD PUSH1 0x1 PUSH1 0x1 PUSH1 0xA0 SHL SUB NOT AND SWAP1 SSTORE JUMP JUMPDEST PUSH1 0x5 SLOAD PUSH1 0x1 PUSH1 0x1 PUSH1 0xA0 SHL SUB AND CALLER EQ PUSH2 0x149E JUMPI PUSH1 0x40 MLOAD PUSH4 0xEA8E4EB5 PUSH1 0xE0 SHL DUP2 MSTORE PUSH1 0x4 ADD PUSH1 0x40 MLOAD DUP1 SWAP2 SUB SWAP1 REVERT JUMPDEST PUSH0 PUSH1 0x6 PUSH0 DUP4 PUSH1 0x4 DUP2 GT ISZERO PUSH2 0x14B4 JUMPI PUSH2 0x14B4 PUSH2 0x261C JUMP JUMPDEST PUSH1 0x4 DUP2 GT ISZERO PUSH2 0x14C5 JUMPI PUSH2 0x14C5 PUSH2 0x261C JUMP JUMPDEST DUP2 MSTORE PUSH1 0x20 DUP2 ADD SWAP2 SWAP1 SWAP2 MSTORE PUSH1 0x40 ADD PUSH0 KECCAK256 DUP1 SLOAD PUSH1 0xFF NOT AND SWAP2 ISZERO ISZERO SWAP2 SWAP1 SWAP2 OR SWAP1 SSTORE CALLER DUP2 PUSH1 0x4 DUP2 GT ISZERO PUSH2 0x14F6 JUMPI PUSH2 0x14F6 PUSH2 0x261C JUMP JUMPDEST PUSH1 0x40 MLOAD PUSH32 0x9C8D2BE3EFAEC41BA9A0EAFBF0556DA8F756AD9C594DFA3BC2986BC0D8E1FE89 SWAP1 PUSH0 SWAP1 LOG3 POP JUMP JUMPDEST PUSH1 0x5 SLOAD PUSH1 0x1 PUSH1 0x1 PUSH1 0xA0 SHL SUB AND CALLER EQ PUSH2 0x154C JUMPI PUSH1 0x40 MLOAD PUSH4 0xEA8E4EB5 PUSH1 0xE0 SHL DUP2 MSTORE PUSH1 0x4 ADD PUSH1 0x40 MLOAD DUP1 SWAP2 SUB SWAP1 REVERT JUMPDEST PUSH1 0x5 DUP1 SLOAD PUSH1 0xFF PUSH1 0xA0 SHL NOT AND PUSH1 0x1 PUSH1 0xA0 SHL OR SWAP1 SSTORE PUSH1 0x40 MLOAD CALLER SWAP1 PUSH32 0x62E78CEA01BEE320CD4E420270B5EA74000D11B0C9F74754EBDBFC544B05A258 SWAP1 PUSH0 SWAP1 LOG2 JUMP JUMPDEST PUSH1 0x60 PUSH1 0x4 DUP1 SLOAD PUSH2 0xC22 SWAP1 PUSH2 0x26E8 JUMP JUMPDEST PUSH1 0x5 SLOAD PUSH0 SWAP1 PUSH1 0x1 PUSH1 0x1 PUSH1 0xA0 SHL SUB AND CALLER EQ PUSH2 0x15C7 JUMPI PUSH1 0x40 MLOAD PUSH4 0xEA8E4EB5 PUSH1 0xE0 SHL DUP2 MSTORE PUSH1 0x4 ADD PUSH1 0x40 MLOAD DUP1 SWAP2 SUB SWAP1 REVERT JUMPDEST PUSH1 0x1 PUSH1 0x1 PUSH1 0xA0 SHL SUB DUP7 AND PUSH2 0x15EE JUMPI PUSH1 0x40 MLOAD PUSH4 0xE6C4247B PUSH1 0xE0 SHL DUP2 MSTORE PUSH1 0x4 ADD PUSH1 0x40 MLOAD DUP1 SWAP2 SUB SWAP1 REVERT JUMPDEST PUSH0 DUP5 GT PUSH2 0x160E JUMPI PUSH1 0x40 MLOAD PUSH4 0x1F2A2005 PUSH1 0xE0 SHL DUP2 MSTORE PUSH1 0x4 ADD PUSH1 0x40 MLOAD DUP1 SWAP2 SUB SWAP1 REVERT JUMPDEST PUSH2 0x1618 DUP7 DUP6 PUSH2 0x20D6 JUMP JUMPDEST DUP5 DUP7 PUSH1 0x1 PUSH1 0x1 PUSH1 0xA0 SHL SUB AND PUSH32 0xD885F943ED8A5B3D2DDDA34156E3EFC8E3024608CFE7BD3C0E706939DDCAA87E DUP7 DUP7 DUP7 PUSH1 0x40 MLOAD PUSH2 0x1656 SWAP4 SWAP3 SWAP2 SWAP1 PUSH2 0x275D JUMP JUMPDEST PUSH1 0x40 MLOAD DUP1 SWAP2 SUB SWAP1 LOG3 POP PUSH1 0x1 SWAP6 SWAP5 POP POP POP POP POP JUMP JUMPDEST PUSH1 0x5 SLOAD PUSH0 SWAP1 DUP2 SWAP1 PUSH1 0x1 PUSH1 0xA0 SHL SWAP1 DIV PUSH1 0xFF AND DUP1 PUSH2 0x16BB JUMPI POP PUSH1 0x6 PUSH0 DUP3 PUSH1 0x4 DUP2 GT ISZERO PUSH2 0x1696 JUMPI PUSH2 0x1696 PUSH2 0x261C JUMP JUMPDEST PUSH1 0x4 DUP2 GT ISZERO PUSH2 0x16A7 JUMPI PUSH2 0x16A7 PUSH2 0x261C JUMP JUMPDEST DUP2 MSTORE PUSH1 0x20 DUP2 ADD SWAP2 SWAP1 SWAP2 MSTORE PUSH1 0x40 ADD PUSH0 KECCAK256 SLOAD PUSH1 0xFF AND JUMPDEST ISZERO PUSH2 0x16D9 JUMPI PUSH1 0x40 MLOAD PUSH4 0x79915593 PUSH1 0xE1 SHL DUP2 MSTORE PUSH1 0x4 ADD PUSH1 0x40 MLOAD DUP1 SWAP2 SUB SWAP1 REVERT JUMPDEST PUSH1 0xB SLOAD PUSH1 0xFF AND ISZERO PUSH2 0x16FC JUMPI PUSH1 0x40 MLOAD PUSH3 0x461BCD PUSH1 0xE5 SHL DUP2 MSTORE PUSH1 0x4 ADD PUSH2 0x864 SWAP1 PUSH2 0x2630 JUMP JUMPDEST PUSH1 0xB DUP1 SLOAD PUSH1 0xFF NOT AND PUSH1 0x1 OR SWAP1 SSTORE PUSH0 DUP4 SWAP1 SUB PUSH2 0x172A JUMPI PUSH1 0x40 MLOAD PUSH4 0x1F2A2005 PUSH1 0xE0 SHL DUP2 MSTORE PUSH1 0x4 ADD PUSH1 0x40 MLOAD DUP1 SWAP2 SUB SWAP1 REVERT JUMPDEST CALLER PUSH0 DUP2 DUP2 MSTORE PUSH1 0xA PUSH1 0x20 MSTORE PUSH1 0x40 DUP2 KECCAK256 SWAP2 PUSH2 0x1742 SWAP1 PUSH2 0x195C JUMP JUMPDEST SWAP1 POP PUSH2 0x1759 DUP6 PUSH11 0x108B2A2C28029094000000 PUSH2 0x2720 JUMP JUMPDEST DUP3 SLOAD GT ISZERO PUSH2 0x177A JUMPI PUSH1 0x40 MLOAD PUSH4 0x5190D69 PUSH1 0xE5 SHL DUP2 MSTORE PUSH1 0x4 ADD PUSH1 0x40 MLOAD DUP1 SWAP2 SUB SWAP1 REVERT JUMPDEST PUSH2 0x1785 DUP6 PUSH0 NOT PUSH2 0x2720 JUMP JUMPDEST PUSH1 0x7 SLOAD GT ISZERO PUSH2 0x17A7 JUMPI PUSH1 0x40 MLOAD PUSH4 0x9C154DB9 PUSH1 0xE0 SHL DUP2 MSTORE PUSH1 0x4 ADD PUSH1 0x40 MLOAD DUP1 SWAP2 SUB SWAP1 REVERT JUMPDEST PUSH1 0x40 MLOAD PUSH4 0x23B872DD PUSH1 0xE0 SHL DUP2 MSTORE CALLER PUSH1 0x4 DUP3 ADD MSTORE ADDRESS PUSH1 0x24 DUP3 ADD MSTORE PUSH1 0x44 DUP2 ADD DUP7 SWAP1 MSTORE PUSH32 0x0 PUSH1 0x1 PUSH1 0x1 PUSH1 0xA0 SHL SUB AND SWAP1 PUSH4 0x23B872DD SWAP1 PUSH1 0x64 ADD PUSH1 0x20 PUSH1 0x40 MLOAD DUP1 DUP4 SUB DUP2 PUSH0 DUP8 GAS CALL ISZERO DUP1 ISZERO PUSH2 0x1817 JUMPI RETURNDATASIZE PUSH0 DUP1 RETURNDATACOPY RETURNDATASIZE PUSH0 REVERT JUMPDEST POP POP POP POP PUSH1 0x40 MLOAD RETURNDATASIZE PUSH1 0x1F NOT PUSH1 0x1F DUP3 ADD AND DUP3 ADD DUP1 PUSH1 0x40 MSTORE POP DUP2 ADD SWAP1 PUSH2 0x183B SWAP2 SWAP1 PUSH2 0x26C9 JUMP JUMPDEST PUSH2 0x185B JUMPI PUSH1 0x40 MLOAD PUSH4 0xC39BA1A9 PUSH1 0xE0 SHL DUP2 MSTORE PUSH1 0x4 DUP2 ADD DUP7 SWAP1 MSTORE PUSH1 0x24 ADD PUSH2 0x864 JUMP JUMPDEST PUSH1 0x7 DUP1 SLOAD DUP7 ADD SWAP1 SSTORE DUP2 SLOAD DUP6 ADD DUP3 SSTORE PUSH1 0x2 DUP3 ADD DUP1 SLOAD PUSH1 0x1 PUSH1 0x1 PUSH1 0x40 SHL SUB TIMESTAMP DUP2 AND PUSH1 0x1 PUSH1 0x40 SHL MUL PUSH8 0xFFFFFFFFFFFFFFFF PUSH1 0x40 SHL NOT DUP4 AND DUP2 OR SWAP1 SWAP4 SSTORE SWAP2 DUP3 AND SWAP2 AND OR PUSH0 SUB PUSH2 0x18BF JUMPI PUSH1 0x2 DUP3 ADD DUP1 SLOAD PUSH8 0xFFFFFFFFFFFFFFFF NOT AND TIMESTAMP PUSH1 0x1 PUSH1 0x1 PUSH1 0x40 SHL SUB AND OR SWAP1 SSTORE JUMPDEST DUP1 ISZERO PUSH2 0x1905 JUMPI PUSH2 0x18CF CALLER DUP3 PUSH2 0x20D6 JUMP JUMPDEST PUSH1 0x40 MLOAD DUP2 DUP2 MSTORE CALLER SWAP1 PUSH32 0x106F923F993C2149D49B4255FF723ACAFA1F2D94393F561D3EDA32AE348F7241 SWAP1 PUSH1 0x20 ADD PUSH1 0x40 MLOAD DUP1 SWAP2 SUB SWAP1 LOG2 JUMPDEST PUSH1 0x40 MLOAD DUP6 DUP2 MSTORE CALLER SWAP1 PUSH32 0x9E71BC8EEA02A63969F509818F2DAFB9254532904319F9DBDA79B67BD34A5F3D SWAP1 PUSH1 0x20 ADD PUSH1 0x40 MLOAD DUP1 SWAP2 SUB SWAP1 LOG2 POP POP PUSH1 0xB DUP1 SLOAD PUSH1 0xFF NOT AND SWAP1 SSTORE POP PUSH1 0x1 SWAP3 SWAP2 POP POP JUMP JUMPDEST PUSH0 CALLER PUSH2 0xCB0 DUP2 DUP6 DUP6 PUSH2 0x2079 JUMP JUMPDEST PUSH1 0x1 PUSH1 0x1 PUSH1 0xA0 SHL SUB DUP2 AND PUSH0 SWAP1 DUP2 MSTORE PUSH1 0xA PUSH1 0x20 SWAP1 DUP2 MSTORE PUSH1 0x40 DUP1 DUP4 KECCAK256 DUP2 MLOAD PUSH1 0xC0 DUP2 ADD DUP4 MSTORE DUP2 SLOAD DUP1 DUP3 MSTORE PUSH1 0x1 DUP4 ADD SLOAD SWAP5 DUP3 ADD SWAP5 SWAP1 SWAP5 MSTORE PUSH1 0x2 SWAP1 SWAP2 ADD SLOAD PUSH1 0x1 PUSH1 0x1 PUSH1 0x40 SHL SUB DUP1 DUP3 AND SWAP4 DUP4 ADD SWAP4 SWAP1 SWAP4 MSTORE PUSH1 0x1 PUSH1 0x40 SHL DUP2 DIV DUP4 AND PUSH1 0x60 DUP4 ADD MSTORE PUSH1 0x1 PUSH1 0x80 SHL DUP2 DIV DUP4 AND PUSH1 0x80 DUP4 ADD MSTORE PUSH1 0x1 PUSH1 0xC0 SHL SWAP1 DIV SWAP1 SWAP2 AND PUSH1 0xA0 DUP3 ADD MSTORE SWAP1 DUP3 SUB PUSH2 0x19E1 JUMPI POP PUSH0 SWAP3 SWAP2 POP POP JUMP JUMPDEST PUSH0 DUP2 PUSH1 0x60 ADD MLOAD PUSH1 0x1 PUSH1 0x1 PUSH1 0x40 SHL SUB AND TIMESTAMP PUSH2 0x19FB SWAP2 SWAP1 PUSH2 0x2720 JUMP JUMPDEST SWAP1 POP PUSH3 0x76A700 DUP1 DUP3 GT ISZERO PUSH2 0x1A0D JUMPI DUP1 SWAP2 POP JUMPDEST PUSH0 PUSH2 0x1A1A DUP5 PUSH0 ADD MLOAD PUSH2 0x13C0 JUMP JUMPDEST DUP5 MLOAD SWAP1 SWAP2 POP DUP4 PUSH2 0x1A2B DUP4 PUSH0 NOT PUSH2 0x268F JUMP JUMPDEST PUSH2 0x1A35 SWAP2 SWAP1 PUSH2 0x268F JUMP JUMPDEST GT PUSH2 0x1A53 JUMPI PUSH1 0x40 MLOAD PUSH4 0x9C154DB9 PUSH1 0xE0 SHL DUP2 MSTORE PUSH1 0x4 ADD PUSH1 0x40 MLOAD DUP1 SWAP2 SUB SWAP1 REVERT JUMPDEST DUP4 MLOAD PUSH3 0x37B1D0 SWAP1 PUSH3 0x15180 SWAP1 DUP6 MUL DUP4 MUL DIV DIV SWAP7 SWAP6 POP POP POP POP POP POP JUMP JUMPDEST PUSH1 0x5 SLOAD PUSH0 SWAP1 PUSH1 0x2 SWAP1 PUSH1 0x1 PUSH1 0xA0 SHL SWAP1 DIV PUSH1 0xFF AND DUP1 PUSH2 0x1AC1 JUMPI POP PUSH1 0x6 PUSH0 DUP3 PUSH1 0x4 DUP2 GT ISZERO PUSH2 0x1A9C JUMPI PUSH2 0x1A9C PUSH2 0x261C JUMP JUMPDEST PUSH1 0x4 DUP2 GT ISZERO PUSH2 0x1AAD JUMPI PUSH2 0x1AAD PUSH2 0x261C JUMP JUMPDEST DUP2 MSTORE PUSH1 0x20 DUP2 ADD SWAP2 SWAP1 SWAP2 MSTORE PUSH1 0x40 ADD PUSH0 KECCAK256 SLOAD PUSH1 0xFF AND JUMPDEST ISZERO PUSH2 0x1ADF JUMPI PUSH1 0x40 MLOAD PUSH4 0x79915593 PUSH1 0xE1 SHL DUP2 MSTORE PUSH1 0x4 ADD PUSH1 0x40 MLOAD DUP1 SWAP2 SUB SWAP1 REVERT JUMPDEST PUSH1 0xB SLOAD PUSH1 0xFF AND ISZERO PUSH2 0x1B02 JUMPI PUSH1 0x40 MLOAD PUSH3 0x461BCD PUSH1 0xE5 SHL DUP2 MSTORE PUSH1 0x4 ADD PUSH2 0x864 SWAP1 PUSH2 0x2630 JUMP JUMPDEST PUSH1 0xB DUP1 SLOAD PUSH1 0xFF NOT AND PUSH1 0x1 OR SWAP1 SSTORE CALLER PUSH0 DUP2 DUP2 MSTORE PUSH1 0xA PUSH1 0x20 MSTORE PUSH1 0x40 DUP2 KECCAK256 SWAP2 PUSH2 0x1B27 SWAP1 PUSH2 0x195C JUMP JUMPDEST SWAP1 POP DUP1 PUSH0 SUB PUSH2 0x1B4B JUMPI PUSH1 0x40 MLOAD PUSH4 0x9D1B88F PUSH1 0xE0 SHL DUP2 MSTORE CALLER PUSH1 0x4 DUP3 ADD MSTORE PUSH1 0x24 ADD PUSH2 0x864 JUMP JUMPDEST PUSH1 0x2 DUP3 ADD DUP1 SLOAD PUSH8 0xFFFFFFFFFFFFFFFF PUSH1 0x40 SHL NOT AND PUSH1 0x1 PUSH1 0x40 SHL TIMESTAMP PUSH1 0x1 PUSH1 0x1 PUSH1 0x40 SHL SUB AND MUL OR SWAP1 SSTORE PUSH2 0x1B7C CALLER DUP3 PUSH2 0x20D6 JUMP JUMPDEST PUSH1 0x40 MLOAD DUP2 DUP2 MSTORE CALLER SWAP1 PUSH32 0x106F923F993C2149D49B4255FF723ACAFA1F2D94393F561D3EDA32AE348F7241 SWAP1 PUSH1 0x20 ADD PUSH1 0x40 MLOAD DUP1 SWAP2 SUB SWAP1 LOG2 PUSH1 0x1 SWAP4 POP POP POP POP PUSH1 0xB DUP1 SLOAD PUSH1 0xFF NOT AND SWAP1 SSTORE SWAP1 JUMP JUMPDEST PUSH1 0x5 SLOAD PUSH0 SWAP1 PUSH1 0x1 PUSH1 0x1 PUSH1 0xA0 SHL SUB AND CALLER EQ PUSH2 0x1BF2 JUMPI PUSH1 0x40 MLOAD PUSH4 0xEA8E4EB5 PUSH1 0xE0 SHL DUP2 MSTORE PUSH1 0x4 ADD PUSH1 0x40 MLOAD DUP1 SWAP2 SUB SWAP1 REVERT JUMPDEST PUSH1 0x1 PUSH1 0x1 PUSH1 0xA0 SHL SUB DUP8 AND ISZERO DUP1 PUSH2 0x1C10 JUMPI POP PUSH1 0x1 PUSH1 0x1 PUSH1 0xA0 SHL SUB DUP8 AND ADDRESS EQ JUMPDEST ISZERO PUSH2 0x1C2E JUMPI PUSH1 0x40 MLOAD PUSH4 0xE6C4247B PUSH1 0xE0 SHL DUP2 MSTORE PUSH1 0x4 ADD PUSH1 0x40 MLOAD DUP1 SWAP2 SUB SWAP1 REVERT JUMPDEST PUSH0 DUP5 GT PUSH2 0x1C4E JUMPI PUSH1 0x40 MLOAD PUSH4 0x1F2A2005 PUSH1 0xE0 SHL DUP2 MSTORE PUSH1 0x4 ADD PUSH1 0x40 MLOAD DUP1 SWAP2 SUB SWAP1 REVERT JUMPDEST PUSH1 0x1 DUP4 PUSH1 0xFF AND GT ISZERO PUSH2 0x1C73 JUMPI PUSH1 0x40 MLOAD PUSH4 0x31E6AA91 PUSH1 0xE2 SHL DUP2 MSTORE PUSH1 0x4 ADD PUSH1 0x40 MLOAD DUP1 SWAP2 SUB SWAP1 REVERT JUMPDEST PUSH1 0x1 PUSH1 0x1 PUSH1 0x58 SHL SUB DUP7 AND ISZERO DUP1 PUSH2 0x1C90 JUMPI POP PUSH1 0x1 PUSH1 0x1 PUSH1 0x58 SHL SUB DUP6 AND ISZERO JUMPDEST ISZERO PUSH2 0x1CAE JUMPI PUSH1 0x40 MLOAD PUSH4 0x6A43F8D1 PUSH1 0xE0 SHL DUP2 MSTORE PUSH1 0x4 ADD PUSH1 0x40 MLOAD DUP1 SWAP2 SUB SWAP1 REVERT JUMPDEST DUP2 PUSH1 0xFF AND PUSH0 SUB PUSH2 0x1CD1 JUMPI PUSH1 0x40 MLOAD PUSH4 0x1F2A2005 PUSH1 0xE0 SHL DUP2 MSTORE PUSH1 0x4 ADD PUSH1 0x40 MLOAD DUP1 SWAP2 SUB SWAP1 REVERT JUMPDEST PUSH0 TIMESTAMP PUSH3 0x15180 ADD SWAP1 POP PUSH1 0x40 MLOAD DUP1 PUSH1 0xC0 ADD PUSH1 0x40 MSTORE DUP1 DUP7 DUP2 MSTORE PUSH1 0x20 ADD DUP9 PUSH1 0x1 PUSH1 0x1 PUSH1 0x58 SHL SUB AND DUP2 MSTORE PUSH1 0x20 ADD DUP8 PUSH1 0x1 PUSH1 0x1 PUSH1 0x58 SHL SUB AND DUP2 MSTORE PUSH1 0x20 ADD DUP3 PUSH1 0x1 PUSH1 0x1 PUSH1 0x40 SHL SUB AND DUP2 MSTORE PUSH1 0x20 ADD DUP5 PUSH1 0xFF AND DUP2 MSTORE PUSH1 0x20 ADD DUP6 PUSH1 0xFF AND DUP2 MSTORE POP PUSH1 0x9 PUSH0 DUP11 PUSH1 0x1 PUSH1 0x1 PUSH1 0xA0 SHL SUB AND PUSH1 0x1 PUSH1 0x1 PUSH1 0xA0 SHL SUB AND DUP2 MSTORE PUSH1 0x20 ADD SWAP1 DUP2 MSTORE PUSH1 0x20 ADD PUSH0 KECCAK256 PUSH0 DUP3 ADD MLOAD DUP2 PUSH0 ADD SSTORE PUSH1 0x20 DUP3 ADD MLOAD DUP2 PUSH1 0x1 ADD PUSH0 PUSH2 0x100 EXP DUP2 SLOAD DUP2 PUSH1 0x1 PUSH1 0x1 PUSH1 0x58 SHL SUB MUL NOT AND SWAP1 DUP4 PUSH1 0x1 PUSH1 0x1 PUSH1 0x58 SHL SUB AND MUL OR SWAP1 SSTORE POP PUSH1 0x40 DUP3 ADD MLOAD DUP2 PUSH1 0x1 ADD PUSH1 0xB PUSH2 0x100 EXP DUP2 SLOAD DUP2 PUSH1 0x1 PUSH1 0x1 PUSH1 0x58 SHL SUB MUL NOT AND SWAP1 DUP4 PUSH1 0x1 PUSH1 0x1 PUSH1 0x58 SHL SUB AND MUL OR SWAP1 SSTORE POP PUSH1 0x60 DUP3 ADD MLOAD DUP2 PUSH1 0x1 ADD PUSH1 0x16 PUSH2 0x100 EXP DUP2 SLOAD DUP2 PUSH1 0x1 PUSH1 0x1 PUSH1 0x40 SHL SUB MUL NOT AND SWAP1 DUP4 PUSH1 0x1 PUSH1 0x1 PUSH1 0x40 SHL SUB AND MUL OR SWAP1 SSTORE POP PUSH1 0x80 DUP3 ADD MLOAD DUP2 PUSH1 0x1 ADD PUSH1 0x1E PUSH2 0x100 EXP DUP2 SLOAD DUP2 PUSH1 0xFF MUL NOT AND SWAP1 DUP4 PUSH1 0xFF AND MUL OR SWAP1 SSTORE POP PUSH1 0xA0 DUP3 ADD MLOAD DUP2 PUSH1 0x1 ADD PUSH1 0x1F PUSH2 0x100 EXP DUP2 SLOAD DUP2 PUSH1 0xFF MUL NOT AND SWAP1 DUP4 PUSH1 0xFF AND MUL OR SWAP1 SSTORE POP SWAP1 POP POP DUP8 PUSH1 0x1 PUSH1 0x1 PUSH1 0xA0 SHL SUB AND PUSH32 0x79DCF314C842EC4729CC5B9FA3F984E9D0D89A59AD3716AAA1B58EF8B646B539 DUP9 DUP9 DUP9 PUSH1 0x40 MLOAD PUSH2 0x1E7A SWAP4 SWAP3 SWAP2 SWAP1 PUSH1 0x1 PUSH1 0x1 PUSH1 0x58 SHL SUB SWAP4 DUP5 AND DUP2 MSTORE SWAP2 SWAP1 SWAP3 AND PUSH1 0x20 DUP3 ADD MSTORE PUSH1 0x40 DUP2 ADD SWAP2 SWAP1 SWAP2 MSTORE PUSH1 0x60 ADD SWAP1 JUMP JUMPDEST PUSH1 0x40 MLOAD DUP1 SWAP2 SUB SWAP1 LOG2 POP PUSH1 0x1 SWAP8 SWAP7 POP POP POP POP POP POP POP JUMP JUMPDEST PUSH1 0x5 SLOAD PUSH1 0x1 PUSH1 0x1 PUSH1 0xA0 SHL SUB AND CALLER EQ PUSH2 0x1EBB JUMPI PUSH1 0x40 MLOAD PUSH4 0xEA8E4EB5 PUSH1 0xE0 SHL DUP2 MSTORE PUSH1 0x4 ADD PUSH1 0x40 MLOAD DUP1 SWAP2 SUB SWAP1 REVERT JUMPDEST PUSH1 0x1 PUSH1 0x6 PUSH0 DUP4 PUSH1 0x4 DUP2 GT ISZERO PUSH2 0x1ED2 JUMPI PUSH2 0x1ED2 PUSH2 0x261C JUMP JUMPDEST PUSH1 0x4 DUP2 GT ISZERO PUSH2 0x1EE3 JUMPI PUSH2 0x1EE3 PUSH2 0x261C JUMP JUMPDEST DUP2 MSTORE PUSH1 0x20 DUP2 ADD SWAP2 SWAP1 SWAP2 MSTORE PUSH1 0x40 ADD PUSH0 KECCAK256 DUP1 SLOAD PUSH1 0xFF NOT AND SWAP2 ISZERO ISZERO SWAP2 SWAP1 SWAP2 OR SWAP1 SSTORE CALLER DUP2 PUSH1 0x4 DUP2 GT ISZERO PUSH2 0x1F14 JUMPI PUSH2 0x1F14 PUSH2 0x261C JUMP JUMPDEST PUSH1 0x40 MLOAD PUSH32 0xC230972CB0D03D9B32F1BA24AB2D3BCB8BF7638B48D389FCD9886CBD71E6E54C SWAP1 PUSH0 SWAP1 LOG3 POP JUMP JUMPDEST PUSH1 0x5 SLOAD PUSH1 0x1 PUSH1 0x1 PUSH1 0xA0 SHL SUB AND CALLER EQ PUSH2 0x1F6A JUMPI PUSH1 0x40 MLOAD PUSH4 0xEA8E4EB5 PUSH1 0xE0 SHL DUP2 MSTORE PUSH1 0x4 ADD PUSH1 0x40 MLOAD DUP1 SWAP2 SUB SWAP1 REVERT JUMPDEST PUSH1 0x1 PUSH1 0x1 PUSH1 0xA0 SHL SUB DUP2 AND PUSH2 0x1F91 JUMPI PUSH1 0x40 MLOAD PUSH4 0xE6C4247B PUSH1 0xE0 SHL DUP2 MSTORE PUSH1 0x4 ADD PUSH1 0x40 MLOAD DUP1 SWAP2 SUB SWAP1 REVERT JUMPDEST PUSH1 0x5 DUP1 SLOAD PUSH1 0x1 PUSH1 0x1 PUSH1 0xA0 SHL SUB NOT AND PUSH1 0x1 PUSH1 0x1 PUSH1 0xA0 SHL SUB SWAP3 SWAP1 SWAP3 AND SWAP2 SWAP1 SWAP2 OR SWAP1 SSTORE JUMP JUMPDEST PUSH1 0x1 PUSH1 0x1 PUSH1 0xA0 SHL SUB DUP3 AND PUSH2 0x1FDC JUMPI PUSH1 0x40 MLOAD PUSH4 0x4B637E8F PUSH1 0xE1 SHL DUP2 MSTORE PUSH0 PUSH1 0x4 DUP3 ADD MSTORE PUSH1 0x24 ADD PUSH2 0x864 JUMP JUMPDEST PUSH2 0x1FE7 DUP3 PUSH0 DUP4 PUSH2 0x214E JUMP JUMPDEST POP POP JUMP JUMPDEST PUSH2 0x1FF8 DUP4 DUP4 DUP4 PUSH1 0x1 PUSH2 0x2274 JUMP JUMPDEST POP POP POP JUMP JUMPDEST PUSH1 0x1 PUSH1 0x1 PUSH1 0xA0 SHL SUB DUP4 DUP2 AND PUSH0 SWAP1 DUP2 MSTORE PUSH1 0x1 PUSH1 0x20 SWAP1 DUP2 MSTORE PUSH1 0x40 DUP1 DUP4 KECCAK256 SWAP4 DUP7 AND DUP4 MSTORE SWAP3 SWAP1 MSTORE KECCAK256 SLOAD PUSH0 NOT DUP2 LT ISZERO PUSH2 0x2073 JUMPI DUP2 DUP2 LT ISZERO PUSH2 0x2065 JUMPI PUSH1 0x40 MLOAD PUSH4 0x7DC7A0D9 PUSH1 0xE1 SHL DUP2 MSTORE PUSH1 0x1 PUSH1 0x1 PUSH1 0xA0 SHL SUB DUP5 AND PUSH1 0x4 DUP3 ADD MSTORE PUSH1 0x24 DUP2 ADD DUP3 SWAP1 MSTORE PUSH1 0x44 DUP2 ADD DUP4 SWAP1 MSTORE PUSH1 0x64 ADD PUSH2 0x864 JUMP JUMPDEST PUSH2 0x2073 DUP5 DUP5 DUP5 DUP5 SUB PUSH0 PUSH2 0x2274 JUMP JUMPDEST POP POP POP POP JUMP JUMPDEST PUSH1 0x1 PUSH1 0x1 PUSH1 0xA0 SHL SUB DUP4 AND PUSH2 0x20A2 JUMPI PUSH1 0x40 MLOAD PUSH4 0x4B637E8F PUSH1 0xE1 SHL DUP2 MSTORE PUSH0 PUSH1 0x4 DUP3 ADD MSTORE PUSH1 0x24 ADD PUSH2 0x864 JUMP JUMPDEST PUSH1 0x1 PUSH1 0x1 PUSH1 0xA0 SHL SUB DUP3 AND PUSH2 0x20CB JUMPI PUSH1 0x40 MLOAD PUSH4 0xEC442F05 PUSH1 0xE0 SHL DUP2 MSTORE PUSH0 PUSH1 0x4 DUP3 ADD MSTORE PUSH1 0x24 ADD PUSH2 0x864 JUMP JUMPDEST PUSH2 0x1FF8 DUP4 DUP4 DUP4 PUSH2 0x214E JUMP JUMPDEST PUSH0 DUP2 PUSH2 0x20E1 PUSH1 0x2 SLOAD SWAP1 JUMP JUMPDEST PUSH2 0x20EB SWAP2 SWAP1 PUSH2 0x274A JUMP JUMPDEST SWAP1 POP PUSH13 0xC9F2C9CD04674EDEA40000000 DUP2 GT ISZERO PUSH2 0x2144 JUMPI DUP2 PUSH13 0xC9F2C9CD04674EDEA40000000 PUSH2 0x211A PUSH1 0x2 SLOAD SWAP1 JUMP JUMPDEST PUSH1 0x40 MLOAD PUSH4 0x1D44F5D5 PUSH1 0xE3 SHL DUP2 MSTORE PUSH1 0x4 DUP2 ADD SWAP4 SWAP1 SWAP4 MSTORE PUSH1 0x24 DUP4 ADD SWAP2 SWAP1 SWAP2 MSTORE PUSH1 0x44 DUP3 ADD MSTORE PUSH1 0x64 ADD PUSH2 0x864 JUMP JUMPDEST PUSH2 0x1FF8 DUP4 DUP4 PUSH2 0x2346 JUMP JUMPDEST PUSH1 0x1 PUSH1 0x1 PUSH1 0xA0 SHL SUB DUP4 AND PUSH2 0x2178 JUMPI DUP1 PUSH1 0x2 PUSH0 DUP3 DUP3 SLOAD PUSH2 0x216D SWAP2 SWAP1 PUSH2 0x274A JUMP JUMPDEST SWAP1 SWAP2 SSTORE POP PUSH2 0x21E8 SWAP1 POP JUMP JUMPDEST PUSH1 0x1 PUSH1 0x1 PUSH1 0xA0 SHL SUB DUP4 AND PUSH0 SWAP1 DUP2 MSTORE PUSH1 0x20 DUP2 SWAP1 MSTORE PUSH1 0x40 SWAP1 KECCAK256 SLOAD DUP2 DUP2 LT ISZERO PUSH2 0x21CA JUMPI PUSH1 0x40 MLOAD PUSH4 0x391434E3 PUSH1 0xE2 SHL DUP2 MSTORE PUSH1 0x1 PUSH1 0x1 PUSH1 0xA0 SHL SUB DUP6 AND PUSH1 0x4 DUP3 ADD MSTORE PUSH1 0x24 DUP2 ADD DUP3 SWAP1 MSTORE PUSH1 0x44 DUP2 ADD DUP4 SWAP1 MSTORE PUSH1 0x64 ADD PUSH2 0x864 JUMP JUMPDEST PUSH1 0x1 PUSH1 0x1 PUSH1 0xA0 SHL SUB DUP5 AND PUSH0 SWAP1 DUP2 MSTORE PUSH1 0x20 DUP2 SWAP1 MSTORE PUSH1 0x40 SWAP1 KECCAK256 SWAP1 DUP3 SWAP1 SUB SWAP1 SSTORE JUMPDEST PUSH1 0x1 PUSH1 0x1 PUSH1 0xA0 SHL SUB DUP3 AND PUSH2 0x2204 JUMPI PUSH1 0x2 DUP1 SLOAD DUP3 SWAP1 SUB SWAP1 SSTORE PUSH2 0x2222 JUMP JUMPDEST PUSH1 0x1 PUSH1 0x1 PUSH1 0xA0 SHL SUB DUP3 AND PUSH0 SWAP1 DUP2 MSTORE PUSH1 0x20 DUP2 SWAP1 MSTORE PUSH1 0x40 SWAP1 KECCAK256 DUP1 SLOAD DUP3 ADD SWAP1 SSTORE JUMPDEST DUP2 PUSH1 0x1 PUSH1 0x1 PUSH1 0xA0 SHL SUB AND DUP4 PUSH1 0x1 PUSH1 0x1 PUSH1 0xA0 SHL SUB AND PUSH32 0xDDF252AD1BE2C89B69C2B068FC378DAA952BA7F163C4A11628F55A4DF523B3EF DUP4 PUSH1 0x40 MLOAD PUSH2 0x2267 SWAP2 DUP2 MSTORE PUSH1 0x20 ADD SWAP1 JUMP JUMPDEST PUSH1 0x40 MLOAD DUP1 SWAP2 SUB SWAP1 LOG3 POP POP POP JUMP JUMPDEST PUSH1 0x1 PUSH1 0x1 PUSH1 0xA0 SHL SUB DUP5 AND PUSH2 0x229D JUMPI PUSH1 0x40 MLOAD PUSH4 0xE602DF05 PUSH1 0xE0 SHL DUP2 MSTORE PUSH0 PUSH1 0x4 DUP3 ADD MSTORE PUSH1 0x24 ADD PUSH2 0x864 JUMP JUMPDEST PUSH1 0x1 PUSH1 0x1 PUSH1 0xA0 SHL SUB DUP4 AND PUSH2 0x22C6 JUMPI PUSH1 0x40 MLOAD PUSH4 0x4A1406B1 PUSH1 0xE1 SHL DUP2 MSTORE PUSH0 PUSH1 0x4 DUP3 ADD MSTORE PUSH1 0x24 ADD PUSH2 0x864 JUMP JUMPDEST PUSH1 0x1 PUSH1 0x1 PUSH1 0xA0 SHL SUB DUP1 DUP6 AND PUSH0 SWAP1 DUP2 MSTORE PUSH1 0x1 PUSH1 0x20 SWAP1 DUP2 MSTORE PUSH1 0x40 DUP1 DUP4 KECCAK256 SWAP4 DUP8 AND DUP4 MSTORE SWAP3 SWAP1 MSTORE KECCAK256 DUP3 SWAP1 SSTORE DUP1 ISZERO PUSH2 0x2073 JUMPI DUP3 PUSH1 0x1 PUSH1 0x1 PUSH1 0xA0 SHL SUB AND DUP5 PUSH1 0x1 PUSH1 0x1 PUSH1 0xA0 SHL SUB AND PUSH32 0x8C5BE1E5EBEC7D5BD14F71427D1E84F3DD0314C0F7B2291E5B200AC8C7C3B925 DUP5 PUSH1 0x40 MLOAD PUSH2 0x2338 SWAP2 DUP2 MSTORE PUSH1 0x20 ADD SWAP1 JUMP JUMPDEST PUSH1 0x40 MLOAD DUP1 SWAP2 SUB SWAP1 LOG3 POP POP POP POP JUMP JUMPDEST PUSH1 0x1 PUSH1 0x1 PUSH1 0xA0 SHL SUB DUP3 AND PUSH2 0x236F JUMPI PUSH1 0x40 MLOAD PUSH4 0xEC442F05 PUSH1 0xE0 SHL DUP2 MSTORE PUSH0 PUSH1 0x4 DUP3 ADD MSTORE PUSH1 0x24 ADD PUSH2 0x864 JUMP JUMPDEST PUSH2 0x1FE7 PUSH0 DUP4 DUP4 PUSH2 0x214E JUMP JUMPDEST DUP1 CALLDATALOAD PUSH1 0x1 PUSH1 0x1 PUSH1 0xA0 SHL SUB DUP2 AND DUP2 EQ PUSH2 0x2390 JUMPI PUSH0 DUP1 REVERT JUMPDEST SWAP2 SWAP1 POP JUMP JUMPDEST PUSH0 DUP1 PUSH1 0x40 DUP4 DUP6 SUB SLT ISZERO PUSH2 0x23A6 JUMPI PUSH0 DUP1 REVERT JUMPDEST PUSH2 0x23AF DUP4 PUSH2 0x237A JUMP JUMPDEST SWAP5 PUSH1 0x20 SWAP4 SWAP1 SWAP4 ADD CALLDATALOAD SWAP4 POP POP POP JUMP JUMPDEST PUSH0 JUMPDEST DUP4 DUP2 LT ISZERO PUSH2 0x23D7 JUMPI DUP2 DUP2 ADD MLOAD DUP4 DUP3 ADD MSTORE PUSH1 0x20 ADD PUSH2 0x23BF JUMP JUMPDEST POP POP PUSH0 SWAP2 ADD MSTORE JUMP JUMPDEST PUSH1 0x20 DUP2 MSTORE PUSH0 DUP3 MLOAD DUP1 PUSH1 0x20 DUP5 ADD MSTORE PUSH2 0x23FD DUP2 PUSH1 0x40 DUP6 ADD PUSH1 0x20 DUP8 ADD PUSH2 0x23BD JUMP JUMPDEST PUSH1 0x1F ADD PUSH1 0x1F NOT AND SWAP2 SWAP1 SWAP2 ADD PUSH1 0x40 ADD SWAP3 SWAP2 POP POP JUMP JUMPDEST PUSH0 DUP1 PUSH0 PUSH1 0x60 DUP5 DUP7 SUB SLT ISZERO PUSH2 0x2423 JUMPI PUSH0 DUP1 REVERT JUMPDEST PUSH2 0x242C DUP5 PUSH2 0x237A JUMP JUMPDEST SWAP3 POP PUSH2 0x243A PUSH1 0x20 DUP6 ADD PUSH2 0x237A JUMP JUMPDEST SWAP2 POP PUSH1 0x40 DUP5 ADD CALLDATALOAD SWAP1 POP SWAP3 POP SWAP3 POP SWAP3 JUMP JUMPDEST PUSH0 PUSH1 0x20 DUP3 DUP5 SUB SLT ISZERO PUSH2 0x245A JUMPI PUSH0 DUP1 REVERT JUMPDEST POP CALLDATALOAD SWAP2 SWAP1 POP JUMP JUMPDEST PUSH0 DUP1 PUSH1 0x40 DUP4 DUP6 SUB SLT ISZERO PUSH2 0x2472 JUMPI PUSH0 DUP1 REVERT JUMPDEST DUP3 CALLDATALOAD SWAP2 POP PUSH1 0x20 DUP4 ADD CALLDATALOAD PUSH1 0x1 PUSH1 0x1 PUSH1 0x40 SHL SUB DUP2 AND DUP2 EQ PUSH2 0x248F JUMPI PUSH0 DUP1 REVERT JUMPDEST DUP1 SWAP2 POP POP SWAP3 POP SWAP3 SWAP1 POP JUMP JUMPDEST PUSH0 PUSH1 0x20 DUP3 DUP5 SUB SLT ISZERO PUSH2 0x24AA JUMPI PUSH0 DUP1 REVERT JUMPDEST PUSH2 0x142F DUP3 PUSH2 0x237A JUMP JUMPDEST PUSH0 PUSH1 0x20 DUP3 DUP5 SUB SLT ISZERO PUSH2 0x24C3 JUMPI PUSH0 DUP1 REVERT JUMPDEST DUP2 CALLDATALOAD PUSH1 0x5 DUP2 LT PUSH2 0x142F JUMPI PUSH0 DUP1 REVERT JUMPDEST PUSH0 DUP1 PUSH0 DUP1 PUSH0 PUSH1 0x80 DUP7 DUP9 SUB SLT ISZERO PUSH2 0x24E5 JUMPI PUSH0 DUP1 REVERT JUMPDEST PUSH2 0x24EE DUP7 PUSH2 0x237A JUMP JUMPDEST SWAP5 POP PUSH1 0x20 DUP7 ADD CALLDATALOAD SWAP4 POP PUSH1 0x40 DUP7 ADD CALLDATALOAD SWAP3 POP PUSH1 0x60 DUP7 ADD CALLDATALOAD PUSH1 0x1 PUSH1 0x1 PUSH1 0x40 SHL SUB DUP1 DUP3 GT ISZERO PUSH2 0x2517 JUMPI PUSH0 DUP1 REVERT JUMPDEST DUP2 DUP9 ADD SWAP2 POP DUP9 PUSH1 0x1F DUP4 ADD SLT PUSH2 0x252A JUMPI PUSH0 DUP1 REVERT JUMPDEST DUP2 CALLDATALOAD DUP2 DUP2 GT ISZERO PUSH2 0x2538 JUMPI PUSH0 DUP1 REVERT JUMPDEST DUP10 PUSH1 0x20 DUP3 DUP6 ADD ADD GT ISZERO PUSH2 0x2549 JUMPI PUSH0 DUP1 REVERT JUMPDEST SWAP7 SWAP10 SWAP6 SWAP9 POP SWAP4 SWAP7 POP PUSH1 0x20 ADD SWAP5 SWAP4 SWAP3 POP POP POP JUMP JUMPDEST DUP1 CALLDATALOAD PUSH1 0x1 PUSH1 0x1 PUSH1 0x58 SHL SUB DUP2 AND DUP2 EQ PUSH2 0x2390 JUMPI PUSH0 DUP1 REVERT JUMPDEST DUP1 CALLDATALOAD PUSH1 0xFF DUP2 AND DUP2 EQ PUSH2 0x2390 JUMPI PUSH0 DUP1 REVERT JUMPDEST PUSH0 DUP1 PUSH0 DUP1 PUSH0 DUP1 PUSH1 0xC0 DUP8 DUP10 SUB SLT ISZERO PUSH2 0x2597 JUMPI PUSH0 DUP1 REVERT JUMPDEST PUSH2 0x25A0 DUP8 PUSH2 0x237A JUMP JUMPDEST SWAP6 POP PUSH2 0x25AE PUSH1 0x20 DUP9 ADD PUSH2 0x255C JUMP JUMPDEST SWAP5 POP PUSH2 0x25BC PUSH1 0x40 DUP9 ADD PUSH2 0x255C JUMP JUMPDEST SWAP4 POP PUSH1 0x60 DUP8 ADD CALLDATALOAD SWAP3 POP PUSH2 0x25D1 PUSH1 0x80 DUP9 ADD PUSH2 0x2572 JUMP JUMPDEST SWAP2 POP PUSH2 0x25DF PUSH1 0xA0 DUP9 ADD PUSH2 0x2572 JUMP JUMPDEST SWAP1 POP SWAP3 SWAP6 POP SWAP3 SWAP6 POP SWAP3 SWAP6 JUMP JUMPDEST PUSH0 DUP1 PUSH1 0x40 DUP4 DUP6 SUB SLT ISZERO PUSH2 0x25FC JUMPI PUSH0 DUP1 REVERT JUMPDEST PUSH2 0x2605 DUP4 PUSH2 0x237A JUMP JUMPDEST SWAP2 POP PUSH2 0x2613 PUSH1 0x20 DUP5 ADD PUSH2 0x237A JUMP JUMPDEST SWAP1 POP SWAP3 POP SWAP3 SWAP1 POP JUMP JUMPDEST PUSH4 0x4E487B71 PUSH1 0xE0 SHL PUSH0 MSTORE PUSH1 0x21 PUSH1 0x4 MSTORE PUSH1 0x24 PUSH0 REVERT JUMPDEST PUSH1 0x20 DUP1 DUP3 MSTORE PUSH1 0x1F SWAP1 DUP3 ADD MSTORE PUSH32 0x5265656E7472616E637947756172643A207265656E7472616E742063616C6C00 PUSH1 0x40 DUP3 ADD MSTORE PUSH1 0x60 ADD SWAP1 JUMP JUMPDEST PUSH4 0x4E487B71 PUSH1 0xE0 SHL PUSH0 MSTORE PUSH1 0x12 PUSH1 0x4 MSTORE PUSH1 0x24 PUSH0 REVERT JUMPDEST PUSH4 0x4E487B71 PUSH1 0xE0 SHL PUSH0 MSTORE PUSH1 0x11 PUSH1 0x4 MSTORE PUSH1 0x24 PUSH0 REVERT JUMPDEST PUSH0 DUP3 PUSH2 0x26A9 JUMPI PUSH4 0x4E487B71 PUSH1 0xE0 SHL PUSH0 MSTORE PUSH1 0x12 PUSH1 0x4 MSTORE PUSH1 0x24 PUSH0 REVERT JUMPDEST POP DIV SWAP1 JUMP JUMPDEST PUSH0 DUP3 MLOAD PUSH2 0x26BF DUP2 DUP5 PUSH1 0x20 DUP8 ADD PUSH2 0x23BD JUMP JUMPDEST SWAP2 SWAP1 SWAP2 ADD SWAP3 SWAP2 POP POP JUMP JUMPDEST PUSH0 PUSH1 0x20 DUP3 DUP5 SUB SLT ISZERO PUSH2 0x26D9 JUMPI PUSH0 DUP1 REVERT JUMPDEST DUP2 MLOAD DUP1 ISZERO ISZERO DUP2 EQ PUSH2 0x142F JUMPI PUSH0 DUP1 REVERT JUMPDEST PUSH1 0x1 DUP2 DUP2 SHR SWAP1 DUP3 AND DUP1 PUSH2 0x26FC JUMPI PUSH1 0x7F DUP3 AND SWAP2 POP JUMPDEST PUSH1 0x20 DUP3 LT DUP2 SUB PUSH2 0x271A JUMPI PUSH4 0x4E487B71 PUSH1 0xE0 SHL PUSH0 MSTORE PUSH1 0x22 PUSH1 0x4 MSTORE PUSH1 0x24 PUSH0 REVERT JUMPDEST POP SWAP2 SWAP1 POP JUMP JUMPDEST DUP2 DUP2 SUB DUP2 DUP2 GT ISZERO PUSH2 0xCB6 JUMPI PUSH2 0xCB6 PUSH2 0x267B JUMP JUMPDEST DUP1 DUP3 MUL DUP2 ISZERO DUP3 DUP3 DIV DUP5 EQ OR PUSH2 0xCB6 JUMPI PUSH2 0xCB6 PUSH2 0x267B JUMP JUMPDEST DUP1 DUP3 ADD DUP1 DUP3 GT ISZERO PUSH2 0xCB6 JUMPI PUSH2 0xCB6 PUSH2 0x267B JUMP JUMPDEST DUP4 DUP2 MSTORE PUSH1 0x40 PUSH1 0x20 DUP3 ADD MSTORE DUP2 PUSH1 0x40 DUP3 ADD MSTORE DUP2 DUP4 PUSH1 0x60 DUP4 ADD CALLDATACOPY PUSH0 DUP2 DUP4 ADD PUSH1 0x60 SWAP1 DUP2 ADD SWAP2 SWAP1 SWAP2 MSTORE PUSH1 0x1F SWAP1 SWAP3 ADD PUSH1 0x1F NOT AND ADD ADD SWAP3 SWAP2 POP POP JUMP INVALID LOG2 PUSH5 0x6970667358 0x22 SLT KECCAK256 BYTE 0xAB CODECOPY SWAP9 LOG2 MULMOD PUSH9 0xD8FD126D688C4CDCEA 0xCB 0xEC SAR SELFDESTRUCT 0x4F 0xCE PUSH19 0x9DC0CF247E126F859064736F6C634300081800 CALLER "
    },
    "gasEstimates": {
      "creation": {
        "codeDepositCost": "2036800",
        "executionCost": "infinite",
        "totalCost": "infinite"
      },
      "external": {
        "allowance(address,address)": "infinite",
        "approve(address,uint256)": "24825",
        "balanceOf(address)": "2593",
        "burn(uint256)": "56850",
        "calculateEarnedTokens(address)": "infinite",
        "checkIsOwner(address)": "2601",
        "claimReward()": "infinite",
        "decimals()": "288",
        "exchangeFRForToken(address,uint256)": "infinite",
        "getRate(uint256)": "infinite",
        "getUserStakeInfo(address)": "7213",
        "mintContributorReward(address,uint256,uint256,string)": "infinite",
        "name()": "infinite",
        "owner()": "2404",
        "pause()": "27712",
        "pauseModule(uint8)": "28401",
        "paused()": "2371",
        "pausedModules(uint8)": "2541",
        "renounceOwnership()": "26602",
        "requestUnstake(uint256,uint64)": "infinite",
        "setTokenExchangeRate(address,uint88,uint88,uint256,uint8,uint8)": "infinite",
        "stake(uint256)": "infinite",
        "stakedToken()": "infinite",
        "symbol()": "infinite",
        "tokenExchangeInfo(address)": "5040",
        "totalStaked()": "2416",
        "totalSupply()": "2326",
        "totalUnstaking()": "2352",
        "transfer(address,uint256)": "51283",
        "transferFrom(address,address,uint256)": "infinite",
        "transferOwnership(address)": "26876",
        "unpause()": "27700",
        "unpauseModule(uint8)": "28423",
        "unstake()": "infinite"
      },
      "internal": {
        "_customMint(address,uint256)": "infinite"
      }
    },
    "methodIdentifiers": {
      "allowance(address,address)": "dd62ed3e",
      "approve(address,uint256)": "095ea7b3",
      "balanceOf(address)": "70a08231",
      "burn(uint256)": "42966c68",
      "calculateEarnedTokens(address)": "afc92dd1",
      "checkIsOwner(address)": "dc467f8e",
      "claimReward()": "b88a802f",
      "decimals()": "313ce567",
      "exchangeFRForToken(address,uint256)": "0587b20a",
      "getRate(uint256)": "57764094",
      "getUserStakeInfo(address)": "c32d3ae2",
      "mintContributorReward(address,uint256,uint256,string)": "9c8156ce",
      "name()": "06fdde03",
      "owner()": "8da5cb5b",
      "pause()": "8456cb59",
      "pauseModule(uint8)": "eba1e3d2",
      "paused()": "5c975abb",
      "pausedModules(uint8)": "e4f7b494",
      "renounceOwnership()": "715018a6",
      "requestUnstake(uint256,uint64)": "54b9c884",
      "setTokenExchangeRate(address,uint88,uint88,uint256,uint8,uint8)": "d7db2159",
      "stake(uint256)": "a694fc3a",
      "stakedToken()": "cc7a262e",
      "symbol()": "95d89b41",
      "tokenExchangeInfo(address)": "ec7e6a57",
      "totalStaked()": "817b1cd2",
      "totalSupply()": "18160ddd",
      "totalUnstaking()": "0698607d",
      "transfer(address,uint256)": "a9059cbb",
      "transferFrom(address,address,uint256)": "23b872dd",
      "transferOwnership(address)": "f2fde38b",
      "unpause()": "3f4ba83a",
      "unpauseModule(uint8)": "759e882d",
      "unstake()": "2def6620"
    }
  },
  "storageLayout": {
    "storage": [
      {
        "astId": 1715,
        "contract": "FairStakeToken.sol:FairStakeToken",
        "label": "_balances",
        "offset": 0,
        "slot": "0",
        "type": "t_mapping(t_address,t_uint256)"
      },
      {
        "astId": 1721,
        "contract": "FairStakeToken.sol:FairStakeToken",
        "label": "_allowances",
        "offset": 0,
        "slot": "1",
        "type": "t_mapping(t_address,t_mapping(t_address,t_uint256))"
      },
      {
        "astId": 1723,
        "contract": "FairStakeToken.sol:FairStakeToken",
        "label": "_totalSupply",
        "offset": 0,
        "slot": "2",
        "type": "t_uint256"
      },
      {
        "astId": 1725,
        "contract": "FairStakeToken.sol:FairStakeToken",
        "label": "_name",
        "offset": 0,
        "slot": "3",
        "type": "t_string_storage"
      },
      {
        "astId": 1727,
        "contract": "FairStakeToken.sol:FairStakeToken",
        "label": "_symbol",
        "offset": 0,
        "slot": "4",
        "type": "t_string_storage"
      },
      {
        "astId": 91,
        "contract": "FairStakeToken.sol:FairStakeToken",
        "label": "owner",
        "offset": 0,
        "slot": "5",
        "type": "t_address"
      },
      {
        "astId": 94,
        "contract": "FairStakeToken.sol:FairStakeToken",
        "label": "paused",
        "offset": 20,
        "slot": "5",
        "type": "t_bool"
      },
      {
        "astId": 107,
        "contract": "FairStakeToken.sol:FairStakeToken",
        "label": "pausedModules",
        "offset": 0,
        "slot": "6",
        "type": "t_mapping(t_enum(FunctionModule)101,t_bool)"
      },
      {
        "astId": 110,
        "contract": "FairStakeToken.sol:FairStakeToken",
        "label": "totalStaked",
        "offset": 0,
        "slot": "7",
        "type": "t_uint256"
      },
      {
        "astId": 113,
        "contract": "FairStakeToken.sol:FairStakeToken",
        "label": "totalUnstaking",
        "offset": 0,
        "slot": "8",
        "type": "t_uint256"
      },
      {
        "astId": 154,
        "contract": "FairStakeToken.sol:FairStakeToken",
        "label": "tokenExchangeInfo",
        "offset": 0,
        "slot": "9",
        "type": "t_mapping(t_address,t_struct(TokenExchangeInfo)148_storage)"
      },
      {
        "astId": 179,
        "contract": "FairStakeToken.sol:FairStakeToken",
        "label": "stakes",
        "offset": 0,
        "slot": "10",
        "type": "t_mapping(t_address,t_struct(StakeInfo)174_storage)"
      },
      {
        "astId": 445,
        "contract": "FairStakeToken.sol:FairStakeToken",
        "label": "_entered",
        "offset": 0,
        "slot": "11",
        "type": "t_bool"
      }
    ],
    "types": {
      "t_address": {
        "encoding": "inplace",
        "label": "address",
        "numberOfBytes": "20"
      },
      "t_bool": {
        "encoding": "inplace",
        "label": "bool",
        "numberOfBytes": "1"
      },
      "t_enum(FunctionModule)101": {
        "encoding": "inplace",
        "label": "enum FairStakeToken.FunctionModule",
        "numberOfBytes": "1"
      },
      "t_mapping(t_address,t_mapping(t_address,t_uint256))": {
        "encoding": "mapping",
        "key": "t_address",
        "label": "mapping(address => mapping(address => uint256))",
        "numberOfBytes": "32",
        "value": "t_mapping(t_address,t_uint256)"
      },
      "t_mapping(t_address,t_struct(StakeInfo)174_storage)": {
        "encoding": "mapping",
        "key": "t_address",
        "label": "mapping(address => struct FairStakeToken.StakeInfo)",
        "numberOfBytes": "32",
        "value": "t_struct(StakeInfo)174_storage"
      },
      "t_mapping(t_address,t_struct(TokenExchangeInfo)148_storage)": {
        "encoding": "mapping",
        "key": "t_address",
        "label": "mapping(address => struct FairStakeToken.TokenExchangeInfo)",
        "numberOfBytes": "32",
        "value": "t_struct(TokenExchangeInfo)148_storage"
      },
      "t_mapping(t_address,t_uint256)": {
        "encoding": "mapping",
        "key": "t_address",
        "label": "mapping(address => uint256)",
        "numberOfBytes": "32",
        "value": "t_uint256"
      },
      "t_mapping(t_enum(FunctionModule)101,t_bool)": {
        "encoding": "mapping",
        "key": "t_enum(FunctionModule)101",
        "label": "mapping(enum FairStakeToken.FunctionModule => bool)",
        "numberOfBytes": "32",
        "value": "t_bool"
      },
      "t_string_storage": {
        "encoding": "bytes",
        "label": "string",
        "numberOfBytes": "32"
      },
      "t_struct(StakeInfo)174_storage": {
        "encoding": "inplace",
        "label": "struct FairStakeToken.StakeInfo",
        "members": [
          {
            "astId": 158,
            "contract": "FairStakeToken.sol:FairStakeToken",
            "label": "amount",
            "offset": 0,
            "slot": "0",
            "type": "t_uint256"
          },
          {
            "astId": 161,
            "contract": "FairStakeToken.sol:FairStakeToken",
            "label": "unstakeRequestAmount",
            "offset": 0,
            "slot": "1",
            "type": "t_uint256"
          },
          {
            "astId": 164,
            "contract": "FairStakeToken.sol:FairStakeToken",
            "label": "startTime",
            "offset": 0,
            "slot": "2",
            "type": "t_uint64"
          },
          {
            "astId": 167,
            "contract": "FairStakeToken.sol:FairStakeToken",
            "label": "lastClaimed",
            "offset": 8,
            "slot": "2",
            "type": "t_uint64"
          },
          {
            "astId": 170,
            "contract": "FairStakeToken.sol:FairStakeToken",
            "label": "unstakeRequestTime",
            "offset": 16,
            "slot": "2",
            "type": "t_uint64"
          },
          {
            "astId": 173,
            "contract": "FairStakeToken.sol:FairStakeToken",
            "label": "unstakeWaitDays",
            "offset": 24,
            "slot": "2",
            "type": "t_uint64"
          }
        ],
        "numberOfBytes": "96"
      },
      "t_struct(TokenExchangeInfo)148_storage": {
        "encoding": "inplace",
        "label": "struct FairStakeToken.TokenExchangeInfo",
        "members": [
          {
            "astId": 132,
            "contract": "FairStakeToken.sol:FairStakeToken",
            "label": "remainingExchangeAmount",
            "offset": 0,
            "slot": "0",
            "type": "t_uint256"
          },
          {
            "astId": 135,
            "contract": "FairStakeToken.sol:FairStakeToken",
            "label": "rateNumerator",
            "offset": 0,
            "slot": "1",
            "type": "t_uint88"
          },
          {
            "astId": 138,
            "contract": "FairStakeToken.sol:FairStakeToken",
            "label": "rateDenominator",
            "offset": 11,
            "slot": "1",
            "type": "t_uint88"
          },
          {
            "astId": 141,
            "contract": "FairStakeToken.sol:FairStakeToken",
            "label": "startTime",
            "offset": 22,
            "slot": "1",
            "type": "t_uint64"
          },
          {
            "astId": 144,
            "contract": "FairStakeToken.sol:FairStakeToken",
            "label": "exchangeDurationWeeks",
            "offset": 30,
            "slot": "1",
            "type": "t_uint8"
          },
          {
            "astId": 147,
            "contract": "FairStakeToken.sol:FairStakeToken",
            "label": "transferType",
            "offset": 31,
            "slot": "1",
            "type": "t_uint8"
          }
        ],
        "numberOfBytes": "64"
      },
      "t_uint256": {
        "encoding": "inplace",
        "label": "uint256",
        "numberOfBytes": "32"
      },
      "t_uint64": {
        "encoding": "inplace",
        "label": "uint64",
        "numberOfBytes": "8"
      },
      "t_uint8": {
        "encoding": "inplace",
        "label": "uint8",
        "numberOfBytes": "1"
      },
      "t_uint88": {
        "encoding": "inplace",
        "label": "uint88",
        "numberOfBytes": "11"
      }
    }
  },
  "userdoc": {
    "kind": "user",
    "methods": {
      "constructor": {
        "notice": "Initializes the Fair Reward Token (FR) contract"
      },
      "getUserStakeInfo(address)": {
        "notice": "Get user stake information"
      },
      "paused()": {
        "notice": "true = paused, false = active"
      },
      "requestUnstake(uint256,uint64)": {
        "notice": "Request to unstake tokens, starting a waiting period"
      },
      "stake(uint256)": {
        "notice": "Stake tokens to start earning rewards"
      }
    },
    "version": 1
  }
}